{
  "address": "0x8a6460cA4d3A9663ecf6031E03b58fE84a0Cc753",
  "abi": [
    {
      "inputs": [],
      "name": "DelegatedCallsOnly",
      "type": "error"
    },
    {
      "inputs": [
        {
          "internalType": "address",
          "name": "who",
          "type": "address"
        },
        {
          "internalType": "bytes32",
          "name": "role",
          "type": "bytes32"
        }
      ],
      "name": "HasNoRole",
      "type": "error"
    },
    {
      "anonymous": false,
      "inputs": [
        {
          "indexed": false,
          "internalType": "uint8",
          "name": "version",
          "type": "uint8"
        }
      ],
      "name": "Initialized",
      "type": "event"
    },
    {
      "anonymous": false,
      "inputs": [
        {
          "indexed": true,
          "internalType": "uint256",
          "name": "amount",
          "type": "uint256"
        }
      ],
      "name": "RewardAdded",
      "type": "event"
    },
    {
      "anonymous": false,
      "inputs": [
        {
          "indexed": true,
          "internalType": "uint256",
          "name": "amount",
          "type": "uint256"
        }
      ],
      "name": "Staked",
      "type": "event"
    },
    {
      "anonymous": false,
      "inputs": [
        {
          "indexed": true,
          "internalType": "uint256",
          "name": "amount",
          "type": "uint256"
        }
      ],
      "name": "Withdrawn",
      "type": "event"
    },
    {
      "inputs": [
        {
          "internalType": "uint256",
          "name": "amount",
          "type": "uint256"
        }
      ],
      "name": "notifyRewardAmount",
      "outputs": [],
      "stateMutability": "nonpayable",
      "type": "function"
    },
    {
      "inputs": [
        {
          "internalType": "uint256",
          "name": "amount",
          "type": "uint256"
        }
      ],
      "name": "stake",
      "outputs": [],
      "stateMutability": "nonpayable",
      "type": "function"
    },
    {
      "inputs": [
        {
          "internalType": "uint256",
          "name": "amount",
          "type": "uint256"
        }
      ],
      "name": "withdraw",
      "outputs": [],
      "stateMutability": "nonpayable",
      "type": "function"
    }
  ],
  "transactionHash": "0xb18360f55f1f9537c96e12df5103b725c4303ef01eb346491552f7faae2a1c40",
  "args": [],
  "numDeployments": 1,
  "solcInputHash": "0b4a92c972ef0e837b1e576089bb5bf3",
  "bytecode": "0x60a08060405234610023573060805261076b90816100298239608051816106a10152f35b600080fdfe6040608081526004908136101561001557600080fd5b600091823560e01c80632e1a7d4d146102a05780633c6b16ab1461011d5763a694fc3a1461004257600080fd5b82903461010c57602036600319011261010c5780359261006061069e565b303b15610119578284610087938351948592839263d0820d8760e01b8452339084016103de565b038183305af190811561011057506100f8575b50506100d181303360018060a01b037faf04b09135d90f3f033b0b36587eb83b773d1e2f0f54936e3b4630a67fea572c54166103f9565b7feebbaa86c348cb664e392b180fd0ff2e1998af9fa833ef69a778cb0b42d3ca278280a280f35b61010190610392565b61010c57813861009a565b5080fd5b513d84823e3d90fd5b8280fd5b50346101195760203660031901126101195780359161013a61069e565b7fb19546dff01e856fb3f010c267a7b1c60363cf8a4664e21cc89c26224620214e8085527f256352104e666e6cce09c45a35c339c150e1991724469c7d87b784a284535e4460205281852033865260205260ff828620541615610284575060008051602061071683398151915254849291906101c4908590309033906001600160a01b03166103f9565b7faf04b09135d90f3f033b0b36587eb83b773d1e2f0f54936e3b4630a67fea572d6101f085825461067b565b90557faf04b09135d90f3f033b0b36587eb83b773d1e2f0f54936e3b4630a67fea572e61021e85825461067b565b9055303b15610119578281518093630710351360e01b82528183305af19081156101105750610270575b50807fde88a922e0d3b88b24e9623efeb464919c6bf9f66857a65e2bfcf2ce87a9433d91a280f35b61027990610392565b61010c578138610248565b604492915191632bc93d7960e21b835233908301526024820152fd5b509034610119576020366003190112610119578135916102be61069e565b83303b1561038f5782516351159ae760e11b815291829081906102e6908790339084016103de565b038183305af1801561038557610370575b5060008051602061071683398151915254905163a9059cbb60e01b6020820152610349916001600160a01b0316610344826103368633602484016103de565b03601f1981018452836103bb565b610453565b7f430648de173157e069201c943adb2d4e340e7cf5b27b1b09c9cb852f03d63b568280a280f35b9261037e6103499294610392565b92906102f7565b82513d86823e3d90fd5b80fd5b6001600160401b0381116103a557604052565b634e487b7160e01b600052604160045260246000fd5b601f909101601f19168101906001600160401b038211908210176103a557604052565b6001600160a01b039091168152602081019190915260400190565b6040516323b872dd60e01b60208201526001600160a01b03928316602482015292909116604483015260648083019390935291815260a08101918183106001600160401b038411176103a55761045192604052610453565b565b604080516001600160a01b03929092169291906001600160401b03908201818111838210176103a5576040526020938483527f5361666545524332303a206c6f772d6c6576656c2063616c6c206661696c6564858401526000808587829751910182855af1903d1561059c573d92831161058857906104f2939291604051926104e588601f19601f84011601856103bb565b83523d868885013e6105a7565b805191821591848315610564575b50505090501561050d5750565b6084906040519062461bcd60e51b82526004820152602a60248201527f5361666545524332303a204552433230206f7065726174696f6e20646964206e6044820152691bdd081cdd58d8d9595960b21b6064820152fd5b91938180945001031261010c5782015190811515820361038f575080388084610500565b634e487b7160e01b85526041600452602485fd5b906104f29392506060915b9192901561060957508151156105bb575090565b3b156105c45790565b60405162461bcd60e51b815260206004820152601d60248201527f416464726573733a2063616c6c20746f206e6f6e2d636f6e74726163740000006044820152606490fd5b82519091501561061c5750805190602001fd5b6040519062461bcd60e51b82528160208060048301528251908160248401526000935b828510610662575050604492506000838284010152601f80199101168101030190fd5b848101820151868601604401529381019385935061063f565b9190820180921161068857565b634e487b7160e01b600052601160045260246000fd5b307f00000000000000000000000000000000000000000000000000000000000000006001600160a01b03161480156106e9575b6106d757565b604051639f357e6b60e01b8152600490fd5b5060ff7f9f1709bc5ab0578be51bb81e11b02cdd9c21aa603d7325a8a7551bbd5685a0055416156106d156feaf04b09135d90f3f033b0b36587eb83b773d1e2f0f54936e3b4630a67fea572ba26469706673582212207dacb464d05aabd0ec7a757675da71bf6a681744ca6cde394292b1a9a24eb68c64736f6c63430008130033",
  "libraries": [
    "ASLib",
    "InitializerLib",
    "RolesManagementLib"
  ],
  "devdoc": {
    "events": {
      "Initialized(uint8)": {
        "details": "Triggered when the contract has been initialized or reinitialized."
      }
    },
    "kind": "dev",
    "methods": {},
    "version": 1
  },
  "userdoc": {
    "kind": "user",
    "methods": {},
    "version": 1
  },
  "storageLayout": {
    "storage": [
      {
        "astId": 6,
        "contract": "contracts/diamonds/autoreflectiveStaking/v1/ASDepositaryFacet.sol:ASDepositaryFacet",
        "label": "_initialized",
        "offset": 0,
        "slot": "0",
        "type": "t_uint8"
      },
      {
        "astId": 9,
        "contract": "contracts/diamonds/autoreflectiveStaking/v1/ASDepositaryFacet.sol:ASDepositaryFacet",
        "label": "_initializing",
        "offset": 1,
        "slot": "0",
        "type": "t_bool"
      }
    ],
    "types": {
      "t_bool": {
        "encoding": "inplace",
        "label": "bool",
        "numberOfBytes": "1"
      },
      "t_uint8": {
        "encoding": "inplace",
        "label": "uint8",
        "numberOfBytes": "1"
      }
    }
  }
}