{
  "address": "0x26D5599da75a18f0eE52A730968cCaFDC893A1D8",
  "abi": [
    {
      "inputs": [],
      "name": "DelegatedCallsOnly",
      "type": "error"
    },
    {
      "inputs": [
        {
          "internalType": "address",
          "name": "who",
          "type": "address"
        },
        {
          "internalType": "bytes32",
          "name": "role",
          "type": "bytes32"
        }
      ],
      "name": "HasNoRole",
      "type": "error"
    },
    {
      "anonymous": false,
      "inputs": [
        {
          "indexed": false,
          "internalType": "uint8",
          "name": "version",
          "type": "uint8"
        }
      ],
      "name": "Initialized",
      "type": "event"
    },
    {
      "anonymous": false,
      "inputs": [
        {
          "indexed": true,
          "internalType": "uint256",
          "name": "amount",
          "type": "uint256"
        }
      ],
      "name": "RewardAdded",
      "type": "event"
    },
    {
      "anonymous": false,
      "inputs": [
        {
          "indexed": true,
          "internalType": "uint256",
          "name": "amount",
          "type": "uint256"
        }
      ],
      "name": "Staked",
      "type": "event"
    },
    {
      "anonymous": false,
      "inputs": [
        {
          "indexed": true,
          "internalType": "uint256",
          "name": "amount",
          "type": "uint256"
        }
      ],
      "name": "Withdrawn",
      "type": "event"
    },
    {
      "inputs": [
        {
          "internalType": "uint256",
          "name": "amount",
          "type": "uint256"
        }
      ],
      "name": "notifyRewardAmount",
      "outputs": [],
      "stateMutability": "nonpayable",
      "type": "function"
    },
    {
      "inputs": [
        {
          "internalType": "uint256",
          "name": "amount",
          "type": "uint256"
        }
      ],
      "name": "stake",
      "outputs": [],
      "stateMutability": "nonpayable",
      "type": "function"
    },
    {
      "inputs": [
        {
          "internalType": "uint256",
          "name": "amount",
          "type": "uint256"
        },
        {
          "internalType": "enum DelayedSendingsQueueLib.DueDuration",
          "name": "dueDuration",
          "type": "uint8"
        }
      ],
      "name": "withdraw",
      "outputs": [],
      "stateMutability": "nonpayable",
      "type": "function"
    }
  ],
  "transactionHash": "0x84446383c6171ce6f8d430c417070e5737a463c6da34324a9decf2b1967304b8",
  "args": [],
  "numDeployments": 4,
  "solcInputHash": "78b8539315b5602947be51a6c56e4393",
  "bytecode": "0x60a08060405234610023573060805261077490816100298239608051816106aa0152f35b600080fdfe6040608081526004908136101561001557600080fd5b600091823560e01c80633c6b16ab1461022a57838163903d42961461010d575063a694fc3a1461004457600080fd5b8290346100fc5760203660031901126100fc578035926100626106a7565b303b15610109578284610089938351948592839263d0820d8760e01b8452339084016103d0565b038183305af190811561010057506100e8575b50506100c181303360018060a01b0360008051602061071f83398151915254166103eb565b7feebbaa86c348cb664e392b180fd0ff2e1998af9fa833ef69a778cb0b42d3ca278280a280f35b6100f1906103a7565b6100fc57813861009c565b5080fd5b513d84823e3d90fd5b8280fd5b919050346100fc57826003193601126100fc57803592602435600581101561021c576101376106a7565b303b1561021c5781516351159ae760e11b815284818061015a89338984016103d0565b038183305af1801561022057908591610208575b505060008051602061071f833981519152546001600160a01b0316303b1561020457825163044b484f60e51b815293840152336024840152604483018590526064830152828260848183305af190811561010057506101f0575b50807f430648de173157e069201c943adb2d4e340e7cf5b27b1b09c9cb852f03d63b5691a280f35b6101f9906103a7565b6100fc5781386101c8565b8480fd5b610211906103a7565b61021c57833861016e565b8380fd5b83513d87823e3d90fd5b508290346100fc5760203660031901126100fc578035926102496106a7565b7fb814ff4a26ea3ec5cd1fa579daad86324826254265f3acfec78303a19845b4498084527f256352104e666e6cce09c45a35c339c150e1991724469c7d87b784a284535e4460205281842033855260205260ff82852054161561038b575060008051602061071f833981519152546102cf908590309033906001600160a01b03166103eb565b7faf04b09135d90f3f033b0b36587eb83b773d1e2f0f54936e3b4630a67fea57326102fb858254610684565b90557faf04b09135d90f3f033b0b36587eb83b773d1e2f0f54936e3b4630a67fea572c610329858254610684565b9055303b15610109578281518093630710351360e01b82528183305af1908115610100575061037c575b50907fde88a922e0d3b88b24e9623efeb464919c6bf9f66857a65e2bfcf2ce87a9433d8280a280f35b610385906103a7565b82610353565b604492915191632bc93d7960e21b835233908301526024820152fd5b6001600160401b0381116103ba57604052565b634e487b7160e01b600052604160045260246000fd5b6001600160a01b039091168152602081019190915260400190565b939260405192602093848101926323b872dd60e01b845260018060a01b03809381602497168785015216604483015260648201526064815260a081019160018060401b03978284108985111761059b57169060e081018381108982111761059b576040528583527f5361666545524332303a206c6f772d6c6576656c2063616c6c206661696c656460c0820152600080948192519082855af13d1561058a573d918883116105775760405192601f19603f81601f8401160116840199848b10908b1117610564576104cb959697989960405283528286893d92013e6105b0565b80519182159185831561053d575b5050509050156104e7575050565b90602a6084926040519262461bcd60e51b845260048401528201527f5361666545524332303a204552433230206f7065726174696f6e20646964206e6044820152691bdd081cdd58d8d9595960b21b6064820152fd5b9193818094500103126100fc578301519081151582036105615750803880856104d9565b80fd5b634e487b7160e01b865260416004528686fd5b634e487b7160e01b855260416004528585fd5b6104cb9394959697506060916105b0565b85634e487b7160e01b60005260416004526000fd5b9192901561061257508151156105c4575090565b3b156105cd5790565b60405162461bcd60e51b815260206004820152601d60248201527f416464726573733a2063616c6c20746f206e6f6e2d636f6e74726163740000006044820152606490fd5b8251909150156106255750805190602001fd5b6040519062461bcd60e51b82528160208060048301528251908160248401526000935b82851061066b575050604492506000838284010152601f80199101168101030190fd5b8481018201518686016044015293810193859350610648565b9190820180921161069157565b634e487b7160e01b600052601160045260246000fd5b307f00000000000000000000000000000000000000000000000000000000000000006001600160a01b03161480156106f2575b6106e057565b604051639f357e6b60e01b8152600490fd5b5060ff7f9f1709bc5ab0578be51bb81e11b02cdd9c21aa603d7325a8a7551bbd5685a0055416156106da56feaf04b09135d90f3f033b0b36587eb83b773d1e2f0f54936e3b4630a67fea572ba26469706673582212207ab247bd6ffe09527d0da760d16a3e52f3474132887c1874353b3f3adf7c92f564736f6c63430008130033",
  "libraries": [
    "ASLib",
    "InitializerLib",
    "RolesManagementLib",
    "TDLib",
    "DelayedSendingsQueueLib"
  ],
  "devdoc": {
    "events": {
      "Initialized(uint8)": {
        "details": "Triggered when the contract has been initialized or reinitialized."
      }
    },
    "kind": "dev",
    "methods": {},
    "version": 1
  },
  "userdoc": {
    "kind": "user",
    "methods": {},
    "version": 1
  },
  "storageLayout": {
    "storage": [
      {
        "astId": 6,
        "contract": "contracts/diamonds/autoreflectiveStaking/v1/ASDepositaryFacet.sol:ASDepositaryFacet",
        "label": "_initialized",
        "offset": 0,
        "slot": "0",
        "type": "t_uint8"
      },
      {
        "astId": 9,
        "contract": "contracts/diamonds/autoreflectiveStaking/v1/ASDepositaryFacet.sol:ASDepositaryFacet",
        "label": "_initializing",
        "offset": 1,
        "slot": "0",
        "type": "t_bool"
      }
    ],
    "types": {
      "t_bool": {
        "encoding": "inplace",
        "label": "bool",
        "numberOfBytes": "1"
      },
      "t_uint8": {
        "encoding": "inplace",
        "label": "uint8",
        "numberOfBytes": "1"
      }
    }
  }
}