{
  "address": "0x23880E4AD58Cb8905737832446a416B8f5DDDB3D",
  "abi": [
    {
      "inputs": [],
      "name": "AmountCannotBeZero",
      "type": "error"
    },
    {
      "inputs": [],
      "name": "CannotApproveFromZeroAddress",
      "type": "error"
    },
    {
      "inputs": [],
      "name": "CannotApproveToZeroAddress",
      "type": "error"
    },
    {
      "inputs": [
        {
          "internalType": "address",
          "name": "from",
          "type": "address"
        },
        {
          "internalType": "address",
          "name": "to",
          "type": "address"
        }
      ],
      "name": "CannotRecognizeAddressesInExcludedList",
      "type": "error"
    },
    {
      "inputs": [],
      "name": "CannotTransferFromZeroAddress",
      "type": "error"
    },
    {
      "inputs": [],
      "name": "CannotTransferToZeroAddress",
      "type": "error"
    },
    {
      "inputs": [],
      "name": "DelegatedCallsOnly",
      "type": "error"
    },
    {
      "inputs": [
        {
          "internalType": "address",
          "name": "who",
          "type": "address"
        },
        {
          "internalType": "bytes32",
          "name": "role",
          "type": "bytes32"
        }
      ],
      "name": "HasNoRole",
      "type": "error"
    },
    {
      "anonymous": false,
      "inputs": [
        {
          "indexed": true,
          "internalType": "address",
          "name": "owner",
          "type": "address"
        },
        {
          "indexed": true,
          "internalType": "address",
          "name": "spender",
          "type": "address"
        },
        {
          "indexed": false,
          "internalType": "uint256",
          "name": "value",
          "type": "uint256"
        }
      ],
      "name": "Approval",
      "type": "event"
    },
    {
      "anonymous": false,
      "inputs": [
        {
          "indexed": false,
          "internalType": "uint8",
          "name": "version",
          "type": "uint8"
        }
      ],
      "name": "Initialized",
      "type": "event"
    },
    {
      "anonymous": false,
      "inputs": [
        {
          "indexed": true,
          "internalType": "address",
          "name": "from",
          "type": "address"
        },
        {
          "indexed": true,
          "internalType": "address",
          "name": "to",
          "type": "address"
        },
        {
          "indexed": false,
          "internalType": "uint256",
          "name": "value",
          "type": "uint256"
        }
      ],
      "name": "Transfer",
      "type": "event"
    },
    {
      "inputs": [
        {
          "internalType": "address",
          "name": "from",
          "type": "address"
        },
        {
          "internalType": "address",
          "name": "to",
          "type": "address"
        },
        {
          "internalType": "uint256",
          "name": "amount",
          "type": "uint256"
        }
      ],
      "name": "_emitTransferEvent",
      "outputs": [],
      "stateMutability": "nonpayable",
      "type": "function"
    },
    {
      "inputs": [
        {
          "internalType": "address",
          "name": "owner",
          "type": "address"
        },
        {
          "internalType": "address",
          "name": "spender",
          "type": "address"
        }
      ],
      "name": "allowance",
      "outputs": [
        {
          "internalType": "uint256",
          "name": "",
          "type": "uint256"
        }
      ],
      "stateMutability": "view",
      "type": "function"
    },
    {
      "inputs": [
        {
          "internalType": "address",
          "name": "spender",
          "type": "address"
        },
        {
          "internalType": "uint256",
          "name": "amount",
          "type": "uint256"
        }
      ],
      "name": "approve",
      "outputs": [
        {
          "internalType": "bool",
          "name": "",
          "type": "bool"
        }
      ],
      "stateMutability": "nonpayable",
      "type": "function"
    },
    {
      "inputs": [
        {
          "internalType": "address",
          "name": "account",
          "type": "address"
        }
      ],
      "name": "balanceOf",
      "outputs": [
        {
          "internalType": "uint256",
          "name": "",
          "type": "uint256"
        }
      ],
      "stateMutability": "view",
      "type": "function"
    },
    {
      "inputs": [],
      "name": "decimals",
      "outputs": [
        {
          "internalType": "uint8",
          "name": "",
          "type": "uint8"
        }
      ],
      "stateMutability": "view",
      "type": "function"
    },
    {
      "inputs": [
        {
          "internalType": "address",
          "name": "spender",
          "type": "address"
        },
        {
          "internalType": "uint256",
          "name": "subtractedValue",
          "type": "uint256"
        }
      ],
      "name": "decreaseAllowance",
      "outputs": [
        {
          "internalType": "bool",
          "name": "",
          "type": "bool"
        }
      ],
      "stateMutability": "nonpayable",
      "type": "function"
    },
    {
      "inputs": [
        {
          "internalType": "address",
          "name": "spender",
          "type": "address"
        },
        {
          "internalType": "uint256",
          "name": "addedValue",
          "type": "uint256"
        }
      ],
      "name": "increaseAllowance",
      "outputs": [
        {
          "internalType": "bool",
          "name": "",
          "type": "bool"
        }
      ],
      "stateMutability": "nonpayable",
      "type": "function"
    },
    {
      "inputs": [],
      "name": "name",
      "outputs": [
        {
          "internalType": "string",
          "name": "",
          "type": "string"
        }
      ],
      "stateMutability": "view",
      "type": "function"
    },
    {
      "inputs": [],
      "name": "symbol",
      "outputs": [
        {
          "internalType": "string",
          "name": "",
          "type": "string"
        }
      ],
      "stateMutability": "view",
      "type": "function"
    },
    {
      "inputs": [],
      "name": "totalSupply",
      "outputs": [
        {
          "internalType": "uint256",
          "name": "",
          "type": "uint256"
        }
      ],
      "stateMutability": "view",
      "type": "function"
    },
    {
      "inputs": [
        {
          "internalType": "address",
          "name": "to",
          "type": "address"
        },
        {
          "internalType": "uint256",
          "name": "amount",
          "type": "uint256"
        }
      ],
      "name": "transfer",
      "outputs": [
        {
          "internalType": "bool",
          "name": "",
          "type": "bool"
        }
      ],
      "stateMutability": "nonpayable",
      "type": "function"
    },
    {
      "inputs": [
        {
          "internalType": "address",
          "name": "from",
          "type": "address"
        },
        {
          "internalType": "address",
          "name": "to",
          "type": "address"
        },
        {
          "internalType": "uint256",
          "name": "amount",
          "type": "uint256"
        }
      ],
      "name": "transferFrom",
      "outputs": [
        {
          "internalType": "bool",
          "name": "",
          "type": "bool"
        }
      ],
      "stateMutability": "nonpayable",
      "type": "function"
    }
  ],
  "transactionHash": "0x9fe48de77ae9b1e7ee199a047af62fd176279513f82a0daf410d4f09f84936f6",
  "args": [],
  "numDeployments": 4,
  "solcInputHash": "78b8539315b5602947be51a6c56e4393",
  "bytecode": "0x60a080604052346100235730608052610aff9081610029823960805181610a550152f35b600080fdfe60806040818152600436101561001457600080fd5b600091823560e01c90816306fdde03146104b557508063095ea7b31461048c57806318160ddd1461044757806323b872dd14610403578063313ce567146103c3578063395093511461035757806370a082311461032357806372bcd72d1461029457806395d89b411461018e578063a457c2d714610138578063a9059cbb146101005763dd62ed3e146100a657600080fd5b346100fc57806003193601126100fc576100be6105c0565b6024356001600160a01b03811691908290036100f8579282916100ea6020956100e5610a52565b610610565b908252845220549051908152f35b8380fd5b5080fd5b50346100fc57806003193601126100fc5760209061013161011f6105c0565b610127610a52565b602435903361087c565b5160018152f35b50346100fc57806003193601126100fc5761013160209261018761015a6105c0565b91610163610a52565b61016c33610610565b6001600160a01b0384168252865284902054602435906107b5565b90336107d8565b50346100fc57816003193601126100fc57805190827faf04b09135d90f3f033b0b36587eb83b773d1e2f0f54936e3b4630a67fea573080549160019083821c9282851694851561028a575b6020958686108114610276578589529081156102525750600114610217575b6102138787610209828c0383610672565b5191829182610577565b0390f35b9080949750528583205b82841061023f575050508261021394610209928201019438806101f8565b8054868501880152928601928101610221565b60ff19168887015250505050151560051b83010192506102098261021338806101f8565b634e487b7160e01b84526022600452602484fd5b93607f16936101d9565b50346100fc576102a3366105db565b91923033036102e757519182526001600160a01b039081169216907fddf252ad1be2c89b69c2b068fc378daa952ba7f163c4a11628f55a4df523b3ef90602090a380f35b51632bc93d7960e21b81523360048201527fddd94edc7da5bca8f576c77964a4737ba5172c728e2d539e672f0229d1e9ec2d6024820152604490fd5b50346100fc5760203660031901126100fc576020906103506103436105c0565b61034b610a52565b610695565b9051908152f35b50346100fc57806003193601126100fc576103706105c0565b610378610a52565b61038133610610565b6001600160a01b0382168452602052818320546024358101939084106103af575060209261013191336107d8565b634e487b7160e01b81526011600452602490fd5b50346100fc57816003193601126100fc5760209060ff7faf04b09135d90f3f033b0b36587eb83b773d1e2f0f54936e3b4630a67fea573154169051908152f35b50346100fc5761013161042a61043f6020948461041f366105db565b82969181959361087c565b61043385610610565b338252885220546107b5565b9033906107d8565b50346100fc57816003193601126100fc57602090610463610a52565b7faf04b09135d90f3f033b0b36587eb83b773d1e2f0f54936e3b4630a67fea5732549051908152f35b50346100fc57806003193601126100fc576020906101316104ab6105c0565b60243590336107d8565b91905034610573578260031936011261057357827faf04b09135d90f3f033b0b36587eb83b773d1e2f0f54936e3b4630a67fea572f80549160019083821c92828516948515610569575b602095868610811461027657858952908115610252575060011461052e576102138787610209828c0383610672565b9080949750528583205b828410610556575050508261021394610209928201019438806101f8565b8054868501880152928601928101610538565b93607f16936104ff565b8280fd5b6020808252825181830181905290939260005b8281106105ac57505060409293506000838284010152601f8019910116010190565b81810186015184820160400152850161058a565b600435906001600160a01b03821682036105d657565b600080fd5b60609060031901126105d6576001600160a01b039060043582811681036105d6579160243590811681036105d6579060443590565b6001600160a01b031660009081527faf04b09135d90f3f033b0b36587eb83b773d1e2f0f54936e3b4630a67fea57356020526040902090565b6001600160401b03811161065c57604052565b634e487b7160e01b600052604160045260246000fd5b601f909101601f19168101906001600160401b0382119082101761065c57604052565b6001600160a01b031630811461077d576106ae81610783565b61074d5760009081527faf04b09135d90f3f033b0b36587eb83b773d1e2f0f54936e3b4630a67fea5733602052604081205460405190632d83811960e01b82526004820152602081602481305afa91821561074157809261070e57505090565b9091506020823d8211610739575b8161072960209383610672565b8101031261073657505190565b80fd5b3d915061071c565b604051903d90823e3d90fd5b6000527faf04b09135d90f3f033b0b36587eb83b773d1e2f0f54936e3b4630a67fea573460205260406000205490565b50600090565b6000527faf04b09135d90f3f033b0b36587eb83b773d1e2f0f54936e3b4630a67fea5737602052604060002054151590565b919082039182116107c257565b634e487b7160e01b600052601160045260246000fd5b916001600160a01b038084169283156108485716928315610836577f8c5be1e5ebec7d5bd14f71427d1e84f3dd0314c0f7b2291e5b200ac8c7c3b92591610820602092610610565b85600052825280604060002055604051908152a3565b6040516396a1f38160e01b8152600490fd5b60405163abe3697f60e01b8152600490fd5b6001600160a01b03918216815291166020820152604081019190915260600190565b906001600160a01b03808316908115610a415782168015610a2f578415610a1d576108a682610783565b80610a0d575b15610905575050303b156105d6576000916108db60405194859384936363ecdf3360e11b85526004850161085a565b038183305af180156108f9576108ee5750565b6108f790610649565b565b6040513d6000823e3d90fd5b61090e82610783565b15806109fe575b15610944575050303b156105d6576000916108db60405194859384936316f1cc8360e01b85526004850161085a565b61094d82610783565b15806109ee575b15610983575050303b156105d6576000916108db6040519485938493632852df6560e01b85526004850161085a565b61098c82610783565b806109df575b156109c1575050303b156105d6576000916108db6040519485938493631bfdb37d60e21b85526004850161085a565b6044925060405191638cfba70b60e01b835260048301526024820152fd5b506109e981610783565b610992565b506109f881610783565b15610954565b50610a0881610783565b610915565b50610a1781610783565b156108ac565b60405163d11b25af60e01b8152600490fd5b6040516337af64f560e11b8152600490fd5b6040516246d99360e41b8152600490fd5b307f00000000000000000000000000000000000000000000000000000000000000006001600160a01b0316148015610a9d575b610a8b57565b604051639f357e6b60e01b8152600490fd5b5060ff7f9f1709bc5ab0578be51bb81e11b02cdd9c21aa603d7325a8a7551bbd5685a005541615610a8556fea2646970667358221220823f99f0db6abb0c437a5b8606a3f72ac5f60b4cc832ba49b967e5925ed4efd864736f6c63430008130033",
  "libraries": [
    "ASLib",
    "InitializerLib",
    "RolesManagementLib",
    "TDLib",
    "DelayedSendingsQueueLib"
  ],
  "devdoc": {
    "events": {
      "Approval(address,address,uint256)": {
        "details": "Emitted when the allowance of a `spender` for an `owner` is set by a call to {approve}. `value` is the new allowance."
      },
      "Initialized(uint8)": {
        "details": "Triggered when the contract has been initialized or reinitialized."
      },
      "Transfer(address,address,uint256)": {
        "details": "Emitted when `value` tokens are moved from one account (`from`) to another (`to`). Note that `value` may be zero."
      }
    },
    "kind": "dev",
    "methods": {
      "allowance(address,address)": {
        "details": "Returns the remaining number of tokens that `spender` will be allowed to spend on behalf of `owner` through {transferFrom}. This is zero by default. This value changes when {approve} or {transferFrom} are called."
      },
      "approve(address,uint256)": {
        "details": "Sets `amount` as the allowance of `spender` over the caller's tokens. Returns a boolean value indicating whether the operation succeeded. IMPORTANT: Beware that changing an allowance with this method brings the risk that someone may use both the old and the new allowance by unfortunate transaction ordering. One possible solution to mitigate this race condition is to first reduce the spender's allowance to 0 and set the desired value afterwards: https://github.com/ethereum/EIPs/issues/20#issuecomment-263524729 Emits an {Approval} event."
      },
      "balanceOf(address)": {
        "details": "Returns the amount of tokens owned by `account`."
      },
      "decimals()": {
        "details": "Returns the decimals places of the token."
      },
      "name()": {
        "details": "Returns the name of the token."
      },
      "symbol()": {
        "details": "Returns the symbol of the token."
      },
      "totalSupply()": {
        "details": "Returns the amount of tokens in existence."
      },
      "transfer(address,uint256)": {
        "details": "Moves `amount` tokens from the caller's account to `to`. Returns a boolean value indicating whether the operation succeeded. Emits a {Transfer} event."
      },
      "transferFrom(address,address,uint256)": {
        "details": "Moves `amount` tokens from `from` to `to` using the allowance mechanism. `amount` is then deducted from the caller's allowance. Returns a boolean value indicating whether the operation succeeded. Emits a {Transfer} event."
      }
    },
    "version": 1
  },
  "userdoc": {
    "kind": "user",
    "methods": {},
    "version": 1
  },
  "storageLayout": {
    "storage": [
      {
        "astId": 6,
        "contract": "contracts/diamonds/autoreflectiveStaking/v1/ASEip20Facet.sol:ASEip20Facet",
        "label": "_initialized",
        "offset": 0,
        "slot": "0",
        "type": "t_uint8"
      },
      {
        "astId": 9,
        "contract": "contracts/diamonds/autoreflectiveStaking/v1/ASEip20Facet.sol:ASEip20Facet",
        "label": "_initializing",
        "offset": 1,
        "slot": "0",
        "type": "t_bool"
      }
    ],
    "types": {
      "t_bool": {
        "encoding": "inplace",
        "label": "bool",
        "numberOfBytes": "1"
      },
      "t_uint8": {
        "encoding": "inplace",
        "label": "uint8",
        "numberOfBytes": "1"
      }
    }
  }
}