{
  "address": "0x21Df707A0AE85F84F754bC0A9fa0441183b5a6ab",
  "abi": [
    {
      "inputs": [],
      "name": "DelegatedCallsOnly",
      "type": "error"
    },
    {
      "anonymous": false,
      "inputs": [
        {
          "indexed": false,
          "internalType": "uint8",
          "name": "version",
          "type": "uint8"
        }
      ],
      "name": "Initialized",
      "type": "event"
    },
    {
      "inputs": [
        {
          "internalType": "uint256",
          "name": "amount",
          "type": "uint256"
        }
      ],
      "name": "advise",
      "outputs": [
        {
          "internalType": "uint256",
          "name": "",
          "type": "uint256"
        }
      ],
      "stateMutability": "pure",
      "type": "function"
    }
  ],
  "transactionHash": "0x9c1ea4fe65415b7c06faf3de9d7c2b388cd75b7fbcc1bbe94c95d146227e5082",
  "args": [],
  "numDeployments": 5,
  "solcInputHash": "be00b6e3996275fb10413fbee959d9db",
  "bytecode": "0x60a08060405234601e5730608052607890816100248239608051815050f35b600080fdfe6080806040526004361015601257600080fd5b600090813560e01c632c19f8f314602857600080fd5b34603e576020366003190112603e576020918152f35b5080fdfea26469706673582212209f8e732b1275bfb60dcaad8051fe1598fb76ed43af3a960a2029f32672643f6b64736f6c63430008130033",
  "libraries": [
    "ASLib",
    "InitializerLib",
    "RolesManagementLib",
    "TDLib",
    "DelayedSendingsQueueLib"
  ],
  "devdoc": {
    "events": {
      "Initialized(uint8)": {
        "details": "Triggered when the contract has been initialized or reinitialized."
      }
    },
    "kind": "dev",
    "methods": {
      "advise(uint256)": {
        "params": {
          "amount": "An amount of tokens of an entity which the advise about fees be based on."
        }
      }
    },
    "version": 1
  },
  "userdoc": {
    "kind": "user",
    "methods": {
      "advise(uint256)": {
        "notice": "Returns the amount of fee based on who and what amount be transferred and placed fee upon. For now returns constantly zero."
      }
    },
    "version": 1
  },
  "storageLayout": {
    "storage": [
      {
        "astId": 6,
        "contract": "contracts/diamonds/autoreflectiveStaking/v1/ASFeeAdvisorFacet.sol:ASFeeAdvisorFacet",
        "label": "_initialized",
        "offset": 0,
        "slot": "0",
        "type": "t_uint8"
      },
      {
        "astId": 9,
        "contract": "contracts/diamonds/autoreflectiveStaking/v1/ASFeeAdvisorFacet.sol:ASFeeAdvisorFacet",
        "label": "_initializing",
        "offset": 1,
        "slot": "0",
        "type": "t_bool"
      }
    ],
    "types": {
      "t_bool": {
        "encoding": "inplace",
        "label": "bool",
        "numberOfBytes": "1"
      },
      "t_uint8": {
        "encoding": "inplace",
        "label": "uint8",
        "numberOfBytes": "1"
      }
    }
  }
}