{
  "address": "0xA653E232dbEb44fAa192aC2500486A178b47210d",
  "abi": [
    {
      "inputs": [],
      "name": "AlreadyInitialized",
      "type": "error"
    },
    {
      "inputs": [],
      "name": "DelegatedCallsOnly",
      "type": "error"
    },
    {
      "inputs": [
        {
          "internalType": "address",
          "name": "who",
          "type": "address"
        },
        {
          "internalType": "bytes32",
          "name": "role",
          "type": "bytes32"
        }
      ],
      "name": "HasNoRole",
      "type": "error"
    },
    {
      "anonymous": false,
      "inputs": [
        {
          "indexed": false,
          "internalType": "uint8",
          "name": "version",
          "type": "uint8"
        }
      ],
      "name": "Initialized",
      "type": "event"
    },
    {
      "inputs": [
        {
          "internalType": "address",
          "name": "owner",
          "type": "address"
        },
        {
          "internalType": "address",
          "name": "token",
          "type": "address"
        }
      ],
      "name": "initialize",
      "outputs": [],
      "stateMutability": "nonpayable",
      "type": "function"
    },
    {
      "inputs": [
        {
          "internalType": "address",
          "name": "token",
          "type": "address"
        }
      ],
      "name": "tempInit",
      "outputs": [],
      "stateMutability": "nonpayable",
      "type": "function"
    }
  ],
  "transactionHash": "0x88d79f5e23613806ca9a55c10e0719e882eaefa6fd1bd7f3d6415972f005dfea",
  "args": [],
  "numDeployments": 6,
  "solcInputHash": "b835193071eec999cdbe03ab1fbbca41",
  "bytecode": "0x60a080604052346100225730608052610a36908161002882396080518160600152f35b600080fdfe608060408181526004908136101561001657600080fd5b600092833560e01c908163485cc95514610151575063f0ab6d961461003a57600080fd5b3461014d57602036600319011261014d576100536106a5565b916001600160a01b0391307f00000000000000000000000000000000000000000000000000000000000000008416148015610133575b61012657600080516020610961833981519152908186526000805160206109c183398151915260205280862033875260205260ff81872054161561010a575050506100d3336106c0565b60008051602061098183398151915280546001600160a01b031916919092161790556100fe33610842565b610107336108d1565b80f35b604493505191632bc93d7960e21b835233908301526024820152fd5b51639f357e6b60e01b8152fd5b5060ff6000805160206109a1833981519152541615610089565b8280fd5b91849150346106a157806003193601126106a15761016d6106a5565b906024356001600160a01b03818116929183900361069d576000805160206109a1833981519152805460ff8116156101ac5762dc149f60e41b88528888fd5b61028d9750906001899260ff19161790556000805160206109618339815191528087526020946000805160206109c183398151915286528488209387169384895286526000805160206109e18339815191526060868a209560019460ff199786898254161790558851918252898201528488820152a161022b87610842565b610234876108d1565b60008051602061098183398151915280546001600160a01b031916909117905583516102b59060139061026681610700565b600d81526c4c6f637573205374616b696e6760981b8882015286519a8b9189830190610754565b72103b34b09030baba37b932b33632b1ba34b7b760691b815203600c1981018b520189610731565b87516001600160401b0391908281116105b5577faf04b09135d90f3f033b0b36587eb83b773d1e2f0f54936e3b4630a67fea572f9081549a838c811c9c168015610693575b898d1014610680578190601f9c8d8111610632575b5089908d83116001146105d3578c926105c8575b5050600019600383901b1c191690831b1790555b6103666103806005875161034a81610700565b60028152611cdd60f21b8a82015288519384918b830190610754565b644c4f43555360d81b815203601a19810184520182610731565b80519283116105b5577faf04b09135d90f3f033b0b36587eb83b773d1e2f0f54936e3b4630a67fea5730938454908382811c921680156105ab575b8983101461059857508a8111610555575b50869983116001146104f4578291899a83926101079b946104e9575b50501b916000199060031b1c19161790555b60127faf04b09135d90f3f033b0b36587eb83b773d1e2f0f54936e3b4630a67fea5731918254161790557faf04b09135d90f3f033b0b36587eb83b773d1e2f0f54936e3b4630a67fea57347faf04b09135d90f3f033b0b36587eb83b773d1e2f0f54936e3b4630a67fea572c6918a6e32246c99c60ad8560211b81557faf04b09135d90f3f033b0b36587eb83b773d1e2f0f54936e3b4630a67fea572d6d20d190a98096d294893fffffffff1981556104b23061077f565b50543088527faf04b09135d90f3f033b0b36587eb83b773d1e2f0f54936e3b4630a67fea57338552838820555492528420556106c0565b015192508b806103e8565b601f92919219821699848a52878a20918a5b8c81106105405750836101079b9c10610527575b505050811b0190556103fa565b015160001960f88460031b161c1916905589808061051a565b81830151845592850192918901918901610506565b848a52878a208b80860160051c8201928a871061058f575b0160051c019083905b8281106105845750506103cc565b8b8155018390610576565b9250819261056d565b634e487b7160e01b8b526022905260248afd5b91607f16916103bb565b634e487b7160e01b895260418452602489fd5b015190508c80610323565b848d528a8d208694509190601f1984168e5b8d82821061061c5750508411610603575b505050811b019055610337565b015160001960f88460031b161c191690558c80806105f6565b83850151865589979095019493840193016105e5565b909150838c52898c208d80850160051c8201928c8610610677575b918791869594930160051c01915b82811061066957505061030f565b8e815585945087910161065b565b9250819261064d565b634e487b7160e01b8b526022865260248bfd5b9b607f169b6102fa565b8480fd5b5080fd5b600435906001600160a01b03821682036106bb57565b600080fd5b7ff8a6c10351c569dde9f00d2a7d439ceae77f38bfadfbaac59dc5476ddac46a0c80546001600160a01b0319166001600160a01b03909216919091179055565b604081019081106001600160401b0382111761071b57604052565b634e487b7160e01b600052604160045260246000fd5b601f909101601f19168101906001600160401b0382119082101761071b57604052565b9081519160005b83811061076c575050016000815290565b806020809284010151818501520161075b565b906000918083527faf04b09135d90f3f033b0b36587eb83b773d1e2f0f54936e3b4630a67fea5737928360205260408120541560001461083d577faf04b09135d90f3f033b0b36587eb83b773d1e2f0f54936e3b4630a67fea573680549490600160401b861015610829576001860180825586101561081557836040949596828552602085200155549382526020522055600190565b634e487b7160e01b83526032600452602483fd5b634e487b7160e01b83526041600452602483fd5b925050565b6001600160a01b031660008181527f76c0033e1a5dbcea14d4cb6c31260c49bac89cdf53bf5445b5790e8b04385e596020908152604091829020805460ff1916600190811790915582519384527fb814ff4a26ea3ec5cd1fa579daad86324826254265f3acfec78303a19845b44991840191909152908201526000805160206109e183398151915290606090a1565b6001600160a01b031660008181527f62a6815951ed1a5d6666cb76b03440cac521e2d9703b9b2a3cd0ed92e47bab486020908152604091829020805460ff1916600190811790915582519384527fd6192e9767fe272a4ce26530c23b8bde4c72513f55415ce20ac5a29ae6c3e8a591840191909152908201526000805160206109e183398151915290606090a156feb19546dff01e856fb3f010c267a7b1c60363cf8a4664e21cc89c26224620214eaf04b09135d90f3f033b0b36587eb83b773d1e2f0f54936e3b4630a67fea572b9f1709bc5ab0578be51bb81e11b02cdd9c21aa603d7325a8a7551bbd5685a005256352104e666e6cce09c45a35c339c150e1991724469c7d87b784a284535e44e6c553997164af80f976feb439e6566231f261c8b41e3e5070f237f827fc4432a26469706673582212209b0c2b853d1c6382e9b835cc8746b522ce8fa356ef6d107d5e536ab28809e3ef64736f6c63430008130033",
  "libraries": [
    "ASLib",
    "InitializerLib",
    "RolesManagementLib",
    "TDLib",
    "DelayedSendingsQueueLib"
  ],
  "devdoc": {
    "events": {
      "Initialized(uint8)": {
        "details": "Triggered when the contract has been initialized or reinitialized."
      }
    },
    "kind": "dev",
    "methods": {
      "initialize(address,address)": {
        "params": {
          "owner": "An address for the governing purposes.",
          "token": "A token that should be staked in and act as a reward."
        }
      }
    },
    "version": 1
  },
  "userdoc": {
    "kind": "user",
    "methods": {
      "initialize(address,address)": {
        "notice": "An initializer function for Locus Token owner and starting state of the inflation."
      }
    },
    "version": 1
  },
  "storageLayout": {
    "storage": [
      {
        "astId": 6,
        "contract": "contracts/diamonds/autoreflectiveStaking/v1/ASInitializerFacet.sol:ASInitializerFacet",
        "label": "_initialized",
        "offset": 0,
        "slot": "0",
        "type": "t_uint8"
      },
      {
        "astId": 9,
        "contract": "contracts/diamonds/autoreflectiveStaking/v1/ASInitializerFacet.sol:ASInitializerFacet",
        "label": "_initializing",
        "offset": 1,
        "slot": "0",
        "type": "t_bool"
      }
    ],
    "types": {
      "t_bool": {
        "encoding": "inplace",
        "label": "bool",
        "numberOfBytes": "1"
      },
      "t_uint8": {
        "encoding": "inplace",
        "label": "uint8",
        "numberOfBytes": "1"
      }
    }
  }
}