{
  "address": "0x8959521A7E68f30d1f74322D2E667338fd882381",
  "abi": [
    {
      "inputs": [],
      "name": "DelegatedCallsOnly",
      "type": "error"
    },
    {
      "inputs": [
        {
          "internalType": "address",
          "name": "who",
          "type": "address"
        },
        {
          "internalType": "bytes32",
          "name": "role",
          "type": "bytes32"
        }
      ],
      "name": "HasNoRole",
      "type": "error"
    },
    {
      "anonymous": false,
      "inputs": [
        {
          "indexed": false,
          "internalType": "uint8",
          "name": "version",
          "type": "uint8"
        }
      ],
      "name": "Initialized",
      "type": "event"
    },
    {
      "inputs": [],
      "name": "_getCurrentSupply",
      "outputs": [
        {
          "components": [
            {
              "internalType": "uint256",
              "name": "rSupply",
              "type": "uint256"
            },
            {
              "internalType": "uint256",
              "name": "tSupply",
              "type": "uint256"
            }
          ],
          "internalType": "struct ASLib.Supply",
          "name": "",
          "type": "tuple"
        }
      ],
      "stateMutability": "view",
      "type": "function"
    },
    {
      "inputs": [
        {
          "internalType": "uint256",
          "name": "tAmount",
          "type": "uint256"
        },
        {
          "internalType": "uint256",
          "name": "tFee",
          "type": "uint256"
        },
        {
          "internalType": "uint256",
          "name": "currentRate",
          "type": "uint256"
        }
      ],
      "name": "_getRValues",
      "outputs": [
        {
          "components": [
            {
              "internalType": "uint256",
              "name": "rAmount",
              "type": "uint256"
            },
            {
              "internalType": "uint256",
              "name": "rTransferAmount",
              "type": "uint256"
            },
            {
              "internalType": "uint256",
              "name": "rFee",
              "type": "uint256"
            }
          ],
          "internalType": "struct ASLib.RValues",
          "name": "",
          "type": "tuple"
        }
      ],
      "stateMutability": "view",
      "type": "function"
    },
    {
      "inputs": [],
      "name": "_getRate",
      "outputs": [
        {
          "internalType": "uint256",
          "name": "",
          "type": "uint256"
        }
      ],
      "stateMutability": "view",
      "type": "function"
    },
    {
      "inputs": [
        {
          "internalType": "uint256",
          "name": "tAmount",
          "type": "uint256"
        }
      ],
      "name": "_getTValues",
      "outputs": [
        {
          "components": [
            {
              "internalType": "uint256",
              "name": "tTransferAmount",
              "type": "uint256"
            },
            {
              "internalType": "uint256",
              "name": "tFee",
              "type": "uint256"
            }
          ],
          "internalType": "struct ASLib.TValues",
          "name": "",
          "type": "tuple"
        }
      ],
      "stateMutability": "view",
      "type": "function"
    },
    {
      "inputs": [
        {
          "internalType": "uint256",
          "name": "tAmount",
          "type": "uint256"
        }
      ],
      "name": "_getValues",
      "outputs": [
        {
          "components": [
            {
              "components": [
                {
                  "internalType": "uint256",
                  "name": "rAmount",
                  "type": "uint256"
                },
                {
                  "internalType": "uint256",
                  "name": "rTransferAmount",
                  "type": "uint256"
                },
                {
                  "internalType": "uint256",
                  "name": "rFee",
                  "type": "uint256"
                }
              ],
              "internalType": "struct ASLib.RValues",
              "name": "r",
              "type": "tuple"
            },
            {
              "components": [
                {
                  "internalType": "uint256",
                  "name": "tTransferAmount",
                  "type": "uint256"
                },
                {
                  "internalType": "uint256",
                  "name": "tFee",
                  "type": "uint256"
                }
              ],
              "internalType": "struct ASLib.TValues",
              "name": "t",
              "type": "tuple"
            }
          ],
          "internalType": "struct ASLib.Values",
          "name": "",
          "type": "tuple"
        }
      ],
      "stateMutability": "view",
      "type": "function"
    },
    {
      "inputs": [],
      "name": "getPrimitives",
      "outputs": [
        {
          "components": [
            {
              "internalType": "address",
              "name": "token",
              "type": "address"
            },
            {
              "internalType": "uint256",
              "name": "tTotal",
              "type": "uint256"
            },
            {
              "internalType": "uint256",
              "name": "rTotal",
              "type": "uint256"
            },
            {
              "internalType": "uint256",
              "name": "tFeeTotal",
              "type": "uint256"
            },
            {
              "internalType": "string",
              "name": "name",
              "type": "string"
            },
            {
              "internalType": "string",
              "name": "symbol",
              "type": "string"
            },
            {
              "internalType": "uint8",
              "name": "decimals",
              "type": "uint8"
            },
            {
              "internalType": "uint256",
              "name": "totalStaked",
              "type": "uint256"
            }
          ],
          "internalType": "struct ASLib.Primitives",
          "name": "",
          "type": "tuple"
        }
      ],
      "stateMutability": "view",
      "type": "function"
    },
    {
      "inputs": [
        {
          "internalType": "address",
          "name": "account",
          "type": "address"
        }
      ],
      "name": "isExcluded",
      "outputs": [
        {
          "internalType": "bool",
          "name": "",
          "type": "bool"
        }
      ],
      "stateMutability": "view",
      "type": "function"
    },
    {
      "inputs": [
        {
          "internalType": "uint256",
          "name": "tAmount",
          "type": "uint256"
        },
        {
          "internalType": "bool",
          "name": "addTransferFee",
          "type": "bool"
        }
      ],
      "name": "reflectionFromToken",
      "outputs": [
        {
          "internalType": "uint256",
          "name": "",
          "type": "uint256"
        }
      ],
      "stateMutability": "view",
      "type": "function"
    },
    {
      "inputs": [
        {
          "internalType": "uint256",
          "name": "rAmount",
          "type": "uint256"
        }
      ],
      "name": "tokenFromReflection",
      "outputs": [
        {
          "internalType": "uint256",
          "name": "",
          "type": "uint256"
        }
      ],
      "stateMutability": "view",
      "type": "function"
    }
  ],
  "transactionHash": "0x4cafdc649a37c81444013cad2ab939c4e6fcd5bcdea5a87e83e68e1fc4b46a9b",
  "args": [],
  "numDeployments": 5,
  "solcInputHash": "be00b6e3996275fb10413fbee959d9db",
  "bytecode": "0x60a080604052346100235730608052610ed99081610029823960805181610d880152f35b600080fdfe608080604052600436101561001357600080fd5b60003560e01c908163119021601461087e575080632d838119146108055780634549b039146107d25780637821b3321461043b57806394e10784146103a357806397a9d5601461035a578063c2264c6a146102e9578063cba0e996146102825763d4780e361461008257600080fd5b346102025760208060031936011261020257600435906040516100a4816109a7565b6100ac610b9a565b815281604051916100bc836109a7565b6000835260008284015201526100d0610dfc565b60405190628c810b60e51b8252826004830152604082602481305afa91821561020e57600092610247575b5060405163253841e160e21b81528181600481305afa90811561020e5760009161021a575b5081830190815160405195636113263560e11b8752600487015260248601526044850152606084606481305afa92831561020e576000936101cd575b60a09450835193604084820151910151906040519561017a876109f4565b865284860152604085015251905160405191610195836109a7565b825282820152816040516101a8816109a7565b848152019081526101bc604051809461098e565b518051606084015201516080820152f35b925060603d8111610207575b6101e38186610a0f565b8401936060818603126102025760a0946101fc91610a32565b9261015c565b600080fd5b503d6101d9565b6040513d6000823e3d90fd5b90508181813d8311610240575b6102318183610a0f565b81010312610202575138610120565b503d610227565b90915060403d60401161027b575b61025f8183610a0f565b81016040828203126102025761027491610a64565b90386100fb565b503d610255565b34610202576020366003190112610202576004356001600160a01b03811690819003610202576102b0610d85565b6000527faf04b09135d90f3f033b0b36587eb83b773d1e2f0f54936e3b4630a67fea573760205260206040600020541515604051908152f35b34610202576060366003190112610202576060604435610307610b9a565b50610310610dfc565b61032861031f82600435610bdc565b91602435610bdc565b6103328183610bb9565b6040519261033f846109f4565b835260208301526040820152610358604051809261098e565bf35b34610202576000366003190112610202576000602060405161037b816109a7565b8281520152610388610dfc565b61039f610393610c61565b60405191829182610938565b0390f35b34610202576000366003190112610202576103bc610dfc565b604080516304bd4eab60e51b81529081600481305afa90811561020e576000916103fb575b60206103f38382815191015190610b7a565b604051908152f35b905060403d604011610434575b6104128183610a0f565b81016040828203126102025761042d6103f391602093610a64565b91506103e1565b503d610408565b3461020257600036600319011261020257600060e060405161045c816109d8565b82815282602082015282604082015282606082015260606080820152606060a08201528260c0820152015261048f610d85565b60405161049b816109d8565b60018060a01b037faf04b09135d90f3f033b0b36587eb83b773d1e2f0f54936e3b4630a67fea572b54168152600080516020610e44833981519152549060208101918252600080516020610e6483398151915254604082019081527faf04b09135d90f3f033b0b36587eb83b773d1e2f0f54936e3b4630a67fea572e5490606083019182526040519060007faf04b09135d90f3f033b0b36587eb83b773d1e2f0f54936e3b4630a67fea572f908154908160011c92600183169283156107c8575b6020851084146107415784875286939081156107a6575060011461075f575b5061058892500383610a0f565b60808401918252604051916000600080516020610e8483398151915254908160011c6001831615610757575b6020811060018416146107415780865285926001811690811561071d57506001146106b3575b50916105ed6106a29260ff940386610a0f565b60a08701948552827faf04b09135d90f3f033b0b36587eb83b773d1e2f0f54936e3b4630a67fea573154169560c088019687527faf04b09135d90f3f033b0b36587eb83b773d1e2f0f54936e3b4630a67fea5732549460e08901958652604051998a9960208b5260018060a01b0390511660208b01525160408a0152516060890152516080880152519361068f610100958660a08a015261012089019061094e565b9051878203601f190160c089015261094e565b93511660e085015251908301520390f35b600080516020610e84833981519152600090815291507fc5edd07ed7cb68ba984125264e65437624d3b41b2045185865a4ddeb7f61ac085b81831061070157505081016020016105ed6105da565b6020919350806001915483858a010152019101909185926106eb565b60ff191660208086019190915291151560051b840190910191506105ed90506105da565b634e487b7160e01b600052602260045260246000fd5b607f166105b4565b90506000929192526020600020906000915b81831061078a575050906020610588928201018861057b565b6020919350806001915483858901015201910190918492610771565b90506020925061058894915060ff191682840152151560051b8201018861057b565b93607f169361055c565b34610202576040366003190112610202576024358015158103610202576103f36020916107fd610d85565b600435610ac4565b34610202576020806003193601126102025761081f610d85565b60405163253841e160e21b81528181600481305afa801561020e5760009061084f575b6103f39150600435610b7a565b508181813d8311610877575b6108658183610a0f565b81010312610202576103f39051610842565b503d61085b565b346102025760208060031936011261020257600081600435936108a0816109a7565b82815201526108ad610dfc565b604051632c19f8f360e01b815260048101839052918183602481305afa92831561020e57600093610907575b50916108e88161039f94610bb9565b91604051926108f6846109a7565b835282015260405191829182610938565b92508183813d8311610931575b61091e8183610a0f565b81010312610202579151916108e86108d9565b503d610914565b9190916020806040830194805184520151910152565b919082519283825260005b84811061097a575050826000602080949584010152601f8019910116010190565b602081830181015184830182015201610959565b6040809180518452602081015160208501520151910152565b604081019081106001600160401b038211176109c257604052565b634e487b7160e01b600052604160045260246000fd5b61010081019081106001600160401b038211176109c257604052565b606081019081106001600160401b038211176109c257604052565b601f909101601f19168101906001600160401b038211908210176109c257604052565b919082606091031261020257604051610a4a816109f4565b604080829480518452602081015160208501520151910152565b919082604091031261020257604051610a7c816109a7565b6020808294805184520151910152565b9060a08282031261020257610abc90606060405193610aaa856109a7565b610ab48382610a32565b855201610a64565b602082015290565b90610b285760405190636a3c071b60e11b8252600482015260a081602481305afa90811561020e57600091610afa575b50515190565b610b1b915060a03d8111610b21575b610b138183610a0f565b810190610a8c565b38610af4565b503d610b09565b60405190636a3c071b60e11b8252600482015260a081602481305afa801561020e57602091600091610b5c575b5051015190565b610b74915060a03d8111610b2157610b138183610a0f565b38610b55565b8115610b84570490565b634e487b7160e01b600052601260045260246000fd5b60405190610ba7826109f4565b60006040838281528260208201520152565b91908203918211610bc657565b634e487b7160e01b600052601160045260246000fd5b81810292918115918404141715610bc657565b6001600160a01b031660009081527faf04b09135d90f3f033b0b36587eb83b773d1e2f0f54936e3b4630a67fea57336020526040902090565b6001600160a01b031660009081527faf04b09135d90f3f033b0b36587eb83b773d1e2f0f54936e3b4630a67fea57346020526040902090565b600080516020610e648339815191525480600080516020610e448339815191525490817faf04b09135d90f3f033b0b36587eb83b773d1e2f0f54936e3b4630a67fea573680546000915b818310610cee57505050610cbf8183610b7a565b8410610cde57505060405191610cd4836109a7565b8252602082015290565b60405193509150610cd4836109a7565b9091948160005260209660018060a01b0387896000200154169781610d128a610bef565b54118015610d73575b610d55575090610d34610d3b610d4193610d348b610bef565b5490610bb9565b98610c28565b946000198114610bc6576001019190610cab565b95975050505050915060405192610d6b846109a7565b835282015290565b5082610d7e8a610c28565b5411610d1b565b307f00000000000000000000000000000000000000000000000000000000000000006001600160a01b0316148015610dd0575b610dbe57565b604051639f357e6b60e01b8152600490fd5b5060ff7f9f1709bc5ab0578be51bb81e11b02cdd9c21aa603d7325a8a7551bbd5685a005541615610db8565b303303610e0557565b604051632bc93d7960e21b81523360048201527fddd94edc7da5bca8f576c77964a4737ba5172c728e2d539e672f0229d1e9ec2d6024820152604490fdfeaf04b09135d90f3f033b0b36587eb83b773d1e2f0f54936e3b4630a67fea572caf04b09135d90f3f033b0b36587eb83b773d1e2f0f54936e3b4630a67fea572daf04b09135d90f3f033b0b36587eb83b773d1e2f0f54936e3b4630a67fea5730a2646970667358221220a8753d90affbba55083fd4be2787415247a93a776cdf69b41454250c3daa136364736f6c63430008130033",
  "libraries": [
    "ASLib",
    "InitializerLib",
    "RolesManagementLib",
    "TDLib",
    "DelayedSendingsQueueLib"
  ],
  "devdoc": {
    "events": {
      "Initialized(uint8)": {
        "details": "Triggered when the contract has been initialized or reinitialized."
      }
    },
    "kind": "dev",
    "methods": {},
    "version": 1
  },
  "userdoc": {
    "kind": "user",
    "methods": {},
    "version": 1
  },
  "storageLayout": {
    "storage": [
      {
        "astId": 6,
        "contract": "contracts/diamonds/autoreflectiveStaking/v1/ASReflectionLoupeFacet.sol:ASReflectionLoupeFacet",
        "label": "_initialized",
        "offset": 0,
        "slot": "0",
        "type": "t_uint8"
      },
      {
        "astId": 9,
        "contract": "contracts/diamonds/autoreflectiveStaking/v1/ASReflectionLoupeFacet.sol:ASReflectionLoupeFacet",
        "label": "_initializing",
        "offset": 1,
        "slot": "0",
        "type": "t_bool"
      }
    ],
    "types": {
      "t_bool": {
        "encoding": "inplace",
        "label": "bool",
        "numberOfBytes": "1"
      },
      "t_uint8": {
        "encoding": "inplace",
        "label": "uint8",
        "numberOfBytes": "1"
      }
    }
  }
}