{
  "address": "0xAE680d18C33cfF4D815346f686d77a7026e6b94e",
  "abi": [
    {
      "inputs": [
        {
          "internalType": "address",
          "name": "who",
          "type": "address"
        }
      ],
      "name": "AlreadyExcluded",
      "type": "error"
    },
    {
      "inputs": [
        {
          "internalType": "address",
          "name": "who",
          "type": "address"
        }
      ],
      "name": "AlreadyIncluded",
      "type": "error"
    },
    {
      "inputs": [],
      "name": "DelegatedCallsOnly",
      "type": "error"
    },
    {
      "inputs": [
        {
          "internalType": "address",
          "name": "who",
          "type": "address"
        },
        {
          "internalType": "bytes32",
          "name": "role",
          "type": "bytes32"
        }
      ],
      "name": "HasNoRole",
      "type": "error"
    },
    {
      "anonymous": false,
      "inputs": [
        {
          "indexed": true,
          "internalType": "address",
          "name": "who",
          "type": "address"
        },
        {
          "indexed": true,
          "internalType": "bool",
          "name": "isExcluded",
          "type": "bool"
        }
      ],
      "name": "AddressStatus",
      "type": "event"
    },
    {
      "anonymous": false,
      "inputs": [
        {
          "indexed": true,
          "internalType": "uint256",
          "name": "amount",
          "type": "uint256"
        }
      ],
      "name": "FeeReflected",
      "type": "event"
    },
    {
      "anonymous": false,
      "inputs": [
        {
          "indexed": false,
          "internalType": "uint8",
          "name": "version",
          "type": "uint8"
        }
      ],
      "name": "Initialized",
      "type": "event"
    },
    {
      "inputs": [
        {
          "internalType": "address",
          "name": "who",
          "type": "address"
        },
        {
          "internalType": "uint256",
          "name": "tAmount",
          "type": "uint256"
        }
      ],
      "name": "_burnFrom",
      "outputs": [],
      "stateMutability": "nonpayable",
      "type": "function"
    },
    {
      "inputs": [
        {
          "internalType": "address",
          "name": "who",
          "type": "address"
        },
        {
          "internalType": "uint256",
          "name": "tAmount",
          "type": "uint256"
        }
      ],
      "name": "_mintTo",
      "outputs": [],
      "stateMutability": "nonpayable",
      "type": "function"
    },
    {
      "inputs": [
        {
          "internalType": "address",
          "name": "sender",
          "type": "address"
        },
        {
          "internalType": "address",
          "name": "recipient",
          "type": "address"
        },
        {
          "internalType": "uint256",
          "name": "tAmount",
          "type": "uint256"
        }
      ],
      "name": "_transferBothExcluded",
      "outputs": [],
      "stateMutability": "nonpayable",
      "type": "function"
    },
    {
      "inputs": [
        {
          "internalType": "address",
          "name": "sender",
          "type": "address"
        },
        {
          "internalType": "address",
          "name": "recipient",
          "type": "address"
        },
        {
          "internalType": "uint256",
          "name": "tAmount",
          "type": "uint256"
        }
      ],
      "name": "_transferFromExcluded",
      "outputs": [],
      "stateMutability": "nonpayable",
      "type": "function"
    },
    {
      "inputs": [
        {
          "internalType": "address",
          "name": "sender",
          "type": "address"
        },
        {
          "internalType": "address",
          "name": "recipient",
          "type": "address"
        },
        {
          "internalType": "uint256",
          "name": "tAmount",
          "type": "uint256"
        }
      ],
      "name": "_transferStandard",
      "outputs": [],
      "stateMutability": "nonpayable",
      "type": "function"
    },
    {
      "inputs": [
        {
          "internalType": "address",
          "name": "sender",
          "type": "address"
        },
        {
          "internalType": "address",
          "name": "recipient",
          "type": "address"
        },
        {
          "internalType": "uint256",
          "name": "tAmount",
          "type": "uint256"
        }
      ],
      "name": "_transferToExcluded",
      "outputs": [],
      "stateMutability": "nonpayable",
      "type": "function"
    },
    {
      "inputs": [],
      "name": "_updateTotalReflection",
      "outputs": [],
      "stateMutability": "nonpayable",
      "type": "function"
    },
    {
      "inputs": [
        {
          "internalType": "address",
          "name": "account",
          "type": "address"
        }
      ],
      "name": "excludeAccount",
      "outputs": [],
      "stateMutability": "nonpayable",
      "type": "function"
    },
    {
      "inputs": [
        {
          "internalType": "address",
          "name": "account",
          "type": "address"
        }
      ],
      "name": "includeAccount",
      "outputs": [],
      "stateMutability": "nonpayable",
      "type": "function"
    }
  ],
  "transactionHash": "0x28c1ca127762c7bf23a7351156cb1c61fdf27099e40652008f428e2dd20f2b50",
  "args": [],
  "numDeployments": 1,
  "solcInputHash": "0b4a92c972ef0e837b1e576089bb5bf3",
  "bytecode": "0x60a080604052346100235730608052610fe79081610029823960805181610ddc0152f35b600080fdfe6040608081526004908136101561001557600080fd5b600090813560e01c806307103513146108e857806316f1cc83146107f65780632852df65146107825780636ff6cdf4146106bd578063a22b35ce1461053b578063c7d9be6614610442578063d0820d8714610210578063f2cc0c18146101035763f84354f11461008457600080fd5b346100ff5760203660031901126100ff5761009d610945565b926100a6610dd9565b6100ae610e97565b6001600160a01b038416916100c283610c62565b156100ea575050816100d48194610add565b55600080516020610f128339815191528280a380f35b91602492519163cbb78cbb60e01b8352820152fd5b5080fd5b50823461020c57602036600319011261020c5761011e610945565b610126610dd9565b61012e610e97565b6001600160a01b0381169161014283610bc4565b156101f55761015082610aa4565b54610159578480f35b61016282610aa4565b548451632d83811960e01b815291820152602081602481305afa9384156101ec575084936101b3575b5091610198600193610add565b55600080516020610f128339815191528380a3818080808480f35b92506020833d82116101e4575b816101cd602093836109fc565b810103126101e05791519161019861018b565b8380fd5b3d91506101c0565b513d86823e3d90fd5b83516301b2877f60e11b8152908101839052602490fd5b8280fd5b509181923461043e578060031936011261043e5761022c610945565b9160243592610239610e50565b600080516020610f52833981519152610253858254610995565b8155303b15610430578351630710351360e01b81528681858183305af180156104345790879161041c575b5050541580610405575b1561030257600080516020610f32833981519152546102a682610aa4565b55303b156102fe5784916102cb845195869384936372bcd72d60e01b85528401610b16565b038183305af19081156102f557506102e257505080f35b6102eb906109b8565b6102f25780f35b80fd5b513d84823e3d90fd5b8480fd5b92825190636a3c071b60e11b82528282015260a081602481305afa9081156103fb5785916103cd575b5061033e6001600160a01b038516610b5a565b156103b45760208101515161035d61035586610add565b918254610995565b905560208151015161037161035586610aa4565b90555b61038d6020848351015192019160208351015190610d68565b515192303b156102fe5784916102cb845195869384936372bcd72d60e01b85528401610b16565b6020815101516103c661035586610aa4565b9055610374565b6103ee915060a03d81116103f4575b6103e681836109fc565b810190610a1f565b3861032b565b503d6103dc565b83513d87823e3d90fd5b50600080516020610f328339815191525415610288565b610425906109b8565b61043057853861027e565b8580fd5b85513d89823e3d90fd5b5050fd5b509181923461043e5761045436610960565b61046094929194610e50565b8351636a3c071b60e11b81528381018290529060a082602481305afa91821561043457879261051b575b5061049f61049784610add565b918254610b7a565b90558051516104b061049784610aa4565b90556020815101516104c461035587610aa4565b90556104df6020858351015192019160208351015190610d68565b515191303b15610430576105068693855196879485946372bcd72d60e01b86528501610b38565b038183305af19081156102f557506102e25750f35b61053491925060a03d81116103f4576103e681836109fc565b903861048a565b509181923461043e578060031936011261043e57610557610945565b60243590610563610e50565b8251636a3c071b60e11b81528481018390529060a082602481305afa9182156106b3578692610693575b50600080516020610f528339815191526105a8848254610b7a565b9055303b15610430578351630710351360e01b81528681878183305af180156104345790879161067f575b50506001600160a01b038116926105e984610b5a565b15610665576105fa61049783610add565b905561060b61049783515192610aa4565b90555b6106276020848351015192019160208351015190610d68565b515190303b156102fe5782516372bcd72d60e01b815293840152600060248401526044830152828260648183305af19081156102f557506102e25750f35b5061067861049760208451015192610aa4565b905561060e565b610688906109b8565b6104305785386105d3565b6106ac91925060a03d81116103f4576103e681836109fc565b903861058d565b84513d88823e3d90fd5b509181923461043e576106cf36610960565b6106db94929194610e50565b8351636a3c071b60e11b81528381018290529060a082602481305afa918215610434578792610762575b5061071261049784610add565b905580515161072361049784610aa4565b90556104df84602083019283515161073d6103558a610add565b90556020815101516107516103558a610aa4565b905551015160208351015190610d68565b61077b91925060a03d81116103f4576103e681836109fc565b9038610705565b509181923461043e5761079436610960565b6107a094929194610e50565b835190636a3c071b60e11b82528382015260a081602481305afa9081156106b35786916107d8575b508051516104b061049784610aa4565b6107f0915060a03d81116103f4576103e681836109fc565b386107c8565b5082903461020c578261080836610960565b610813959195610e50565b845190636a3c071b60e11b82528282015260a081602481305afa9081156108de5784916108c0575b5080515161084b61049785610aa4565b90556108798560208301928351516108656103558b610add565b90556020815101516107516103558b610aa4565b5151303b156101e05761089e90855196879485946372bcd72d60e01b86528501610b38565b038183305af19081156102f557506108b4575080f35b6108bd906109b8565b80f35b6108d8915060a03d81116103f4576103e681836109fc565b8761083b565b85513d86823e3d90fd5b8284346100ff57816003193601126100ff57610902610e50565b600080516020610f528339815191525490811561093257506000190619600080516020610f328339815191525580f35b634e487b7160e01b835260129052602482fd5b600435906001600160a01b038216820361095b57565b600080fd5b606090600319011261095b576001600160a01b0390600435828116810361095b5791602435908116810361095b579060443590565b919082018092116109a257565b634e487b7160e01b600052601160045260246000fd5b6001600160401b0381116109cb57604052565b634e487b7160e01b600052604160045260246000fd5b604081019081106001600160401b038211176109cb57604052565b601f909101601f19168101906001600160401b038211908210176109cb57604052565b8091039060a0821261095b576040805192610a39846109e1565b6060811261095b5781516060810191906001600160401b038311818410176109cb5783928352845181526020850151602082015282850151838201528552605f19011261095b576080905191610a8e836109e1565b6060810151835201516020820152602082015290565b6001600160a01b031660009081527faf04b09135d90f3f033b0b36587eb83b773d1e2f0f54936e3b4630a67fea57346020526040902090565b6001600160a01b031660009081527faf04b09135d90f3f033b0b36587eb83b773d1e2f0f54936e3b4630a67fea57356020526040902090565b600081526001600160a01b039091166020820152604081019190915260600190565b6001600160a01b03918216815291166020820152604081019190915260600190565b600052600080516020610f72833981519152602052604060002054151590565b919082039182116109a257565b600080516020610f928339815191528054821015610bae5760005260206000200190600090565b634e487b7160e01b600052603260045260246000fd5b90600091808352600080516020610f728339815191529283602052604081205415600014610c5d57600080516020610f9283398151915280549490600160401b861015610c495783610c39610c22886001604098999a018555610b87565b819391549060031b91821b91600019901b19161790565b9055549382526020522055600190565b634e487b7160e01b83526041600452602483fd5b925050565b600090808252600080516020610f7283398151915290816020526040832054801515600014610d62576000199080820190808211610d4e57600080516020610f9283398151915291825490848201918211610d3a57808203610d07575b50505080548015610cf357820191610cd683610b87565b909182549160031b1b191690555582526020526040812055600190565b634e487b7160e01b86526031600452602486fd5b610d25610d16610c2293610b87565b90549060031b1c928392610b87565b90558652846020526040862055388080610cbf565b634e487b7160e01b88526011600452602488fd5b634e487b7160e01b86526011600452602486fd5b50505090565b610d82600080516020610f32833981519152918254610b7a565b90557faf04b09135d90f3f033b0b36587eb83b773d1e2f0f54936e3b4630a67fea5730610db0828254610995565b90557fd58208582f10862ab9cd078e390bd100c9e3b63e916f32001d3f26dcc48c19d1600080a2565b307f00000000000000000000000000000000000000000000000000000000000000006001600160a01b0316148015610e24575b610e1257565b604051639f357e6b60e01b8152600490fd5b5060ff7f9f1709bc5ab0578be51bb81e11b02cdd9c21aa603d7325a8a7551bbd5685a005541615610e0c565b303303610e5957565b604051632bc93d7960e21b81523360048201527fddd94edc7da5bca8f576c77964a4737ba5172c728e2d539e672f0229d1e9ec2d6024820152604490fd5b3360009081527f7eab7b82f3f21675de29d098b67b1bb6d0c69de2cb1ba0b9eb1dbc18d523752f60205260409020547fb19546dff01e856fb3f010c267a7b1c60363cf8a4664e21cc89c26224620214e9060ff1615610ef35750565b60449060405190632bc93d7960e21b82523360048301526024820152fdfe48d911320f8681787576862b7e1f75b6e92b4ab4a582aeb3501e738a365fc8d1af04b09135d90f3f033b0b36587eb83b773d1e2f0f54936e3b4630a67fea572faf04b09135d90f3f033b0b36587eb83b773d1e2f0f54936e3b4630a67fea572eaf04b09135d90f3f033b0b36587eb83b773d1e2f0f54936e3b4630a67fea5738af04b09135d90f3f033b0b36587eb83b773d1e2f0f54936e3b4630a67fea5737a26469706673582212200a95c2ffa6177ff6ef37adfcabc34490bb18c3332704e7e7b1b3ba85a4e3bb7d64736f6c63430008130033",
  "libraries": [
    "ASLib",
    "InitializerLib",
    "RolesManagementLib"
  ],
  "devdoc": {
    "events": {
      "Initialized(uint8)": {
        "details": "Triggered when the contract has been initialized or reinitialized."
      }
    },
    "kind": "dev",
    "methods": {},
    "version": 1
  },
  "userdoc": {
    "kind": "user",
    "methods": {},
    "version": 1
  },
  "storageLayout": {
    "storage": [
      {
        "astId": 6,
        "contract": "contracts/diamonds/autoreflectiveStaking/v1/ASReflectionFacet.sol:ASReflectionFacet",
        "label": "_initialized",
        "offset": 0,
        "slot": "0",
        "type": "t_uint8"
      },
      {
        "astId": 9,
        "contract": "contracts/diamonds/autoreflectiveStaking/v1/ASReflectionFacet.sol:ASReflectionFacet",
        "label": "_initializing",
        "offset": 1,
        "slot": "0",
        "type": "t_bool"
      }
    ],
    "types": {
      "t_bool": {
        "encoding": "inplace",
        "label": "bool",
        "numberOfBytes": "1"
      },
      "t_uint8": {
        "encoding": "inplace",
        "label": "uint8",
        "numberOfBytes": "1"
      }
    }
  }
}