{
  "address": "0x7786A422e02f72c840638d3245C2Fda2A25D0633",
  "abi": [
    {
      "inputs": [
        {
          "internalType": "address",
          "name": "who",
          "type": "address"
        }
      ],
      "name": "AlreadyExcluded",
      "type": "error"
    },
    {
      "inputs": [
        {
          "internalType": "address",
          "name": "who",
          "type": "address"
        }
      ],
      "name": "AlreadyIncluded",
      "type": "error"
    },
    {
      "inputs": [],
      "name": "DelegatedCallsOnly",
      "type": "error"
    },
    {
      "inputs": [
        {
          "internalType": "address",
          "name": "who",
          "type": "address"
        },
        {
          "internalType": "bytes32",
          "name": "role",
          "type": "bytes32"
        }
      ],
      "name": "HasNoRole",
      "type": "error"
    },
    {
      "anonymous": false,
      "inputs": [
        {
          "indexed": true,
          "internalType": "address",
          "name": "who",
          "type": "address"
        },
        {
          "indexed": true,
          "internalType": "bool",
          "name": "isExcluded",
          "type": "bool"
        }
      ],
      "name": "AddressStatus",
      "type": "event"
    },
    {
      "anonymous": false,
      "inputs": [
        {
          "indexed": true,
          "internalType": "uint256",
          "name": "amount",
          "type": "uint256"
        }
      ],
      "name": "FeeReflected",
      "type": "event"
    },
    {
      "anonymous": false,
      "inputs": [
        {
          "indexed": false,
          "internalType": "uint8",
          "name": "version",
          "type": "uint8"
        }
      ],
      "name": "Initialized",
      "type": "event"
    },
    {
      "inputs": [
        {
          "internalType": "address",
          "name": "who",
          "type": "address"
        },
        {
          "internalType": "uint256",
          "name": "tAmount",
          "type": "uint256"
        }
      ],
      "name": "_burnFrom",
      "outputs": [],
      "stateMutability": "nonpayable",
      "type": "function"
    },
    {
      "inputs": [
        {
          "internalType": "address",
          "name": "who",
          "type": "address"
        },
        {
          "internalType": "uint256",
          "name": "tAmount",
          "type": "uint256"
        }
      ],
      "name": "_mintTo",
      "outputs": [],
      "stateMutability": "nonpayable",
      "type": "function"
    },
    {
      "inputs": [
        {
          "internalType": "address",
          "name": "sender",
          "type": "address"
        },
        {
          "internalType": "address",
          "name": "recipient",
          "type": "address"
        },
        {
          "internalType": "uint256",
          "name": "tAmount",
          "type": "uint256"
        }
      ],
      "name": "_transferBothExcluded",
      "outputs": [],
      "stateMutability": "nonpayable",
      "type": "function"
    },
    {
      "inputs": [
        {
          "internalType": "address",
          "name": "sender",
          "type": "address"
        },
        {
          "internalType": "address",
          "name": "recipient",
          "type": "address"
        },
        {
          "internalType": "uint256",
          "name": "tAmount",
          "type": "uint256"
        }
      ],
      "name": "_transferFromExcluded",
      "outputs": [],
      "stateMutability": "nonpayable",
      "type": "function"
    },
    {
      "inputs": [
        {
          "internalType": "address",
          "name": "sender",
          "type": "address"
        },
        {
          "internalType": "address",
          "name": "recipient",
          "type": "address"
        },
        {
          "internalType": "uint256",
          "name": "tAmount",
          "type": "uint256"
        }
      ],
      "name": "_transferStandard",
      "outputs": [],
      "stateMutability": "nonpayable",
      "type": "function"
    },
    {
      "inputs": [
        {
          "internalType": "address",
          "name": "sender",
          "type": "address"
        },
        {
          "internalType": "address",
          "name": "recipient",
          "type": "address"
        },
        {
          "internalType": "uint256",
          "name": "tAmount",
          "type": "uint256"
        }
      ],
      "name": "_transferToExcluded",
      "outputs": [],
      "stateMutability": "nonpayable",
      "type": "function"
    },
    {
      "inputs": [],
      "name": "_updateTotalReflection",
      "outputs": [],
      "stateMutability": "nonpayable",
      "type": "function"
    },
    {
      "inputs": [
        {
          "internalType": "address",
          "name": "account",
          "type": "address"
        }
      ],
      "name": "excludeAccount",
      "outputs": [],
      "stateMutability": "nonpayable",
      "type": "function"
    },
    {
      "inputs": [
        {
          "internalType": "address",
          "name": "account",
          "type": "address"
        }
      ],
      "name": "includeAccount",
      "outputs": [],
      "stateMutability": "nonpayable",
      "type": "function"
    }
  ],
  "transactionHash": "0x2cb7de48a39a4d2790aa0f1f9b24b4ac8c227cef75cd84ff0044e63685c8ff4e",
  "args": [],
  "numDeployments": 6,
  "solcInputHash": "78b8539315b5602947be51a6c56e4393",
  "bytecode": "0x60a080604052346100235730608052610f619081610029823960805181610d560152f35b600080fdfe6040608081526004908136101561001557600080fd5b600090813560e01c8063071035131461087257806316f1cc83146107805780632852df651461070c5780636ff6cdf414610647578063a22b35ce146104bf578063c7d9be66146103c0578063d0820d8714610210578063f2cc0c18146101035763f84354f11461008457600080fd5b346100ff5760203660031901126100ff5761009d6108e1565b926100a6610d53565b6100ae610e11565b6001600160a01b038416916100c283610bdc565b156100ea575050816100d48194610a56565b55600080516020610ecc8339815191528280a380f35b91602492519163cbb78cbb60e01b8352820152fd5b5080fd5b50823461020c57602036600319011261020c5761011e6108e1565b610126610d53565b61012e610e11565b6001600160a01b0381169161014283610b3e565b156101f55761015082610a1d565b54610159578480f35b61016282610a1d565b548451632d83811960e01b815291820152602081602481305afa9384156101ec575084936101b3575b5091610198600193610a56565b55600080516020610ecc8339815191528380a3818080808480f35b92506020833d82116101e4575b816101cd60209383610975565b810103126101e05791519161019861018b565b8380fd5b3d91506101c0565b513d86823e3d90fd5b83516301b2877f60e11b8152908101839052602490fd5b8280fd5b50918192346103bc57806003193601126103bc5761022c6108e1565b602435610237610dca565b8251636a3c071b60e11b81528481018290529060a082602481305afa9182156103b2578692610382575b5061027661026e30610a56565b918254610a8f565b905580515161028761026e30610a1d565b90556001600160a01b0382169161029d83610ae1565b15610369576020820151516102bc6102b483610a56565b918254610ab2565b90556102d06102b460208451015192610a1d565b90555b6102ec6020848351015192019160208351015190610ce2565b805151610309600080516020610eec833981519152918254610ab2565b9055515190303b156103655760008351946372bcd72d60e01b865285015260248401526044830152828260648183305af190811561035c57506103495750f35b61035290610931565b6103595780f35b80fd5b513d84823e3d90fd5b8480fd5b61037b6102b460208451015192610a1d565b90556102d3565b6103a491925060a03d81116103ab575b61039c8183610975565b810190610998565b9038610261565b503d610392565b84513d88823e3d90fd5b5050fd5b50918192346103bc576103d2366108fc565b6103de94929194610dca565b8351636a3c071b60e11b81528381018290529060a082602481305afa9182156104b5578792610495575b5061041561026e84610a56565b905580515161042661026e84610a1d565b905560208151015161043a6102b487610a1d565b90556104556020858351015192019160208351015190610ce2565b515191303b156104915761047c8693855196879485946372bcd72d60e01b86528501610abf565b038183305af190811561035c57506103495750f35b8580fd5b6104ae91925060a03d81116103ab5761039c8183610975565b9038610408565b85513d89823e3d90fd5b50918192346103bc57806003193601126103bc576104db6108e1565b6024356104e6610dca565b8251636a3c071b60e11b81528481018290529060a082602481305afa9182156103b2578692610627575b506001600160a01b0383169261052584610ae1565b156105e75761053381610a56565b61053e838254610a8f565b905561054f61026e84515192610a1d565b905561055d6102b430610a56565b905580515161056e6102b430610a1d565b90555b61058a6020848351015192019160208351015190610ce2565b8051516105a7600080516020610eec833981519152918254610a8f565b9055515190303b156103655782516372bcd72d60e01b815293840152600060248401526044830152828260648183305af190811561035c57506103495750f35b90506105fb61026e60208451015192610a1d565b905580515161060c6102b430610a1d565b90556020810151516106206102b430610a56565b9055610571565b61064091925060a03d81116103ab5761039c8183610975565b9038610510565b50918192346103bc57610659366108fc565b61066594929194610dca565b8351636a3c071b60e11b81528381018290529060a082602481305afa9182156104b55787926106ec575b5061069c61026e84610a56565b90558051516106ad61026e84610a1d565b90556104558460208301928351516106c76102b48a610a56565b90556020815101516106db6102b48a610a1d565b905551015160208351015190610ce2565b61070591925060a03d81116103ab5761039c8183610975565b903861068f565b50918192346103bc5761071e366108fc565b61072a94929194610dca565b835190636a3c071b60e11b82528382015260a081602481305afa9081156103b2578691610762575b5080515161042661026e84610a1d565b61077a915060a03d81116103ab5761039c8183610975565b38610752565b5082903461020c5782610792366108fc565b61079d959195610dca565b845190636a3c071b60e11b82528282015260a081602481305afa90811561086857849161084a575b508051516107d561026e85610a1d565b90556108038560208301928351516107ef6102b48b610a56565b90556020815101516106db6102b48b610a1d565b5151303b156101e05761082890855196879485946372bcd72d60e01b86528501610abf565b038183305af190811561035c575061083e575080f35b61084790610931565b80f35b610862915060a03d81116103ab5761039c8183610975565b876107c5565b85513d86823e3d90fd5b8284346100ff57816003193601126100ff5761088c610dca565b7faf04b09135d90f3f033b0b36587eb83b773d1e2f0f54936e3b4630a67fea572c549081156108ce57506000190619600080516020610eac8339815191525580f35b634e487b7160e01b835260129052602482fd5b600435906001600160a01b03821682036108f757565b600080fd5b60609060031901126108f7576001600160a01b039060043582811681036108f7579160243590811681036108f7579060443590565b6001600160401b03811161094457604052565b634e487b7160e01b600052604160045260246000fd5b604081019081106001600160401b0382111761094457604052565b601f909101601f19168101906001600160401b0382119082101761094457604052565b8091039060a082126108f75760408051926109b28461095a565b606081126108f75781516060810191906001600160401b038311818410176109445783928352845181526020850151602082015282850151838201528552605f1901126108f7576080905191610a078361095a565b6060810151835201516020820152602082015290565b6001600160a01b031660009081527faf04b09135d90f3f033b0b36587eb83b773d1e2f0f54936e3b4630a67fea57336020526040902090565b6001600160a01b031660009081527faf04b09135d90f3f033b0b36587eb83b773d1e2f0f54936e3b4630a67fea57346020526040902090565b91908203918211610a9c57565b634e487b7160e01b600052601160045260246000fd5b91908201809211610a9c57565b6001600160a01b03918216815291166020820152604081019190915260600190565b600052600080516020610f0c833981519152602052604060002054151590565b600080516020610e8c8339815191528054821015610b285760005260206000200190600090565b634e487b7160e01b600052603260045260246000fd5b90600091808352600080516020610f0c8339815191529283602052604081205415600014610bd757600080516020610e8c83398151915280549490600160401b861015610bc35783610bb3610b9c886001604098999a018555610b01565b819391549060031b91821b91600019901b19161790565b9055549382526020522055600190565b634e487b7160e01b83526041600452602483fd5b925050565b600090808252600080516020610f0c83398151915290816020526040832054801515600014610cdc576000199080820190808211610cc857600080516020610e8c83398151915291825490848201918211610cb457808203610c81575b50505080548015610c6d57820191610c5083610b01565b909182549160031b1b191690555582526020526040812055600190565b634e487b7160e01b86526031600452602486fd5b610c9f610c90610b9c93610b01565b90549060031b1c928392610b01565b90558652846020526040862055388080610c39565b634e487b7160e01b88526011600452602488fd5b634e487b7160e01b86526011600452602486fd5b50505090565b610cfc600080516020610eac833981519152918254610a8f565b90557faf04b09135d90f3f033b0b36587eb83b773d1e2f0f54936e3b4630a67fea572e610d2a828254610ab2565b90557fd58208582f10862ab9cd078e390bd100c9e3b63e916f32001d3f26dcc48c19d1600080a2565b307f00000000000000000000000000000000000000000000000000000000000000006001600160a01b0316148015610d9e575b610d8c57565b604051639f357e6b60e01b8152600490fd5b5060ff7f9f1709bc5ab0578be51bb81e11b02cdd9c21aa603d7325a8a7551bbd5685a005541615610d86565b303303610dd357565b604051632bc93d7960e21b81523360048201527fddd94edc7da5bca8f576c77964a4737ba5172c728e2d539e672f0229d1e9ec2d6024820152604490fd5b3360009081527f7eab7b82f3f21675de29d098b67b1bb6d0c69de2cb1ba0b9eb1dbc18d523752f60205260409020547fb19546dff01e856fb3f010c267a7b1c60363cf8a4664e21cc89c26224620214e9060ff1615610e6d5750565b60449060405190632bc93d7960e21b82523360048301526024820152fdfeaf04b09135d90f3f033b0b36587eb83b773d1e2f0f54936e3b4630a67fea5736af04b09135d90f3f033b0b36587eb83b773d1e2f0f54936e3b4630a67fea572d48d911320f8681787576862b7e1f75b6e92b4ab4a582aeb3501e738a365fc8d1af04b09135d90f3f033b0b36587eb83b773d1e2f0f54936e3b4630a67fea5732af04b09135d90f3f033b0b36587eb83b773d1e2f0f54936e3b4630a67fea5737a2646970667358221220f65277d7b9ee75629540a821ebf830077fc19809cbe2132317d7b9449c7d6af264736f6c63430008130033",
  "libraries": [
    "ASLib",
    "InitializerLib",
    "RolesManagementLib",
    "TDLib",
    "DelayedSendingsQueueLib"
  ],
  "devdoc": {
    "events": {
      "Initialized(uint8)": {
        "details": "Triggered when the contract has been initialized or reinitialized."
      }
    },
    "kind": "dev",
    "methods": {},
    "version": 1
  },
  "userdoc": {
    "kind": "user",
    "methods": {},
    "version": 1
  },
  "storageLayout": {
    "storage": [
      {
        "astId": 6,
        "contract": "contracts/diamonds/autoreflectiveStaking/v1/ASReflectionFacet.sol:ASReflectionFacet",
        "label": "_initialized",
        "offset": 0,
        "slot": "0",
        "type": "t_uint8"
      },
      {
        "astId": 9,
        "contract": "contracts/diamonds/autoreflectiveStaking/v1/ASReflectionFacet.sol:ASReflectionFacet",
        "label": "_initializing",
        "offset": 1,
        "slot": "0",
        "type": "t_bool"
      }
    ],
    "types": {
      "t_bool": {
        "encoding": "inplace",
        "label": "bool",
        "numberOfBytes": "1"
      },
      "t_uint8": {
        "encoding": "inplace",
        "label": "uint8",
        "numberOfBytes": "1"
      }
    }
  }
}