{
  "address": "0xE837662456Ba6d2e3a87d4DAa84C4ecAD8856C56",
  "abi": [
    {
      "inputs": [],
      "name": "CannotStakeZero",
      "type": "error"
    },
    {
      "inputs": [],
      "name": "CannotWithdrawZero",
      "type": "error"
    },
    {
      "inputs": [],
      "name": "DelegatedCallsOnly",
      "type": "error"
    },
    {
      "inputs": [
        {
          "internalType": "address",
          "name": "who",
          "type": "address"
        },
        {
          "internalType": "bytes32",
          "name": "role",
          "type": "bytes32"
        }
      ],
      "name": "HasNoRole",
      "type": "error"
    },
    {
      "inputs": [],
      "name": "OnlyWhenNotPaused",
      "type": "error"
    },
    {
      "anonymous": false,
      "inputs": [
        {
          "indexed": false,
          "internalType": "uint8",
          "name": "version",
          "type": "uint8"
        }
      ],
      "name": "Initialized",
      "type": "event"
    },
    {
      "inputs": [],
      "name": "_initialize_LSDepositaryFacet",
      "outputs": [],
      "stateMutability": "nonpayable",
      "type": "function"
    },
    {
      "inputs": [
        {
          "internalType": "enum DelayedSendingsQueueLib.DueDuration",
          "name": "dueDuration",
          "type": "uint8"
        }
      ],
      "name": "getReward",
      "outputs": [],
      "stateMutability": "nonpayable",
      "type": "function"
    },
    {
      "inputs": [],
      "name": "pause",
      "outputs": [],
      "stateMutability": "nonpayable",
      "type": "function"
    },
    {
      "inputs": [],
      "name": "paused",
      "outputs": [
        {
          "internalType": "bool",
          "name": "",
          "type": "bool"
        }
      ],
      "stateMutability": "view",
      "type": "function"
    },
    {
      "inputs": [
        {
          "internalType": "uint256",
          "name": "amount",
          "type": "uint256"
        }
      ],
      "name": "stake",
      "outputs": [],
      "stateMutability": "nonpayable",
      "type": "function"
    },
    {
      "inputs": [
        {
          "internalType": "address",
          "name": "staker",
          "type": "address"
        },
        {
          "internalType": "uint256",
          "name": "amount",
          "type": "uint256"
        }
      ],
      "name": "stakeFor",
      "outputs": [],
      "stateMutability": "nonpayable",
      "type": "function"
    },
    {
      "inputs": [],
      "name": "unpause",
      "outputs": [],
      "stateMutability": "nonpayable",
      "type": "function"
    },
    {
      "inputs": [
        {
          "internalType": "address",
          "name": "account",
          "type": "address"
        }
      ],
      "name": "updateReward",
      "outputs": [],
      "stateMutability": "nonpayable",
      "type": "function"
    },
    {
      "inputs": [
        {
          "internalType": "uint256",
          "name": "amount",
          "type": "uint256"
        },
        {
          "internalType": "enum DelayedSendingsQueueLib.DueDuration",
          "name": "dueDuration",
          "type": "uint8"
        }
      ],
      "name": "withdraw",
      "outputs": [],
      "stateMutability": "nonpayable",
      "type": "function"
    }
  ],
  "transactionHash": "0x4af0ae82587dbad205252da9ecf4ab270ff2eddccf7b0a9aa30f7192e3da1e91",
  "args": [],
  "numDeployments": 2,
  "solcInputHash": "b178681420bc8bb2082998e701e24f8f",
  "bytecode": "0x60a080604052346100235730608052610df890816100298239608051816105ae0152f35b600080fdfe60406080815260048036101561001457600080fd5b600091823560e01c80632ee40908146104c65780633f4ba83a1461048b5780635c975abb1461044e578063632447c9146104215780638456cb59146103e3578063903d429614610313578063915f37c5146101da578381639a6a327c146100e2575063a694fc3a1461008557600080fd5b346100de5760203660031901126100de5761009e6107b5565b6100a66105ab565b60ff600080516020610d8383398151915254166100d157506100ca90353333610a8c565b6001805580f35b51638b3355bb60e01b8152fd5b8280fd5b808484346101d65760203660031901126101d65781359160058310156101d15761010a6107b5565b6101126105ab565b61011b336108bb565b6101243361071c565b5480610133575b846001805580f35b8461013d3361071c565b557fd48875cae7c32c61030933702d7dc74d508a7c3c49fed9e91e1c0fcd6f2ad57361016a82825461080b565b9055303b156101cd578491610192845195869384936314d8d96b60e21b85523390850161087a565b038183305af19081156101c457506101ad575b80808061012b565b6101b69061082e565b6101c15780826101a5565b80fd5b513d84823e3d90fd5b8480fd5b505050fd5b5050fd5b5090346100de57826003193601126100de57825460ff8160081c161591828093610306575b80156102ef575b15610295575060ff198116600117845581610284575b5061022561069c565b82549061024060ff8360081c1661023b81610755565b610755565b6001805561024c578280f35b61ff001916825551600181527f7f26b83ff96e1f2b6a682f133852f6798a09c465da95921460cefb384740249890602090a138808280f35b61ffff19166101011783553861021c565b608490602085519162461bcd60e51b8352820152602e60248201527f496e697469616c697a61626c653a20636f6e747261637420697320616c72656160448201526d191e481a5b9a5d1a585b1a5e995960921b6064820152fd5b50303b1580156102065750600160ff831614610206565b50600160ff8316106101ff565b50346100de57806003193601126100de5781356024359260058410156101cd5761033b6107b5565b6103436105ab565b61034c336108bb565b81156103d557908491600080516020610da383398151915261036f83825461080b565b905561037a336106e3565b61038583825461080b565b9055303b156100de576103ab845195869384936310b40a4560e31b85523390850161087a565b038183305af19081156101c457506103c6575b506001805580f35b6103cf9061082e565b386103be565b825163061bb89b60e51b8152fd5b83346101c157806003193601126101c1576103fc6105ab565b610404610622565b600080516020610d83833981519152805460ff1916600117905580f35b83346101c15760203660031901126101c15761044b61043e610590565b61044661069c565b6108bb565b80f35b83823461048757816003193601126104875760209061046b6105ab565b60ff600080516020610d83833981519152541690519015158152f35b5080fd5b83346101c157806003193601126101c1576104a46105ab565b6104ac610622565b600080516020610d83833981519152805460ff1916905580f35b5090346100de57816003193601126100de576104e0610590565b916104e96107b5565b6104f16105ab565b60ff600080516020610d8383398151915254166100d1577ff81f7ae177f481ea98850e26888e43f384935d185488cac1397c5015987a2174908185527f256352104e666e6cce09c45a35c339c150e1991724469c7d87b784a284535e4460205280852033865260205260ff81862054161561057457846100ca6024353387610a8c565b604493505191632bc93d7960e21b835233908301526024820152fd5b600435906001600160a01b03821682036105a657565b600080fd5b307f00000000000000000000000000000000000000000000000000000000000000006001600160a01b03161480156105f6575b6105e457565b604051639f357e6b60e01b8152600490fd5b5060ff7f9f1709bc5ab0578be51bb81e11b02cdd9c21aa603d7325a8a7551bbd5685a0055416156105de565b3360009081527fafc7accde9d500a22c2cfab02f3fc17118030f8e817644d26d42e1e6e71ad93a60205260409020547f65d7a28e3265b37a6474929f336521b332c1681b933f6cb9f3376673440d862a9060ff161561067e5750565b60449060405190632bc93d7960e21b82523360048301526024820152fd5b3033036106a557565b604051632bc93d7960e21b81523360048201527fddd94edc7da5bca8f576c77964a4737ba5172c728e2d539e672f0229d1e9ec2d6024820152604490fd5b6001600160a01b031660009081527fd48875cae7c32c61030933702d7dc74d508a7c3c49fed9e91e1c0fcd6f2ad5776020526040902090565b6001600160a01b031660009081527fd48875cae7c32c61030933702d7dc74d508a7c3c49fed9e91e1c0fcd6f2ad5766020526040902090565b1561075c57565b60405162461bcd60e51b815260206004820152602b60248201527f496e697469616c697a61626c653a20636f6e7472616374206973206e6f74206960448201526a6e697469616c697a696e6760a81b6064820152608490fd5b6002600154146107c6576002600155565b60405162461bcd60e51b815260206004820152601f60248201527f5265656e7472616e637947756172643a207265656e7472616e742063616c6c006044820152606490fd5b9190820391821161081857565b634e487b7160e01b600052601160045260246000fd5b6001600160401b03811161084157604052565b634e487b7160e01b600052604160045260246000fd5b601f909101601f19168101906001600160401b0382119082101761084157604052565b6001600160a01b03909116815260208101919091526060810192919060058210156108a55760400152565b634e487b7160e01b600052602160045260246000fd5b6040805163cd3daf9d60e01b81526020908181600481305afa908115610a7457600091610a47575b507fd48875cae7c32c61030933702d7dc74d508a7c3c49fed9e91e1c0fcd6f2ad57190815582516380faa57d60e01b81528281600481305afa908115610a3c57600091610a0f575b507fd48875cae7c32c61030933702d7dc74d508a7c3c49fed9e91e1c0fcd6f2ad570556001600160a01b0384169384610966575b5050505050565b83516246613160e11b815260048101869052908382602481305afa918215610a04576000926109d3575b50906109be7fd48875cae7c32c61030933702d7dc74d508a7c3c49fed9e91e1c0fcd6f2ad57594939261071c565b5554936000525260002055388080808061095f565b90918482813d83116109fd575b6109ea8183610857565b810103126101c1575051906109be610990565b503d6109e0565b85513d6000823e3d90fd5b908382813d8311610a35575b610a258183610857565b810103126101c15750513861092b565b503d610a1b565b84513d6000823e3d90fd5b908282813d8311610a6d575b610a5d8183610857565b810103126101c1575051386108e3565b503d610a53565b83513d6000823e3d90fd5b9190820180921161081857565b610a95816108bb565b7fd48875cae7c32c61030933702d7dc74d508a7c3c49fed9e91e1c0fcd6f2ad56c546001600160a01b03919082168415610c9c57600080516020610da3833981519152610ae3868254610a7f565b9055610aee826106e3565b610af9868254610a7f565b90556040516323b872dd60e01b6020808301918252958516602483015230604483015260648083018890528252949160a08201916001600160401b039190828411818510176108415760e0810184811084821117610841576040528484527f5361666545524332303a206c6f772d6c6576656c2063616c6c206661696c656460c0820152600080988192519082855af1903d15610c8d573d928311610c795790610bc393929160405192610bb687601f19601f8401160185610857565b83523d898785013e610cae565b8051828115918215610c59575b5050905015610c02575016907f9e71bc8eea02a63969f509818f2dafb9254532904319f9dbda79b67bd34a5f3d9080a3565b6084906040519062461bcd60e51b82526004820152602a60248201527f5361666545524332303a204552433230206f7065726174696f6e20646964206e6044820152691bdd081cdd58d8d9595960b21b6064820152fd5b83809293500103126101cd5781015180151581036101cd57808238610bd0565b634e487b7160e01b88526041600452602488fd5b90610bc3939250606091610cae565b604051636a76ff9f60e01b8152600490fd5b91929015610d105750815115610cc2575090565b3b15610ccb5790565b60405162461bcd60e51b815260206004820152601d60248201527f416464726573733a2063616c6c20746f206e6f6e2d636f6e74726163740000006044820152606490fd5b825190915015610d235750805190602001fd5b6040519062461bcd60e51b82528160208060048301528251908160248401526000935b828510610d69575050604492506000838284010152601f80199101168101030190fd5b8481018201518686016044015293810193859350610d4656fead4400ca8593660aa3766af03c44627f69310ee453859cf44d5fefe4f7090caad48875cae7c32c61030933702d7dc74d508a7c3c49fed9e91e1c0fcd6f2ad572a2646970667358221220f28eb592f8e3ab9f3bee0af2bbe7969265903d9bfe77eeb6a417fefa23e6d77164736f6c63430008130033",
  "libraries": [
    "TDLib",
    "LSLib",
    "InitializerLib",
    "RolesManagementLib",
    "DelayedSendingsQueueLib"
  ],
  "devdoc": {
    "events": {
      "Initialized(uint8)": {
        "details": "Triggered when the contract has been initialized or reinitialized."
      }
    },
    "kind": "dev",
    "methods": {
      "_initialize_LSDepositaryFacet()": {
        "details": "MIND THAT THIS SHOULD BE THE ONLY SMART CONTRACT (MEANING REENTRANCY GUARD) FROM OZ LIB THAT IS TO BE UTILIZIED IN THIS DIAMOND."
      }
    },
    "version": 1
  },
  "userdoc": {
    "kind": "user",
    "methods": {},
    "version": 1
  },
  "storageLayout": {
    "storage": [
      {
        "astId": 6,
        "contract": "contracts/diamonds/locusStaking/v1/vaultTokenStaking/LSDepositaryForVaultTokensFacet.sol:LSDepositaryForVaultTokensFacet",
        "label": "_initialized",
        "offset": 0,
        "slot": "0",
        "type": "t_uint8"
      },
      {
        "astId": 9,
        "contract": "contracts/diamonds/locusStaking/v1/vaultTokenStaking/LSDepositaryForVaultTokensFacet.sol:LSDepositaryForVaultTokensFacet",
        "label": "_initializing",
        "offset": 1,
        "slot": "0",
        "type": "t_bool"
      },
      {
        "astId": 309,
        "contract": "contracts/diamonds/locusStaking/v1/vaultTokenStaking/LSDepositaryForVaultTokensFacet.sol:LSDepositaryForVaultTokensFacet",
        "label": "_status",
        "offset": 0,
        "slot": "1",
        "type": "t_uint256"
      },
      {
        "astId": 378,
        "contract": "contracts/diamonds/locusStaking/v1/vaultTokenStaking/LSDepositaryForVaultTokensFacet.sol:LSDepositaryForVaultTokensFacet",
        "label": "__gap",
        "offset": 0,
        "slot": "2",
        "type": "t_array(t_uint256)49_storage"
      }
    ],
    "types": {
      "t_array(t_uint256)49_storage": {
        "base": "t_uint256",
        "encoding": "inplace",
        "label": "uint256[49]",
        "numberOfBytes": "1568"
      },
      "t_bool": {
        "encoding": "inplace",
        "label": "bool",
        "numberOfBytes": "1"
      },
      "t_uint256": {
        "encoding": "inplace",
        "label": "uint256",
        "numberOfBytes": "32"
      },
      "t_uint8": {
        "encoding": "inplace",
        "label": "uint8",
        "numberOfBytes": "1"
      }
    }
  }
}