{
  "address": "0x18ABbA2F027176665fc776513dcd8C0E2c851071",
  "abi": [
    {
      "inputs": [],
      "name": "CannotStakeZero",
      "type": "error"
    },
    {
      "inputs": [],
      "name": "CannotWithdrawZero",
      "type": "error"
    },
    {
      "inputs": [],
      "name": "DelegatedCallsOnly",
      "type": "error"
    },
    {
      "inputs": [
        {
          "internalType": "address",
          "name": "who",
          "type": "address"
        },
        {
          "internalType": "bytes32",
          "name": "role",
          "type": "bytes32"
        }
      ],
      "name": "HasNoRole",
      "type": "error"
    },
    {
      "anonymous": false,
      "inputs": [
        {
          "indexed": false,
          "internalType": "uint8",
          "name": "version",
          "type": "uint8"
        }
      ],
      "name": "Initialized",
      "type": "event"
    },
    {
      "anonymous": false,
      "inputs": [
        {
          "indexed": false,
          "internalType": "address",
          "name": "account",
          "type": "address"
        }
      ],
      "name": "Paused",
      "type": "event"
    },
    {
      "anonymous": false,
      "inputs": [
        {
          "indexed": false,
          "internalType": "address",
          "name": "account",
          "type": "address"
        }
      ],
      "name": "Unpaused",
      "type": "event"
    },
    {
      "inputs": [],
      "name": "_initialize_LSDepositaryFacet",
      "outputs": [],
      "stateMutability": "nonpayable",
      "type": "function"
    },
    {
      "inputs": [],
      "name": "exit",
      "outputs": [],
      "stateMutability": "nonpayable",
      "type": "function"
    },
    {
      "inputs": [],
      "name": "getReward",
      "outputs": [],
      "stateMutability": "nonpayable",
      "type": "function"
    },
    {
      "inputs": [],
      "name": "paused",
      "outputs": [
        {
          "internalType": "bool",
          "name": "",
          "type": "bool"
        }
      ],
      "stateMutability": "view",
      "type": "function"
    },
    {
      "inputs": [
        {
          "internalType": "uint256",
          "name": "amount",
          "type": "uint256"
        }
      ],
      "name": "stake",
      "outputs": [],
      "stateMutability": "nonpayable",
      "type": "function"
    },
    {
      "inputs": [
        {
          "internalType": "address",
          "name": "staker",
          "type": "address"
        },
        {
          "internalType": "uint256",
          "name": "amount",
          "type": "uint256"
        }
      ],
      "name": "stakeFor",
      "outputs": [],
      "stateMutability": "nonpayable",
      "type": "function"
    },
    {
      "inputs": [
        {
          "internalType": "address",
          "name": "account",
          "type": "address"
        }
      ],
      "name": "updateReward",
      "outputs": [],
      "stateMutability": "nonpayable",
      "type": "function"
    },
    {
      "inputs": [
        {
          "internalType": "uint256",
          "name": "amount",
          "type": "uint256"
        }
      ],
      "name": "withdraw",
      "outputs": [],
      "stateMutability": "nonpayable",
      "type": "function"
    }
  ],
  "transactionHash": "0xa1ea2e4dd2e0325df17f37c3fb7a3f1ed9b9019d249a28e1490e0b85d24474af",
  "args": [],
  "numDeployments": 4,
  "solcInputHash": "156336847c249fbc9cabd0a8fc9680fa",
  "bytecode": "0x60a0806040523461002357306080526111e29081610029823960805181610c1e0152f35b600080fdfe60406080815260048036101561001457600080fd5b600091823560e01c80632e1a7d4d146108bf5780632ee40908146108005780633d18b9121461074e5780635c975abb1461072a578063632447c914610560578063915f37c51461040b578063a694fc3a146103cd5763e9fad8ee1461007857600080fd5b346103c957826003193601126103c95761009133610b0f565b549161009b610bc5565b6100a3610c1b565b303b156103c557815163632447c960e01b808252338383015292908590818160248183305af180156103bb576103a3575b505083156103965760008051602061114d8339815191526100f6858254610cde565b905561010133610b0f565b61010c858254610cde565b905560018060a01b03918560008051602061118d833981519152948486541696809760008051602061116d83398151915298878a5416821461031c575b6101588161015e933390610d1a565b82610cde565b903360008051602061110d8339815191528580a46001805561017e610bc5565b610186610c1b565b303b156103185783519081523383820152818160248183305af1801561030e576102f6575b50506101b633610b48565b549483808796541691541603610265575b5050826101d7575b836001805580f35b61023791610232848093876101eb33610b48565b557fd48875cae7c32c61030933702d7dc74d508a7c3c49fed9e91e1c0fcd6f2ad574610218838254610cde565b9055339060008051602061112d8339815191525416610d1a565b610cde565b90337fd6f2c8500df5b44f11e9e48b91ff9f1b9d81bc496d55570c2b1b75bf65243f518480a43880806101cf565b9091936020908560008051602061112d8339815191525416926102998551948593849363b859bb5f60e01b85528401610d01565b038188305af19182156102ed575084916102b7575b509138806101c7565b90506020813d82116102e5575b816102d160209383610cbb565b810103126102e05751386102ae565b600080fd5b3d91506102c4565b513d86823e3d90fd5b6102ff90610c92565b61030a5785386101ab565b8580fd5b84513d84823e3d90fd5b5080fd5b50855163b859bb5f60e01b81526020818061033a85878b8401610d01565b038188305af190811561038c578591610354575b50610149565b919450506020813d8211610384575b8161037060209383610cbb565b810103126102e0575189939061015861034e565b3d9150610363565b87513d87823e3d90fd5b5163061bb89b60e51b8152fd5b6103ac90610c92565b6103b75784386100d4565b8480fd5b83513d84823e3d90fd5b8380fd5b8280fd5b50503461031857602036600319011261031857610404906103ec610bc5565b6103f4610c1b565b6103fc610b81565b353333610fa3565b6001805580f35b5090346103c957826003193601126103c95782549060ff8260081c161590818092610553575b801561053c575b156104e2575060ff19828116600117855591816104d1575b50610459610ac8565b83549161048a60ff8460081c1661046f81610a68565b61047881610a68565b6001805561048581610a68565b610a68565b60655416606555610499578280f35b61ff001916825551600181527f7f26b83ff96e1f2b6a682f133852f6798a09c465da95921460cefb384740249890602090a138808280f35b61ffff191661010117845538610450565b608490602085519162461bcd60e51b8352820152602e60248201527f496e697469616c697a61626c653a20636f6e747261637420697320616c72656160448201526d191e481a5b9a5d1a585b1a5e995960921b6064820152fd5b50303b1580156104385750600160ff841614610438565b50600160ff841610610431565b50346103c957602091826003193601126103c55761057c610a52565b92610585610ac8565b825163cd3daf9d60e01b815281818481305afa9081156107205786916106f3575b507fd48875cae7c32c61030933702d7dc74d508a7c3c49fed9e91e1c0fcd6f2ad57290815583516380faa57d60e01b815282818581305afa9081156106bc5787916106c6575b507fd48875cae7c32c61030933702d7dc74d508a7c3c49fed9e91e1c0fcd6f2ad571556001600160a01b0385169485610623578680f35b84516246613160e11b81529384018690528284602481305afa9384156106bc57879461068b575b50926106767fd48875cae7c32c61030933702d7dc74d508a7c3c49fed9e91e1c0fcd6f2ad57594610b48565b55549360005252600020553880808080808680f35b93508284813d83116106b5575b6106a28183610cbb565b810103126102e05792519261067661064a565b503d610698565b85513d89823e3d90fd5b90508281813d83116106ec575b6106dd8183610cbb565b810103126102e05751386105ec565b503d6106d3565b90508181813d8311610719575b61070a8183610cbb565b810103126102e05751386105a6565b503d610700565b84513d88823e3d90fd5b83823461031857816003193601126103185760209060ff6065541690519015158152f35b50346103c957826003193601126103c957610767610bc5565b61076f610c1b565b303b156103c957805163632447c960e01b815233838201528390818160248183305af180156103bb576107ec575b50506107a833610b48565b5491829160018060a01b03918260008051602061118d83398151915254168360008051602061116d833981519152541603610265575050826101d757836001805580f35b6107f590610c92565b6103c957823861079d565b5090346103c957816003193601126103c95761081a610a52565b91610823610bc5565b61082b610c1b565b610833610b81565b7ff81f7ae177f481ea98850e26888e43f384935d185488cac1397c5015987a217490816000527f256352104e666e6cce09c45a35c339c150e1991724469c7d87b784a284535e44602052806000203360005260205260ff816000205416156108a357846104046024353387610fa3565b604493505191632bc93d7960e21b835233908301526024820152fd5b50346103c95760203660031901126103c9578135916108dc610bc5565b6108e4610c1b565b303b156103c557815163632447c960e01b81523382820152848160248183305af18015610a4857610a35575b508215610a275760008051602061114d833981519152610931848254610cde565b905561093c33610b0f565b610947848254610cde565b905560008051602061118d8339815191525460008051602061116d8339815191525484926001600160a01b039283169284921683146109ae575b50610993836101588189953390610d1a565b903360008051602061110d8339815191528480a46001805580f35b829350906020916109d08651948593849363b859bb5f60e01b85528401610d01565b038188305af19283156102ed575084926109f2575b5061099391908338610981565b91506020823d8211610a1f575b81610a0c60209383610cbb565b810103126102e0579051906101586109e5565b3d91506109ff565b905163061bb89b60e51b8152fd5b610a4190949194610c92565b9238610910565b83513d87823e3d90fd5b600435906001600160a01b03821682036102e057565b15610a6f57565b60405162461bcd60e51b815260206004820152602b60248201527f496e697469616c697a61626c653a20636f6e7472616374206973206e6f74206960448201526a6e697469616c697a696e6760a81b6064820152608490fd5b303303610ad157565b604051632bc93d7960e21b81523360048201527fddd94edc7da5bca8f576c77964a4737ba5172c728e2d539e672f0229d1e9ec2d6024820152604490fd5b6001600160a01b031660009081527fd48875cae7c32c61030933702d7dc74d508a7c3c49fed9e91e1c0fcd6f2ad5776020526040902090565b6001600160a01b031660009081527fd48875cae7c32c61030933702d7dc74d508a7c3c49fed9e91e1c0fcd6f2ad5766020526040902090565b60ff60655416610b8d57565b60405162461bcd60e51b815260206004820152601060248201526f14185d5cd8589b194e881c185d5cd95960821b6044820152606490fd5b600260015414610bd6576002600155565b60405162461bcd60e51b815260206004820152601f60248201527f5265656e7472616e637947756172643a207265656e7472616e742063616c6c006044820152606490fd5b307f00000000000000000000000000000000000000000000000000000000000000006001600160a01b0316148015610c66575b610c5457565b604051639f357e6b60e01b8152600490fd5b5060ff7f9f1709bc5ab0578be51bb81e11b02cdd9c21aa603d7325a8a7551bbd5685a005541615610c4e565b6001600160401b038111610ca557604052565b634e487b7160e01b600052604160045260246000fd5b601f909101601f19168101906001600160401b03821190821017610ca557604052565b91908203918211610ceb57565b634e487b7160e01b600052601160045260246000fd5b9081526001600160a01b03909116602082015260400190565b60405163a9059cbb60e01b60208201526001600160a01b03909216602483015260448083019390935291815260808101916001600160401b03831182841017610ca557610d6992604052610d6b565b565b604080516001600160a01b03929092169291906001600160401b0390820181811183821017610ca5576040526020938483527f5361666545524332303a206c6f772d6c6576656c2063616c6c206661696c6564858401526000808587829751910182855af1903d15610eb7573d928311610ea35790610e0a93929160405192610dfd88601f19601f8401160185610cbb565b83523d868885013e610ec2565b805191821591848315610e7c575b505050905015610e255750565b6084906040519062461bcd60e51b82526004820152602a60248201527f5361666545524332303a204552433230206f7065726174696f6e20646964206e6044820152691bdd081cdd58d8d9595960b21b6064820152fd5b91938180945001031261031857820151908115158203610ea0575080388084610e18565b80fd5b634e487b7160e01b85526041600452602485fd5b90610e0a9392506060915b91929015610f245750815115610ed6575090565b3b15610edf5790565b60405162461bcd60e51b815260206004820152601d60248201527f416464726573733a2063616c6c20746f206e6f6e2d636f6e74726163740000006044820152606490fd5b825190915015610f375750805190602001fd5b6040519062461bcd60e51b82528160208060048301528251908160248401526000935b828510610f7d575050604492506000838284010152601f80199101168101030190fd5b8481018201518686016044015293810193859350610f5a565b91908201809211610ceb57565b303b156102e0576040805163632447c960e01b81526001600160a01b03838116600483018190529460009392909190848160248183305af18015611102576110ef575b508060008051602061118d83398151915254169487156110de5761106490876000527ff8a6c10351c569dde9f00d2a7d439ceae77f38bfadfbaac59dc5476ddac46a076020528460002063ffffffff421663ffffffff1982541617905560008051602061114d83398151915261105d8a8254610f96565b9055610b0f565b61106f888254610f96565b905582516323b872dd60e01b6020820152911660248201523060448201526064808201879052815260a08101936001600160401b03851182861017610ca5577f9e71bc8eea02a63969f509818f2dafb9254532904319f9dbda79b67bd34a5f3d946110da9352610d6b565b80a3565b8351636a76ff9f60e01b8152600490fd5b6110fb90949194610c92565b9238610fe6565b84513d87823e3d90fdfe92ccf450a286a957af52509bc1c9939d1a6a481783e142e41e2499f0bb66ebc6d48875cae7c32c61030933702d7dc74d508a7c3c49fed9e91e1c0fcd6f2ad56bd48875cae7c32c61030933702d7dc74d508a7c3c49fed9e91e1c0fcd6f2ad573d48875cae7c32c61030933702d7dc74d508a7c3c49fed9e91e1c0fcd6f2ad56dd48875cae7c32c61030933702d7dc74d508a7c3c49fed9e91e1c0fcd6f2ad56ca2646970667358221220675eb8ad80d11f7b23da595cbdfdd8ad38ae962bcdb329a1e4259644fe6eaa1264736f6c63430008130033",
  "libraries": [
    "TDLib",
    "LSLib",
    "InitializerLib",
    "RolesManagementLib"
  ],
  "devdoc": {
    "events": {
      "Initialized(uint8)": {
        "details": "Triggered when the contract has been initialized or reinitialized."
      },
      "Paused(address)": {
        "details": "Emitted when the pause is triggered by `account`."
      },
      "Unpaused(address)": {
        "details": "Emitted when the pause is lifted by `account`."
      }
    },
    "kind": "dev",
    "methods": {
      "paused()": {
        "details": "Returns true if the contract is paused, and false otherwise."
      }
    },
    "version": 1
  },
  "userdoc": {
    "kind": "user",
    "methods": {},
    "version": 1
  },
  "storageLayout": {
    "storage": [
      {
        "astId": 6,
        "contract": "contracts/diamonds/locusStaking/v1/LSDepositaryFacet.sol:LSDepositaryFacet",
        "label": "_initialized",
        "offset": 0,
        "slot": "0",
        "type": "t_uint8"
      },
      {
        "astId": 9,
        "contract": "contracts/diamonds/locusStaking/v1/LSDepositaryFacet.sol:LSDepositaryFacet",
        "label": "_initializing",
        "offset": 1,
        "slot": "0",
        "type": "t_bool"
      },
      {
        "astId": 309,
        "contract": "contracts/diamonds/locusStaking/v1/LSDepositaryFacet.sol:LSDepositaryFacet",
        "label": "_status",
        "offset": 0,
        "slot": "1",
        "type": "t_uint256"
      },
      {
        "astId": 378,
        "contract": "contracts/diamonds/locusStaking/v1/LSDepositaryFacet.sol:LSDepositaryFacet",
        "label": "__gap",
        "offset": 0,
        "slot": "2",
        "type": "t_array(t_uint256)49_storage"
      },
      {
        "astId": 750,
        "contract": "contracts/diamonds/locusStaking/v1/LSDepositaryFacet.sol:LSDepositaryFacet",
        "label": "__gap",
        "offset": 0,
        "slot": "51",
        "type": "t_array(t_uint256)50_storage"
      },
      {
        "astId": 189,
        "contract": "contracts/diamonds/locusStaking/v1/LSDepositaryFacet.sol:LSDepositaryFacet",
        "label": "_paused",
        "offset": 0,
        "slot": "101",
        "type": "t_bool"
      },
      {
        "astId": 294,
        "contract": "contracts/diamonds/locusStaking/v1/LSDepositaryFacet.sol:LSDepositaryFacet",
        "label": "__gap",
        "offset": 0,
        "slot": "102",
        "type": "t_array(t_uint256)49_storage"
      }
    ],
    "types": {
      "t_array(t_uint256)49_storage": {
        "base": "t_uint256",
        "encoding": "inplace",
        "label": "uint256[49]",
        "numberOfBytes": "1568"
      },
      "t_array(t_uint256)50_storage": {
        "base": "t_uint256",
        "encoding": "inplace",
        "label": "uint256[50]",
        "numberOfBytes": "1600"
      },
      "t_bool": {
        "encoding": "inplace",
        "label": "bool",
        "numberOfBytes": "1"
      },
      "t_uint256": {
        "encoding": "inplace",
        "label": "uint256",
        "numberOfBytes": "32"
      },
      "t_uint8": {
        "encoding": "inplace",
        "label": "uint8",
        "numberOfBytes": "1"
      }
    }
  }
}