{
  "address": "0x6048842F6cF9D752b9067838077E5C3bAe88163c",
  "abi": [
    {
      "inputs": [],
      "name": "CannotStakeZero",
      "type": "error"
    },
    {
      "inputs": [],
      "name": "CannotWithdrawZero",
      "type": "error"
    },
    {
      "inputs": [],
      "name": "DelegatedCallsOnly",
      "type": "error"
    },
    {
      "inputs": [
        {
          "internalType": "address",
          "name": "who",
          "type": "address"
        },
        {
          "internalType": "bytes32",
          "name": "role",
          "type": "bytes32"
        }
      ],
      "name": "HasNoRole",
      "type": "error"
    },
    {
      "anonymous": false,
      "inputs": [
        {
          "indexed": false,
          "internalType": "uint8",
          "name": "version",
          "type": "uint8"
        }
      ],
      "name": "Initialized",
      "type": "event"
    },
    {
      "anonymous": false,
      "inputs": [
        {
          "indexed": false,
          "internalType": "address",
          "name": "account",
          "type": "address"
        }
      ],
      "name": "Paused",
      "type": "event"
    },
    {
      "anonymous": false,
      "inputs": [
        {
          "indexed": false,
          "internalType": "address",
          "name": "account",
          "type": "address"
        }
      ],
      "name": "Unpaused",
      "type": "event"
    },
    {
      "inputs": [],
      "name": "_initialize_LSDepositaryFacet",
      "outputs": [],
      "stateMutability": "nonpayable",
      "type": "function"
    },
    {
      "inputs": [],
      "name": "exit",
      "outputs": [],
      "stateMutability": "nonpayable",
      "type": "function"
    },
    {
      "inputs": [],
      "name": "getReward",
      "outputs": [],
      "stateMutability": "nonpayable",
      "type": "function"
    },
    {
      "inputs": [],
      "name": "paused",
      "outputs": [
        {
          "internalType": "bool",
          "name": "",
          "type": "bool"
        }
      ],
      "stateMutability": "view",
      "type": "function"
    },
    {
      "inputs": [
        {
          "internalType": "uint256",
          "name": "amount",
          "type": "uint256"
        }
      ],
      "name": "stake",
      "outputs": [],
      "stateMutability": "nonpayable",
      "type": "function"
    },
    {
      "inputs": [
        {
          "internalType": "address",
          "name": "staker",
          "type": "address"
        },
        {
          "internalType": "uint256",
          "name": "amount",
          "type": "uint256"
        }
      ],
      "name": "stakeFor",
      "outputs": [],
      "stateMutability": "nonpayable",
      "type": "function"
    },
    {
      "inputs": [
        {
          "internalType": "address",
          "name": "account",
          "type": "address"
        }
      ],
      "name": "updateReward",
      "outputs": [],
      "stateMutability": "nonpayable",
      "type": "function"
    },
    {
      "inputs": [
        {
          "internalType": "uint256",
          "name": "amount",
          "type": "uint256"
        }
      ],
      "name": "withdraw",
      "outputs": [],
      "stateMutability": "nonpayable",
      "type": "function"
    }
  ],
  "transactionHash": "0x45f1263e816f874a61b316502260015920eee7873f42e734166a51c3984140be",
  "args": [],
  "numDeployments": 1,
  "solcInputHash": "2ca920872fa9e16483f5ef3db2c49ecc",
  "bytecode": "0x60a08060405234610023573060805261171f90816100298239608051816110180152f35b600080fdfe604060808152600436101561001357600080fd5b600090813560e01c80632e1a7d4d14610b8b5780632ee4090814610ad15780633d18b9121461090a5780635c975abb146108e7578063632447c91461076d578063915f37c51461061b578063a694fc3a146105db5763e9fad8ee1461007757600080fd5b346105d757816003193601126105d75761009033610f42565b549061009a610fbf565b6100a2611015565b6100aa610e89565b805163cd3daf9d60e01b81526020918282600481305afa9182156105cd57859261059a575b5060008051602061162a83398151915291825580516380faa57d60e01b8152928084600481305afa93841561059057869461055d575b5060008051602061166a833981519152938455336104df575b84156104ce5760008051602061168a83398151915261013e86825461108c565b905561014933610f42565b61015486825461108c565b905560018060a01b03926000805160206116ca83398151915294848654169680976000805160206116aa83398151915298878a54168214610454575b61019f816101a5933390611101565b8261108c565b903360008051602061160a8339815191528b80a4600180556101c5610fbf565b6101cd611015565b6101d5610e89565b835163cd3daf9d60e01b81528381600481305afa90811561041d578991610427575b50825583516380faa57d60e01b8152908382600481305afa91821561041d5789926103ea575b50553361036c575b5061022f33610ed0565b5494838087965416915416036102de575b505082610250575b836001805580f35b6102b0916102ab8480938761026433610ed0565b557fd48875cae7c32c61030933702d7dc74d508a7c3c49fed9e91e1c0fcd6f2ad57461029183825461108c565b9055339060008051602061164a8339815191525416611101565b61108c565b90337fd6f2c8500df5b44f11e9e48b91ff9f1b9d81bc496d55570c2b1b75bf65243f518480a4388080610248565b808395610312939460008051602061164a8339815191525416908551948592839263b859bb5f60e01b8452600484016110e8565b038189305af192831561036357508592610331575b5050913880610240565b90809250813d831161035c575b61034881836110af565b8101031261035857513880610327565b8380fd5b503d61033e565b513d87823e3d90fd5b82516246613160e11b81523360048201528281602481305afa9081156103e05788916103af575b5061039d33610ed0565b55546103a833610f09565b5538610225565b90508281813d83116103d9575b6103c681836110af565b810103126103d5575138610393565b8780fd5b503d6103bc565b84513d8a823e3d90fd5b9091508381813d8311610416575b61040281836110af565b810103126104125751903861021d565b8880fd5b503d6103f8565b85513d8b823e3d90fd5b90508381813d831161044d575b61043e81836110af565b810103126104125751386101f7565b503d610434565b50855163b859bb5f60e01b81529085828c81806104758689600484016110e8565b0391305af19182156104c4578b9261048f575b5090610190565b91508582813d83116104bd575b6104a681836110af565b810103126104b95790519061019f610488565b8a80fd5b503d61049c565b87513d8d823e3d90fd5b815163061bb89b60e51b8152600490fd5b81516246613160e11b81523360048201528181602481305afa908115610553578791610522575b5061051033610ed0565b55825461051c33610f09565b5561011e565b90508181813d831161054c575b61053981836110af565b81010312610548575138610506565b8680fd5b503d61052f565b83513d89823e3d90fd5b9080945081813d8311610589575b61057581836110af565b8101031261058557519238610105565b8580fd5b503d61056b565b82513d88823e3d90fd5b9091508281813d83116105c6575b6105b281836110af565b810103126105c2575190386100cf565b8480fd5b503d6105a8565b81513d87823e3d90fd5b5080fd5b8234610618576020366003190112610618576105f5610fbf565b6105fd611015565b610605610f7b565b61061160043533611387565b6001805580f35b80fd5b50346105d757816003193601126105d757815460ff8160081c1615808091610760575b8015610749575b156106ee5760ff19828116600117855591816106dd575b50610665610e89565b83549161069660ff8460081c1661067b81610e29565b61068481610e29565b6001805561069181610e29565b610e29565b606554166065556106a5578280f35b61ff001916825551600181527f7f26b83ff96e1f2b6a682f133852f6798a09c465da95921460cefb384740249890602090a138808280f35b61ffff19166101011784553861065c565b825162461bcd60e51b815260206004820152602e60248201527f496e697469616c697a61626c653a20636f6e747261637420697320616c72656160448201526d191e481a5b9a5d1a585b1a5e995960921b6064820152608490fd5b50303b1580156106455750600160ff831614610645565b50600160ff83161061063e565b50346105d7576020806003193601126108e357610788610e0e565b91610791610e89565b805163cd3daf9d60e01b8152908282600481305afa9182156105cd5785926108b4575b5060008051602061162a83398151915291825580516380faa57d60e01b81528381600481305afa908115610590578691610887575b5060008051602061166a833981519152556001600160a01b038416928361080e578580f35b8151936246613160e11b855260048501528084602481305afa91821561036357508591610857575b5061084d925061084584610ed0565b555491610f09565b5538808080808580f35b905082813d8311610880575b61086d81836110af565b810103126103585761084d915138610836565b503d610863565b90508381813d83116108ad575b61089e81836110af565b810103126105855751386107e9565b503d610894565b9091508281813d83116108dc575b6108cc81836110af565b810103126105c2575190386107b4565b503d6108c2565b8280fd5b50346105d757816003193601126105d75760209060ff6065541690519015158152f35b50346105d757816003193601126105d757610923610fbf565b61092b611015565b610933610e89565b805163cd3daf9d60e01b8152602091908281600481305afa908115610ac7578491610a9a575b5060008051602061162a83398151915290815581516380faa57d60e01b81528381600481305afa908115610a63578591610a6d575b5060008051602061166a83398151915255336109f3575b506109af33610ed0565b5491829160018060a01b0391826000805160206116ca8339815191525416836000805160206116aa8339815191525416036102de5750508261025057836001805580f35b81516246613160e11b81523360048201528381602481305afa908115610a63578591610a36575b50610a2433610ed0565b5554610a2f33610f09565b55386109a5565b90508381813d8311610a5c575b610a4d81836110af565b810103126105c2575138610a1a565b503d610a43565b83513d87823e3d90fd5b90508381813d8311610a93575b610a8481836110af565b810103126105c257513861098e565b503d610a7a565b90508281813d8311610ac0575b610ab181836110af565b81010312610358575138610959565b503d610aa7565b82513d86823e3d90fd5b50346105d757806003193601126105d757610aea610e0e565b90610af3610fbf565b610afb611015565b610b03610f7b565b7ff81f7ae177f481ea98850e26888e43f384935d185488cac1397c5015987a2174908184527f256352104e666e6cce09c45a35c339c150e1991724469c7d87b784a284535e4460205280842033855260205260ff818520541615610b6e578361061160243585611387565b604492505190632bc93d7960e21b82523360048301526024820152fd5b50346105d757602090816003193601126108e35760043591610bab610fbf565b610bb3611015565b610bbb610e89565b815163cd3daf9d60e01b81528181600481305afa908115610a63578591610de1575b5060008051602061162a83398151915290815582516380faa57d60e01b81528281600481305afa908115610daa578691610db4575b5060008051602061166a8339815191525533610d3a575b5082156104ce5760008051602061168a833981519152610c4a84825461108c565b9055610c5533610f42565b610c6084825461108c565b905560018060a01b0391826000805160206116ca83398151915254169184936000805160206116aa83398151915254168314610cc4575b50509061019f81610ca9933390611101565b903360008051602061160a8339815191528480a46001805580f35b815163b859bb5f60e01b8152919350808280610ce48689600484016110e8565b038189305af193841561036357508593610d06575b505061019f610ca9610c97565b90809350813d8311610d33575b610d1d81836110af565b810103126103585761019f610ca9925192610cf9565b503d610d13565b82516246613160e11b81523360048201528281602481305afa908115610daa578691610d7d575b50610d6b33610ed0565b5554610d7633610f09565b5538610c29565b90508281813d8311610da3575b610d9481836110af565b81010312610585575138610d61565b503d610d8a565b84513d88823e3d90fd5b90508281813d8311610dda575b610dcb81836110af565b81010312610585575138610c12565b503d610dc1565b90508181813d8311610e07575b610df881836110af565b810103126105c2575138610bdd565b503d610dee565b600435906001600160a01b0382168203610e2457565b600080fd5b15610e3057565b60405162461bcd60e51b815260206004820152602b60248201527f496e697469616c697a61626c653a20636f6e7472616374206973206e6f74206960448201526a6e697469616c697a696e6760a81b6064820152608490fd5b303303610e9257565b604051632bc93d7960e21b81523360048201527fddd94edc7da5bca8f576c77964a4737ba5172c728e2d539e672f0229d1e9ec2d6024820152604490fd5b6001600160a01b031660009081527fd48875cae7c32c61030933702d7dc74d508a7c3c49fed9e91e1c0fcd6f2ad5766020526040902090565b6001600160a01b031660009081527fd48875cae7c32c61030933702d7dc74d508a7c3c49fed9e91e1c0fcd6f2ad5756020526040902090565b6001600160a01b031660009081527fd48875cae7c32c61030933702d7dc74d508a7c3c49fed9e91e1c0fcd6f2ad5776020526040902090565b60ff60655416610f8757565b60405162461bcd60e51b815260206004820152601060248201526f14185d5cd8589b194e881c185d5cd95960821b6044820152606490fd5b600260015414610fd0576002600155565b60405162461bcd60e51b815260206004820152601f60248201527f5265656e7472616e637947756172643a207265656e7472616e742063616c6c006044820152606490fd5b307f00000000000000000000000000000000000000000000000000000000000000006001600160a01b0316148015611060575b61104e57565b604051639f357e6b60e01b8152600490fd5b5060ff7f9f1709bc5ab0578be51bb81e11b02cdd9c21aa603d7325a8a7551bbd5685a005541615611048565b9190820391821161109957565b634e487b7160e01b600052601160045260246000fd5b601f909101601f19168101906001600160401b038211908210176110d257604052565b634e487b7160e01b600052604160045260246000fd5b9081526001600160a01b03909116602082015260400190565b60405163a9059cbb60e01b60208201526001600160a01b03909216602483015260448083019390935291815260808101916001600160401b038311828410176110d25761115092604052611152565b565b604080516001600160a01b03929092169291906001600160401b03908201818111838210176110d2576040526020938483527f5361666545524332303a206c6f772d6c6576656c2063616c6c206661696c6564858401526000808587829751910182855af1903d1561129b573d92831161128757906111f1939291604051926111e488601f19601f84011601856110af565b83523d868885013e6112a6565b805191821591848315611263575b50505090501561120c5750565b6084906040519062461bcd60e51b82526004820152602a60248201527f5361666545524332303a204552433230206f7065726174696f6e20646964206e6044820152691bdd081cdd58d8d9595960b21b6064820152fd5b9193818094500103126105d7578201519081151582036106185750803880846111ff565b634e487b7160e01b85526041600452602485fd5b906111f19392506060915b9192901561130857508151156112ba575090565b3b156112c35790565b60405162461bcd60e51b815260206004820152601d60248201527f416464726573733a2063616c6c20746f206e6f6e2d636f6e74726163740000006044820152606490fd5b82519091501561131b5750805190602001fd5b6040519062461bcd60e51b82528160208060048301528251908160248401526000935b828510611361575050604492506000838284010152601f80199101168101030190fd5b848101820151868601604401529381019385935061133e565b9190820180921161109957565b61138f610e89565b6040805163cd3daf9d60e01b8152916020908184600481305afa9384156115fe576000946115cf575b5060008051602061162a83398151915293845582516380faa57d60e01b81528281600481305afa9081156115c457600091611597575b5060008051602061166a833981519152556001600160a01b03818116948561151a575b506000805160206116ca83398151915254169085156115095761148d90856000527ff8a6c10351c569dde9f00d2a7d439ceae77f38bfadfbaac59dc5476ddac46a0784528460002063ffffffff421663ffffffff1982541617905560008051602061168a83398151915261148688825461137a565b9055610f42565b61149886825461137a565b905582516323b872dd60e01b92810192909252602482018490523060448301526064808301869052825260a082016001600160401b038111838210176110d2576114e29352611152565b7f9e71bc8eea02a63969f509818f2dafb9254532904319f9dbda79b67bd34a5f3d600080a3565b8351636a76ff9f60e01b8152600490fd5b84516246613160e11b8152600481018790528481602481305afa90811561158c5760009161155f575b5061154d84610ed0565b555461155883610f09565b5538611411565b908582813d8311611585575b61157581836110af565b8101031261061857505138611543565b503d61156b565b86513d6000823e3d90fd5b908382813d83116115bd575b6115ad81836110af565b81010312610618575051386113ee565b503d6115a3565b84513d6000823e3d90fd5b90938282813d83116115f7575b6115e681836110af565b8101031261061857505192386113b8565b503d6115dc565b83513d6000823e3d90fdfe92ccf450a286a957af52509bc1c9939d1a6a481783e142e41e2499f0bb66ebc6d48875cae7c32c61030933702d7dc74d508a7c3c49fed9e91e1c0fcd6f2ad572d48875cae7c32c61030933702d7dc74d508a7c3c49fed9e91e1c0fcd6f2ad56bd48875cae7c32c61030933702d7dc74d508a7c3c49fed9e91e1c0fcd6f2ad571d48875cae7c32c61030933702d7dc74d508a7c3c49fed9e91e1c0fcd6f2ad573d48875cae7c32c61030933702d7dc74d508a7c3c49fed9e91e1c0fcd6f2ad56dd48875cae7c32c61030933702d7dc74d508a7c3c49fed9e91e1c0fcd6f2ad56ca2646970667358221220d9f94dc2f20d3876137862cdd319b3550fe971e18fc05401b47a0925dd16b41964736f6c63430008130033",
  "libraries": [
    "TDLib",
    "LSLib",
    "InitializerLib",
    "RolesManagementLib"
  ],
  "devdoc": {
    "events": {
      "Initialized(uint8)": {
        "details": "Triggered when the contract has been initialized or reinitialized."
      },
      "Paused(address)": {
        "details": "Emitted when the pause is triggered by `account`."
      },
      "Unpaused(address)": {
        "details": "Emitted when the pause is lifted by `account`."
      }
    },
    "kind": "dev",
    "methods": {
      "paused()": {
        "details": "Returns true if the contract is paused, and false otherwise."
      }
    },
    "version": 1
  },
  "userdoc": {
    "kind": "user",
    "methods": {},
    "version": 1
  },
  "storageLayout": {
    "storage": [
      {
        "astId": 6,
        "contract": "contracts/diamonds/locusStaking/v1/LSDepositaryFacet.sol:LSDepositaryFacet",
        "label": "_initialized",
        "offset": 0,
        "slot": "0",
        "type": "t_uint8"
      },
      {
        "astId": 9,
        "contract": "contracts/diamonds/locusStaking/v1/LSDepositaryFacet.sol:LSDepositaryFacet",
        "label": "_initializing",
        "offset": 1,
        "slot": "0",
        "type": "t_bool"
      },
      {
        "astId": 309,
        "contract": "contracts/diamonds/locusStaking/v1/LSDepositaryFacet.sol:LSDepositaryFacet",
        "label": "_status",
        "offset": 0,
        "slot": "1",
        "type": "t_uint256"
      },
      {
        "astId": 378,
        "contract": "contracts/diamonds/locusStaking/v1/LSDepositaryFacet.sol:LSDepositaryFacet",
        "label": "__gap",
        "offset": 0,
        "slot": "2",
        "type": "t_array(t_uint256)49_storage"
      },
      {
        "astId": 750,
        "contract": "contracts/diamonds/locusStaking/v1/LSDepositaryFacet.sol:LSDepositaryFacet",
        "label": "__gap",
        "offset": 0,
        "slot": "51",
        "type": "t_array(t_uint256)50_storage"
      },
      {
        "astId": 189,
        "contract": "contracts/diamonds/locusStaking/v1/LSDepositaryFacet.sol:LSDepositaryFacet",
        "label": "_paused",
        "offset": 0,
        "slot": "101",
        "type": "t_bool"
      },
      {
        "astId": 294,
        "contract": "contracts/diamonds/locusStaking/v1/LSDepositaryFacet.sol:LSDepositaryFacet",
        "label": "__gap",
        "offset": 0,
        "slot": "102",
        "type": "t_array(t_uint256)49_storage"
      }
    ],
    "types": {
      "t_array(t_uint256)49_storage": {
        "base": "t_uint256",
        "encoding": "inplace",
        "label": "uint256[49]",
        "numberOfBytes": "1568"
      },
      "t_array(t_uint256)50_storage": {
        "base": "t_uint256",
        "encoding": "inplace",
        "label": "uint256[50]",
        "numberOfBytes": "1600"
      },
      "t_bool": {
        "encoding": "inplace",
        "label": "bool",
        "numberOfBytes": "1"
      },
      "t_uint256": {
        "encoding": "inplace",
        "label": "uint256",
        "numberOfBytes": "32"
      },
      "t_uint8": {
        "encoding": "inplace",
        "label": "uint8",
        "numberOfBytes": "1"
      }
    }
  }
}