{
  "address": "0x173FF25132edD0d10CcF95Fa92f7a29F8a6ee39A",
  "abi": [
    {
      "inputs": [],
      "name": "AlreadyInitialized",
      "type": "error"
    },
    {
      "inputs": [],
      "name": "DelegatedCallsOnly",
      "type": "error"
    },
    {
      "inputs": [
        {
          "internalType": "address",
          "name": "who",
          "type": "address"
        },
        {
          "internalType": "bytes32",
          "name": "role",
          "type": "bytes32"
        }
      ],
      "name": "HasNoRole",
      "type": "error"
    },
    {
      "inputs": [
        {
          "internalType": "uint256",
          "name": "l1",
          "type": "uint256"
        },
        {
          "internalType": "uint256",
          "name": "l2",
          "type": "uint256"
        }
      ],
      "name": "IncorrectLengths",
      "type": "error"
    },
    {
      "inputs": [],
      "name": "IntervalsMustBeSorted",
      "type": "error"
    },
    {
      "inputs": [
        {
          "internalType": "uint16",
          "name": "bps",
          "type": "uint16"
        }
      ],
      "name": "InvalidBPS",
      "type": "error"
    },
    {
      "anonymous": false,
      "inputs": [
        {
          "indexed": false,
          "internalType": "uint8",
          "name": "version",
          "type": "uint8"
        }
      ],
      "name": "Initialized",
      "type": "event"
    },
    {
      "inputs": [
        {
          "internalType": "address",
          "name": "owner",
          "type": "address"
        },
        {
          "internalType": "address",
          "name": "locusToken",
          "type": "address"
        },
        {
          "internalType": "address",
          "name": "rewardDistributor",
          "type": "address"
        },
        {
          "internalType": "address",
          "name": "rewardsToken",
          "type": "address"
        },
        {
          "internalType": "address",
          "name": "stakingToken",
          "type": "address"
        },
        {
          "internalType": "uint32[]",
          "name": "feeDurationPoints",
          "type": "uint32[]"
        },
        {
          "internalType": "uint16[]",
          "name": "feeBasePoints",
          "type": "uint16[]"
        }
      ],
      "name": "initialize",
      "outputs": [],
      "stateMutability": "nonpayable",
      "type": "function"
    },
    {
      "inputs": [],
      "name": "prepareDepositary",
      "outputs": [],
      "stateMutability": "nonpayable",
      "type": "function"
    },
    {
      "inputs": [
        {
          "internalType": "address",
          "name": "undistributedAmountsReceiver",
          "type": "address"
        },
        {
          "internalType": "uint32[]",
          "name": "feeDurationPoints",
          "type": "uint32[]"
        },
        {
          "internalType": "uint16[]",
          "name": "feeBasePoints",
          "type": "uint16[]"
        }
      ],
      "name": "setFeesSettings",
      "outputs": [],
      "stateMutability": "nonpayable",
      "type": "function"
    }
  ],
  "transactionHash": "0xc10ade1ef4350098b04dc74f2ff03c17e9936232b837f75729a97605c9a07e0a",
  "args": [],
  "numDeployments": 2,
  "solcInputHash": "71a7c70c354f39a1f0f05051fd5a44bc",
  "bytecode": "0x60a08060405234610023573060805261093690816100298239608051816104eb0152f35b600080fdfe60406080815260048036101561001457600080fd5b600091823560e01c9081630c15748b1461013b5781631f6dce26146100b757506349a61e4b1461004357600080fd5b346100b35760603660031901126100b35761005c6103a9565b6001600160401b036024358181116100af5761007b9036908501610414565b906044359081116100af576100ac936100969136910161047f565b9161009f6104e8565b6100a761054d565b6105f6565b80f35b8480fd5b5080fd5b9050346101375782600319360112610137576100d16104e8565b6100d961054d565b303b1561013757805163915f37c560e01b8152918383828183305af1801561012d57610103578380f35b6001600160401b03831161011a5750523880808380f35b634e487b7160e01b845260419052602483fd5b82513d86823e3d90fd5b8280fd5b905082346103a65760e03660031901126103a6576101576103a9565b6024356001600160a01b03818116918290036103a257604435928184168094036100af576064359382851680950361039e576084359280841680940361039a576001600160401b0360a435818111610396576101b69036908c01610414565b9060c435908111610396576101ce9036908c0161047f565b906000805160206108e1833981519152805460ff81166000146101fa578b5162dc149f60e41b81528d90fd5b94606096946102196001958e958e95888c9b60ff1916179055886105f6565b7fb814ff4a26ea3ec5cd1fa579daad86324826254265f3acfec78303a19845b449908184527f256352104e666e6cce09c45a35c339c150e1991724469c7d87b784a284535e4460209381855286862081875285528686209360ff1994898682541617905587519182528582015287878201527fe6c553997164af80f976feb439e6566231f261c8b41e3e5070f237f827fc44329a8b91a16000805160206108c18339815191528095528352848d20961695868d52825284848d20918254161790558251948552840152820152a17fd48875cae7c32c61030933702d7dc74d508a7c3c49fed9e91e1c0fcd6f2ad56b80546001600160a01b031990811690941790557fd48875cae7c32c61030933702d7dc74d508a7c3c49fed9e91e1c0fcd6f2ad56c8054841690911790556224ea007fd48875cae7c32c61030933702d7dc74d508a7c3c49fed9e91e1c0fcd6f2ad570557fd48875cae7c32c61030933702d7dc74d508a7c3c49fed9e91e1c0fcd6f2ad56d805490921617905580f35b8880fd5b8680fd5b8580fd5b8380fd5b80fd5b600435906001600160a01b03821682036103bf57565b600080fd5b601f909101601f19168101906001600160401b038211908210176103e757604052565b634e487b7160e01b600052604160045260246000fd5b6001600160401b0381116103e75760051b60200190565b81601f820112156103bf5780359161042b836103fd565b9261043960405194856103c4565b808452602092838086019260051b8201019283116103bf578301905b828210610463575050505090565b813563ffffffff811681036103bf578152908301908301610455565b81601f820112156103bf57803591610496836103fd565b926104a460405194856103c4565b808452602092838086019260051b8201019283116103bf578301905b8282106104ce575050505090565b813561ffff811681036103bf5781529083019083016104c0565b307f00000000000000000000000000000000000000000000000000000000000000006001600160a01b0316148015610533575b61052157565b604051639f357e6b60e01b8152600490fd5b5060ff6000805160206108e183398151915254161561051b565b3360009081527f7eab7b82f3f21675de29d098b67b1bb6d0c69de2cb1ba0b9eb1dbc18d523752f60205260409020546000805160206108c18339815191529060ff16156105975750565b60449060405190632bc93d7960e21b82523360048301526024820152fd5b80518210156105c95760209160051b010190565b634e487b7160e01b600052603260045260246000fd5b9060031b9163ffffffff809116831b921b19161790565b929190918251825181036108a25750919260009384935b81518510156106f95761ffff956127108761062888886105b5565b511611156106545760248761063d88886105b5565b5160405163716c986560e11b815291166004820152fd5b909194929561066384866105b5565b5116836000527ff8a6c10351c569dde9f00d2a7d439ceae77f38bfadfbaac59dc5476ddac46a0960205260406000205563ffffffff9081806106a586896105b5565b51169116116106e7576106b883866105b5565b51169160001981146106d157600101939094919461060d565b634e487b7160e01b600052601160045260246000fd5b60405163e8817d7760e01b8152600490fd5b81519095509193509091506001600160401b0382116103e757600160401b82116103e7577ff8a6c10351c569dde9f00d2a7d439ceae77f38bfadfbaac59dc5476ddac46a08918254818455808210610845575b5060208092019260005281600020908060031c9260005b8481106108075750600719821690910390816107c0575b50507ff8a6c10351c569dde9f00d2a7d439ceae77f38bfadfbaac59dc5476ddac46a0c80546001600160a01b0319166001600160a01b0390951694909417909355505050565b9390600094855b8281106107de57505050500155388080808061077a565b90919295826107fc60019263ffffffff8a5116908560021b906105df565b9701939291016107c7565b6000805b60088110610820575084820155600101610763565b96908361083c60019263ffffffff855116908b60021b906105df565b9201970161080b565b836000526020600020600780840160031c8201920160031c0190601c8360021b1680610887575b505b81811061087b575061074c565b6000815560010161086e565b600019908183019182549160200360031b1c1690553861086c565b604490604051906305e2ada360e41b82528060048301526024820152fdfeb19546dff01e856fb3f010c267a7b1c60363cf8a4664e21cc89c26224620214e9f1709bc5ab0578be51bb81e11b02cdd9c21aa603d7325a8a7551bbd5685a005a26469706673582212201969e072c12b3a9411f0da805dca2c7b679ab4a3ce0969ad81cd3911997ff40d64736f6c63430008130033",
  "libraries": [
    "TDLib",
    "LSLib",
    "InitializerLib",
    "RolesManagementLib"
  ],
  "devdoc": {
    "events": {
      "Initialized(uint8)": {
        "details": "Triggered when the contract has been initialized or reinitialized."
      }
    },
    "kind": "dev",
    "methods": {},
    "version": 1
  },
  "userdoc": {
    "kind": "user",
    "methods": {},
    "version": 1
  },
  "storageLayout": {
    "storage": [
      {
        "astId": 6,
        "contract": "contracts/diamonds/locusStaking/v1/LSInitializerFacet.sol:LSInitializerFacet",
        "label": "_initialized",
        "offset": 0,
        "slot": "0",
        "type": "t_uint8"
      },
      {
        "astId": 9,
        "contract": "contracts/diamonds/locusStaking/v1/LSInitializerFacet.sol:LSInitializerFacet",
        "label": "_initializing",
        "offset": 1,
        "slot": "0",
        "type": "t_bool"
      }
    ],
    "types": {
      "t_bool": {
        "encoding": "inplace",
        "label": "bool",
        "numberOfBytes": "1"
      },
      "t_uint8": {
        "encoding": "inplace",
        "label": "uint8",
        "numberOfBytes": "1"
      }
    }
  }
}