{
  "address": "0x02f31089b9dB30ba030BB85B45aa786c7914E3D8",
  "abi": [
    {
      "inputs": [],
      "name": "DelegatedCallsOnly",
      "type": "error"
    },
    {
      "anonymous": false,
      "inputs": [
        {
          "indexed": false,
          "internalType": "uint8",
          "name": "version",
          "type": "uint8"
        }
      ],
      "name": "Initialized",
      "type": "event"
    },
    {
      "inputs": [
        {
          "internalType": "address",
          "name": "account",
          "type": "address"
        }
      ],
      "name": "balanceOf",
      "outputs": [
        {
          "internalType": "uint256",
          "name": "",
          "type": "uint256"
        }
      ],
      "stateMutability": "view",
      "type": "function"
    },
    {
      "inputs": [],
      "name": "decimals",
      "outputs": [
        {
          "internalType": "uint8",
          "name": "",
          "type": "uint8"
        }
      ],
      "stateMutability": "view",
      "type": "function"
    },
    {
      "inputs": [
        {
          "internalType": "address",
          "name": "account",
          "type": "address"
        }
      ],
      "name": "earned",
      "outputs": [
        {
          "internalType": "uint256",
          "name": "",
          "type": "uint256"
        }
      ],
      "stateMutability": "view",
      "type": "function"
    },
    {
      "inputs": [],
      "name": "getAPR",
      "outputs": [
        {
          "internalType": "uint256",
          "name": "",
          "type": "uint256"
        }
      ],
      "stateMutability": "view",
      "type": "function"
    },
    {
      "inputs": [],
      "name": "getAPRInAbsoluteValue",
      "outputs": [
        {
          "internalType": "uint256",
          "name": "",
          "type": "uint256"
        }
      ],
      "stateMutability": "view",
      "type": "function"
    },
    {
      "inputs": [],
      "name": "getPrimitives",
      "outputs": [
        {
          "components": [
            {
              "internalType": "contract IERC20Metadata",
              "name": "rewardsToken",
              "type": "address"
            },
            {
              "internalType": "contract IERC20Metadata",
              "name": "stakingToken",
              "type": "address"
            },
            {
              "internalType": "uint256",
              "name": "periodFinish",
              "type": "uint256"
            },
            {
              "internalType": "uint256",
              "name": "rewardRate",
              "type": "uint256"
            },
            {
              "internalType": "uint256",
              "name": "rewardsDuration",
              "type": "uint256"
            },
            {
              "internalType": "uint256",
              "name": "lastUpdateTime",
              "type": "uint256"
            },
            {
              "internalType": "uint256",
              "name": "rewardPerTokenStored",
              "type": "uint256"
            },
            {
              "internalType": "uint256",
              "name": "totalSupply",
              "type": "uint256"
            },
            {
              "internalType": "uint256",
              "name": "totalReward",
              "type": "uint256"
            },
            {
              "internalType": "address",
              "name": "wrappedStLocusToken",
              "type": "address"
            },
            {
              "internalType": "bool",
              "name": "areDepositsShut",
              "type": "bool"
            }
          ],
          "internalType": "struct LSLib.Primitives",
          "name": "",
          "type": "tuple"
        }
      ],
      "stateMutability": "view",
      "type": "function"
    },
    {
      "inputs": [
        {
          "internalType": "uint256",
          "name": "rewardRate",
          "type": "uint256"
        },
        {
          "internalType": "uint256",
          "name": "rewardDuration",
          "type": "uint256"
        }
      ],
      "name": "getProjectedAPR",
      "outputs": [
        {
          "internalType": "uint256",
          "name": "",
          "type": "uint256"
        }
      ],
      "stateMutability": "view",
      "type": "function"
    },
    {
      "inputs": [],
      "name": "getRewardForDuration",
      "outputs": [
        {
          "internalType": "uint256",
          "name": "",
          "type": "uint256"
        }
      ],
      "stateMutability": "view",
      "type": "function"
    },
    {
      "inputs": [],
      "name": "getTotalReward",
      "outputs": [
        {
          "internalType": "uint256",
          "name": "",
          "type": "uint256"
        }
      ],
      "stateMutability": "view",
      "type": "function"
    },
    {
      "inputs": [],
      "name": "lastTimeRewardApplicable",
      "outputs": [
        {
          "internalType": "uint256",
          "name": "",
          "type": "uint256"
        }
      ],
      "stateMutability": "view",
      "type": "function"
    },
    {
      "inputs": [],
      "name": "rewardPerToken",
      "outputs": [
        {
          "internalType": "uint256",
          "name": "",
          "type": "uint256"
        }
      ],
      "stateMutability": "view",
      "type": "function"
    },
    {
      "inputs": [],
      "name": "totalSupply",
      "outputs": [
        {
          "internalType": "uint256",
          "name": "",
          "type": "uint256"
        }
      ],
      "stateMutability": "view",
      "type": "function"
    }
  ],
  "transactionHash": "0x31923d0e6284e0a9ed7e1efefd18d2b25df13c35aacd9f0f3b9377511f6fd6da",
  "args": [],
  "numDeployments": 9,
  "solcInputHash": "6061391e801647b3917a9b19c47787fc",
  "bytecode": "0x60a080604052346100235730608052610a38908161002982396080518161051f0152f35b600080fdfe604060808152600436101561001357600080fd5b600090813560e01c80628cc2621461045857806318160ddd146104255780631c1f78eb146103ee578063313ce5671461034b57806370a08231146102d25780637821b332146101f15780637d1fcbfa146101be57806380faa57d146101795780638c57d6c61461014f578063c89d5b8b14610118578063cd3daf9d146100ed5763fddac91e146100a257600080fd5b346100e957816003193601126100e9576020906100bd61051c565b670de0b6b3a76400006100e16100d16105e8565b6080606082015191015190610888565b049051908152f35b5080fd5b50346100e957816003193601126100e95760209061010961051c565b6101116107b7565b9051908152f35b50346100e957816003193601126100e95760209061013461051c565b61011161013f6105e8565b6080606082015191015190610922565b50346100e957806003193601126100e95760209061016b61051c565b610111602435600435610922565b50346100e957816003193601126100e95760209161019561051c565b506000805160206109c383398151915254428111156101b8575042905b51908152f35b906101b2565b50346100e957816003193601126100e9576020906101da61051c565b6000805160206109a3833981519152549051908152f35b50346100e957816003193601126100e95761016091815161021181610593565b81815281602082015281838201528160608201528160808201528160a08201528160c08201528160e0820152610100928284830152610120838184015261014093848094015261025f6105e8565b9180519560018060a01b03918285511688528260208601511660208901528085015190880152606084015160608801526080840151608088015260a084015160a088015260c084015160c088015260e084015160e088015280840151908701528183015116908501520151151590820152f35b50346100e95760203660031901126100e957600435916001600160a01b0383168303610348575061034060209261030761051c565b6001600160a01b031660009081527fd48875cae7c32c61030933702d7dc74d508a7c3c49fed9e91e1c0fcd6f2ad5776020526040902090565b549051908152f35b80fd5b50346100e957816003193601126100e95760049061036761051c565b6000805160206109e383398151915254815163313ce56760e01b81529260209184919082906001600160a01b03165afa9182156103e457602093926103b2575b5060ff905191168152f35b60ff9192506103d690843d81116103dd575b6103ce81836105c5565b810190610859565b91906103a7565b503d6103c4565b81513d85823e3d90fd5b50346100e957816003193601126100e95760209061040a61051c565b6101116104156105e8565b6080606082015191015190610777565b50346100e957816003193601126100e95760209061044161051c565b600080516020610983833981519152549051908152f35b50346100e95760203660031901126100e9576004356001600160a01b03811690818103610518579082602094670de0b6b3a76400006104e961049f6101119661030761051c565b546104a861051c565b6104e36104b36107b7565b8786527fd48875cae7c32c61030933702d7dc74d508a7c3c49fed9e91e1c0fcd6f2ad5758b528686205490610754565b90610777565b049281527fd48875cae7c32c61030933702d7dc74d508a7c3c49fed9e91e1c0fcd6f2ad57686522054906107aa565b8380fd5b307f00000000000000000000000000000000000000000000000000000000000000006001600160a01b0316148015610567575b61055557565b604051639f357e6b60e01b8152600490fd5b5060ff7f9f1709bc5ab0578be51bb81e11b02cdd9c21aa603d7325a8a7551bbd5685a00554161561054f565b61016081019081106001600160401b038211176105af57604052565b634e487b7160e01b600052604160045260246000fd5b601f909101601f19168101906001600160401b038211908210176105af57604052565b604051906105f582610593565b7fd48875cae7c32c61030933702d7dc74d508a7c3c49fed9e91e1c0fcd6f2ad56b546001600160a01b0390811683526000805160206109e383398151915254811660208401526000805160206109c38339815191525460408401527fd48875cae7c32c61030933702d7dc74d508a7c3c49fed9e91e1c0fcd6f2ad56e5460608401527fd48875cae7c32c61030933702d7dc74d508a7c3c49fed9e91e1c0fcd6f2ad56f5460808401527fd48875cae7c32c61030933702d7dc74d508a7c3c49fed9e91e1c0fcd6f2ad5705460a0808501919091527fd48875cae7c32c61030933702d7dc74d508a7c3c49fed9e91e1c0fcd6f2ad5715460c08501526000805160206109838339815191525460e08501526000805160206109a3833981519152546101008501527fd48875cae7c32c61030933702d7dc74d508a7c3c49fed9e91e1c0fcd6f2ad574549182166101208501521c60ff161515610140830152565b9190820391821161076157565b634e487b7160e01b600052601160045260246000fd5b8181029291811591840414171561076157565b8115610794570490565b634e487b7160e01b600052601260045260246000fd5b9190820180921161076157565b6107bf6105e8565b60e08101908151156108505761081260c0820151916107dc61051c565b6000805160206109c38339815191525480421060001461084557506060610809425b60a084015190610754565b91015190610777565b91670de0b6b3a764000092838102938185041490151715610761576108429261083c91519061078a565b906107aa565b90565b6108096060916107fe565b60c09150015190565b90816020910312610872575160ff811681036108725790565b600080fd5b60ff16604d811161076157600a0a90565b6108906105e8565b60405163313ce56760e01b81529092602082600481305afa918215610916576108cb926108c5916000916108f8575b50610877565b92610777565b91670de0b6b3a764000092838102938185041490151715610761576108429260e06104e39201519061078a565b610910915060203d81116103dd576103ce81836105c5565b386108bf565b6040513d6000823e3d90fd5b60405163313ce56760e01b81529091602082600481305afa9182156109165761095c92610956916000916108f85750610877565b92610888565b612710908082029182040361076157670de0b6b3a76400009161097e9161078a565b049056fed48875cae7c32c61030933702d7dc74d508a7c3c49fed9e91e1c0fcd6f2ad572d48875cae7c32c61030933702d7dc74d508a7c3c49fed9e91e1c0fcd6f2ad573d48875cae7c32c61030933702d7dc74d508a7c3c49fed9e91e1c0fcd6f2ad56dd48875cae7c32c61030933702d7dc74d508a7c3c49fed9e91e1c0fcd6f2ad56ca26469706673582212205fbf05929d0c3175f83cb02b31ed5f8d8b050a53d57d469e54add7a069ff707164736f6c63430008130033",
  "libraries": [
    "TDLib",
    "LSLib",
    "InitializerLib",
    "RolesManagementLib",
    "DelayedSendingsQueueLib"
  ],
  "devdoc": {
    "events": {
      "Initialized(uint8)": {
        "details": "Triggered when the contract has been initialized or reinitialized."
      }
    },
    "kind": "dev",
    "methods": {},
    "version": 1
  },
  "userdoc": {
    "kind": "user",
    "methods": {},
    "version": 1
  },
  "storageLayout": {
    "storage": [
      {
        "astId": 6,
        "contract": "contracts/diamonds/locusStaking/v1/LSLoupeFacet.sol:LSLoupeFacet",
        "label": "_initialized",
        "offset": 0,
        "slot": "0",
        "type": "t_uint8"
      },
      {
        "astId": 9,
        "contract": "contracts/diamonds/locusStaking/v1/LSLoupeFacet.sol:LSLoupeFacet",
        "label": "_initializing",
        "offset": 1,
        "slot": "0",
        "type": "t_bool"
      }
    ],
    "types": {
      "t_bool": {
        "encoding": "inplace",
        "label": "bool",
        "numberOfBytes": "1"
      },
      "t_uint8": {
        "encoding": "inplace",
        "label": "uint8",
        "numberOfBytes": "1"
      }
    }
  }
}