{
  "address": "0xc3337DF2bc4893d2f6b5690F33FF10DF93371189",
  "abi": [
    {
      "inputs": [],
      "name": "DelegatedCallsOnly",
      "type": "error"
    },
    {
      "anonymous": false,
      "inputs": [
        {
          "indexed": false,
          "internalType": "uint8",
          "name": "version",
          "type": "uint8"
        }
      ],
      "name": "Initialized",
      "type": "event"
    },
    {
      "inputs": [
        {
          "internalType": "address",
          "name": "account",
          "type": "address"
        }
      ],
      "name": "earned",
      "outputs": [
        {
          "internalType": "uint256",
          "name": "",
          "type": "uint256"
        }
      ],
      "stateMutability": "view",
      "type": "function"
    },
    {
      "inputs": [],
      "name": "getAPR",
      "outputs": [
        {
          "internalType": "uint256",
          "name": "",
          "type": "uint256"
        }
      ],
      "stateMutability": "view",
      "type": "function"
    },
    {
      "inputs": [],
      "name": "getAPRInAbsoluteValue",
      "outputs": [
        {
          "internalType": "uint256",
          "name": "",
          "type": "uint256"
        }
      ],
      "stateMutability": "view",
      "type": "function"
    },
    {
      "inputs": [],
      "name": "getPrimitives",
      "outputs": [
        {
          "components": [
            {
              "internalType": "contract IERC20Metadata",
              "name": "rewardsToken",
              "type": "address"
            },
            {
              "internalType": "contract IERC20Metadata",
              "name": "stakingToken",
              "type": "address"
            },
            {
              "internalType": "address",
              "name": "locusToken",
              "type": "address"
            },
            {
              "internalType": "uint256",
              "name": "periodFinish",
              "type": "uint256"
            },
            {
              "internalType": "uint256",
              "name": "rewardRate",
              "type": "uint256"
            },
            {
              "internalType": "uint256",
              "name": "rewardsDuration",
              "type": "uint256"
            },
            {
              "internalType": "uint256",
              "name": "lastUpdateTime",
              "type": "uint256"
            },
            {
              "internalType": "uint256",
              "name": "rewardPerTokenStored",
              "type": "uint256"
            },
            {
              "internalType": "uint256",
              "name": "totalSupply",
              "type": "uint256"
            },
            {
              "internalType": "uint256",
              "name": "totalReward",
              "type": "uint256"
            }
          ],
          "internalType": "struct LSLib.Primitives",
          "name": "",
          "type": "tuple"
        }
      ],
      "stateMutability": "view",
      "type": "function"
    },
    {
      "inputs": [
        {
          "internalType": "uint256",
          "name": "rewardRate",
          "type": "uint256"
        },
        {
          "internalType": "uint256",
          "name": "rewardDuration",
          "type": "uint256"
        }
      ],
      "name": "getProjectedAPR",
      "outputs": [
        {
          "internalType": "uint256",
          "name": "",
          "type": "uint256"
        }
      ],
      "stateMutability": "view",
      "type": "function"
    },
    {
      "inputs": [],
      "name": "getRewardForDuration",
      "outputs": [
        {
          "internalType": "uint256",
          "name": "",
          "type": "uint256"
        }
      ],
      "stateMutability": "view",
      "type": "function"
    },
    {
      "inputs": [],
      "name": "getTotalReward",
      "outputs": [
        {
          "internalType": "uint256",
          "name": "",
          "type": "uint256"
        }
      ],
      "stateMutability": "view",
      "type": "function"
    },
    {
      "inputs": [],
      "name": "lastTimeRewardApplicable",
      "outputs": [
        {
          "internalType": "uint256",
          "name": "",
          "type": "uint256"
        }
      ],
      "stateMutability": "view",
      "type": "function"
    },
    {
      "inputs": [],
      "name": "rewardPerToken",
      "outputs": [
        {
          "internalType": "uint256",
          "name": "",
          "type": "uint256"
        }
      ],
      "stateMutability": "view",
      "type": "function"
    }
  ],
  "transactionHash": "0x30dce3a00a6a710c13421b590d3aca0d85e0fdd11c3f3a17382c259419c8b801",
  "args": [],
  "numDeployments": 7,
  "solcInputHash": "04dd4e4ee48a00eda307f662a3bb02e6",
  "bytecode": "0x60a0806040523461002357306080526108bd90816100298239608051816103c00152f35b600080fdfe604060808152600436101561001357600080fd5b600090813560e01c80628cc262146102d45780631c1f78eb1461029d5780637821b332146101d05780637d1fcbfa1461019d57806380faa57d146101585780638c57d6c61461012e578063c89d5b8b146100f7578063cd3daf9d146100cc5763fddac91e1461008157600080fd5b346100c857816003193601126100c85760209061009c6103bd565b670de0b6b3a76400006100c06100b0610489565b60a060808201519101519061073c565b049051908152f35b5080fd5b50346100c857816003193601126100c8576020906100e86103bd565b6100f061066a565b9051908152f35b50346100c857816003193601126100c8576020906101136103bd565b6100f061011e610489565b60a06080820151910151906107e7565b50346100c857806003193601126100c85760209061014a6103bd565b6100f06024356004356107e7565b50346100c857816003193601126100c8576020916101746103bd565b506000805160206108488339815191525442811115610197575042905b51908152f35b90610191565b50346100c857816003193601126100c8576020906101b96103bd565b600080516020610868833981519152549051908152f35b50346100c857816003193601126100c8576101409181516101f081610434565b81815281602082015281838201528160608201528160808201528160a08201528160c08201528160e08201526101008281830152610120928380930152610235610489565b9084519460018060a01b03808451168752806020850151166020880152818401511690860152606082015160608601526080820151608086015260a082015160a086015260c082015160c086015260e082015160e08601528082015190850152015190820152f35b50346100c857816003193601126100c8576020906102b96103bd565b6100f06102c4610489565b60a060808201519101519061062a565b50346100c85760203660031901126100c8576004356001600160a01b038116908190036103b9576100f0908260209461030b6103bd565b8281527fd48875cae7c32c61030933702d7dc74d508a7c3c49fed9e91e1c0fcd6f2ad5778652670de0b6b3a764000061038a838320546103496103bd565b61038461035461066a565b8786527fd48875cae7c32c61030933702d7dc74d508a7c3c49fed9e91e1c0fcd6f2ad5758b528686205490610607565b9061062a565b049281527fd48875cae7c32c61030933702d7dc74d508a7c3c49fed9e91e1c0fcd6f2ad576865220549061065d565b8280fd5b307f00000000000000000000000000000000000000000000000000000000000000006001600160a01b0316148015610408575b6103f657565b604051639f357e6b60e01b8152600490fd5b5060ff7f9f1709bc5ab0578be51bb81e11b02cdd9c21aa603d7325a8a7551bbd5685a0055416156103f0565b61014081019081106001600160401b0382111761045057604052565b634e487b7160e01b600052604160045260246000fd5b601f909101601f19168101906001600160401b0382119082101761045057604052565b6040519061049682610434565b7fd48875cae7c32c61030933702d7dc74d508a7c3c49fed9e91e1c0fcd6f2ad56b546001600160a01b0390811683527fd48875cae7c32c61030933702d7dc74d508a7c3c49fed9e91e1c0fcd6f2ad56c54811660208401527fd48875cae7c32c61030933702d7dc74d508a7c3c49fed9e91e1c0fcd6f2ad56d541660408301526000805160206108488339815191525460608301527fd48875cae7c32c61030933702d7dc74d508a7c3c49fed9e91e1c0fcd6f2ad56f5460808301527fd48875cae7c32c61030933702d7dc74d508a7c3c49fed9e91e1c0fcd6f2ad5705460a08301527fd48875cae7c32c61030933702d7dc74d508a7c3c49fed9e91e1c0fcd6f2ad5715460c08301527fd48875cae7c32c61030933702d7dc74d508a7c3c49fed9e91e1c0fcd6f2ad5725460e08301527fd48875cae7c32c61030933702d7dc74d508a7c3c49fed9e91e1c0fcd6f2ad5735461010083015260008051602061086883398151915254610120830152565b9190820391821161061457565b634e487b7160e01b600052601160045260246000fd5b8181029291811591840414171561061457565b8115610647570490565b634e487b7160e01b600052601260045260246000fd5b9190820180921161061457565b610672610489565b610100810190815115610704576106c660e0820151916106906103bd565b600080516020610848833981519152548042106000146106f9575060806106bd425b60c084015190610607565b9101519061062a565b91670de0b6b3a764000092838102938185041490151715610614576106f6926106f091519061063d565b9061065d565b90565b6106bd6080916106b2565b60e09150015190565b90816020910312610726575160ff811681036107265790565b600080fd5b60ff16604d811161061457600a0a90565b610744610489565b60405163313ce56760e01b81529092602082600481305afa9182156107db5761077f92610779916000916107ad575b5061072b565b9261062a565b91670de0b6b3a764000092838102938185041490151715610614576106f6926101006103849201519061063d565b6107ce915060203d81116107d4575b6107c68183610466565b81019061070d565b38610773565b503d6107bc565b6040513d6000823e3d90fd5b60405163313ce56760e01b81529091602082600481305afa9182156107db576108219261081b916000916107ad575061072b565b9261073c565b612710908082029182040361061457670de0b6b3a7640000916108439161063d565b049056fed48875cae7c32c61030933702d7dc74d508a7c3c49fed9e91e1c0fcd6f2ad56ed48875cae7c32c61030933702d7dc74d508a7c3c49fed9e91e1c0fcd6f2ad574a2646970667358221220b76e958a0648363d7323e07fe52de9c53cf0682334fcc0d6ee63b4cc636e8f3864736f6c63430008130033",
  "libraries": [
    "TDLib",
    "LSLib",
    "InitializerLib",
    "RolesManagementLib",
    "DelayedSendingsQueueLib"
  ],
  "devdoc": {
    "events": {
      "Initialized(uint8)": {
        "details": "Triggered when the contract has been initialized or reinitialized."
      }
    },
    "kind": "dev",
    "methods": {},
    "version": 1
  },
  "userdoc": {
    "kind": "user",
    "methods": {},
    "version": 1
  },
  "storageLayout": {
    "storage": [
      {
        "astId": 6,
        "contract": "contracts/diamonds/locusStaking/v1/LSLoupeFacet.sol:LSLoupeFacet",
        "label": "_initialized",
        "offset": 0,
        "slot": "0",
        "type": "t_uint8"
      },
      {
        "astId": 9,
        "contract": "contracts/diamonds/locusStaking/v1/LSLoupeFacet.sol:LSLoupeFacet",
        "label": "_initializing",
        "offset": 1,
        "slot": "0",
        "type": "t_bool"
      }
    ],
    "types": {
      "t_bool": {
        "encoding": "inplace",
        "label": "bool",
        "numberOfBytes": "1"
      },
      "t_uint8": {
        "encoding": "inplace",
        "label": "uint8",
        "numberOfBytes": "1"
      }
    }
  }
}