{
  "address": "0x4D680A6461d4d16F5c22AD628EC531b7D17D2E7f",
  "abi": [
    {
      "inputs": [],
      "name": "DelegatedCallsOnly",
      "type": "error"
    },
    {
      "anonymous": false,
      "inputs": [
        {
          "indexed": false,
          "internalType": "uint8",
          "name": "version",
          "type": "uint8"
        }
      ],
      "name": "Initialized",
      "type": "event"
    },
    {
      "inputs": [
        {
          "internalType": "address",
          "name": "account",
          "type": "address"
        }
      ],
      "name": "balanceOf",
      "outputs": [
        {
          "internalType": "uint256",
          "name": "",
          "type": "uint256"
        }
      ],
      "stateMutability": "view",
      "type": "function"
    },
    {
      "inputs": [],
      "name": "decimals",
      "outputs": [
        {
          "internalType": "uint8",
          "name": "",
          "type": "uint8"
        }
      ],
      "stateMutability": "view",
      "type": "function"
    },
    {
      "inputs": [
        {
          "internalType": "address",
          "name": "account",
          "type": "address"
        }
      ],
      "name": "earned",
      "outputs": [
        {
          "internalType": "uint256",
          "name": "",
          "type": "uint256"
        }
      ],
      "stateMutability": "view",
      "type": "function"
    },
    {
      "inputs": [],
      "name": "getAPR",
      "outputs": [
        {
          "internalType": "uint256",
          "name": "",
          "type": "uint256"
        }
      ],
      "stateMutability": "view",
      "type": "function"
    },
    {
      "inputs": [],
      "name": "getAPRInAbsoluteValue",
      "outputs": [
        {
          "internalType": "uint256",
          "name": "",
          "type": "uint256"
        }
      ],
      "stateMutability": "view",
      "type": "function"
    },
    {
      "inputs": [],
      "name": "getPrimitives",
      "outputs": [
        {
          "components": [
            {
              "internalType": "contract IERC20Metadata",
              "name": "rewardsToken",
              "type": "address"
            },
            {
              "internalType": "contract IERC20Metadata",
              "name": "stakingToken",
              "type": "address"
            },
            {
              "internalType": "uint256",
              "name": "periodFinish",
              "type": "uint256"
            },
            {
              "internalType": "uint256",
              "name": "rewardRate",
              "type": "uint256"
            },
            {
              "internalType": "uint256",
              "name": "rewardsDuration",
              "type": "uint256"
            },
            {
              "internalType": "uint256",
              "name": "lastUpdateTime",
              "type": "uint256"
            },
            {
              "internalType": "uint256",
              "name": "rewardPerTokenStored",
              "type": "uint256"
            },
            {
              "internalType": "uint256",
              "name": "totalSupply",
              "type": "uint256"
            },
            {
              "internalType": "uint256",
              "name": "totalReward",
              "type": "uint256"
            },
            {
              "internalType": "address",
              "name": "wrappedStLocusToken",
              "type": "address"
            }
          ],
          "internalType": "struct LSLib.Primitives",
          "name": "",
          "type": "tuple"
        }
      ],
      "stateMutability": "view",
      "type": "function"
    },
    {
      "inputs": [
        {
          "internalType": "uint256",
          "name": "rewardRate",
          "type": "uint256"
        },
        {
          "internalType": "uint256",
          "name": "rewardDuration",
          "type": "uint256"
        }
      ],
      "name": "getProjectedAPR",
      "outputs": [
        {
          "internalType": "uint256",
          "name": "",
          "type": "uint256"
        }
      ],
      "stateMutability": "view",
      "type": "function"
    },
    {
      "inputs": [],
      "name": "getRewardForDuration",
      "outputs": [
        {
          "internalType": "uint256",
          "name": "",
          "type": "uint256"
        }
      ],
      "stateMutability": "view",
      "type": "function"
    },
    {
      "inputs": [],
      "name": "getTotalReward",
      "outputs": [
        {
          "internalType": "uint256",
          "name": "",
          "type": "uint256"
        }
      ],
      "stateMutability": "view",
      "type": "function"
    },
    {
      "inputs": [],
      "name": "lastTimeRewardApplicable",
      "outputs": [
        {
          "internalType": "uint256",
          "name": "",
          "type": "uint256"
        }
      ],
      "stateMutability": "view",
      "type": "function"
    },
    {
      "inputs": [],
      "name": "rewardPerToken",
      "outputs": [
        {
          "internalType": "uint256",
          "name": "",
          "type": "uint256"
        }
      ],
      "stateMutability": "view",
      "type": "function"
    },
    {
      "inputs": [],
      "name": "totalSupply",
      "outputs": [
        {
          "internalType": "uint256",
          "name": "",
          "type": "uint256"
        }
      ],
      "stateMutability": "view",
      "type": "function"
    }
  ],
  "transactionHash": "0xae7e7db59a9e59616432954f1d1735b5a39c2d02b64c2f6d8c1ac8e9cafe64dd",
  "args": [],
  "numDeployments": 8,
  "solcInputHash": "157efd5c9b8df67cf4dd36d065d7f4f7",
  "bytecode": "0x60a080604052346100235730608052610a13908161002982396080518161050c0152f35b600080fdfe604060808152600436101561001357600080fd5b600090813560e01c80628cc2621461044557806318160ddd146104125780631c1f78eb146103db578063313ce5671461033857806370a08231146102bf5780637821b332146101f15780637d1fcbfa146101be57806380faa57d146101795780638c57d6c61461014f578063c89d5b8b14610118578063cd3daf9d146100ed5763fddac91e146100a257600080fd5b346100e957816003193601126100e9576020906100bd610509565b670de0b6b3a76400006100e16100d16105d5565b6080606082015191015190610863565b049051908152f35b5080fd5b50346100e957816003193601126100e957602090610109610509565b610111610792565b9051908152f35b50346100e957816003193601126100e957602090610134610509565b61011161013f6105d5565b60806060820151910151906108fd565b50346100e957806003193601126100e95760209061016b610509565b6101116024356004356108fd565b50346100e957816003193601126100e957602091610195610509565b5060008051602061099e83398151915254428111156101b8575042905b51908152f35b906101b2565b50346100e957816003193601126100e9576020906101da610509565b60008051602061097e833981519152549051908152f35b50346100e957816003193601126100e9578051610140929161021282610580565b82825282602083015282818301528260608301528260808301528260a08301528260c08301528260e083015261010092808484015261012080930152816102576105d5565b82519460018060a01b03938483511687528460208401511660208801528083015190870152606082015160608701526080820151608087015260a082015160a087015260c082015160c087015260e082015160e0870152808201519086015201511690820152f35b50346100e95760203660031901126100e957600435916001600160a01b0383168303610335575061032d6020926102f4610509565b6001600160a01b031660009081527fd48875cae7c32c61030933702d7dc74d508a7c3c49fed9e91e1c0fcd6f2ad5776020526040902090565b549051908152f35b80fd5b50346100e957816003193601126100e957600490610354610509565b6000805160206109be83398151915254815163313ce56760e01b81529260209184919082906001600160a01b03165afa9182156103d1576020939261039f575b5060ff905191168152f35b60ff9192506103c390843d81116103ca575b6103bb81836105b2565b810190610834565b9190610394565b503d6103b1565b81513d85823e3d90fd5b50346100e957816003193601126100e9576020906103f7610509565b6101116104026105d5565b6080606082015191015190610752565b50346100e957816003193601126100e95760209061042e610509565b60008051602061095e833981519152549051908152f35b50346100e95760203660031901126100e9576004356001600160a01b03811690818103610505579082602094670de0b6b3a76400006104d661048c610111966102f4610509565b54610495610509565b6104d06104a0610792565b8786527fd48875cae7c32c61030933702d7dc74d508a7c3c49fed9e91e1c0fcd6f2ad5758b52868620549061072f565b90610752565b049281527fd48875cae7c32c61030933702d7dc74d508a7c3c49fed9e91e1c0fcd6f2ad5768652205490610785565b8380fd5b307f00000000000000000000000000000000000000000000000000000000000000006001600160a01b0316148015610554575b61054257565b604051639f357e6b60e01b8152600490fd5b5060ff7f9f1709bc5ab0578be51bb81e11b02cdd9c21aa603d7325a8a7551bbd5685a00554161561053c565b61014081019081106001600160401b0382111761059c57604052565b634e487b7160e01b600052604160045260246000fd5b601f909101601f19168101906001600160401b0382119082101761059c57604052565b604051906105e282610580565b7fd48875cae7c32c61030933702d7dc74d508a7c3c49fed9e91e1c0fcd6f2ad56b546001600160a01b0390811683526000805160206109be833981519152548116602084015260008051602061099e8339815191525460408401527fd48875cae7c32c61030933702d7dc74d508a7c3c49fed9e91e1c0fcd6f2ad56e5460608401527fd48875cae7c32c61030933702d7dc74d508a7c3c49fed9e91e1c0fcd6f2ad56f5460808401527fd48875cae7c32c61030933702d7dc74d508a7c3c49fed9e91e1c0fcd6f2ad5705460a08401527fd48875cae7c32c61030933702d7dc74d508a7c3c49fed9e91e1c0fcd6f2ad5715460c084015260008051602061095e8339815191525460e084015260008051602061097e833981519152546101008401527fd48875cae7c32c61030933702d7dc74d508a7c3c49fed9e91e1c0fcd6f2ad5745416610120830152565b9190820391821161073c57565b634e487b7160e01b600052601160045260246000fd5b8181029291811591840414171561073c57565b811561076f570490565b634e487b7160e01b600052601260045260246000fd5b9190820180921161073c57565b61079a6105d5565b60e081019081511561082b576107ed60c0820151916107b7610509565b60008051602061099e83398151915254804210600014610820575060606107e4425b60a08401519061072f565b91015190610752565b91670de0b6b3a76400009283810293818504149015171561073c5761081d92610817915190610765565b90610785565b90565b6107e46060916107d9565b60c09150015190565b9081602091031261084d575160ff8116810361084d5790565b600080fd5b60ff16604d811161073c57600a0a90565b61086b6105d5565b60405163313ce56760e01b81529092602082600481305afa9182156108f1576108a6926108a0916000916108d3575b50610852565b92610752565b91670de0b6b3a76400009283810293818504149015171561073c5761081d9260e06104d092015190610765565b6108eb915060203d81116103ca576103bb81836105b2565b3861089a565b6040513d6000823e3d90fd5b60405163313ce56760e01b81529091602082600481305afa9182156108f15761093792610931916000916108d35750610852565b92610863565b612710908082029182040361073c57670de0b6b3a76400009161095991610765565b049056fed48875cae7c32c61030933702d7dc74d508a7c3c49fed9e91e1c0fcd6f2ad572d48875cae7c32c61030933702d7dc74d508a7c3c49fed9e91e1c0fcd6f2ad573d48875cae7c32c61030933702d7dc74d508a7c3c49fed9e91e1c0fcd6f2ad56dd48875cae7c32c61030933702d7dc74d508a7c3c49fed9e91e1c0fcd6f2ad56ca26469706673582212205e64d0ba21db7087b9df08a75c55ad811b068d782fd9a9b31765aa90e656845264736f6c63430008130033",
  "libraries": [
    "TDLib",
    "LSLib",
    "InitializerLib",
    "RolesManagementLib",
    "DelayedSendingsQueueLib"
  ],
  "devdoc": {
    "events": {
      "Initialized(uint8)": {
        "details": "Triggered when the contract has been initialized or reinitialized."
      }
    },
    "kind": "dev",
    "methods": {},
    "version": 1
  },
  "userdoc": {
    "kind": "user",
    "methods": {},
    "version": 1
  },
  "storageLayout": {
    "storage": [
      {
        "astId": 133,
        "contract": "contracts/diamonds/locusStaking/v1/LSLoupeFacet.sol:LSLoupeFacet",
        "label": "_initialized",
        "offset": 0,
        "slot": "0",
        "type": "t_uint8"
      },
      {
        "astId": 136,
        "contract": "contracts/diamonds/locusStaking/v1/LSLoupeFacet.sol:LSLoupeFacet",
        "label": "_initializing",
        "offset": 1,
        "slot": "0",
        "type": "t_bool"
      }
    ],
    "types": {
      "t_bool": {
        "encoding": "inplace",
        "label": "bool",
        "numberOfBytes": "1"
      },
      "t_uint8": {
        "encoding": "inplace",
        "label": "uint8",
        "numberOfBytes": "1"
      }
    }
  }
}