{
  "address": "0x757186E887EacFa1964A3b9aA220Da054e885142",
  "abi": [
    {
      "inputs": [
        {
          "internalType": "address",
          "name": "token",
          "type": "address"
        },
        {
          "internalType": "uint256",
          "name": "amount",
          "type": "uint256"
        }
      ],
      "name": "CannotRecoverToken",
      "type": "error"
    },
    {
      "inputs": [
        {
          "internalType": "uint256",
          "name": "deltaInSeconds",
          "type": "uint256"
        }
      ],
      "name": "ChangingRewardsDurationTooEarly",
      "type": "error"
    },
    {
      "inputs": [],
      "name": "DelegatedCallsOnly",
      "type": "error"
    },
    {
      "inputs": [
        {
          "internalType": "address",
          "name": "who",
          "type": "address"
        },
        {
          "internalType": "bytes32",
          "name": "role",
          "type": "bytes32"
        }
      ],
      "name": "HasNoRole",
      "type": "error"
    },
    {
      "inputs": [
        {
          "internalType": "uint256",
          "name": "actualReward",
          "type": "uint256"
        }
      ],
      "name": "RewardIsTooHigh",
      "type": "error"
    },
    {
      "anonymous": false,
      "inputs": [
        {
          "indexed": false,
          "internalType": "uint8",
          "name": "version",
          "type": "uint8"
        }
      ],
      "name": "Initialized",
      "type": "event"
    },
    {
      "inputs": [
        {
          "internalType": "uint256",
          "name": "reward",
          "type": "uint256"
        }
      ],
      "name": "notifyRewardAmount",
      "outputs": [],
      "stateMutability": "nonpayable",
      "type": "function"
    },
    {
      "inputs": [
        {
          "internalType": "address",
          "name": "tokenAddress",
          "type": "address"
        },
        {
          "internalType": "uint256",
          "name": "tokenAmount",
          "type": "uint256"
        }
      ],
      "name": "recoverTokens",
      "outputs": [],
      "stateMutability": "nonpayable",
      "type": "function"
    },
    {
      "inputs": [
        {
          "internalType": "uint256",
          "name": "_rewardsDuration",
          "type": "uint256"
        }
      ],
      "name": "setRewardsDuration",
      "outputs": [],
      "stateMutability": "nonpayable",
      "type": "function"
    }
  ],
  "transactionHash": "0x1f286b04ddc058e700dda099131d573c4b5812ae3a80505f328827d9ddea67ed",
  "args": [],
  "numDeployments": 1,
  "solcInputHash": "a98a5384338f38456d16b1d0c4ad9bea",
  "bytecode": "0x60a08060405234610023573060805261092490816100298239608051816107850152f35b600080fdfe6040608081526004908136101561001557600080fd5b600091823560e01c8063069c9fae146103e35780633c6b16ab146100de5763cc1a378f1461004257600080fd5b346100da5760203660031901126100da5780359161005e610782565b6100666107f9565b6000805160206108cf83398151915254804211156100b9575050508060008051602061088f833981519152557ffb46ca5a5e06d4540d6387b930a7c978bce0db5f449ec6b3f5d07c6e1d44f2d38280a280f35b602493506100c8904290610526565b905163bfecad5f60e01b815291820152fd5b8280fd5b5090346100da5760203660031901126100da578135916100fc610782565b7fb814ff4a26ea3ec5cd1fa579daad86324826254265f3acfec78303a19845b4498085527f256352104e666e6cce09c45a35c339c150e1991724469c7d87b784a284535e4460205282852033865260205260ff8386205416156103c85750303b156103c457815163632447c960e01b81528181018590526024908581838183305af180156103ba5761038e575b507fd48875cae7c32c61030933702d7dc74d508a7c3c49fed9e91e1c0fcd6f2ad56b5483516323b872dd60e01b6020820152338382015230604482015260648082018790528152906001600160a01b031660a082016001600160401b0381118382101761037a5785526101fc9190610553565b7fd48875cae7c32c61030933702d7dc74d508a7c3c49fed9e91e1c0fcd6f2ad57491610229858454610503565b83556000805160206108cf83398151915293845480421015600014610310575061026260008051602061088f8339815191525487610533565b6000805160206108af833981519152555b6000805160206108af8339815191525493549060008051602061088f83398151915254946102a18684610533565b1061030057505050506102d790427fd48875cae7c32c61030933702d7dc74d508a7c3c49fed9e91e1c0fcd6f2ad5715542610503565b90557fde88a922e0d3b88b24e9623efeb464919c6bf9f66857a65e2bfcf2ce87a9433d8280a280f35b516299705160e31b815291820152fd5b61031b904290610526565b6000805160206108af833981519152908154908181029181830414901517156103685761034b6103619189610503565b60008051602061088f8339815191525490610533565b9055610273565b634e487b7160e01b8952601184528489fd5b83604186634e487b7160e01b600052526000fd5b9094906001600160401b0381116103a85783529338610189565b5060418592634e487b7160e01b835252fd5b84513d88823e3d90fd5b8380fd5b6044925191632bc93d7960e21b835233908301526024820152fd5b50346100da57816003193601126100da576001600160a01b03918135838116928382036104c65760243594610416610782565b61041e6107f9565b7fd48875cae7c32c61030933702d7dc74d508a7c3c49fed9e91e1c0fcd6f2ad56c541684146104a85750505163a9059cbb60e01b60208201526104819061047b8161046d863360248401610873565b03601f1981018352826104ca565b82610553565b7f8c1256b8896378cd5044f80c202f9772b9d77dc85c8a6eb51967210b09bfaa288380a380f35b6104c28584519384936376ec828b60e11b85528401610873565b0390fd5b8580fd5b601f909101601f19168101906001600160401b038211908210176104ed57604052565b634e487b7160e01b600052604160045260246000fd5b9190820180921161051057565b634e487b7160e01b600052601160045260246000fd5b9190820391821161051057565b811561053d570490565b634e487b7160e01b600052601260045260246000fd5b604080516001600160a01b03929092169291906001600160401b03908201818111838210176104ed576040526020938483527f5361666545524332303a206c6f772d6c6576656c2063616c6c206661696c6564858401526000808587829751910182855af1903d156106a3573d92831161068f57906105f2939291604051926105e588601f19601f84011601856104ca565b83523d868885013e6106ae565b805191821591848315610664575b50505090501561060d5750565b6084906040519062461bcd60e51b82526004820152602a60248201527f5361666545524332303a204552433230206f7065726174696f6e20646964206e6044820152691bdd081cdd58d8d9595960b21b6064820152fd5b91938180945001031261068b57820151908115158203610688575080388084610600565b80fd5b5080fd5b634e487b7160e01b85526041600452602485fd5b906105f29392506060915b9192901561071057508151156106c2575090565b3b156106cb5790565b60405162461bcd60e51b815260206004820152601d60248201527f416464726573733a2063616c6c20746f206e6f6e2d636f6e74726163740000006044820152606490fd5b8251909150156107235750805190602001fd5b6040519062461bcd60e51b82528160208060048301528251908160248401526000935b828510610769575050604492506000838284010152601f80199101168101030190fd5b8481018201518686016044015293810193859350610746565b307f00000000000000000000000000000000000000000000000000000000000000006001600160a01b03161480156107cd575b6107bb57565b604051639f357e6b60e01b8152600490fd5b5060ff7f9f1709bc5ab0578be51bb81e11b02cdd9c21aa603d7325a8a7551bbd5685a0055416156107b5565b3360009081527f7eab7b82f3f21675de29d098b67b1bb6d0c69de2cb1ba0b9eb1dbc18d523752f60205260409020547fb19546dff01e856fb3f010c267a7b1c60363cf8a4664e21cc89c26224620214e9060ff16156108555750565b60449060405190632bc93d7960e21b82523360048301526024820152fd5b6001600160a01b03909116815260208101919091526040019056fed48875cae7c32c61030933702d7dc74d508a7c3c49fed9e91e1c0fcd6f2ad570d48875cae7c32c61030933702d7dc74d508a7c3c49fed9e91e1c0fcd6f2ad56fd48875cae7c32c61030933702d7dc74d508a7c3c49fed9e91e1c0fcd6f2ad56ea2646970667358221220eddce9fea529620bb49d70e2390a0e8a6ae380d77ef683b9889fd2abb4454b1f64736f6c63430008130033",
  "libraries": [
    "TDLib",
    "LSLib",
    "InitializerLib",
    "RolesManagementLib"
  ],
  "devdoc": {
    "events": {
      "Initialized(uint8)": {
        "details": "Triggered when the contract has been initialized or reinitialized."
      }
    },
    "kind": "dev",
    "methods": {},
    "version": 1
  },
  "userdoc": {
    "kind": "user",
    "methods": {},
    "version": 1
  },
  "storageLayout": {
    "storage": [
      {
        "astId": 2909,
        "contract": "contracts/diamonds/locusStaking/v1/LSManagementFacet.sol:LSManagementFacet",
        "label": "_initialized",
        "offset": 0,
        "slot": "0",
        "type": "t_uint8"
      },
      {
        "astId": 2912,
        "contract": "contracts/diamonds/locusStaking/v1/LSManagementFacet.sol:LSManagementFacet",
        "label": "_initializing",
        "offset": 1,
        "slot": "0",
        "type": "t_bool"
      }
    ],
    "types": {
      "t_bool": {
        "encoding": "inplace",
        "label": "bool",
        "numberOfBytes": "1"
      },
      "t_uint8": {
        "encoding": "inplace",
        "label": "uint8",
        "numberOfBytes": "1"
      }
    }
  }
}