{
  "address": "0x2431B5618D9e1EA378Ad03Cf4E1f6122604145E8",
  "abi": [
    {
      "inputs": [],
      "name": "DelegatedCallsOnly",
      "type": "error"
    },
    {
      "inputs": [
        {
          "internalType": "address",
          "name": "who",
          "type": "address"
        },
        {
          "internalType": "bytes32",
          "name": "role",
          "type": "bytes32"
        }
      ],
      "name": "HasNoRole",
      "type": "error"
    },
    {
      "anonymous": false,
      "inputs": [
        {
          "indexed": false,
          "internalType": "uint8",
          "name": "version",
          "type": "uint8"
        }
      ],
      "name": "Initialized",
      "type": "event"
    },
    {
      "inputs": [
        {
          "internalType": "uint256",
          "name": "reward",
          "type": "uint256"
        },
        {
          "internalType": "contract IERC20Metadata",
          "name": "rewardsToken",
          "type": "address"
        }
      ],
      "name": "getFeesAccountedAmountAndDistributeFees",
      "outputs": [
        {
          "internalType": "uint256",
          "name": "feesSubstractedReward",
          "type": "uint256"
        }
      ],
      "stateMutability": "nonpayable",
      "type": "function"
    }
  ],
  "transactionHash": "0x3bec2243154284f49d2b69dacdb1ff4057b844f625c4e653ac83aa23c3484231",
  "args": [],
  "numDeployments": 1,
  "solcInputHash": "b6d3cd2fe098543453877e1dad3f3dbb",
  "bytecode": "0x60a0806040523461002057306080526102cd90816100268239608051815050f35b600080fdfe608080604052600436101561001357600080fd5b600090813560e01c63b859bb5f1461002a57600080fd5b346100ab5760403660031901126100ab57602435916001600160a01b03831683036100a8575030330361006d576020610065836004356100af565b604051908152f35b632bc93d7960e21b81523360048201527fddd94edc7da5bca8f576c77964a4737ba5172c728e2d539e672f0229d1e9ec2d6024820152604490fd5b80fd5b5080fd5b919091600033815260207ff8a6c10351c569dde9f00d2a7d439ceae77f38bfadfbaac59dc5476ddac46a07815263ffffffff806040842054168042116101b0575b50505080156101ab57808202908282041482151715610195576127109004908181039081116101955792303b15610190576040516370fd458160e11b815260048101929092526001600160a01b0316602482015260008160448183305af180156101845761015b5750565b6001600160401b03811161016e57604052565b634e487b7160e01b600052604160045260246000fd5b6040513d6000823e3d90fd5b600080fd5b634e487b7160e01b600052601160045260246000fd5b509150565b907ff8a6c10351c569dde9f00d2a7d439ceae77f38bfadfbaac59dc5476ddac46a089081549185935b838510610218575b5050505082917ff8a6c10351c569dde9f00d2a7d439ceae77f38bfadfbaac59dc5476ddac46a0991604094525220543880806100f0565b818752828688208660031c015460e08760051b161c16908361023a838361027f565b1642101561024857506101e1565b90610256919593949561027f565b91600019811461026b576001019392916101d9565b634e487b7160e01b87526011600452602487fd5b91909163ffffffff808094169116019182116101955756fea2646970667358221220d8bd35252eaa6a832f044508b40fc0a73d5395d4ac0a6a2d3360603f1d8f3b8264736f6c63430008130033",
  "libraries": [
    "TDLib",
    "LSLib",
    "InitializerLib",
    "RolesManagementLib"
  ],
  "devdoc": {
    "events": {
      "Initialized(uint8)": {
        "details": "Triggered when the contract has been initialized or reinitialized."
      }
    },
    "kind": "dev",
    "methods": {},
    "version": 1
  },
  "userdoc": {
    "kind": "user",
    "methods": {},
    "version": 1
  },
  "storageLayout": {
    "storage": [
      {
        "astId": 6,
        "contract": "contracts/diamonds/locusStaking/v1/LSProcessFeesFacet.sol:LSProcessFeesFacet",
        "label": "_initialized",
        "offset": 0,
        "slot": "0",
        "type": "t_uint8"
      },
      {
        "astId": 9,
        "contract": "contracts/diamonds/locusStaking/v1/LSProcessFeesFacet.sol:LSProcessFeesFacet",
        "label": "_initializing",
        "offset": 1,
        "slot": "0",
        "type": "t_bool"
      }
    ],
    "types": {
      "t_bool": {
        "encoding": "inplace",
        "label": "bool",
        "numberOfBytes": "1"
      },
      "t_uint8": {
        "encoding": "inplace",
        "label": "uint8",
        "numberOfBytes": "1"
      }
    }
  }
}