{
  "address": "0xAFBc5C5a9Bb091B522687365f3e1f239BD6f41be",
  "abi": [
    {
      "inputs": [],
      "name": "DelegatedCallsOnly",
      "type": "error"
    },
    {
      "inputs": [],
      "name": "OutOfBounds",
      "type": "error"
    },
    {
      "anonymous": false,
      "inputs": [
        {
          "indexed": false,
          "internalType": "uint8",
          "name": "version",
          "type": "uint8"
        }
      ],
      "name": "Initialized",
      "type": "event"
    },
    {
      "inputs": [
        {
          "internalType": "uint256",
          "name": "index",
          "type": "uint256"
        }
      ],
      "name": "getDelayedSending",
      "outputs": [
        {
          "components": [
            {
              "internalType": "address",
              "name": "receiver",
              "type": "address"
            },
            {
              "internalType": "uint256",
              "name": "amount",
              "type": "uint256"
            },
            {
              "internalType": "uint256",
              "name": "dueToTimestamp",
              "type": "uint256"
            },
            {
              "internalType": "enum DelayedSendingsQueueLib.DueDuration",
              "name": "dueToDuration",
              "type": "uint8"
            },
            {
              "internalType": "contract IERC20Metadata",
              "name": "sendingToken",
              "type": "address"
            }
          ],
          "internalType": "struct DelayedSendingsQueueLib.DelayedSending",
          "name": "",
          "type": "tuple"
        }
      ],
      "stateMutability": "view",
      "type": "function"
    },
    {
      "inputs": [],
      "name": "getDequeSize",
      "outputs": [
        {
          "internalType": "uint256",
          "name": "",
          "type": "uint256"
        }
      ],
      "stateMutability": "view",
      "type": "function"
    },
    {
      "inputs": [],
      "name": "getSendingsDeque",
      "outputs": [
        {
          "components": [
            {
              "internalType": "address",
              "name": "receiver",
              "type": "address"
            },
            {
              "internalType": "uint256",
              "name": "amount",
              "type": "uint256"
            },
            {
              "internalType": "uint256",
              "name": "dueToTimestamp",
              "type": "uint256"
            },
            {
              "internalType": "enum DelayedSendingsQueueLib.DueDuration",
              "name": "dueToDuration",
              "type": "uint8"
            },
            {
              "internalType": "contract IERC20Metadata",
              "name": "sendingToken",
              "type": "address"
            }
          ],
          "internalType": "struct DelayedSendingsQueueLib.DelayedSending[]",
          "name": "result",
          "type": "tuple[]"
        }
      ],
      "stateMutability": "view",
      "type": "function"
    },
    {
      "inputs": [],
      "name": "getSendingsDequeIndiciesStored",
      "outputs": [
        {
          "internalType": "uint256[]",
          "name": "result",
          "type": "uint256[]"
        }
      ],
      "stateMutability": "view",
      "type": "function"
    },
    {
      "inputs": [
        {
          "internalType": "address",
          "name": "staker",
          "type": "address"
        }
      ],
      "name": "getTotalSendingsPerStaker",
      "outputs": [
        {
          "internalType": "uint256",
          "name": "",
          "type": "uint256"
        }
      ],
      "stateMutability": "view",
      "type": "function"
    }
  ],
  "transactionHash": "0x86a185a97d2041275afb609224066173d21469a623f455076d875e5df445b939",
  "args": [],
  "numDeployments": 6,
  "solcInputHash": "a69319f60aa8085b29369d3c062c0696",
  "bytecode": "0x60a08060405234610023573060805261079c908161002982396080518161050e0152f35b600080fdfe6040608081526004908136101561001557600080fd5b600091823560e01c80636865a5ec146104085780639ecf01ce14610340578063c2c61f8c1461017f578063e05763ab146100b35763e7a0e0261461005857600080fd5b346100af5760203660031901126100af57356001600160a01b038116908190036100af57828291602094527f1dd6c79c831849050a82af0883082b3bdc0dbd9516848eb1600be8f02b20ad13845220549051908152f35b8280fd5b82843461017c578060031936011261017c57906100ce61050b565b6100d6610582565b916100e0836105a1565b906100ed835192836104bd565b8382526100f9846105a1565b6020948584019391601f1901368537825b81811061014e57505083519485948186019282875251809352850193925b82811061013757505050500390f35b835185528695509381019392810192600101610128565b8061016161017192989594969798610607565b61016b82886105dd565b526105b8565b95949391929561010a565b80fd5b5091903461033c578160031936011261033c5761019a61050b565b6101a2610582565b6101ab816105a1565b936101b8835195866104bd565b818552601f196101c7836105a1565b01845b818110610325575050835b828110610228575050508281519160208080850192818652845180945285019301945b8281106102055784840385f35b9091928260a0826102196001948a51610434565b019601910194929190946101f8565b61023181610607565b845190634f6780e760e11b82528382015260a0908181602481305afa91821561031b578792610282575b50509061027d9161026c82896105dd565b5261027781886105dd565b506105b8565b6101d5565b90809250813d8311610314575b61029981836104bd565b81010312610310578451906102ad8261048c565b80516001600160a01b039190828116810361030c5783526020808201519084015286810151878401526060808201519060058210156103085784015260808091015191821682036103045782015261027d3861025b565b8780fd5b8980fd5b8880fd5b8580fd5b503d61028f565b86513d89823e3d90fd5b6020906103306104e0565b82828a010152016101ca565b5080fd5b5091903461033c57602036600319011261033c5761035c6104e0565b5061036561050b565b823582527f1dd6c79c831849050a82af0883082b3bdc0dbd9516848eb1600be8f02b20ad1060205280822081519261039c8461048c565b81546001600160a01b039081168552600183015460208601526002830154848601526003909201549060ff82169060058210156103f55760a0866103f387878787606086015260081c166080840152518092610434565bf35b634e487b7160e01b815260218752602490fd5b50503461033c578160031936011261033c5760209061042561050b565b61042d610582565b9051908152f35b80516001600160a01b03908116835260208083015190840152604080830151908401526060820151600581101561047657606084015260809182015116910152565b634e487b7160e01b600052602160045260246000fd5b60a081019081106001600160401b038211176104a757604052565b634e487b7160e01b600052604160045260246000fd5b601f909101601f19168101906001600160401b038211908210176104a757604052565b604051906104ed8261048c565b60006080838281528260208201528260408201528260608201520152565b307f00000000000000000000000000000000000000000000000000000000000000006001600160a01b0316148015610556575b61054457565b604051639f357e6b60e01b8152600490fd5b5060ff7f9f1709bc5ab0578be51bb81e11b02cdd9c21aa603d7325a8a7551bbd5685a00554161561053e565b6000805160206107478339815191525480600f0b9060801d600f0b0390565b6001600160401b0381116104a75760051b60200190565b60001981146105c75760010190565b634e487b7160e01b600052601160045260246000fd5b80518210156105f15760209160051b010190565b634e487b7160e01b600052603260045260246000fd5b60008051602061074783398151915254600f81900b6001600160ff1b0383116106f057600083820193841291129080158216911516176105c75781600f0b91820361069b5760801d600f0b811215610689576000527f1dd6c79c831849050a82af0883082b3bdc0dbd9516848eb1600be8f02b20ad1260205260406000205490565b604051632d0483c560e21b8152600490fd5b60405162461bcd60e51b815260206004820152602760248201527f53616665436173743a2076616c756520646f65736e27742066697420696e20316044820152663238206269747360c81b6064820152608490fd5b60405162461bcd60e51b815260206004820152602860248201527f53616665436173743a2076616c756520646f65736e27742066697420696e2061604482015267371034b73a191a9b60c11b6064820152608490fdfe1dd6c79c831849050a82af0883082b3bdc0dbd9516848eb1600be8f02b20ad11a26469706673582212205cb0edb59d864490db769f69a933280663ebfc2fec8714f443acc6105a39a4ad64736f6c63430008130033",
  "libraries": [
    "TDLib",
    "LSLib",
    "InitializerLib",
    "RolesManagementLib",
    "DelayedSendingsQueueLib"
  ],
  "devdoc": {
    "errors": {
      "OutOfBounds()": [
        {
          "details": "An operation (e.g. {at}) couldn't be completed due to an index being out of bounds."
        }
      ]
    },
    "events": {
      "Initialized(uint8)": {
        "details": "Triggered when the contract has been initialized or reinitialized."
      }
    },
    "kind": "dev",
    "methods": {},
    "version": 1
  },
  "userdoc": {
    "kind": "user",
    "methods": {},
    "version": 1
  },
  "storageLayout": {
    "storage": [
      {
        "astId": 6,
        "contract": "contracts/diamonds/locusStaking/v2/manualWithdrawQueueFacets/LSSendingsDequeLoupeFacet.sol:LSSendingsDequeLoupeFacet",
        "label": "_initialized",
        "offset": 0,
        "slot": "0",
        "type": "t_uint8"
      },
      {
        "astId": 9,
        "contract": "contracts/diamonds/locusStaking/v2/manualWithdrawQueueFacets/LSSendingsDequeLoupeFacet.sol:LSSendingsDequeLoupeFacet",
        "label": "_initializing",
        "offset": 1,
        "slot": "0",
        "type": "t_bool"
      }
    ],
    "types": {
      "t_bool": {
        "encoding": "inplace",
        "label": "bool",
        "numberOfBytes": "1"
      },
      "t_uint8": {
        "encoding": "inplace",
        "label": "uint8",
        "numberOfBytes": "1"
      }
    }
  }
}