{
  "address": "0xf37D4cCdb9E433183d7820C553718Bd160dDcb37",
  "abi": [
    {
      "inputs": [],
      "name": "DelegatedCallsOnly",
      "type": "error"
    },
    {
      "inputs": [],
      "name": "Empty",
      "type": "error"
    },
    {
      "inputs": [
        {
          "internalType": "address",
          "name": "who",
          "type": "address"
        },
        {
          "internalType": "bytes32",
          "name": "role",
          "type": "bytes32"
        }
      ],
      "name": "HasNoRole",
      "type": "error"
    },
    {
      "inputs": [
        {
          "internalType": "enum DelayedSendingsQueueLib.DueDuration",
          "name": "invalidDueDuration",
          "type": "uint8"
        }
      ],
      "name": "InvalidDueDuration",
      "type": "error"
    },
    {
      "anonymous": false,
      "inputs": [
        {
          "indexed": false,
          "internalType": "uint8",
          "name": "version",
          "type": "uint8"
        }
      ],
      "name": "Initialized",
      "type": "event"
    },
    {
      "inputs": [
        {
          "internalType": "contract IERC20Metadata",
          "name": "sendingToken",
          "type": "address"
        },
        {
          "internalType": "address",
          "name": "receiver",
          "type": "address"
        },
        {
          "internalType": "uint256",
          "name": "amount",
          "type": "uint256"
        },
        {
          "internalType": "enum DelayedSendingsQueueLib.DueDuration",
          "name": "dueToDuration",
          "type": "uint8"
        }
      ],
      "name": "addDelayedSending",
      "outputs": [],
      "stateMutability": "nonpayable",
      "type": "function"
    },
    {
      "inputs": [],
      "name": "processQueue",
      "outputs": [],
      "stateMutability": "nonpayable",
      "type": "function"
    }
  ],
  "transactionHash": "0xf352b39b0d76234e7e354de24e514119ccf5b68bb048d21595832280bd97f0e4",
  "args": [],
  "numDeployments": 2,
  "solcInputHash": "157efd5c9b8df67cf4dd36d065d7f4f7",
  "bytecode": "0x60a080604052346100225730608052610a37908161002882396080518160f90152f35b600080fdfe608060409080825260048036101561001657600080fd5b600091823560e01c90816343c9e535146100da575063896909e01461003a57600080fd5b346100d65760803660031901126100d65780356001600160a01b0380821682036100d25760243590811681036100d2576064359260058410156100ce57303303610091575061008e93945060443591610393565b80f35b604490865190632bc93d7960e21b825233908201527fddd94edc7da5bca8f576c77964a4737ba5172c728e2d539e672f0229d1e9ec2d6024820152fd5b8480fd5b8380fd5b5080fd5b9390503461032d578260031936011261032d576001600160a01b0393307f00000000000000000000000000000000000000000000000000000000000000008616148015610301575b6102f357507fd6192e9767fe272a4ce26530c23b8bde4c72513f55415ce20ac5a29ae6c3e8a580845260207f256352104e666e6cce09c45a35c339c150e1991724469c7d87b784a284535e448152828520338652815260ff91828487205416156102d557506000805160206109a283398151915290815496600f9360809880860b908a1d860b0398885b8a81106101b7578980f35b855480880b8091841d890b13156102c5576101d1816107da565b54908b6101dd826107da565b5587546001600160801b0319166001600160801b03600192830116178855818c526000805160206109c28339815191528752898c20600281015442106102b55761028092506000805160206109828339815191528888808960038601610253815498880198895485600895831692861c1661087b565b9990895461026e610266878c5416610331565b918254610858565b9055848354851c16858a541690610548565b54901c169354169354948d51908152a45b60001981146102a2576001016101ac565b634e487b7160e01b8a526011895260248afd5b50506102c0906107fa565b610291565b8851631ed9509560e11b81528a90fd5b8351632bc93d7960e21b815233818701526024810191909152604490fd5b639f357e6b60e01b81529050fd5b5060ff7f9f1709bc5ab0578be51bb81e11b02cdd9c21aa603d7325a8a7551bbd5685a005541615610122565b8280fd5b6001600160a01b031660009081527f1dd6c79c831849050a82af0883082b3bdc0dbd9516848eb1600be8f02b20ad136020526040902090565b91906020830192600582101561037d5752565b634e487b7160e01b600052602160045260246000fd5b9190600584101561037d5760018414610505577f1dd6c79c831849050a82af0883082b3bdc0dbd9516848eb1600be8f02b20ad0f938454936000938585526000805160206109c283398151915260205261040d604086209460018060a01b03811660018060a01b0319875416178655826001870155610331565b80549182018092116104f157556003830180546001600160a81b03191660ff84161760089290921b610100600160a81b031691909117905560028103610487575062093a8042019182421161047357506002015561046a906107fa565b60018154019055565b634e487b7160e01b81526011600452602490fd5b600381036104ac57506212750042019182421161047357506002015561046a906107fa565b600481036104d157506224ea0042019182421161047357506002015561046a906107fa565b604051626e34d960e01b81529081906104ed906004830161036a565b0390fd5b634e487b7160e01b86526011600452602486fd5b9092602061052360008051602061098283398151915292868661087b565b946001600160a01b0390811694909161053d908287610548565b6040519586521693a4565b9291906040516020928382019163a9059cbb60e01b835260018060a01b0391826024951685830152604482015260448152608081019160018060401b0397828410898511176106f157169060c08101838110898211176106f1576040528583527f5361666545524332303a206c6f772d6c6576656c2063616c6c206661696c656460a0820152600080948192519082855af13d156106e0573d918883116106cd5760405192601f19603f81601f8401160116840199848b10908b11176106ba57610621959697989960405283528286893d92013e610706565b805191821591858315610693575b50505090501561063d575050565b90602a6084926040519262461bcd60e51b845260048401528201527f5361666545524332303a204552433230206f7065726174696f6e20646964206e6044820152691bdd081cdd58d8d9595960b21b6064820152fd5b9193818094500103126100d6578301519081151582036106b757508038808561062f565b80fd5b634e487b7160e01b865260416004528686fd5b634e487b7160e01b855260416004528585fd5b610621939495969750606091610706565b85634e487b7160e01b60005260416004526000fd5b91929015610768575081511561071a575090565b3b156107235790565b60405162461bcd60e51b815260206004820152601d60248201527f416464726573733a2063616c6c20746f206e6f6e2d636f6e74726163740000006044820152606490fd5b82519091501561077b5750805190602001fd5b6040519062461bcd60e51b82528160208060048301528251908160248401526000935b8285106107c1575050604492506000838284010152601f80199101168101030190fd5b848101820151868601604401529381019385935061079e565b600f0b6000526000805160206109e2833981519152602052604060002090565b6000805160206109a28339815191528054608090811d600f81900b60009081526000805160206109e2833981519152602052604090209390935581546001600160801b03166001909301901b6001600160801b031916919091179055565b9190820391821161086557565b634e487b7160e01b600052601160045260246000fd5b9290916000600582101561096d57506002810361093b5750610ea65b808302908382041483151715610865576127106108b691048093610858565b92826108bf5750565b303b15610936576040516370fd458160e11b8152600481018490526001600160a01b03909116602482015260008160448183305af1801561092a576109015750565b6001600160401b03811161091457604052565b634e487b7160e01b600052604160045260246000fd5b6040513d6000823e3d90fd5b600080fd5b6003810361094c57506109c4610897565b6004810361095c57506000610897565b600181036104d15750611388610897565b634e487b7160e01b81526021600452602490fdfee25827cc2c881d7cf2191e892c78e852b86d3265be10c54e4604f1787418bdcb1dd6c79c831849050a82af0883082b3bdc0dbd9516848eb1600be8f02b20ad111dd6c79c831849050a82af0883082b3bdc0dbd9516848eb1600be8f02b20ad101dd6c79c831849050a82af0883082b3bdc0dbd9516848eb1600be8f02b20ad12a2646970667358221220e7737d9d88f1b2c980627867db25a24823f1e88e0cb5771da4e21c6da75ddb2a64736f6c63430008130033",
  "libraries": [
    "TDLib",
    "LSLib",
    "InitializerLib",
    "RolesManagementLib",
    "DelayedSendingsQueueLib"
  ],
  "devdoc": {
    "errors": {
      "Empty()": [
        {
          "details": "An operation (e.g. {front}) couldn't be completed due to the queue being empty."
        }
      ]
    },
    "events": {
      "Initialized(uint8)": {
        "details": "Triggered when the contract has been initialized or reinitialized."
      }
    },
    "kind": "dev",
    "methods": {},
    "version": 1
  },
  "userdoc": {
    "kind": "user",
    "methods": {},
    "version": 1
  },
  "storageLayout": {
    "storage": [
      {
        "astId": 133,
        "contract": "contracts/diamonds/locusStaking/v2/manualWithdrawQueueFacets/LSSendingsDequeFacet.sol:LSSendingsDequeFacet",
        "label": "_initialized",
        "offset": 0,
        "slot": "0",
        "type": "t_uint8"
      },
      {
        "astId": 136,
        "contract": "contracts/diamonds/locusStaking/v2/manualWithdrawQueueFacets/LSSendingsDequeFacet.sol:LSSendingsDequeFacet",
        "label": "_initializing",
        "offset": 1,
        "slot": "0",
        "type": "t_bool"
      }
    ],
    "types": {
      "t_bool": {
        "encoding": "inplace",
        "label": "bool",
        "numberOfBytes": "1"
      },
      "t_uint8": {
        "encoding": "inplace",
        "label": "uint8",
        "numberOfBytes": "1"
      }
    }
  }
}