{
  "address": "0x039Dd4Fd2e09f19E1955eAD8Ad80D56DC2f083A6",
  "abi": [
    {
      "inputs": [],
      "name": "DelegatedCallsOnly",
      "type": "error"
    },
    {
      "inputs": [
        {
          "internalType": "address",
          "name": "who",
          "type": "address"
        },
        {
          "internalType": "bytes32",
          "name": "role",
          "type": "bytes32"
        }
      ],
      "name": "HasNoRole",
      "type": "error"
    },
    {
      "inputs": [
        {
          "internalType": "bytes4",
          "name": "selector",
          "type": "bytes4"
        },
        {
          "internalType": "address",
          "name": "whoCalled",
          "type": "address"
        }
      ],
      "name": "IsNotAllowedByTheAutocract",
      "type": "error"
    },
    {
      "anonymous": false,
      "inputs": [
        {
          "indexed": false,
          "internalType": "uint8",
          "name": "version",
          "type": "uint8"
        }
      ],
      "name": "Initialized",
      "type": "event"
    },
    {
      "anonymous": false,
      "inputs": [
        {
          "indexed": true,
          "internalType": "address",
          "name": "entity",
          "type": "address"
        },
        {
          "indexed": true,
          "internalType": "bytes4",
          "name": "selector",
          "type": "bytes4"
        },
        {
          "indexed": true,
          "internalType": "bool",
          "name": "status",
          "type": "bool"
        }
      ],
      "name": "SelectorUsageStatusSet",
      "type": "event"
    },
    {
      "inputs": [
        {
          "internalType": "address",
          "name": "who",
          "type": "address"
        },
        {
          "internalType": "bytes4",
          "name": "selector",
          "type": "bytes4"
        }
      ],
      "name": "enforceAutocracyGovernmentDelegatee",
      "outputs": [],
      "stateMutability": "view",
      "type": "function"
    },
    {
      "inputs": [
        {
          "internalType": "address",
          "name": "who",
          "type": "address"
        },
        {
          "internalType": "bool",
          "name": "status",
          "type": "bool"
        }
      ],
      "name": "setStatusOfMintingBurningSelectorsFor",
      "outputs": [],
      "stateMutability": "nonpayable",
      "type": "function"
    },
    {
      "inputs": [
        {
          "internalType": "address",
          "name": "who",
          "type": "address"
        },
        {
          "internalType": "bytes4",
          "name": "selector",
          "type": "bytes4"
        },
        {
          "internalType": "bool",
          "name": "status",
          "type": "bool"
        }
      ],
      "name": "setStatusOfSelectorUsageTo",
      "outputs": [],
      "stateMutability": "nonpayable",
      "type": "function"
    }
  ],
  "transactionHash": "0x8fae297f1d0e883a7413dc04ec7e6b1d2933dd150c786c6daaa031d575027080",
  "args": [],
  "numDeployments": 1,
  "solcInputHash": "c89948f92f050da9009fec708e5c8ce3",
  "bytecode": "0x60a08060405234610023573060805261044390816100298239608051816103590152f35b600080fdfe604060808152600436101561001357600080fd5b6000803560e01c806382aab2811461014a578063be2814d8146100b45763c186d95a1461003f57600080fd5b346100b157816003193601126100b157610057610203565b61005f61021e565b9030330361007457906100719161026e565b80f35b8351632bc93d7960e21b81523360048201527fddd94edc7da5bca8f576c77964a4737ba5172c728e2d539e672f0229d1e9ec2d6024820152604490fd5b80fd5b509034610146576060366003190112610146576100cf610203565b6100d761021e565b9060443592831515809403610142576100ee610356565b6100f66102ee565b6100ff82610235565b6001600160e01b0319939093168086526020939093528420805460ff191660ff85161790556001600160a01b03166000805160206103ee8339815191528480a480f35b8480fd5b5080fd5b509034610146578060031936011261014657610164610203565b90602435918215158093036101ff5761017b610356565b6101836102ee565b61018c81610235565b6340c10f1960e01b9081865260205282852060ff1990818154169060ff871680921790556101e060018060a01b03851694876000805160206103ee8339815191529587878c80a46101db6102ee565b610235565b94632770a7eb60e21b958689526020528720918254161790558480a480f35b8380fd5b600435906001600160a01b038216820361021957565b600080fd5b602435906001600160e01b03198216820361021957565b6001600160a01b031660009081527f7866d865a6ae5515c23f6b582acd263a41599a8e7fcea7b1b93e6eebbf73c2956020526040902090565b6001600160a01b03811660008181526000805160206103ce83398151915260205260408120549192909160ff166102e85760ff916102ad604092610235565b9463ffffffff60e01b1694858252602052205416156102ca575050565b60449250604051916306935ca760e41b835260048301526024820152fd5b50505050565b3360009081526000805160206103ce83398151915260205260409020547f1f5a72ff210e1987f45ef6999da4be546bb5ea71f60de5cbc44d2ddb6c29d7169060ff16156103385750565b60449060405190632bc93d7960e21b82523360048301526024820152fd5b307f00000000000000000000000000000000000000000000000000000000000000006001600160a01b03161480156103a1575b61038f57565b604051639f357e6b60e01b8152600490fd5b5060ff7f9f1709bc5ab0578be51bb81e11b02cdd9c21aa603d7325a8a7551bbd5685a00554161561038956fedaf4e0039e06efc15f0aa13f58517bb65a6ff7e78ed13e11b7ffe60077941653b20ab1fd7f4fd8cbc6357d0cbb035acaa00399a77cb2c6dcb7935b7e00bdfce8a2646970667358221220bcc2df514c38425cab5e0e05be5a0f826bbae6a04b4f7b64c2209d4918801f0a64736f6c63430008130033",
  "libraries": [
    "TDLib",
    "LTLib",
    "InitializerLib",
    "PausabilityLib",
    "RolesManagementLib",
    "AutocracyLib",
    "AutocracyGovernmentLib"
  ],
  "devdoc": {
    "events": {
      "Initialized(uint8)": {
        "details": "Triggered when the contract has been initialized or reinitialized."
      }
    },
    "kind": "dev",
    "methods": {},
    "version": 1
  },
  "userdoc": {
    "kind": "user",
    "methods": {},
    "version": 1
  },
  "storageLayout": {
    "storage": [
      {
        "astId": 6,
        "contract": "contracts/diamonds/locusToken/v1/autocracy/LTAutocracyGovernmentFacet.sol:LTAutocracyGovernmentFacet",
        "label": "_initialized",
        "offset": 0,
        "slot": "0",
        "type": "t_uint8"
      },
      {
        "astId": 9,
        "contract": "contracts/diamonds/locusToken/v1/autocracy/LTAutocracyGovernmentFacet.sol:LTAutocracyGovernmentFacet",
        "label": "_initializing",
        "offset": 1,
        "slot": "0",
        "type": "t_bool"
      }
    ],
    "types": {
      "t_bool": {
        "encoding": "inplace",
        "label": "bool",
        "numberOfBytes": "1"
      },
      "t_uint8": {
        "encoding": "inplace",
        "label": "uint8",
        "numberOfBytes": "1"
      }
    }
  }
}