{
  "address": "0x34533AD2A4a6bA7C7877B36fc6f737A046270d44",
  "abi": [
    {
      "inputs": [],
      "name": "DelegatedCallsOnly",
      "type": "error"
    },
    {
      "inputs": [
        {
          "internalType": "address",
          "name": "who",
          "type": "address"
        },
        {
          "internalType": "bytes32",
          "name": "role",
          "type": "bytes32"
        }
      ],
      "name": "HasNoRole",
      "type": "error"
    },
    {
      "inputs": [],
      "name": "InvalidInitialization",
      "type": "error"
    },
    {
      "inputs": [],
      "name": "NotInitializing",
      "type": "error"
    },
    {
      "anonymous": false,
      "inputs": [
        {
          "indexed": false,
          "internalType": "uint64",
          "name": "version",
          "type": "uint64"
        }
      ],
      "name": "Initialized",
      "type": "event"
    },
    {
      "inputs": [],
      "name": "areAutocratsReign",
      "outputs": [
        {
          "internalType": "bool",
          "name": "",
          "type": "bool"
        }
      ],
      "stateMutability": "view",
      "type": "function"
    },
    {
      "inputs": [
        {
          "internalType": "uint256",
          "name": "amount",
          "type": "uint256"
        }
      ],
      "name": "burn",
      "outputs": [],
      "stateMutability": "nonpayable",
      "type": "function"
    },
    {
      "inputs": [],
      "name": "defeatAutocracyForever",
      "outputs": [],
      "stateMutability": "nonpayable",
      "type": "function"
    },
    {
      "inputs": [],
      "name": "establishAutocracy",
      "outputs": [],
      "stateMutability": "nonpayable",
      "type": "function"
    },
    {
      "inputs": [
        {
          "internalType": "address",
          "name": "who",
          "type": "address"
        },
        {
          "internalType": "uint256",
          "name": "amount",
          "type": "uint256"
        }
      ],
      "name": "mint",
      "outputs": [],
      "stateMutability": "nonpayable",
      "type": "function"
    }
  ],
  "transactionHash": "0x59f9656ba5ebbebae2244010b89690b72ad5f42db275f03dd861d4eb301343f1",
  "args": [],
  "numDeployments": 1,
  "solcInputHash": "8fc5e0e21590d56561f202f7e414b5a0",
  "bytecode": "0x60a0806040523461002a5730608052610c39908161002f82396080518181816102a80152610a7e0152f35b5f80fdfe60406080815260049081361015610014575f80fd5b5f91823560e01c90816306402cb31461020e57816340c10f191461018c5783826342966c681461010b575081637a7d6eaa14610093575063ce305b6614610059575f80fd5b3461008f578160031936011261008f57602090610074610a7b565b60ff5f80516020610bc4833981519152541690519015158152f35b5080fd5b919050346101075782600319360112610107573033036100ca575f80516020610bc4833981519152805460ff191660011790558280f35b604492505190632bc93d7960e21b825233908201527fddd94edc7da5bca8f576c77964a4737ba5172c728e2d539e672f0229d1e9ec2d6024820152fd5b8280fd5b8091843461018857602036600319011261018857610127610a7b565b61012f610af2565b303b1561018857826101579282518094819263079cc67960e41b835280359033908401610a60565b038183305af190811561017f575061016c5750f35b61017590610a39565b61017c5780f35b80fd5b513d84823e3d90fd5b5050fd5b9190503461010757806003193601126101075781359183906001600160a01b038416840361008f576101bc610a7b565b6101c4610af2565b303b1561008f5782516308934a5f60e31b815293849182916101ec9160243591908401610a60565b038183305af190811561017f5750610202575080f35b61020b90610a39565b80f35b83833461008f578160031936011261008f57610228610a7b565b7fdf419335cd51a12d91577b23bb1f2f1d297c4dd78f8c580b21e3d68c0742aa528083526020907f256352104e666e6cce09c45a35c339c150e1991724469c7d87b784a284535e448252828420338552825260ff838520541615610a1b57505f80516020610bc4833981519152805460ff191690556001600160a01b03907f0000000000000000000000000000000000000000000000000000000000000000821680156109b85730811461095e576306402cb360e01b8086527fc8fcad8db84d3cc18b4c41d551ea0ee66dd599cde068d998e57d5e09332c131c808452858720548388527fc8fcad8db84d3cc18b4c41d551ea0ee66dd599cde068d998e57d5e09332c131d808652878920549096935f1993928483019260a082901c908411610685578b888b838e888e960361090f575b50505090525050878752888a20805480156105f05785019061039061037e8383610b6b565b63ffffffff82549160031b1b19169055565b55895281865288888120551561087e575b633d3eb75560e11b80895281865287892054858a52878752888a205484810192919060a082901c908411610685578b888b838e888e960361082f575b50505090525050878752888a20805480156105f05785019061040261037e8383610b6b565b55895281865288888120551561079e575b6340c10f1960e01b80895281865287892054858a52878752888a205484810192919060a082901c908411610685578b888b838e888e960361074f575b50505090525050878752888a20805480156105f05785019061047461037e8383610b6b565b558952818652888881205515610698575b630852cd8d60e31b80895281865287892054858a52878752888a20548481019392919060a082901c908511610685578b888b838e898e9603610603575b50505090525050878752888a20805480156105f0578501906104e761037e8383610b6b565b55895285528787812055156104fa578680f35b5f80516020610be4833981519152918254908282019182116105dd578489528686526001888a2001549180830361058c575b5050508154801561057957879850906001969594939291019061056661055183610ba0565b81549060018060a01b039060031b1b19169055565b5585525282200155808280808080808680f35b634e487b7160e01b885260318952602488fd5b61059590610ba0565b90549060031b1c166105c9816105aa84610ba0565b90919082549060031b9160018060a01b03809116831b921b1916179055565b88528585526001878920015588808061052c565b634e487b7160e01b895260118a52602489fd5b634e487b7160e01b8c5260318d5260248cfd5b846106339385610650975280885261061d8c848420610b6b565b90549060031b1c60e01b97889683525220610b6b565b90919063ffffffff83549160031b9260e01c831b921b1916179055565b6001600160e01b0319168b52828852898b2080546001600160a01b03199092169187169190911790558b878b888b848e6104c2565b634e487b7160e01b8c5260118d5260248cfd5b5f80516020610be4833981519152805483810190811161073c57858a528787528460018a8c2001549180830361070a575b505050805480156106f7578301906106e361055183610ba0565b558388528585528760018882200155610485565b634e487b7160e01b8a5260318b5260248afd5b61071390610ba0565b90549060031b1c16610728816105aa84610ba0565b8a528787526001898b2001558a84816106c9565b634e487b7160e01b8a5260118b5260248afd5b846106339385610769975280885261061d8b848420610b6b565b6001600160e01b0319168b52838852898b2080546001600160a01b03199092169187169190911790558b878b888b848e61044f565b5f80516020610be4833981519152805483810190811161073c57858a528787528460018a8c200154918083036107fd575b505050805480156106f7578301906107e961055183610ba0565b558388528585528760018882200155610413565b61080690610ba0565b90549060031b1c1661081b816105aa84610ba0565b8a528787526001898b2001558a84816107cf565b846106339385610849975280885261061d8b848420610b6b565b6001600160e01b0319168b52838852898b2080546001600160a01b03199092169187169190911790558b878b888b848e6103dd565b5f80516020610be4833981519152805483810190811161073c57858a528787528460018a8c200154918083036108dd575b505050805480156106f7578301906108c961055183610ba0565b5583885285855287600188822001556103a1565b6108e690610ba0565b90549060031b1c166108fb816105aa84610ba0565b8a528787526001898b2001558a84816108af565b846106339385610929975280885261061d8b848420610b6b565b6001600160e01b0319168b52838852898b2080546001600160a01b03199092169187169190911790558b878b888b848e610359565b835162461bcd60e51b8152808701839052602e60248201527f4c69624469616d6f6e644375743a2043616e27742072656d6f766520696d6d7560448201526d3a30b1363290333ab731ba34b7b760911b6064820152608490fd5b835162461bcd60e51b8152808701839052603760248201527f4c69624469616d6f6e644375743a2043616e27742072656d6f76652066756e636044820152761d1a5bdb881d1a185d08191bd95cdb89dd08195e1a5cdd604a1b6064820152608490fd5b8251632bc93d7960e21b815233818701526024810191909152604490fd5b6001600160401b038111610a4c57604052565b634e487b7160e01b5f52604160045260245ffd5b6001600160a01b039091168152602081019190915260400190565b307f00000000000000000000000000000000000000000000000000000000000000006001600160a01b0316148015610ac6575b610ab457565b604051639f357e6b60e01b8152600490fd5b5060ff7f9f1709bc5ab0578be51bb81e11b02cdd9c21aa603d7325a8a7551bbd5685a005541615610aae565b335f9081527fdaf4e0039e06efc15f0aa13f58517bb65a6ff7e78ed13e11b7ffe6007794165360205260409020547f1f5a72ff210e1987f45ef6999da4be546bb5ea71f60de5cbc44d2ddb6c29d7169060ff1615610b4d5750565b60449060405190632bc93d7960e21b82523360048301526024820152fd5b9190918054831015610b8c575f52601c60205f208360031c019260021b1690565b634e487b7160e01b5f52603260045260245ffd5b5f80516020610be48339815191528054821015610b8c575f5260205f2001905f9056fe432da9d83f78bf82285a328b443d450767ef001f46d2f35595c0324c1126b967c8fcad8db84d3cc18b4c41d551ea0ee66dd599cde068d998e57d5e09332c131ea2646970667358221220b72d86a9a630aa7741586c4dcfdf810582211928b912d9087372f744c6b12d8864736f6c63430008140033",
  "libraries": [
    "LTLib",
    "InitializerLib",
    "PausabilityLib",
    "RolesManagementLib",
    "AutocracyLib"
  ],
  "devdoc": {
    "errors": {
      "InvalidInitialization()": [
        {
          "details": "The contract is already initialized."
        }
      ],
      "NotInitializing()": [
        {
          "details": "The contract is not initializing."
        }
      ]
    },
    "events": {
      "Initialized(uint64)": {
        "details": "Triggered when the contract has been initialized or reinitialized."
      }
    },
    "kind": "dev",
    "methods": {},
    "version": 1
  },
  "userdoc": {
    "kind": "user",
    "methods": {},
    "version": 1
  },
  "storageLayout": {
    "storage": [],
    "types": null
  }
}