{
  "address": "0x7f34cb211145236462346174e491dC964b0Ce219",
  "abi": [
    {
      "inputs": [],
      "name": "DelegatedCallsOnly",
      "type": "error"
    },
    {
      "inputs": [
        {
          "internalType": "address",
          "name": "who",
          "type": "address"
        },
        {
          "internalType": "bytes32",
          "name": "role",
          "type": "bytes32"
        }
      ],
      "name": "HasNoRole",
      "type": "error"
    },
    {
      "anonymous": false,
      "inputs": [
        {
          "indexed": false,
          "internalType": "uint8",
          "name": "version",
          "type": "uint8"
        }
      ],
      "name": "Initialized",
      "type": "event"
    },
    {
      "inputs": [],
      "name": "areAutocratsReign",
      "outputs": [
        {
          "internalType": "bool",
          "name": "",
          "type": "bool"
        }
      ],
      "stateMutability": "view",
      "type": "function"
    },
    {
      "inputs": [
        {
          "internalType": "uint256",
          "name": "amount",
          "type": "uint256"
        }
      ],
      "name": "burn",
      "outputs": [],
      "stateMutability": "nonpayable",
      "type": "function"
    },
    {
      "inputs": [],
      "name": "defeatAutocracyForever",
      "outputs": [],
      "stateMutability": "nonpayable",
      "type": "function"
    },
    {
      "inputs": [],
      "name": "establishAutocracy",
      "outputs": [],
      "stateMutability": "nonpayable",
      "type": "function"
    },
    {
      "inputs": [
        {
          "internalType": "address",
          "name": "who",
          "type": "address"
        },
        {
          "internalType": "uint256",
          "name": "amount",
          "type": "uint256"
        }
      ],
      "name": "mint",
      "outputs": [],
      "stateMutability": "nonpayable",
      "type": "function"
    }
  ],
  "transactionHash": "0x2f459b3bc06a0a24a856090e524be135e6997dc59316bf464d5f32c220dbc51a",
  "args": [],
  "numDeployments": 2,
  "solcInputHash": "a98a5384338f38456d16b1d0c4ad9bea",
  "bytecode": "0x60a0806040523461002a5730608052610c4f908161003082396080518181816102ae0152610a8b0152f35b600080fdfe6040608081526004908136101561001557600080fd5b600091823560e01c90816306402cb31461021357816340c10f19146101915783826342966c6814610110575081637a7d6eaa14610097575063ce305b661461005c57600080fd5b34610093578160031936011261009357602090610077610a88565b60ff600080516020610bda833981519152541690519015158152f35b5080fd5b9190503461010c578260031936011261010c573033036100cf57600080516020610bda833981519152805460ff191660011790558280f35b604492505190632bc93d7960e21b825233908201527fddd94edc7da5bca8f576c77964a4737ba5172c728e2d539e672f0229d1e9ec2d6024820152fd5b8280fd5b8091843461018d57602036600319011261018d5761012c610a88565b610134610aff565b303b1561018d578261015c9282518094819263079cc67960e41b835280359033908401610a6d565b038183305af190811561018457506101715750f35b61017a90610a44565b6101815780f35b80fd5b513d84823e3d90fd5b5050fd5b9190503461010c578060031936011261010c5781359183906001600160a01b0384168403610093576101c1610a88565b6101c9610aff565b303b156100935782516308934a5f60e31b815293849182916101f19160243591908401610a6d565b038183305af19081156101845750610207575080f35b61021090610a44565b80f35b83833461009357816003193601126100935761022d610a88565b7fdf419335cd51a12d91577b23bb1f2f1d297c4dd78f8c580b21e3d68c0742aa528083526020907f256352104e666e6cce09c45a35c339c150e1991724469c7d87b784a284535e448252828420338552825260ff838520541615610a265750600080516020610bda833981519152805460ff191690556001600160a01b03907f0000000000000000000000000000000000000000000000000000000000000000821680156109c357308114610969576306402cb360e01b8086527fc8fcad8db84d3cc18b4c41d551ea0ee66dd599cde068d998e57d5e09332c131c808452858720548388527fc8fcad8db84d3cc18b4c41d551ea0ee66dd599cde068d998e57d5e09332c131d8086528789205490969360001993928483019260a082901c90841161068d578b888b838e888e960361091a575b50505090525050878752888a20805480156105f8578501906103976103858383610b79565b63ffffffff82549160031b1b19169055565b558952818652888881205515610888575b633d3eb75560e11b80895281865287892054858a52878752888a205484810192919060a082901c90841161068d578b888b838e888e9603610839575b50505090525050878752888a20805480156105f8578501906104096103858383610b79565b5589528186528888812055156107a7575b6340c10f1960e01b80895281865287892054858a52878752888a205484810192919060a082901c90841161068d578b888b838e888e9603610758575b50505090525050878752888a20805480156105f85785019061047b6103858383610b79565b5589528186528888812055156106a0575b630852cd8d60e31b80895281865287892054858a52878752888a20548481019392919060a082901c90851161068d578b888b838e898e960361060b575b50505090525050878752888a20805480156105f8578501906104ee6103858383610b79565b5589528552878781205515610501578680f35b600080516020610bfa833981519152918254908282019182116105e5578489528686526001888a20015491808303610594575b5050508154801561058157879850906001969594939291019061056e61055983610bb2565b81549060018060a01b039060031b1b19169055565b5585525282200155808280808080808680f35b634e487b7160e01b885260318952602488fd5b61059d90610bb2565b90549060031b1c166105d1816105b284610bb2565b90919082549060031b9160018060a01b03809116831b921b1916179055565b885285855260018789200155888080610534565b634e487b7160e01b895260118a52602489fd5b634e487b7160e01b8c5260318d5260248cfd5b8461063b938561065897528088526106258c848420610b79565b90549060031b1c60e01b97889683525220610b79565b90919063ffffffff83549160031b9260e01c831b921b1916179055565b6001600160e01b0319168b52828852898b2080546001600160a01b03199092169187169190911790558b878b888b848e6104c9565b634e487b7160e01b8c5260118d5260248cfd5b600080516020610bfa833981519152805483810190811161074557858a528787528460018a8c20015491808303610713575b50505080548015610700578301906106ec61055983610bb2565b55838852858552876001888220015561048c565b634e487b7160e01b8a5260318b5260248afd5b61071c90610bb2565b90549060031b1c16610731816105b284610bb2565b8a528787526001898b2001558a84816106d2565b634e487b7160e01b8a5260118b5260248afd5b8461063b938561077297528088526106258b848420610b79565b6001600160e01b0319168b52838852898b2080546001600160a01b03199092169187169190911790558b878b888b848e610456565b600080516020610bfa833981519152805483810190811161074557858a528787528460018a8c20015491808303610807575b50505080548015610700578301906107f361055983610bb2565b55838852858552876001888220015561041a565b61081090610bb2565b90549060031b1c16610825816105b284610bb2565b8a528787526001898b2001558a84816107d9565b8461063b938561085397528088526106258b848420610b79565b6001600160e01b0319168b52838852898b2080546001600160a01b03199092169187169190911790558b878b888b848e6103e4565b600080516020610bfa833981519152805483810190811161074557858a528787528460018a8c200154918083036108e8575b50505080548015610700578301906108d461055983610bb2565b5583885285855287600188822001556103a8565b6108f190610bb2565b90549060031b1c16610906816105b284610bb2565b8a528787526001898b2001558a84816108ba565b8461063b938561093497528088526106258b848420610b79565b6001600160e01b0319168b52838852898b2080546001600160a01b03199092169187169190911790558b878b888b848e610360565b835162461bcd60e51b8152808701839052602e60248201527f4c69624469616d6f6e644375743a2043616e27742072656d6f766520696d6d7560448201526d3a30b1363290333ab731ba34b7b760911b6064820152608490fd5b835162461bcd60e51b8152808701839052603760248201527f4c69624469616d6f6e644375743a2043616e27742072656d6f76652066756e636044820152761d1a5bdb881d1a185d08191bd95cdb89dd08195e1a5cdd604a1b6064820152608490fd5b8251632bc93d7960e21b815233818701526024810191909152604490fd5b6001600160401b038111610a5757604052565b634e487b7160e01b600052604160045260246000fd5b6001600160a01b039091168152602081019190915260400190565b307f00000000000000000000000000000000000000000000000000000000000000006001600160a01b0316148015610ad3575b610ac157565b604051639f357e6b60e01b8152600490fd5b5060ff7f9f1709bc5ab0578be51bb81e11b02cdd9c21aa603d7325a8a7551bbd5685a005541615610abb565b3360009081527fdaf4e0039e06efc15f0aa13f58517bb65a6ff7e78ed13e11b7ffe6007794165360205260409020547f1f5a72ff210e1987f45ef6999da4be546bb5ea71f60de5cbc44d2ddb6c29d7169060ff1615610b5b5750565b60449060405190632bc93d7960e21b82523360048301526024820152fd5b9190918054831015610b9c57600052601c60206000208360031c019260021b1690565b634e487b7160e01b600052603260045260246000fd5b600080516020610bfa8339815191528054821015610b9c576000526020600020019060009056fe432da9d83f78bf82285a328b443d450767ef001f46d2f35595c0324c1126b967c8fcad8db84d3cc18b4c41d551ea0ee66dd599cde068d998e57d5e09332c131ea2646970667358221220c4d88eca7a05def94b8354f4d33a640e3ec91ce38cf285c4a584c0b89cc8bbb764736f6c63430008130033",
  "libraries": [
    "TDLib",
    "LTLib",
    "InitializerLib",
    "PausabilityLib",
    "RolesManagementLib",
    "AutocracyLib"
  ],
  "devdoc": {
    "events": {
      "Initialized(uint8)": {
        "details": "Triggered when the contract has been initialized or reinitialized."
      }
    },
    "kind": "dev",
    "methods": {},
    "version": 1
  },
  "userdoc": {
    "kind": "user",
    "methods": {},
    "version": 1
  },
  "storageLayout": {
    "storage": [
      {
        "astId": 2909,
        "contract": "contracts/diamonds/locusToken/v1/autocracy/LTAutocracyFacet.sol:LTAutocracyFacet",
        "label": "_initialized",
        "offset": 0,
        "slot": "0",
        "type": "t_uint8"
      },
      {
        "astId": 2912,
        "contract": "contracts/diamonds/locusToken/v1/autocracy/LTAutocracyFacet.sol:LTAutocracyFacet",
        "label": "_initializing",
        "offset": 1,
        "slot": "0",
        "type": "t_bool"
      }
    ],
    "types": {
      "t_bool": {
        "encoding": "inplace",
        "label": "bool",
        "numberOfBytes": "1"
      },
      "t_uint8": {
        "encoding": "inplace",
        "label": "uint8",
        "numberOfBytes": "1"
      }
    }
  }
}