{
  "address": "0xeFd0f59F5F65871a03F43Cc523f4F49CFE834bF2",
  "abi": [
    {
      "inputs": [],
      "name": "DelegatedCallsOnly",
      "type": "error"
    },
    {
      "inputs": [
        {
          "internalType": "uint256",
          "name": "epochNumber",
          "type": "uint256"
        }
      ],
      "name": "EpochIsDistributed",
      "type": "error"
    },
    {
      "inputs": [
        {
          "internalType": "address",
          "name": "who",
          "type": "address"
        },
        {
          "internalType": "bytes32",
          "name": "role",
          "type": "bytes32"
        }
      ],
      "name": "HasNoRole",
      "type": "error"
    },
    {
      "inputs": [],
      "name": "InvalidInitialization",
      "type": "error"
    },
    {
      "inputs": [],
      "name": "NotInitializing",
      "type": "error"
    },
    {
      "anonymous": false,
      "inputs": [],
      "name": "EpochAmountIsEmptyOrInflationHasntStarted",
      "type": "event"
    },
    {
      "anonymous": false,
      "inputs": [
        {
          "indexed": false,
          "internalType": "uint64",
          "name": "version",
          "type": "uint64"
        }
      ],
      "name": "Initialized",
      "type": "event"
    },
    {
      "inputs": [],
      "name": "mintInflation",
      "outputs": [],
      "stateMutability": "nonpayable",
      "type": "function"
    }
  ],
  "transactionHash": "0xd5a7d94a39e537f0f703fbc9bb03bca772abc21e27f7b69536c5d31c797becbb",
  "args": [],
  "numDeployments": 1,
  "solcInputHash": "f2cbd77dff83ddf9a9c16b855b9827fe",
  "bytecode": "0x60a0806040523461002257306080526103a09081610027823960805181603a0152f35b5f80fdfe6080806040526004361015610012575f80fd5b5f90813560e01c63c551a2f914610027575f80fd5b346100b557816003193601126100b557307f00000000000000000000000000000000000000000000000000000000000000006001600160a01b0316148015610089575b61007a57506100776100b9565b80f35b639f357e6b60e01b8152600490fd5b5060ff7f9f1709bc5ab0578be51bb81e11b02cdd9c21aa603d7325a8a7551bbd5685a00554161561006a565b5080fd5b335f9081527f7eab7b82f3f21675de29d098b67b1bb6d0c69de2cb1ba0b9eb1dbc18d523752f6020908152604080832054909291907fb19546dff01e856fb3f010c267a7b1c60363cf8a4664e21cc89c26224620214e9060ff161561032157508190828380527ff8a6c10351c569dde9f00d2a7d439ceae77f38bfadfbaac59dc5476ddac46a07825263ffffffff808686205416804211610253575b50508215610229578084527fd1db1353a30fa527658deb3246439dbc9a77e005f195f129a52babcc8f9b93e59283835260ff868620541661021157303b1561020d578551906370fd458160e11b82526004820152306024820152848160448183305af18015610203576101d5575b5083525220805460ff19166001179055565b9093906001600160401b0381116101ef578552925f6101c3565b634e487b7160e01b82526041600452602482fd5b86513d87823e3d90fd5b8480fd5b8551634be92cb960e11b815260048101839052602490fd5b5050507fd2c991965bc222503cfa141b9ec5abc0d29c2953d75fc47fce27e6e3ad755198915080a1565b7ff8a6c10351c569dde9f00d2a7d439ceae77f38bfadfbaac59dc5476ddac46a0880548796509350905b8386106102bb575b505050508183527ff8a6c10351c569dde9f00d2a7d439ceae77f38bfadfbaac59dc5476ddac46a09815283832054915f80610155565b818752828588208760031c015460e08860051b161c1690836102dd838361033e565b164210156102eb5750610285565b906102f9919693949661033e565b915f19811461030d5760010194929161027d565b634e487b7160e01b87526011600452602487fd5b604490845190632bc93d7960e21b82523360048301526024820152fd5b91909163ffffffff8080941691160191821161035657565b634e487b7160e01b5f52601160045260245ffdfea26469706673582212201f8535193f8279a4b2409f783b6e5e33b592bb2716fa120206aba3f91bb66fbb64736f6c63430008140033",
  "libraries": [
    "LTLib",
    "InitializerLib",
    "PausabilityLib",
    "RolesManagementLib",
    "AutocracyLib"
  ],
  "devdoc": {
    "errors": {
      "InvalidInitialization()": [
        {
          "details": "The contract is already initialized."
        }
      ],
      "NotInitializing()": [
        {
          "details": "The contract is not initializing."
        }
      ]
    },
    "events": {
      "Initialized(uint64)": {
        "details": "Triggered when the contract has been initialized or reinitialized."
      }
    },
    "kind": "dev",
    "methods": {},
    "version": 1
  },
  "userdoc": {
    "kind": "user",
    "methods": {},
    "version": 1
  },
  "storageLayout": {
    "storage": [],
    "types": null
  }
}