{
  "address": "0x0ba2b39d2539EBAFA818678FD178384ef5e7629e",
  "abi": [
    {
      "inputs": [],
      "name": "DelegatedCallsOnly",
      "type": "error"
    },
    {
      "inputs": [
        {
          "internalType": "uint256",
          "name": "epochNumber",
          "type": "uint256"
        }
      ],
      "name": "EpochIsDistributed",
      "type": "error"
    },
    {
      "inputs": [
        {
          "internalType": "address",
          "name": "who",
          "type": "address"
        },
        {
          "internalType": "bytes32",
          "name": "role",
          "type": "bytes32"
        }
      ],
      "name": "HasNoRole",
      "type": "error"
    },
    {
      "anonymous": false,
      "inputs": [
        {
          "indexed": false,
          "internalType": "uint8",
          "name": "version",
          "type": "uint8"
        }
      ],
      "name": "Initialized",
      "type": "event"
    },
    {
      "inputs": [],
      "name": "mintInflation",
      "outputs": [],
      "stateMutability": "nonpayable",
      "type": "function"
    }
  ],
  "transactionHash": "0x108d937f132cc3e4a3afba0e2e597beac0e8ed7769ad23be9e748cf7c538834b",
  "args": [],
  "numDeployments": 3,
  "solcInputHash": "5bf87c20a7a451fc9a5e9e94ad3c8095",
  "bytecode": "0x60a0806040523461002257306080526103a89081610028823960805181603d0152f35b600080fdfe608080604052600436101561001357600080fd5b600090813560e01c63c551a2f91461002a57600080fd5b346100b857816003193601126100b857307f00000000000000000000000000000000000000000000000000000000000000006001600160a01b031614801561008c575b61007d575061007a6100bc565b80f35b639f357e6b60e01b8152600490fd5b5060ff7f9f1709bc5ab0578be51bb81e11b02cdd9c21aa603d7325a8a7551bbd5685a00554161561006d565b5080fd5b3360009081527f7eab7b82f3f21675de29d098b67b1bb6d0c69de2cb1ba0b9eb1dbc18d523752f6020908152604080832054909291907fb19546dff01e856fb3f010c267a7b1c60363cf8a4664e21cc89c26224620214e9060ff161561032757508190828380527ff8a6c10351c569dde9f00d2a7d439ceae77f38bfadfbaac59dc5476ddac46a07825263ffffffff80868620541680421015610258575b5050821561022e578084527fd1db1353a30fa527658deb3246439dbc9a77e005f195f129a52babcc8f9b93e59283835260ff868620541661021657303b15610212578551906370fd458160e11b82526004820152306024820152848160448183305af18015610208576101da575b5083525220805460ff19166001179055565b9093906001600160401b0381116101f457855292386101c8565b634e487b7160e01b82526041600452602482fd5b86513d87823e3d90fd5b8480fd5b8551634be92cb960e11b815260048101839052602490fd5b5050507fd2c991965bc222503cfa141b9ec5abc0d29c2953d75fc47fce27e6e3ad755198915080a1565b7ff8a6c10351c569dde9f00d2a7d439ceae77f38bfadfbaac59dc5476ddac46a0880548796509350905b8386106102c0575b505050508183527ff8a6c10351c569dde9f00d2a7d439ceae77f38bfadfbaac59dc5476ddac46a0981528383205491388061015a565b818752828588208760031c015460e08860051b161c1690836102e28383610344565b164210156102f0575061028a565b906102fe9196939496610344565b91600019811461031357600101949291610282565b634e487b7160e01b87526011600452602487fd5b604490845190632bc93d7960e21b82523360048301526024820152fd5b91909163ffffffff8080941691160191821161035c57565b634e487b7160e01b600052601160045260246000fdfea2646970667358221220b4cc8cc8ea0a1271c45be89ead9a2ff2396843fe634beda4f4852f35a597412164736f6c63430008130033",
  "libraries": [
    "TDLib",
    "LTLib",
    "InitializerLib",
    "PausabilityLib",
    "RolesManagementLib",
    "AutocracyLib"
  ],
  "devdoc": {
    "events": {
      "Initialized(uint8)": {
        "details": "Triggered when the contract has been initialized or reinitialized."
      }
    },
    "kind": "dev",
    "methods": {},
    "version": 1
  },
  "userdoc": {
    "kind": "user",
    "methods": {},
    "version": 1
  },
  "storageLayout": {
    "storage": [
      {
        "astId": 133,
        "contract": "contracts/diamonds/locusToken/v1/LTEmissionControlFacet.sol:LTEmissionControlFacet",
        "label": "_initialized",
        "offset": 0,
        "slot": "0",
        "type": "t_uint8"
      },
      {
        "astId": 136,
        "contract": "contracts/diamonds/locusToken/v1/LTEmissionControlFacet.sol:LTEmissionControlFacet",
        "label": "_initializing",
        "offset": 1,
        "slot": "0",
        "type": "t_bool"
      }
    ],
    "types": {
      "t_bool": {
        "encoding": "inplace",
        "label": "bool",
        "numberOfBytes": "1"
      },
      "t_uint8": {
        "encoding": "inplace",
        "label": "uint8",
        "numberOfBytes": "1"
      }
    }
  }
}