{
  "address": "0xF48f8DF048a8aCC26297d221c536b9E929AedCEB",
  "abi": [
    {
      "inputs": [],
      "name": "DelegatedCallsOnly",
      "type": "error"
    },
    {
      "inputs": [
        {
          "internalType": "address",
          "name": "who",
          "type": "address"
        },
        {
          "internalType": "bytes32",
          "name": "role",
          "type": "bytes32"
        }
      ],
      "name": "HasNoRole",
      "type": "error"
    },
    {
      "anonymous": false,
      "inputs": [
        {
          "indexed": true,
          "internalType": "address",
          "name": "owner",
          "type": "address"
        },
        {
          "indexed": true,
          "internalType": "address",
          "name": "spender",
          "type": "address"
        },
        {
          "indexed": false,
          "internalType": "uint256",
          "name": "value",
          "type": "uint256"
        }
      ],
      "name": "Approval",
      "type": "event"
    },
    {
      "anonymous": false,
      "inputs": [
        {
          "indexed": true,
          "internalType": "address",
          "name": "delegator",
          "type": "address"
        },
        {
          "indexed": true,
          "internalType": "address",
          "name": "fromDelegate",
          "type": "address"
        },
        {
          "indexed": true,
          "internalType": "address",
          "name": "toDelegate",
          "type": "address"
        }
      ],
      "name": "DelegateChanged",
      "type": "event"
    },
    {
      "anonymous": false,
      "inputs": [
        {
          "indexed": true,
          "internalType": "address",
          "name": "delegate",
          "type": "address"
        },
        {
          "indexed": false,
          "internalType": "uint256",
          "name": "previousBalance",
          "type": "uint256"
        },
        {
          "indexed": false,
          "internalType": "uint256",
          "name": "newBalance",
          "type": "uint256"
        }
      ],
      "name": "DelegateVotesChanged",
      "type": "event"
    },
    {
      "anonymous": false,
      "inputs": [],
      "name": "EIP712DomainChanged",
      "type": "event"
    },
    {
      "anonymous": false,
      "inputs": [
        {
          "indexed": false,
          "internalType": "uint8",
          "name": "version",
          "type": "uint8"
        }
      ],
      "name": "Initialized",
      "type": "event"
    },
    {
      "anonymous": false,
      "inputs": [
        {
          "indexed": true,
          "internalType": "address",
          "name": "from",
          "type": "address"
        },
        {
          "indexed": true,
          "internalType": "address",
          "name": "to",
          "type": "address"
        },
        {
          "indexed": false,
          "internalType": "uint256",
          "name": "value",
          "type": "uint256"
        }
      ],
      "name": "Transfer",
      "type": "event"
    },
    {
      "inputs": [],
      "name": "CLOCK_MODE",
      "outputs": [
        {
          "internalType": "string",
          "name": "",
          "type": "string"
        }
      ],
      "stateMutability": "view",
      "type": "function"
    },
    {
      "inputs": [],
      "name": "DOMAIN_SEPARATOR",
      "outputs": [
        {
          "internalType": "bytes32",
          "name": "",
          "type": "bytes32"
        }
      ],
      "stateMutability": "view",
      "type": "function"
    },
    {
      "inputs": [
        {
          "internalType": "address",
          "name": "owner",
          "type": "address"
        },
        {
          "internalType": "address",
          "name": "spender",
          "type": "address"
        }
      ],
      "name": "allowance",
      "outputs": [
        {
          "internalType": "uint256",
          "name": "",
          "type": "uint256"
        }
      ],
      "stateMutability": "view",
      "type": "function"
    },
    {
      "inputs": [
        {
          "internalType": "address",
          "name": "spender",
          "type": "address"
        },
        {
          "internalType": "uint256",
          "name": "amount",
          "type": "uint256"
        }
      ],
      "name": "approve",
      "outputs": [
        {
          "internalType": "bool",
          "name": "",
          "type": "bool"
        }
      ],
      "stateMutability": "nonpayable",
      "type": "function"
    },
    {
      "inputs": [
        {
          "internalType": "address",
          "name": "account",
          "type": "address"
        }
      ],
      "name": "balanceOf",
      "outputs": [
        {
          "internalType": "uint256",
          "name": "",
          "type": "uint256"
        }
      ],
      "stateMutability": "view",
      "type": "function"
    },
    {
      "inputs": [
        {
          "internalType": "address",
          "name": "account",
          "type": "address"
        },
        {
          "internalType": "uint256",
          "name": "amount",
          "type": "uint256"
        }
      ],
      "name": "burnFrom",
      "outputs": [],
      "stateMutability": "nonpayable",
      "type": "function"
    },
    {
      "inputs": [],
      "name": "cap",
      "outputs": [
        {
          "internalType": "uint256",
          "name": "",
          "type": "uint256"
        }
      ],
      "stateMutability": "view",
      "type": "function"
    },
    {
      "inputs": [
        {
          "internalType": "address",
          "name": "account",
          "type": "address"
        },
        {
          "internalType": "uint32",
          "name": "pos",
          "type": "uint32"
        }
      ],
      "name": "checkpoints",
      "outputs": [
        {
          "components": [
            {
              "internalType": "uint32",
              "name": "fromBlock",
              "type": "uint32"
            },
            {
              "internalType": "uint224",
              "name": "votes",
              "type": "uint224"
            }
          ],
          "internalType": "struct ERC20VotesUpgradeable.Checkpoint",
          "name": "",
          "type": "tuple"
        }
      ],
      "stateMutability": "view",
      "type": "function"
    },
    {
      "inputs": [],
      "name": "clock",
      "outputs": [
        {
          "internalType": "uint48",
          "name": "",
          "type": "uint48"
        }
      ],
      "stateMutability": "view",
      "type": "function"
    },
    {
      "inputs": [],
      "name": "decimals",
      "outputs": [
        {
          "internalType": "uint8",
          "name": "",
          "type": "uint8"
        }
      ],
      "stateMutability": "view",
      "type": "function"
    },
    {
      "inputs": [
        {
          "internalType": "address",
          "name": "spender",
          "type": "address"
        },
        {
          "internalType": "uint256",
          "name": "subtractedValue",
          "type": "uint256"
        }
      ],
      "name": "decreaseAllowance",
      "outputs": [
        {
          "internalType": "bool",
          "name": "",
          "type": "bool"
        }
      ],
      "stateMutability": "nonpayable",
      "type": "function"
    },
    {
      "inputs": [
        {
          "internalType": "address",
          "name": "delegatee",
          "type": "address"
        }
      ],
      "name": "delegate",
      "outputs": [],
      "stateMutability": "nonpayable",
      "type": "function"
    },
    {
      "inputs": [
        {
          "internalType": "address",
          "name": "delegatee",
          "type": "address"
        },
        {
          "internalType": "uint256",
          "name": "nonce",
          "type": "uint256"
        },
        {
          "internalType": "uint256",
          "name": "expiry",
          "type": "uint256"
        },
        {
          "internalType": "uint8",
          "name": "v",
          "type": "uint8"
        },
        {
          "internalType": "bytes32",
          "name": "r",
          "type": "bytes32"
        },
        {
          "internalType": "bytes32",
          "name": "s",
          "type": "bytes32"
        }
      ],
      "name": "delegateBySig",
      "outputs": [],
      "stateMutability": "nonpayable",
      "type": "function"
    },
    {
      "inputs": [
        {
          "internalType": "address",
          "name": "delegatee",
          "type": "address"
        }
      ],
      "name": "delegateTo",
      "outputs": [],
      "stateMutability": "nonpayable",
      "type": "function"
    },
    {
      "inputs": [
        {
          "internalType": "address",
          "name": "account",
          "type": "address"
        }
      ],
      "name": "delegates",
      "outputs": [
        {
          "internalType": "address",
          "name": "",
          "type": "address"
        }
      ],
      "stateMutability": "view",
      "type": "function"
    },
    {
      "inputs": [],
      "name": "eip712Domain",
      "outputs": [
        {
          "internalType": "bytes1",
          "name": "fields",
          "type": "bytes1"
        },
        {
          "internalType": "string",
          "name": "name",
          "type": "string"
        },
        {
          "internalType": "string",
          "name": "version",
          "type": "string"
        },
        {
          "internalType": "uint256",
          "name": "chainId",
          "type": "uint256"
        },
        {
          "internalType": "address",
          "name": "verifyingContract",
          "type": "address"
        },
        {
          "internalType": "bytes32",
          "name": "salt",
          "type": "bytes32"
        },
        {
          "internalType": "uint256[]",
          "name": "extensions",
          "type": "uint256[]"
        }
      ],
      "stateMutability": "view",
      "type": "function"
    },
    {
      "inputs": [],
      "name": "enablePolitics",
      "outputs": [],
      "stateMutability": "nonpayable",
      "type": "function"
    },
    {
      "inputs": [
        {
          "internalType": "address",
          "name": "account",
          "type": "address"
        }
      ],
      "name": "getDelegatee",
      "outputs": [
        {
          "internalType": "address",
          "name": "",
          "type": "address"
        }
      ],
      "stateMutability": "view",
      "type": "function"
    },
    {
      "inputs": [
        {
          "internalType": "uint256",
          "name": "timepoint",
          "type": "uint256"
        }
      ],
      "name": "getPastTotalSupply",
      "outputs": [
        {
          "internalType": "uint256",
          "name": "",
          "type": "uint256"
        }
      ],
      "stateMutability": "view",
      "type": "function"
    },
    {
      "inputs": [
        {
          "internalType": "address",
          "name": "account",
          "type": "address"
        },
        {
          "internalType": "uint256",
          "name": "timepoint",
          "type": "uint256"
        }
      ],
      "name": "getPastVotes",
      "outputs": [
        {
          "internalType": "uint256",
          "name": "",
          "type": "uint256"
        }
      ],
      "stateMutability": "view",
      "type": "function"
    },
    {
      "inputs": [
        {
          "internalType": "address",
          "name": "account",
          "type": "address"
        },
        {
          "internalType": "uint256",
          "name": "timepoint",
          "type": "uint256"
        }
      ],
      "name": "getPastVotingPower",
      "outputs": [
        {
          "internalType": "uint256",
          "name": "",
          "type": "uint256"
        }
      ],
      "stateMutability": "view",
      "type": "function"
    },
    {
      "inputs": [
        {
          "internalType": "address",
          "name": "account",
          "type": "address"
        }
      ],
      "name": "getVotes",
      "outputs": [
        {
          "internalType": "uint256",
          "name": "",
          "type": "uint256"
        }
      ],
      "stateMutability": "view",
      "type": "function"
    },
    {
      "inputs": [
        {
          "internalType": "address",
          "name": "account",
          "type": "address"
        }
      ],
      "name": "getVotingPower",
      "outputs": [
        {
          "internalType": "uint256",
          "name": "",
          "type": "uint256"
        }
      ],
      "stateMutability": "view",
      "type": "function"
    },
    {
      "inputs": [
        {
          "internalType": "address",
          "name": "spender",
          "type": "address"
        },
        {
          "internalType": "uint256",
          "name": "addedValue",
          "type": "uint256"
        }
      ],
      "name": "increaseAllowance",
      "outputs": [
        {
          "internalType": "bool",
          "name": "",
          "type": "bool"
        }
      ],
      "stateMutability": "nonpayable",
      "type": "function"
    },
    {
      "inputs": [
        {
          "internalType": "address",
          "name": "account",
          "type": "address"
        },
        {
          "internalType": "uint256",
          "name": "amount",
          "type": "uint256"
        }
      ],
      "name": "mintTo",
      "outputs": [],
      "stateMutability": "nonpayable",
      "type": "function"
    },
    {
      "inputs": [],
      "name": "name",
      "outputs": [
        {
          "internalType": "string",
          "name": "",
          "type": "string"
        }
      ],
      "stateMutability": "view",
      "type": "function"
    },
    {
      "inputs": [
        {
          "internalType": "address",
          "name": "owner",
          "type": "address"
        }
      ],
      "name": "nonces",
      "outputs": [
        {
          "internalType": "uint256",
          "name": "",
          "type": "uint256"
        }
      ],
      "stateMutability": "view",
      "type": "function"
    },
    {
      "inputs": [
        {
          "internalType": "address",
          "name": "account",
          "type": "address"
        }
      ],
      "name": "numCheckpoints",
      "outputs": [
        {
          "internalType": "uint32",
          "name": "",
          "type": "uint32"
        }
      ],
      "stateMutability": "view",
      "type": "function"
    },
    {
      "inputs": [
        {
          "internalType": "address",
          "name": "owner",
          "type": "address"
        },
        {
          "internalType": "address",
          "name": "spender",
          "type": "address"
        },
        {
          "internalType": "uint256",
          "name": "value",
          "type": "uint256"
        },
        {
          "internalType": "uint256",
          "name": "deadline",
          "type": "uint256"
        },
        {
          "internalType": "uint8",
          "name": "v",
          "type": "uint8"
        },
        {
          "internalType": "bytes32",
          "name": "r",
          "type": "bytes32"
        },
        {
          "internalType": "bytes32",
          "name": "s",
          "type": "bytes32"
        }
      ],
      "name": "permit",
      "outputs": [],
      "stateMutability": "nonpayable",
      "type": "function"
    },
    {
      "inputs": [],
      "name": "setupTokenInfo",
      "outputs": [],
      "stateMutability": "nonpayable",
      "type": "function"
    },
    {
      "inputs": [],
      "name": "symbol",
      "outputs": [
        {
          "internalType": "string",
          "name": "",
          "type": "string"
        }
      ],
      "stateMutability": "view",
      "type": "function"
    },
    {
      "inputs": [],
      "name": "totalSupply",
      "outputs": [
        {
          "internalType": "uint256",
          "name": "",
          "type": "uint256"
        }
      ],
      "stateMutability": "view",
      "type": "function"
    },
    {
      "inputs": [
        {
          "internalType": "address",
          "name": "to",
          "type": "address"
        },
        {
          "internalType": "uint256",
          "name": "amount",
          "type": "uint256"
        }
      ],
      "name": "transfer",
      "outputs": [
        {
          "internalType": "bool",
          "name": "",
          "type": "bool"
        }
      ],
      "stateMutability": "nonpayable",
      "type": "function"
    },
    {
      "inputs": [
        {
          "internalType": "address",
          "name": "from",
          "type": "address"
        },
        {
          "internalType": "address",
          "name": "to",
          "type": "address"
        },
        {
          "internalType": "uint256",
          "name": "amount",
          "type": "uint256"
        }
      ],
      "name": "transferFrom",
      "outputs": [
        {
          "internalType": "bool",
          "name": "",
          "type": "bool"
        }
      ],
      "stateMutability": "nonpayable",
      "type": "function"
    }
  ],
  "transactionHash": "0x854695e1e633b4095a487cabaaccac14330ccd87cf826c3930da830f1a1d05df",
  "args": [],
  "numDeployments": 7,
  "solcInputHash": "670ed2eed3e86e81f0f819972b186509",
  "bytecode": "0x60a080604052346100235730608052612fff9081610029823960805181612cd80152f35b600080fdfe6080604052600436101561001257600080fd5b60003560e01c806306fdde0314610237578063095ea7b31461023257806318160ddd1461022d57806323b872dd14610228578063313ce56714610223578063355274ea1461021e5780633644e5151461021957806339509351146102145780633a46b1a81461020f578063449a52f81461020a5780634bf5d7e914610205578063587cde1e146102005780635c19a95c146101fb5780636d63b6b7146101f65780636fcfff45146101f157806370a08231146101ec57806379cc6790146101e75780637ecebe00146101e257806384b0196e146101dd5780638e539e8c146101d857806391ddadf4146101d357806395d89b41146101ce5780639ab24eb0146101c95780639b4e735f146101c4578063a457c2d7146101bf578063a9059cbb146101ba578063ac637c7a146101b5578063b0ca253e146101b0578063bb4d4436146101ab578063c3cda520146101a6578063d505accf146101a1578063dd62ed3e1461019c578063f1127ed8146101975763f7f9375c1461019257600080fd5b611269565b6111e1565b611189565b61105f565b610f4d565b610f07565b610ee1565b610ebd565b610e97565b610dfb565b610dd5565b610db2565b610d20565b610cf4565b610bdc565b610b41565b610a81565b61099e565b610964565b61091b565b610838565b610816565b6107c8565b61071e565b6105e4565b6105bd565b610571565b61054e565b610530565b610514565b6103de565b6103c0565b61038f565b610290565b919082519283825260005b848110610268575050826000602080949584010152601f8019910116010190565b602081830181015184830182015201610247565b90602061028d92818152019061023c565b90565b3461035e5760008060031936011261035b57604051816036546102b28161128c565b8084529060019081811690811561033357506001146102ec575b6102e8846102dc81880382611317565b6040519182918261027c565b0390f35b6036835260209450600080516020612eea8339815191525b82841061032057505050816102e8936102dc92820101936102cc565b8054858501870152928501928101610304565b6102e896506102dc9450602092508593915060ff191682840152151560051b820101936102cc565b80fd5b600080fd5b600435906001600160a01b038216820361035e57565b602435906001600160a01b038216820361035e57565b3461035e57604036600319011261035e576103b56103ab610363565b602435903361164a565b602060405160018152f35b3461035e57600036600319011261035e576020603554604051908152f35b3461035e57606036600319011261035e576103f7610363565b6103ff610379565b7fe18a0dd047e211013879d9db9f83da4e8317b6619074f27ec4f3662c8720d9f7600052600080516020612f8a8339815191526020526044359060ff610465337f526f23a5f11c3970a6c81928ab21a7b4434f10271d4b194beab07fbe275e24f8611486565b541615610482575b61047692611581565b60405160018152602090f35b60018060a01b03831660005260346020526104a1336040600020611486565b5492600184016104b3575b925061046d565b8284106104cf576104ca836104769503338361164a565b6104ac565b60405162461bcd60e51b815260206004820152601d60248201527f45524332303a20696e73756666696369656e7420616c6c6f77616e63650000006044820152606490fd5b3461035e57600036600319011261035e57602060405160128152f35b3461035e57600036600319011261035e576020606554604051908152f35b3461035e57600036600319011261035e576020610569611c6b565b604051908152f35b3461035e57604036600319011261035e5761058a610363565b3360005260346020526105a1816040600020611486565b5460243581018091116105b8576103b5913361164a565b61149d565b3461035e57604036600319011261035e5760206105696105db610363565b60243590611904565b3461035e57604036600319011261035e576105fd610363565b6024356106093361264d565b6035548181018082116105b857606554106106dd576001600160a01b038316908115610698576106969361067b9261064a6106458680956114c1565b603555565b6106538261146c565b805484019055604051838152600090600080516020612f0a83398151915290602090a3612e08565b603554610691906001600160e01b031015612d4c565b612a87565b005b60405162461bcd60e51b815260206004820152601f60248201527f45524332303a206d696e7420746f20746865207a65726f2061646472657373006044820152606490fd5b60405162461bcd60e51b8152602060048201526019602482015278115490cc8c10d85c1c19590e8818d85c08195e18d959591959603a1b6044820152606490fd5b3461035e57600036600319011261035e574365ffffffffffff61074043611efd565b1603610783576102e86107516117e4565b7f6d6f64653d626c6f636b6e756d6265722666726f6d3d64656661756c7400000060208201526040519182918261027c565b60405162461bcd60e51b815260206004820152601d60248201527f4552433230566f7465733a2062726f6b656e20636c6f636b206d6f64650000006044820152606490fd5b3461035e57602036600319011261035e5760206108046107e6610363565b6001600160a01b03908116600090815260ff60205260409020541690565b6040516001600160a01b039091168152f35b3461035e57602036600319011261035e57610696610832610363565b33612735565b3461035e5760008060031936011261035b57805461086d60ff8260081c16158092819361090d575b81156108ed575b50611fc9565b80610880600160ff196000541617600055565b6108d4575b61088d61202c565b6108945780f35b6108a461ff001960005416600055565b604051600181527f7f26b83ff96e1f2b6a682f133852f6798a09c465da95921460cefb384740249890602090a180f35b6108e861010061ff00196000541617600055565b610885565b303b159150816108ff575b5038610867565b6001915060ff1614386108f8565b600160ff8216109150610860565b3461035e57602036600319011261035e576001600160a01b0361093c610363565b166000526101006020526020610956604060002054611f64565b63ffffffff60405191168152f35b3461035e57602036600319011261035e576001600160a01b03610985610363565b1660005260336020526020604060002054604051908152f35b3461035e57604036600319011261035e576109b7610363565b6024356109c33361264d565b6001600160a01b038216918215610a32578181600061069695836109e9610a2d9661146c565b546109f682821015612db1565b03610a008461146c565b55610a0e8460355403603555565b604051848152600080516020612f0a83398151915290602090a3612e41565b612b69565b60405162461bcd60e51b815260206004820152602160248201527f45524332303a206275726e2066726f6d20746865207a65726f206164647265736044820152607360f81b6064820152608490fd5b3461035e57602036600319011261035e576001600160a01b03610aa2610363565b1660005260cc6020526020604060002054604051908152f35b91610aee90949194600f60f81b8452610ae060209660e08887015260e086019061023c565b90848203604086015261023c565b92606083015260018060a01b03166080820152600060a082015260c081830391015281808451928381520193019160005b828110610b2d575050505090565b835185529381019392810192600101610b1f565b3461035e57600036600319011261035e576098541580610bd2575b15610b9557610b6961133a565b610b716113e5565b906102e8604051610b81816112fc565b600081526040519384933091469186610abb565b60405162461bcd60e51b81526020600482015260156024820152741152540dcc4c8e88155b9a5b9a5d1a585b1a5e9959605a1b6044820152606490fd5b5060995415610b5c565b3461035e57602036600319011261035e57600435610c0b65ffffffffffff610c0343611efd565b1682106118bc565b610101549060008260058111610cab575b50905b828210610c62578280610c445750602060005b6040516001600160e01b039091168152f35b610c5d610c5660209260001901611a69565b5460201c90565b610c32565b9091610c6e8184611d96565b908263ffffffff610c8b610c8185611a69565b5463ffffffff1690565b161115610c9b5750915b90610c1f565b9250610ca6906114b3565b610c95565b80610cbb610cc192959395611dab565b90611a14565b908263ffffffff610cd4610c8185611a69565b161115610ce45750915b38610c1c565b9250610cef906114b3565b610cde565b3461035e57600036600319011261035e576020610d1043611efd565b65ffffffffffff60405191168152f35b3461035e5760008060031936011261035b5760405181603754610d428161128c565b808452906001908181169081156103335750600114610d6b576102e8846102dc81880382611317565b6037835260209450600080516020612f6a8339815191525b828410610d9f57505050816102e8936102dc92820101936102cc565b8054858501870152928501928101610d83565b3461035e57602036600319011261035e576020610569610dd0610363565b61187c565b3461035e57602036600319011261035e576020610804610df3610363565b6107e6612cd5565b3461035e57604036600319011261035e57610e14610363565b60243590336000526034602052610e2f816040600020611486565b5491808310610e44576104769203903361164a565b60405162461bcd60e51b815260206004820152602560248201527f45524332303a2064656372656173656420616c6c6f77616e63652062656c6f77604482015264207a65726f60d81b6064820152608490fd5b3461035e57604036600319011261035e576103b5610eb3610363565b6024359033611581565b3461035e57602036600319011261035e57610696610ed9610363565b610832612cd5565b3461035e57604036600319011261035e576020610569610eff610363565b6105db612cd5565b3461035e57602036600319011261035e576020610569610f25610363565b610dd0612cd5565b6064359060ff8216820361035e57565b6084359060ff8216820361035e57565b3461035e5760c036600319011261035e57610f66610363565b60443590602435610f75610f2d565b9280421161101a57611005611015916106969560405190610fed82610fdf6020820195898b8860609194939260808201957fe48329057bfd03d55e49b547132e39cffd9c1820ad7b9d4c5307691425d15adf835260018060a01b0316602083015260408201520152565b03601f198101845283611317565b61100060a4359360843593519020611cdf565b611a94565b9161100f836117b4565b14611a21565b612735565b60405162461bcd60e51b815260206004820152601d60248201527f4552433230566f7465733a207369676e617475726520657870697265640000006044820152606490fd5b3461035e5760e036600319011261035e57611078610363565b611080610379565b6044359060643592611090610f3d565b938042116111445761112c61113f91610fdf610696976111196110b2876117b4565b604080517f6e71edae12b1b97f4d1f60370fef10105fa2faae0126114a169c64845d6126c9602082019081526001600160a01b03808c1693830193909352918b166060820152608081018c905260a081019290925260c082019590955292839060e0820190565b61100060c4359360a43593519020611cdf565b6001600160a01b03838116911614611768565b61164a565b60405162461bcd60e51b815260206004820152601d60248201527f45524332305065726d69743a206578706972656420646561646c696e650000006044820152606490fd5b3461035e57604036600319011261035e5760206111cc6111a7610363565b6111af610379565b6001600160a01b0390911660009081526034845260409020611486565b54604051908152f35b6001600160e01b031690565b3461035e57604036600319011261035e576111fa610363565b63ffffffff602435818116810361035e5761124561124b91604094600060208751611224816112dc565b82815201526001600160a01b0316600090815261010060205285902061181d565b5061185a565b8251815190921682526020908101516001600160e01b031690820152f35b3461035e57600036600319011261035e57611282612cd5565b6106963333612735565b90600182811c921680156112bc575b60208310146112a657565b634e487b7160e01b600052602260045260246000fd5b91607f169161129b565b634e487b7160e01b600052604160045260246000fd5b604081019081106001600160401b038211176112f757604052565b6112c6565b602081019081106001600160401b038211176112f757604052565b601f909101601f19168101906001600160401b038211908210176112f757604052565b60405190600082609a549161134e8361128c565b8083526001938085169081156113c45750600114611376575b5061137492500383611317565b565b609a6000908152600080516020612eca83398151915294602093509091905b8183106113ac575050611374935082010138611367565b85548884018501529485019487945091830191611395565b905061137494506020925060ff191682840152151560051b82010138611367565b60405190600082609b54916113f98361128c565b8083526001938085169081156113c4575060011461141e575061137492500383611317565b609b6000908152600080516020612f4a83398151915294602093509091905b818310611454575050611374935082010138611367565b8554888401850152948501948794509183019161143d565b6001600160a01b0316600090815260336020526040902090565b9060018060a01b0316600052602052604060002090565b634e487b7160e01b600052601160045260246000fd5b90600182018092116105b857565b919082018092116105b857565b156114d557565b60405162461bcd60e51b815260206004820152602360248201527f45524332303a207472616e7366657220746f20746865207a65726f206164647260448201526265737360e81b6064820152608490fd5b1561152d57565b60405162461bcd60e51b815260206004820152602660248201527f45524332303a207472616e7366657220616d6f756e7420657863656564732062604482015265616c616e636560d01b6064820152608490fd5b6001600160a01b0392919083811680156115f757611374948316906115a78215156114ce565b846115b18461146c565b546115be82821015611526565b036115c88461146c565b556115d28461146c565b805486019055604051858152600080516020612f0a83398151915290602090a3612e7d565b60405162461bcd60e51b815260206004820152602560248201527f45524332303a207472616e736665722066726f6d20746865207a65726f206164604482015264647265737360d81b6064820152608490fd5b6001600160a01b0380821692919083156117175782169384156116c757806116b17f8c5be1e5ebec7d5bd14f71427d1e84f3dd0314c0f7b2291e5b200ac8c7c3b925946116ac6116c29560018060a01b03166000526034602052604060002090565b611486565b556040519081529081906020820190565b0390a3565b60405162461bcd60e51b815260206004820152602260248201527f45524332303a20617070726f766520746f20746865207a65726f206164647265604482015261737360f01b6064820152608490fd5b60405162461bcd60e51b8152602060048201526024808201527f45524332303a20617070726f76652066726f6d20746865207a65726f206164646044820152637265737360e01b6064820152608490fd5b1561176f57565b60405162461bcd60e51b815260206004820152601e60248201527f45524332305065726d69743a20696e76616c6964207369676e617475726500006044820152606490fd5b6001600160a01b0316600090815260cc6020526040902080546001810190915590565b60405190611374826112dc565b604051906117f1826112dc565b601d8252565b60405190611804826112dc565b60058252565b60405190611817826112dc565b60018252565b80548210156118355760005260206000200190600090565b634e487b7160e01b600052603260045260246000fd5b6001600160e01b039091169052565b90604051611867816112dc565b602081935463ffffffff81168352811c910152565b6001600160a01b0316600090815261010060205260409020805490816118a457506000919050565b6118b291600019019061181d565b505460201c6111d5565b156118c357565b60405162461bcd60e51b815260206004820152601960248201527804552433230566f7465733a20667574757265206c6f6f6b757603c1b6044820152606490fd5b61191f65ffffffffffff61191743611efd565b1683106118bc565b6001600160a01b031660009081526101006020526040812080549092909182600581116119c9575b50905b82821061197e5750508061196057506000919050565b61197991610c5691600019019060005260206000200190565b6111d5565b909161198a8184611d96565b90818363ffffffff6119a6610c81848a60005260206000200190565b1611156119b7575050915b9061194a565b9093506119c491506114b3565b6119b1565b80610cbb6119d992959395611dab565b908263ffffffff6119f4610c81858960005260206000200190565b161115611a045750915b38611947565b9250611a0f906114b3565b6119fe565b919082039182116105b857565b15611a2857565b60405162461bcd60e51b81526020600482015260196024820152784552433230566f7465733a20696e76616c6964206e6f6e636560381b6044820152606490fd5b6101016000527f109ea3cebb188b9c1b9fc5bb3920be60dfdc8699098dff92f3d80daaca7476890190565b9161028d9391611aa393611be6565b919091611acb565b60051115611ab557565b634e487b7160e01b600052602160045260246000fd5b611ad481611aab565b80611adc5750565b611ae581611aab565b60018103611b2d5760405162461bcd60e51b815260206004820152601860248201527745434453413a20696e76616c6964207369676e617475726560401b6044820152606490fd5b611b3681611aab565b60028103611b835760405162461bcd60e51b815260206004820152601f60248201527f45434453413a20696e76616c6964207369676e6174757265206c656e677468006044820152606490fd5b80611b8f600392611aab565b14611b9657565b60405162461bcd60e51b815260206004820152602260248201527f45434453413a20696e76616c6964207369676e6174757265202773272076616c604482015261756560f01b6064820152608490fd5b9291906fa2a8918ca85bafe22016d0b997e4df60600160ff1b038311611c5f5791608094939160ff602094604051948552168484015260408301526060820152600093849182805260015afa15611c525781516001600160a01b03811615611c4c579190565b50600190565b50604051903d90823e3d90fd5b50505050600090600390565b611c73611d05565b611c7b611d50565b6040519060208201927f8b73c3c69bb8fe3d512ecc4cf759cc79239f7b179b0ffacaa9a75d522b39400f8452604083015260608201524660808201523060a082015260a0815260c0810181811060018060401b038211176112f75760405251902090565b604290611cea611c6b565b906040519161190160f01b8352600283015260228201522090565b611d0d61133a565b8051908115611d1d576020012090565b50506098548015611d2b5790565b507fc5d2460186f7233c927e7db2dcc703c0e500b653ca82273b7bfad8045d85a47090565b611d586113e5565b8051908115611d68576020012090565b50506099548015611d2b5790565b8115611d80570490565b634e487b7160e01b600052601260045260246000fd5b90808216911860011c81018091116105b85790565b8015611ee55780611e7e611e77611e6d611e63611e59611e4f611e45611e3b600161028d9a6000908b60801c80611ed9575b508060401c80611ecc575b508060201c80611ebf575b508060101c80611eb2575b508060081c80611ea5575b508060041c80611e98575b508060021c80611e8b575b50821c611e84575b811c1b611e34818b611d76565b0160011c90565b611e34818a611d76565b611e348189611d76565b611e348188611d76565b611e348187611d76565b611e348186611d76565b611e348185611d76565b8092611d76565b90611eeb565b8101611e27565b6002915091019038611e1f565b6004915091019038611e14565b6008915091019038611e09565b6010915091019038611dfe565b6020915091019038611df3565b6040915091019038611de8565b91505060809038611ddd565b50600090565b9080821015611ef8575090565b905090565b65ffffffffffff90818111611f10571690565b60405162461bcd60e51b815260206004820152602660248201527f53616665436173743a2076616c756520646f65736e27742066697420696e203460448201526538206269747360d01b6064820152608490fd5b63ffffffff90818111611f75571690565b60405162461bcd60e51b815260206004820152602660248201527f53616665436173743a2076616c756520646f65736e27742066697420696e203360448201526532206269747360d01b6064820152608490fd5b15611fd057565b60405162461bcd60e51b815260206004820152602e60248201527f496e697469616c697a61626c653a20636f6e747261637420697320616c72656160448201526d191e481a5b9a5d1a585b1a5e995960921b6064820152608490fd5b6120353361264d565b61203d612170565b6120456117f7565b6020644c4f43555360d81b8183015261206e60ff60005460081c1661206981612197565b612197565b8251906001600160401b0382116112f7576120938261208e60365461128c565b6121f7565b80601f83116001146120f3575081906120c8946000926120e8575b50508160011b916000199060031b1c191617603655612347565b6120d06124f1565b6120e06120db612170565b612517565b61137461263c565b0151905038806120ae565b60366000529293919291601f198416600080516020612eea833981519152936000905b8282106121585750509160019391856120c89796941061213f575b505050811b01603655612347565b015160001960f88460031b161c19169055388080612131565b80600186978294978701518155019601940190612116565b6040519061217d826112dc565b600b82526a2637b1bab9902a37b5b2b760a91b6020830152565b1561219e57565b60405162461bcd60e51b815260206004820152602b60248201527f496e697469616c697a61626c653a20636f6e7472616374206973206e6f74206960448201526a6e697469616c697a696e6760a81b6064820152608490fd5b601f8111612203575050565b6000906036825260208220906020601f850160051c83019410612241575b601f0160051c01915b82811061223657505050565b81815560010161222a565b9092508290612221565b601f8111612257575050565b600090609a825260208220906020601f850160051c83019410612295575b601f0160051c01915b82811061228a57505050565b81815560010161227e565b9092508290612275565b601f81116122ab575050565b6000906037825260208220906020601f850160051c830194106122e9575b601f0160051c01915b8281106122de57505050565b8181556001016122d2565b90925082906122c9565b601f81116122ff575050565b600090609b825260208220906020601f850160051c8301941061233d575b601f0160051c01915b82811061233257505050565b818155600101612326565b909250829061231d565b80519091906001600160401b0381116112f75761236e8161236960375461128c565b61229f565b602080601f83116001146123aa575081929360009261239f575b50508160011b916000199060031b1c191617603755565b015190503880612388565b6037600052601f19831694909190600080516020612f6a833981519152926000905b8782106124045750508360019596106123eb575b505050811b01603755565b015160001960f88460031b161c191690553880806123e0565b806001859682949686015181550195019301906123cc565b80519091906001600160401b0381116112f7576124438161243e609b5461128c565b6122f3565b602080601f831160011461247f5750819293600092612474575b50508160011b916000199060031b1c191617609b55565b01519050388061245d565b609b600052601f19831694909190600080516020612f4a833981519152926000905b8782106124d95750508360019596106124c0575b505050811b01609b55565b015160001960f88460031b161c191690553880806124b5565b806001859682949686015181550195019301906124a1565b61250660ff60005460081c1661206981612197565b6a0c685fa11e01ec6f000000606555565b60ff60005460081c1661252981612197565b61253161180a565b90612546602091603160f81b83850152612197565b8251906001600160401b0382116112f75761256b82612566609a5461128c565b61224b565b80601f83116001146125bf575081906125a0946000926125b4575b50508160011b916000199060031b1c191617609a5561241c565b6125aa6000609855565b6113746000609955565b015190503880612586565b609a6000529293919291601f198416600080516020612eca833981519152936000905b8282106126245750509160019391856125a09796941061260b575b505050811b01609a5561241c565b015160001960f88460031b161c191690553880806125fd565b806001869782949787015181550196019401906125e2565b61137460ff60005460081c16612197565b6001600160a01b03163081036126605750565b60449060405190632bc93d7960e21b825260048201527fddd94edc7da5bca8f576c77964a4737ba5172c728e2d539e672f0229d1e9ec2d6024820152fd5b7f1f5a72ff210e1987f45ef6999da4be546bb5ea71f60de5cbc44d2ddb6c29d7166000819052600080516020612f8a83398151915260205260ff612702837fdaf4e0039e06efc15f0aa13f58517bb65a6ff7e78ed13e11b7ffe60077941653611486565b54161561270d575050565b604051632bc93d7960e21b81526001600160a01b039092166004830152602482015260449150fd5b6113749160ff7f432da9d83f78bf82285a328b443d450767ef001f46d2f35595c0324c1126b96754166127d0575b60018060a01b0380921660009281845260ff60205280604085205416809260336020527f3134e8a2e6d97e929a7e54011ea5485d7d196dd5f0ba4d4ef95803e8e3fc257f60408720549660ff60205260408120948716948560018060a01b031982541617905580a46127e7565b6127d98261269e565b6127e28161269e565b612763565b6001600160a01b038083169392911680841415806129b0575b61280b575b50505050565b80612868575b508261281e575b80612805565b6001600160a01b0316600090815261010060205260409020600080516020612faa8339815191529161284f91612bbb565b60408051928352602083019190915290a2388080612818565b80600052610100602052600080516020612faa833981519152604060002080548015918260001461298d5761289b6117d7565b6000815260006020820152915b6128b861197960208501516111d5565b926128c38985612eaf565b9415908161296a575b501561290f576128f46128f9926128e286612c6c565b92600019019060005260206000200190565b6129b9565b604080519182526020820192909252a238612811565b506129659061293361292e61292343611efd565b65ffffffffffff1690565b611f64565b9061296061294086612c6c565b61295761294b6117d7565b63ffffffff9095168552565b6020840161184b565b612a25565b6128f9565b5163ffffffff16905063ffffffff61298461292343611efd565b911614386128cc565b6129aa6129a560001984018360005260206000200190565b61185a565b916128a8565b50821515612800565b9063ffffffff82549181199060201b169116179055565b610101908154600160401b8110156112f7576001810180845581101561183557611374926000526020600020019063ffffffff81511663ffffffff19835416178255602060018060e01b0391015116906129b9565b8054600160401b8110156112f757612a429160018201815561181d565b612a71578163ffffffff61137493511663ffffffff19835416178255602060018060e01b0391015116906129b9565b634e487b7160e01b600052600060045260246000fd5b6101015490918115918215612b5457612a9e6117d7565b60008152600060208201525b612ac4612abd61197960208401516111d5565b9586612ebc565b93159081612b31575b5015612aed57611374906128f4612ae385612c6c565b9160001901611a69565b50611374612b0061292e61292343611efd565b612b2c612b0c85612c6c565b612b23612b176117d7565b63ffffffff9094168452565b6020830161184b565b6129d0565b5163ffffffff16905063ffffffff612b4b61292343611efd565b91161438612acd565b612b646129a56000198301611a69565b612aaa565b6101015490918115918215612ba657612b806117d7565b60008152600060208201525b612ac4612b9f61197960208401516111d5565b9586612eaf565b612bb66129a56000198301611a69565b612b8c565b909181549182159283600014612c4f57612bd36117d7565b60008152600060208201525b612bf9612bf261197960208401516111d5565b9687612ebc565b94159081612c2c575b5015612c18576128f4611374926128e286612c6c565b506113749061293361292e61292343611efd565b5163ffffffff16905063ffffffff612c4661292343611efd565b91161438612c02565b612c676129a560001983018460005260206000200190565b612bdf565b6001600160e01b0390818111612c80571690565b60405162461bcd60e51b815260206004820152602760248201527f53616665436173743a2076616c756520646f65736e27742066697420696e20326044820152663234206269747360c81b6064820152608490fd5b307f00000000000000000000000000000000000000000000000000000000000000006001600160a01b0316148015612d20575b612d0e57565b604051639f357e6b60e01b8152600490fd5b5060ff7f9f1709bc5ab0578be51bb81e11b02cdd9c21aa603d7325a8a7551bbd5685a005541615612d08565b15612d5357565b60405162461bcd60e51b815260206004820152603060248201527f4552433230566f7465733a20746f74616c20737570706c79207269736b73206f60448201526f766572666c6f77696e6720766f74657360801b6064820152608490fd5b15612db857565b60405162461bcd60e51b815260206004820152602260248201527f45524332303a206275726e20616d6f756e7420657863656564732062616c616e604482015261636560f01b6064820152608490fd5b60ff602052600080516020612f2a833981519152546001600160a01b0391821660009081526040902054611374939290811691166127e7565b6001600160a01b03908116600090815260ff6020526040812054908052600080516020612f2a83398151915254611374939290811691166127e7565b6001600160a01b03908116600090815260ff6020526040808220549383168252902054611374939290821691166127e7565b9081039081116105b85790565b9081018091116105b8579056fe44da158ba27f9252712a74ff6a55c5d531f69609f1f6e7f17c4443a8e2089be44a11f94e20a93c79f6ec743a1954ec4fc2c08429ae2122118bf234b2185c81b8ddf252ad1be2c89b69c2b068fc378daa952ba7f163c4a11628f55a4df523b3ef03d616f3758432b4d7452e2e9011612152589bfc903ce751686613c478b2af5fbba9db4cdbea0a37c207bbb83e20f828cd4441c49891101dc94fd20dc8efc34942a7b7dd785cd69714a189dffb3fd7d7174edc9ece837694ce50f7078f7c31ae256352104e666e6cce09c45a35c339c150e1991724469c7d87b784a284535e44dec2bacdd2f05b59de34da9b523dff8be42e5e38e818c82fdb0bae774387a724a2646970667358221220029ea55404cbcbff66280369679bf5cefb78987e6d35267d659eb1546864299a64736f6c63430008130033",
  "libraries": [
    "TDLib",
    "LTLib",
    "InitializerLib",
    "PausabilityLib",
    "RolesManagementLib",
    "AutocracyLib",
    "AutocracyGovernmentLib"
  ],
  "devdoc": {
    "events": {
      "Approval(address,address,uint256)": {
        "details": "Emitted when the allowance of a `spender` for an `owner` is set by a call to {approve}. `value` is the new allowance."
      },
      "DelegateChanged(address,address,address)": {
        "details": "Emitted when an account changes their delegate."
      },
      "DelegateVotesChanged(address,uint256,uint256)": {
        "details": "Emitted when a token transfer or delegate change results in changes to a delegate's number of votes."
      },
      "EIP712DomainChanged()": {
        "details": "MAY be emitted to signal that the domain could have changed."
      },
      "Initialized(uint8)": {
        "details": "Triggered when the contract has been initialized or reinitialized."
      },
      "Transfer(address,address,uint256)": {
        "details": "Emitted when `value` tokens are moved from one account (`from`) to another (`to`). Note that `value` may be zero."
      }
    },
    "kind": "dev",
    "methods": {
      "CLOCK_MODE()": {
        "details": "Description of the clock"
      },
      "DOMAIN_SEPARATOR()": {
        "details": "See {IERC20Permit-DOMAIN_SEPARATOR}."
      },
      "allowance(address,address)": {
        "details": "See {IERC20-allowance}."
      },
      "approve(address,uint256)": {
        "details": "See {IERC20-approve}. NOTE: If `amount` is the maximum `uint256`, the allowance is not updated on `transferFrom`. This is semantically equivalent to an infinite approval. Requirements: - `spender` cannot be the zero address."
      },
      "balanceOf(address)": {
        "details": "See {IERC20-balanceOf}."
      },
      "cap()": {
        "details": "Returns the cap on the token's total supply."
      },
      "checkpoints(address,uint32)": {
        "details": "Get the `pos`-th checkpoint for `account`."
      },
      "clock()": {
        "details": "Clock used for flagging checkpoints. Can be overridden to implement timestamp based checkpoints (and voting)."
      },
      "decimals()": {
        "details": "Returns the number of decimals used to get its user representation. For example, if `decimals` equals `2`, a balance of `505` tokens should be displayed to a user as `5.05` (`505 / 10 ** 2`). Tokens usually opt for a value of 18, imitating the relationship between Ether and Wei. This is the default value returned by this function, unless it's overridden. NOTE: This information is only used for _display_ purposes: it in no way affects any of the arithmetic of the contract, including {IERC20-balanceOf} and {IERC20-transfer}."
      },
      "decreaseAllowance(address,uint256)": {
        "details": "Atomically decreases the allowance granted to `spender` by the caller. This is an alternative to {approve} that can be used as a mitigation for problems described in {IERC20-approve}. Emits an {Approval} event indicating the updated allowance. Requirements: - `spender` cannot be the zero address. - `spender` must have allowance for the caller of at least `subtractedValue`."
      },
      "delegate(address)": {
        "details": "Delegate votes from the sender to `delegatee`."
      },
      "delegateBySig(address,uint256,uint256,uint8,bytes32,bytes32)": {
        "details": "Delegates votes from signer to `delegatee`"
      },
      "delegates(address)": {
        "details": "Get the address `account` is currently delegating to."
      },
      "eip712Domain()": {
        "details": "See {EIP-5267}. _Available since v4.9._"
      },
      "getPastTotalSupply(uint256)": {
        "details": "Retrieve the `totalSupply` at the end of `timepoint`. Note, this value is the sum of all balances. It is NOT the sum of all the delegated votes! Requirements: - `timepoint` must be in the past"
      },
      "getPastVotes(address,uint256)": {
        "details": "Retrieve the number of votes for `account` at the end of `timepoint`. Requirements: - `timepoint` must be in the past"
      },
      "getVotes(address)": {
        "details": "Gets the current votes balance for `account`"
      },
      "increaseAllowance(address,uint256)": {
        "details": "Atomically increases the allowance granted to `spender` by the caller. This is an alternative to {approve} that can be used as a mitigation for problems described in {IERC20-approve}. Emits an {Approval} event indicating the updated allowance. Requirements: - `spender` cannot be the zero address."
      },
      "name()": {
        "details": "Returns the name of the token."
      },
      "nonces(address)": {
        "details": "See {IERC20Permit-nonces}."
      },
      "numCheckpoints(address)": {
        "details": "Get number of checkpoints for `account`."
      },
      "permit(address,address,uint256,uint256,uint8,bytes32,bytes32)": {
        "details": "See {IERC20Permit-permit}."
      },
      "symbol()": {
        "details": "Returns the symbol of the token, usually a shorter version of the name."
      },
      "totalSupply()": {
        "details": "See {IERC20-totalSupply}."
      },
      "transfer(address,uint256)": {
        "details": "See {IERC20-transfer}. Requirements: - `to` cannot be the zero address. - the caller must have a balance of at least `amount`."
      },
      "transferFrom(address,address,uint256)": {
        "details": "See {IERC20-transferFrom}. Emits an {Approval} event indicating the updated allowance. This is not required by the EIP. See the note at the beginning of {ERC20}. NOTE: Does not update the allowance if the current allowance is the maximum `uint256`. Requirements: - `from` and `to` cannot be the zero address. - `from` must have a balance of at least `amount`. - the caller must have allowance for ``from``'s tokens of at least `amount`."
      }
    },
    "version": 1
  },
  "userdoc": {
    "kind": "user",
    "methods": {
      "enablePolitics()": {
        "notice": "To be able to vote for something by themselves a holder must call it first to delegate all voting power they have to themselves."
      }
    },
    "version": 1
  },
  "storageLayout": {
    "storage": [
      {
        "astId": 133,
        "contract": "contracts/diamonds/locusToken/v1/LTERC20Facet.sol:LTERC20Facet",
        "label": "_initialized",
        "offset": 0,
        "slot": "0",
        "type": "t_uint8"
      },
      {
        "astId": 136,
        "contract": "contracts/diamonds/locusToken/v1/LTERC20Facet.sol:LTERC20Facet",
        "label": "_initializing",
        "offset": 1,
        "slot": "0",
        "type": "t_bool"
      },
      {
        "astId": 2660,
        "contract": "contracts/diamonds/locusToken/v1/LTERC20Facet.sol:LTERC20Facet",
        "label": "__gap",
        "offset": 0,
        "slot": "1",
        "type": "t_array(t_uint256)50_storage"
      },
      {
        "astId": 525,
        "contract": "contracts/diamonds/locusToken/v1/LTERC20Facet.sol:LTERC20Facet",
        "label": "_balances",
        "offset": 0,
        "slot": "51",
        "type": "t_mapping(t_address,t_uint256)"
      },
      {
        "astId": 531,
        "contract": "contracts/diamonds/locusToken/v1/LTERC20Facet.sol:LTERC20Facet",
        "label": "_allowances",
        "offset": 0,
        "slot": "52",
        "type": "t_mapping(t_address,t_mapping(t_address,t_uint256))"
      },
      {
        "astId": 533,
        "contract": "contracts/diamonds/locusToken/v1/LTERC20Facet.sol:LTERC20Facet",
        "label": "_totalSupply",
        "offset": 0,
        "slot": "53",
        "type": "t_uint256"
      },
      {
        "astId": 535,
        "contract": "contracts/diamonds/locusToken/v1/LTERC20Facet.sol:LTERC20Facet",
        "label": "_name",
        "offset": 0,
        "slot": "54",
        "type": "t_string_storage"
      },
      {
        "astId": 537,
        "contract": "contracts/diamonds/locusToken/v1/LTERC20Facet.sol:LTERC20Facet",
        "label": "_symbol",
        "offset": 0,
        "slot": "55",
        "type": "t_string_storage"
      },
      {
        "astId": 1117,
        "contract": "contracts/diamonds/locusToken/v1/LTERC20Facet.sol:LTERC20Facet",
        "label": "__gap",
        "offset": 0,
        "slot": "56",
        "type": "t_array(t_uint256)45_storage"
      },
      {
        "astId": 1207,
        "contract": "contracts/diamonds/locusToken/v1/LTERC20Facet.sol:LTERC20Facet",
        "label": "_cap",
        "offset": 0,
        "slot": "101",
        "type": "t_uint256"
      },
      {
        "astId": 1282,
        "contract": "contracts/diamonds/locusToken/v1/LTERC20Facet.sol:LTERC20Facet",
        "label": "__gap",
        "offset": 0,
        "slot": "102",
        "type": "t_array(t_uint256)50_storage"
      },
      {
        "astId": 3348,
        "contract": "contracts/diamonds/locusToken/v1/LTERC20Facet.sol:LTERC20Facet",
        "label": "_hashedName",
        "offset": 0,
        "slot": "152",
        "type": "t_bytes32"
      },
      {
        "astId": 3351,
        "contract": "contracts/diamonds/locusToken/v1/LTERC20Facet.sol:LTERC20Facet",
        "label": "_hashedVersion",
        "offset": 0,
        "slot": "153",
        "type": "t_bytes32"
      },
      {
        "astId": 3353,
        "contract": "contracts/diamonds/locusToken/v1/LTERC20Facet.sol:LTERC20Facet",
        "label": "_name",
        "offset": 0,
        "slot": "154",
        "type": "t_string_storage"
      },
      {
        "astId": 3355,
        "contract": "contracts/diamonds/locusToken/v1/LTERC20Facet.sol:LTERC20Facet",
        "label": "_version",
        "offset": 0,
        "slot": "155",
        "type": "t_string_storage"
      },
      {
        "astId": 3613,
        "contract": "contracts/diamonds/locusToken/v1/LTERC20Facet.sol:LTERC20Facet",
        "label": "__gap",
        "offset": 0,
        "slot": "156",
        "type": "t_array(t_uint256)48_storage"
      },
      {
        "astId": 1309,
        "contract": "contracts/diamonds/locusToken/v1/LTERC20Facet.sol:LTERC20Facet",
        "label": "_nonces",
        "offset": 0,
        "slot": "204",
        "type": "t_mapping(t_address,t_struct(Counter)2667_storage)"
      },
      {
        "astId": 1317,
        "contract": "contracts/diamonds/locusToken/v1/LTERC20Facet.sol:LTERC20Facet",
        "label": "_PERMIT_TYPEHASH_DEPRECATED_SLOT",
        "offset": 0,
        "slot": "205",
        "type": "t_bytes32"
      },
      {
        "astId": 1473,
        "contract": "contracts/diamonds/locusToken/v1/LTERC20Facet.sol:LTERC20Facet",
        "label": "__gap",
        "offset": 0,
        "slot": "206",
        "type": "t_array(t_uint256)49_storage"
      },
      {
        "astId": 1515,
        "contract": "contracts/diamonds/locusToken/v1/LTERC20Facet.sol:LTERC20Facet",
        "label": "_delegates",
        "offset": 0,
        "slot": "255",
        "type": "t_mapping(t_address,t_address)"
      },
      {
        "astId": 1521,
        "contract": "contracts/diamonds/locusToken/v1/LTERC20Facet.sol:LTERC20Facet",
        "label": "_checkpoints",
        "offset": 0,
        "slot": "256",
        "type": "t_mapping(t_address,t_array(t_struct(Checkpoint)1506_storage)dyn_storage)"
      },
      {
        "astId": 1525,
        "contract": "contracts/diamonds/locusToken/v1/LTERC20Facet.sol:LTERC20Facet",
        "label": "_totalSupplyCheckpoints",
        "offset": 0,
        "slot": "257",
        "type": "t_array(t_struct(Checkpoint)1506_storage)dyn_storage"
      },
      {
        "astId": 2227,
        "contract": "contracts/diamonds/locusToken/v1/LTERC20Facet.sol:LTERC20Facet",
        "label": "__gap",
        "offset": 0,
        "slot": "258",
        "type": "t_array(t_uint256)47_storage"
      }
    ],
    "types": {
      "t_address": {
        "encoding": "inplace",
        "label": "address",
        "numberOfBytes": "20"
      },
      "t_array(t_struct(Checkpoint)1506_storage)dyn_storage": {
        "base": "t_struct(Checkpoint)1506_storage",
        "encoding": "dynamic_array",
        "label": "struct ERC20VotesUpgradeable.Checkpoint[]",
        "numberOfBytes": "32"
      },
      "t_array(t_uint256)45_storage": {
        "base": "t_uint256",
        "encoding": "inplace",
        "label": "uint256[45]",
        "numberOfBytes": "1440"
      },
      "t_array(t_uint256)47_storage": {
        "base": "t_uint256",
        "encoding": "inplace",
        "label": "uint256[47]",
        "numberOfBytes": "1504"
      },
      "t_array(t_uint256)48_storage": {
        "base": "t_uint256",
        "encoding": "inplace",
        "label": "uint256[48]",
        "numberOfBytes": "1536"
      },
      "t_array(t_uint256)49_storage": {
        "base": "t_uint256",
        "encoding": "inplace",
        "label": "uint256[49]",
        "numberOfBytes": "1568"
      },
      "t_array(t_uint256)50_storage": {
        "base": "t_uint256",
        "encoding": "inplace",
        "label": "uint256[50]",
        "numberOfBytes": "1600"
      },
      "t_bool": {
        "encoding": "inplace",
        "label": "bool",
        "numberOfBytes": "1"
      },
      "t_bytes32": {
        "encoding": "inplace",
        "label": "bytes32",
        "numberOfBytes": "32"
      },
      "t_mapping(t_address,t_address)": {
        "encoding": "mapping",
        "key": "t_address",
        "label": "mapping(address => address)",
        "numberOfBytes": "32",
        "value": "t_address"
      },
      "t_mapping(t_address,t_array(t_struct(Checkpoint)1506_storage)dyn_storage)": {
        "encoding": "mapping",
        "key": "t_address",
        "label": "mapping(address => struct ERC20VotesUpgradeable.Checkpoint[])",
        "numberOfBytes": "32",
        "value": "t_array(t_struct(Checkpoint)1506_storage)dyn_storage"
      },
      "t_mapping(t_address,t_mapping(t_address,t_uint256))": {
        "encoding": "mapping",
        "key": "t_address",
        "label": "mapping(address => mapping(address => uint256))",
        "numberOfBytes": "32",
        "value": "t_mapping(t_address,t_uint256)"
      },
      "t_mapping(t_address,t_struct(Counter)2667_storage)": {
        "encoding": "mapping",
        "key": "t_address",
        "label": "mapping(address => struct CountersUpgradeable.Counter)",
        "numberOfBytes": "32",
        "value": "t_struct(Counter)2667_storage"
      },
      "t_mapping(t_address,t_uint256)": {
        "encoding": "mapping",
        "key": "t_address",
        "label": "mapping(address => uint256)",
        "numberOfBytes": "32",
        "value": "t_uint256"
      },
      "t_string_storage": {
        "encoding": "bytes",
        "label": "string",
        "numberOfBytes": "32"
      },
      "t_struct(Checkpoint)1506_storage": {
        "encoding": "inplace",
        "label": "struct ERC20VotesUpgradeable.Checkpoint",
        "members": [
          {
            "astId": 1503,
            "contract": "contracts/diamonds/locusToken/v1/LTERC20Facet.sol:LTERC20Facet",
            "label": "fromBlock",
            "offset": 0,
            "slot": "0",
            "type": "t_uint32"
          },
          {
            "astId": 1505,
            "contract": "contracts/diamonds/locusToken/v1/LTERC20Facet.sol:LTERC20Facet",
            "label": "votes",
            "offset": 4,
            "slot": "0",
            "type": "t_uint224"
          }
        ],
        "numberOfBytes": "32"
      },
      "t_struct(Counter)2667_storage": {
        "encoding": "inplace",
        "label": "struct CountersUpgradeable.Counter",
        "members": [
          {
            "astId": 2666,
            "contract": "contracts/diamonds/locusToken/v1/LTERC20Facet.sol:LTERC20Facet",
            "label": "_value",
            "offset": 0,
            "slot": "0",
            "type": "t_uint256"
          }
        ],
        "numberOfBytes": "32"
      },
      "t_uint224": {
        "encoding": "inplace",
        "label": "uint224",
        "numberOfBytes": "28"
      },
      "t_uint256": {
        "encoding": "inplace",
        "label": "uint256",
        "numberOfBytes": "32"
      },
      "t_uint32": {
        "encoding": "inplace",
        "label": "uint32",
        "numberOfBytes": "4"
      },
      "t_uint8": {
        "encoding": "inplace",
        "label": "uint8",
        "numberOfBytes": "1"
      }
    }
  }
}