{
  "address": "0x1aBda264e68a5e16549D42B8e5974435a3FdC0bA",
  "abi": [
    {
      "inputs": [],
      "name": "CheckpointUnorderedInsertion",
      "type": "error"
    },
    {
      "inputs": [],
      "name": "DelegatedCallsOnly",
      "type": "error"
    },
    {
      "inputs": [],
      "name": "ECDSAInvalidSignature",
      "type": "error"
    },
    {
      "inputs": [
        {
          "internalType": "uint256",
          "name": "length",
          "type": "uint256"
        }
      ],
      "name": "ECDSAInvalidSignatureLength",
      "type": "error"
    },
    {
      "inputs": [
        {
          "internalType": "bytes32",
          "name": "s",
          "type": "bytes32"
        }
      ],
      "name": "ECDSAInvalidSignatureS",
      "type": "error"
    },
    {
      "inputs": [
        {
          "internalType": "uint256",
          "name": "increasedSupply",
          "type": "uint256"
        },
        {
          "internalType": "uint256",
          "name": "cap",
          "type": "uint256"
        }
      ],
      "name": "ERC20ExceededCap",
      "type": "error"
    },
    {
      "inputs": [
        {
          "internalType": "uint256",
          "name": "increasedSupply",
          "type": "uint256"
        },
        {
          "internalType": "uint256",
          "name": "cap",
          "type": "uint256"
        }
      ],
      "name": "ERC20ExceededSafeSupply",
      "type": "error"
    },
    {
      "inputs": [
        {
          "internalType": "address",
          "name": "spender",
          "type": "address"
        },
        {
          "internalType": "uint256",
          "name": "allowance",
          "type": "uint256"
        },
        {
          "internalType": "uint256",
          "name": "needed",
          "type": "uint256"
        }
      ],
      "name": "ERC20InsufficientAllowance",
      "type": "error"
    },
    {
      "inputs": [
        {
          "internalType": "address",
          "name": "sender",
          "type": "address"
        },
        {
          "internalType": "uint256",
          "name": "balance",
          "type": "uint256"
        },
        {
          "internalType": "uint256",
          "name": "needed",
          "type": "uint256"
        }
      ],
      "name": "ERC20InsufficientBalance",
      "type": "error"
    },
    {
      "inputs": [
        {
          "internalType": "address",
          "name": "approver",
          "type": "address"
        }
      ],
      "name": "ERC20InvalidApprover",
      "type": "error"
    },
    {
      "inputs": [
        {
          "internalType": "uint256",
          "name": "cap",
          "type": "uint256"
        }
      ],
      "name": "ERC20InvalidCap",
      "type": "error"
    },
    {
      "inputs": [
        {
          "internalType": "address",
          "name": "receiver",
          "type": "address"
        }
      ],
      "name": "ERC20InvalidReceiver",
      "type": "error"
    },
    {
      "inputs": [
        {
          "internalType": "address",
          "name": "sender",
          "type": "address"
        }
      ],
      "name": "ERC20InvalidSender",
      "type": "error"
    },
    {
      "inputs": [
        {
          "internalType": "address",
          "name": "spender",
          "type": "address"
        }
      ],
      "name": "ERC20InvalidSpender",
      "type": "error"
    },
    {
      "inputs": [
        {
          "internalType": "uint256",
          "name": "deadline",
          "type": "uint256"
        }
      ],
      "name": "ERC2612ExpiredSignature",
      "type": "error"
    },
    {
      "inputs": [
        {
          "internalType": "address",
          "name": "signer",
          "type": "address"
        },
        {
          "internalType": "address",
          "name": "owner",
          "type": "address"
        }
      ],
      "name": "ERC2612InvalidSigner",
      "type": "error"
    },
    {
      "inputs": [
        {
          "internalType": "uint256",
          "name": "timepoint",
          "type": "uint256"
        },
        {
          "internalType": "uint48",
          "name": "clock",
          "type": "uint48"
        }
      ],
      "name": "ERC5805FutureLookup",
      "type": "error"
    },
    {
      "inputs": [],
      "name": "ERC6372InconsistentClock",
      "type": "error"
    },
    {
      "inputs": [
        {
          "internalType": "address",
          "name": "who",
          "type": "address"
        },
        {
          "internalType": "bytes32",
          "name": "role",
          "type": "bytes32"
        }
      ],
      "name": "HasNoRole",
      "type": "error"
    },
    {
      "inputs": [
        {
          "internalType": "address",
          "name": "account",
          "type": "address"
        },
        {
          "internalType": "uint256",
          "name": "currentNonce",
          "type": "uint256"
        }
      ],
      "name": "InvalidAccountNonce",
      "type": "error"
    },
    {
      "inputs": [],
      "name": "InvalidInitialization",
      "type": "error"
    },
    {
      "inputs": [],
      "name": "NotInitializing",
      "type": "error"
    },
    {
      "inputs": [
        {
          "internalType": "uint8",
          "name": "bits",
          "type": "uint8"
        },
        {
          "internalType": "uint256",
          "name": "value",
          "type": "uint256"
        }
      ],
      "name": "SafeCastOverflowedUintDowncast",
      "type": "error"
    },
    {
      "inputs": [
        {
          "internalType": "uint256",
          "name": "expiry",
          "type": "uint256"
        }
      ],
      "name": "VotesExpiredSignature",
      "type": "error"
    },
    {
      "anonymous": false,
      "inputs": [
        {
          "indexed": true,
          "internalType": "address",
          "name": "owner",
          "type": "address"
        },
        {
          "indexed": true,
          "internalType": "address",
          "name": "spender",
          "type": "address"
        },
        {
          "indexed": false,
          "internalType": "uint256",
          "name": "value",
          "type": "uint256"
        }
      ],
      "name": "Approval",
      "type": "event"
    },
    {
      "anonymous": false,
      "inputs": [
        {
          "indexed": true,
          "internalType": "address",
          "name": "delegator",
          "type": "address"
        },
        {
          "indexed": true,
          "internalType": "address",
          "name": "fromDelegate",
          "type": "address"
        },
        {
          "indexed": true,
          "internalType": "address",
          "name": "toDelegate",
          "type": "address"
        }
      ],
      "name": "DelegateChanged",
      "type": "event"
    },
    {
      "anonymous": false,
      "inputs": [
        {
          "indexed": true,
          "internalType": "address",
          "name": "delegate",
          "type": "address"
        },
        {
          "indexed": false,
          "internalType": "uint256",
          "name": "previousVotes",
          "type": "uint256"
        },
        {
          "indexed": false,
          "internalType": "uint256",
          "name": "newVotes",
          "type": "uint256"
        }
      ],
      "name": "DelegateVotesChanged",
      "type": "event"
    },
    {
      "anonymous": false,
      "inputs": [],
      "name": "EIP712DomainChanged",
      "type": "event"
    },
    {
      "anonymous": false,
      "inputs": [
        {
          "indexed": false,
          "internalType": "uint64",
          "name": "version",
          "type": "uint64"
        }
      ],
      "name": "Initialized",
      "type": "event"
    },
    {
      "anonymous": false,
      "inputs": [
        {
          "indexed": true,
          "internalType": "address",
          "name": "from",
          "type": "address"
        },
        {
          "indexed": true,
          "internalType": "address",
          "name": "to",
          "type": "address"
        },
        {
          "indexed": false,
          "internalType": "uint256",
          "name": "value",
          "type": "uint256"
        }
      ],
      "name": "Transfer",
      "type": "event"
    },
    {
      "inputs": [],
      "name": "CLOCK_MODE",
      "outputs": [
        {
          "internalType": "string",
          "name": "",
          "type": "string"
        }
      ],
      "stateMutability": "view",
      "type": "function"
    },
    {
      "inputs": [],
      "name": "DOMAIN_SEPARATOR",
      "outputs": [
        {
          "internalType": "bytes32",
          "name": "",
          "type": "bytes32"
        }
      ],
      "stateMutability": "view",
      "type": "function"
    },
    {
      "inputs": [
        {
          "internalType": "address",
          "name": "owner",
          "type": "address"
        },
        {
          "internalType": "address",
          "name": "spender",
          "type": "address"
        }
      ],
      "name": "allowance",
      "outputs": [
        {
          "internalType": "uint256",
          "name": "",
          "type": "uint256"
        }
      ],
      "stateMutability": "view",
      "type": "function"
    },
    {
      "inputs": [
        {
          "internalType": "address",
          "name": "spender",
          "type": "address"
        },
        {
          "internalType": "uint256",
          "name": "value",
          "type": "uint256"
        }
      ],
      "name": "approve",
      "outputs": [
        {
          "internalType": "bool",
          "name": "",
          "type": "bool"
        }
      ],
      "stateMutability": "nonpayable",
      "type": "function"
    },
    {
      "inputs": [
        {
          "internalType": "address",
          "name": "account",
          "type": "address"
        }
      ],
      "name": "balanceOf",
      "outputs": [
        {
          "internalType": "uint256",
          "name": "",
          "type": "uint256"
        }
      ],
      "stateMutability": "view",
      "type": "function"
    },
    {
      "inputs": [
        {
          "internalType": "address",
          "name": "account",
          "type": "address"
        },
        {
          "internalType": "uint256",
          "name": "amount",
          "type": "uint256"
        }
      ],
      "name": "burnFrom",
      "outputs": [],
      "stateMutability": "nonpayable",
      "type": "function"
    },
    {
      "inputs": [],
      "name": "cap",
      "outputs": [
        {
          "internalType": "uint256",
          "name": "",
          "type": "uint256"
        }
      ],
      "stateMutability": "view",
      "type": "function"
    },
    {
      "inputs": [
        {
          "internalType": "address",
          "name": "account",
          "type": "address"
        },
        {
          "internalType": "uint32",
          "name": "pos",
          "type": "uint32"
        }
      ],
      "name": "checkpoints",
      "outputs": [
        {
          "components": [
            {
              "internalType": "uint48",
              "name": "_key",
              "type": "uint48"
            },
            {
              "internalType": "uint208",
              "name": "_value",
              "type": "uint208"
            }
          ],
          "internalType": "struct Checkpoints.Checkpoint208",
          "name": "",
          "type": "tuple"
        }
      ],
      "stateMutability": "view",
      "type": "function"
    },
    {
      "inputs": [],
      "name": "clock",
      "outputs": [
        {
          "internalType": "uint48",
          "name": "",
          "type": "uint48"
        }
      ],
      "stateMutability": "view",
      "type": "function"
    },
    {
      "inputs": [],
      "name": "decimals",
      "outputs": [
        {
          "internalType": "uint8",
          "name": "",
          "type": "uint8"
        }
      ],
      "stateMutability": "view",
      "type": "function"
    },
    {
      "inputs": [
        {
          "internalType": "address",
          "name": "delegatee",
          "type": "address"
        }
      ],
      "name": "delegate",
      "outputs": [],
      "stateMutability": "nonpayable",
      "type": "function"
    },
    {
      "inputs": [
        {
          "internalType": "address",
          "name": "delegatee",
          "type": "address"
        },
        {
          "internalType": "uint256",
          "name": "nonce",
          "type": "uint256"
        },
        {
          "internalType": "uint256",
          "name": "expiry",
          "type": "uint256"
        },
        {
          "internalType": "uint8",
          "name": "v",
          "type": "uint8"
        },
        {
          "internalType": "bytes32",
          "name": "r",
          "type": "bytes32"
        },
        {
          "internalType": "bytes32",
          "name": "s",
          "type": "bytes32"
        }
      ],
      "name": "delegateBySig",
      "outputs": [],
      "stateMutability": "nonpayable",
      "type": "function"
    },
    {
      "inputs": [
        {
          "internalType": "address",
          "name": "delegatee",
          "type": "address"
        }
      ],
      "name": "delegateTo",
      "outputs": [],
      "stateMutability": "nonpayable",
      "type": "function"
    },
    {
      "inputs": [
        {
          "internalType": "address",
          "name": "account",
          "type": "address"
        }
      ],
      "name": "delegates",
      "outputs": [
        {
          "internalType": "address",
          "name": "",
          "type": "address"
        }
      ],
      "stateMutability": "view",
      "type": "function"
    },
    {
      "inputs": [],
      "name": "eip712Domain",
      "outputs": [
        {
          "internalType": "bytes1",
          "name": "fields",
          "type": "bytes1"
        },
        {
          "internalType": "string",
          "name": "name",
          "type": "string"
        },
        {
          "internalType": "string",
          "name": "version",
          "type": "string"
        },
        {
          "internalType": "uint256",
          "name": "chainId",
          "type": "uint256"
        },
        {
          "internalType": "address",
          "name": "verifyingContract",
          "type": "address"
        },
        {
          "internalType": "bytes32",
          "name": "salt",
          "type": "bytes32"
        },
        {
          "internalType": "uint256[]",
          "name": "extensions",
          "type": "uint256[]"
        }
      ],
      "stateMutability": "view",
      "type": "function"
    },
    {
      "inputs": [],
      "name": "enablePolitics",
      "outputs": [],
      "stateMutability": "nonpayable",
      "type": "function"
    },
    {
      "inputs": [
        {
          "internalType": "address",
          "name": "account",
          "type": "address"
        }
      ],
      "name": "getDelegatee",
      "outputs": [
        {
          "internalType": "address",
          "name": "",
          "type": "address"
        }
      ],
      "stateMutability": "view",
      "type": "function"
    },
    {
      "inputs": [
        {
          "internalType": "uint256",
          "name": "timepoint",
          "type": "uint256"
        }
      ],
      "name": "getPastTotalSupply",
      "outputs": [
        {
          "internalType": "uint256",
          "name": "",
          "type": "uint256"
        }
      ],
      "stateMutability": "view",
      "type": "function"
    },
    {
      "inputs": [
        {
          "internalType": "address",
          "name": "account",
          "type": "address"
        },
        {
          "internalType": "uint256",
          "name": "timepoint",
          "type": "uint256"
        }
      ],
      "name": "getPastVotes",
      "outputs": [
        {
          "internalType": "uint256",
          "name": "",
          "type": "uint256"
        }
      ],
      "stateMutability": "view",
      "type": "function"
    },
    {
      "inputs": [
        {
          "internalType": "address",
          "name": "account",
          "type": "address"
        },
        {
          "internalType": "uint256",
          "name": "timepoint",
          "type": "uint256"
        }
      ],
      "name": "getPastVotingPower",
      "outputs": [
        {
          "internalType": "uint256",
          "name": "",
          "type": "uint256"
        }
      ],
      "stateMutability": "view",
      "type": "function"
    },
    {
      "inputs": [
        {
          "internalType": "address",
          "name": "account",
          "type": "address"
        }
      ],
      "name": "getVotes",
      "outputs": [
        {
          "internalType": "uint256",
          "name": "",
          "type": "uint256"
        }
      ],
      "stateMutability": "view",
      "type": "function"
    },
    {
      "inputs": [
        {
          "internalType": "address",
          "name": "account",
          "type": "address"
        }
      ],
      "name": "getVotingPower",
      "outputs": [
        {
          "internalType": "uint256",
          "name": "",
          "type": "uint256"
        }
      ],
      "stateMutability": "view",
      "type": "function"
    },
    {
      "inputs": [
        {
          "internalType": "address",
          "name": "account",
          "type": "address"
        },
        {
          "internalType": "uint256",
          "name": "amount",
          "type": "uint256"
        }
      ],
      "name": "mintTo",
      "outputs": [],
      "stateMutability": "nonpayable",
      "type": "function"
    },
    {
      "inputs": [],
      "name": "name",
      "outputs": [
        {
          "internalType": "string",
          "name": "",
          "type": "string"
        }
      ],
      "stateMutability": "view",
      "type": "function"
    },
    {
      "inputs": [
        {
          "internalType": "address",
          "name": "owner",
          "type": "address"
        }
      ],
      "name": "nonces",
      "outputs": [
        {
          "internalType": "uint256",
          "name": "",
          "type": "uint256"
        }
      ],
      "stateMutability": "view",
      "type": "function"
    },
    {
      "inputs": [
        {
          "internalType": "address",
          "name": "account",
          "type": "address"
        }
      ],
      "name": "numCheckpoints",
      "outputs": [
        {
          "internalType": "uint32",
          "name": "",
          "type": "uint32"
        }
      ],
      "stateMutability": "view",
      "type": "function"
    },
    {
      "inputs": [
        {
          "internalType": "address",
          "name": "owner",
          "type": "address"
        },
        {
          "internalType": "address",
          "name": "spender",
          "type": "address"
        },
        {
          "internalType": "uint256",
          "name": "value",
          "type": "uint256"
        },
        {
          "internalType": "uint256",
          "name": "deadline",
          "type": "uint256"
        },
        {
          "internalType": "uint8",
          "name": "v",
          "type": "uint8"
        },
        {
          "internalType": "bytes32",
          "name": "r",
          "type": "bytes32"
        },
        {
          "internalType": "bytes32",
          "name": "s",
          "type": "bytes32"
        }
      ],
      "name": "permit",
      "outputs": [],
      "stateMutability": "nonpayable",
      "type": "function"
    },
    {
      "inputs": [],
      "name": "setupTokenInfo",
      "outputs": [],
      "stateMutability": "nonpayable",
      "type": "function"
    },
    {
      "inputs": [],
      "name": "symbol",
      "outputs": [
        {
          "internalType": "string",
          "name": "",
          "type": "string"
        }
      ],
      "stateMutability": "view",
      "type": "function"
    },
    {
      "inputs": [],
      "name": "totalSupply",
      "outputs": [
        {
          "internalType": "uint256",
          "name": "",
          "type": "uint256"
        }
      ],
      "stateMutability": "view",
      "type": "function"
    },
    {
      "inputs": [
        {
          "internalType": "address",
          "name": "to",
          "type": "address"
        },
        {
          "internalType": "uint256",
          "name": "value",
          "type": "uint256"
        }
      ],
      "name": "transfer",
      "outputs": [
        {
          "internalType": "bool",
          "name": "",
          "type": "bool"
        }
      ],
      "stateMutability": "nonpayable",
      "type": "function"
    },
    {
      "inputs": [
        {
          "internalType": "address",
          "name": "from",
          "type": "address"
        },
        {
          "internalType": "address",
          "name": "to",
          "type": "address"
        },
        {
          "internalType": "uint256",
          "name": "value",
          "type": "uint256"
        }
      ],
      "name": "transferFrom",
      "outputs": [
        {
          "internalType": "bool",
          "name": "",
          "type": "bool"
        }
      ],
      "stateMutability": "nonpayable",
      "type": "function"
    }
  ],
  "transactionHash": "0xb21ae6b25ce5ce2130515999b04bc29022c60d9fffc3c38c688e9542a5eb1e28",
  "args": [],
  "numDeployments": 1,
  "solcInputHash": "8fc5e0e21590d56561f202f7e414b5a0",
  "bytecode": "0x60a080604052346100315730608052612e419081610036823960805181818161066501528181610a6101526114b50152f35b5f80fdfe60806040526004361015610011575f80fd5b5f3560e01c806306fdde0314610200578063095ea7b3146101fb57806318160ddd146101f657806323b872dd146101f1578063313ce567146101ec578063355274ea146101e75780633644e515146101e25780633a46b1a814610197578063449a52f8146101dd5780634bf5d7e9146101d8578063587cde1e146101a65780635c19a95c1461019c5780636d63b6b7146101d35780636fcfff45146101ce57806370a08231146101c957806379cc6790146101c45780637ecebe00146101bf57806384b0196e146101ba5780638e539e8c146101b557806391ddadf4146101b057806395d89b41146101ab5780639ab24eb0146101925780639b4e735f146101a6578063a9059cbb146101a1578063ac637c7a1461019c578063b0ca253e14610197578063bb4d443614610192578063c3cda5201461018d578063d505accf14610188578063dd62ed3e14610183578063f1127ed81461017e5763f7f9375c14610179575f80fd5b61117c565b6110f5565b6110bd565b610f8a565b610ec1565b610e44565b61051b565b61086a565b610e7b565b610825565b610db2565b610d87565b610cbd565b610c13565b610b4b565b610a27565b610a04565b6109aa565b61088c565b610794565b61062a565b6104f9565b6104d0565b6104b5565b6103b2565b610389565b610358565b610257565b91908251928382525f5b84811061022f575050825f602080949584010152601f8019910116010190565b60208183018101518483018201520161020f565b906020610254928181520190610205565b90565b34610328575f8060031936011261032557604051815f80516020612bec8339815191528054610285816112ff565b808552916001918083169081156102fa57506001146102bf575b6102bb856102af818903826111e5565b60405191829182610243565b0390f35b835260208084209095505b8284106102e757505050816102bb936102af92820101935f61029f565b80548585018701529285019281016102ca565b90506102bb96506102af9450602092508593915060ff191682840152151560051b820101935f61029f565b80fd5b5f80fd5b600435906001600160a01b038216820361032857565b602435906001600160a01b038216820361032857565b346103285760403660031901126103285761037e61037461032c565b6024359033611591565b602060405160018152f35b34610328575f3660031901126103285760205f80516020612c6c83398151915254604051908152f35b34610328576060366003190112610328576103cb61032c565b6103d3610342565b7fe18a0dd047e211013879d9db9f83da4e8317b6619074f27ec4f3662c8720d9f75f525f80516020612d6c8339815191526020526044359060ff610437337f526f23a5f11c3970a6c81928ab21a7b4434f10271d4b194beab07fbe275e24f86112d2565b541615610454575b61044892611493565b60405160018152602090f35b610466336104618561123d565b6112d2565b549260018401610478575b925061043f565b8284106104945761048f8361044895033383611619565b610471565b604051637dc7a0d960e11b8152806104b18587336004850161240f565b0390fd5b34610328575f36600319011261032857602060405160128152f35b34610328575f3660031901126103285760205f80516020612bac83398151915254604051908152f35b34610328575f3660031901126103285760206105136116c3565b604051908152f35b346103285760403660031901126103285761053461032c565b6024359061054143611953565b9065ffffffffffff9182811684101561060c575061056161056791611275565b92611953565b8254905f9082600581116105be575b50610582935084611c47565b5f9190806105a35750505060205f5b6040516001600160d01b039091168152f35b6020926105b08492611999565b92815220015460301c610591565b90926105c9826119e0565b82039182116106075761058294868452808360208620015416908516105f146105f55750915b5f610576565b929150610601906119a7565b906105ef565b611985565b604051637669fc0f60e11b81529081906104b19086600484016112e7565b34610328576040806003193601126103285761064461032c565b6024359061065133612329565b6001600160a01b0381811690811561077d577f00000000000000000000000000000000000000000000000000000000000000001630148015610764575b610753575f80516020612c6c833981519152906106b46106af8584546119b5565b611580565b6106bd836112ad565b80548501905584518481525f905f80516020612d0c83398151915290602090a35f80516020612bac8339815191525490549080821161073757506001600160d01b0381116107115761070f8383612942565b005b8351630e58ae9360e11b815260048101919091526001600160d01b036024820152604490fd5b845163279e7e1560e21b81529182916104b191600484016124e9565b8351639f357e6b60e01b8152600490fd5b5060ff5f80516020612d2c83398151915254161561068e565b845163ec442f0560e01b81525f6004820152602490fd5b34610328575f366003190112610328576107ad43611953565b65ffffffffffff806107be43611953565b16911603610813576102bb6040516107d5816111aa565b601d81527f6d6f64653d626c6f636b6e756d6265722666726f6d3d64656661756c740000006020820152604051918291602083526020830190610205565b6040516301bfc1c560e61b8152600490fd5b346103285760203660031901126103285760206001600160a01b038061084961032c565b165f525f80516020612bcc833981519152825260405f205416604051908152f35b346103285760203660031901126103285761070f61088661032c565b3361242d565b34610328575f366003190112610328575f80516020612d8c83398151915254604081901c60ff1615906001600160401b0316801590816109a2575b6001149081610998575b15908161098f575b5061097d575f80516020612d8c83398151915280546001600160401b031916600117905580610959575b61090b611ca7565b61091157005b5f80516020612d8c833981519152805460ff60401b19169055604051600181527fc7f505b2f371ae2175ee4913f4499e1f2633a7b5936321eed1cdaeb6115181d290602090a1005b5f80516020612d8c833981519152805460ff60401b1916600160401b179055610903565b60405163f92ee8a960e01b8152600490fd5b9050155f6108d9565b303b1591506108d1565b8291506108c7565b34610328576020366003190112610328576109cb6109c661032c565b611275565b5463ffffffff908181116109e55760209160405191168152f35b604490604051906306dfcc6560e41b8252602060048301526024820152fd5b34610328576020366003190112610328576020610513610a2261032c565b61146d565b3461032857604036600319011261032857610a4061032c565b602435610a4c33612329565b6001600160a01b0382811692908315610b33577f00000000000000000000000000000000000000000000000000000000000000001630148015610b1a575b610b0857610a97816112ad565b5492828410610ae9575f908361070f9503610ab1846112ad565b55610acb845f80516020612c6c8339815191525403611580565b6040518481525f80516020612d0c83398151915290602090a3612a07565b50906104b19060405193849363391434e360e21b85526004850161240f565b604051639f357e6b60e01b8152600490fd5b5060ff5f80516020612d2c833981519152541615610a8a565b604051634b637e8f60e11b81525f6004820152602490fd5b34610328576020366003190112610328576001600160a01b03610b6c61032c565b165f525f80516020612ccc833981519152602052602060405f2054604051908152f35b91610bc290949194600f60f81b8452610bb460209660e08887015260e0860190610205565b908482036040860152610205565b92606083015260018060a01b031660808201525f60a082015260c08183039101528180845192838152019301915f5b828110610bff575050505090565b835185529381019392810192600101610bf1565b34610328575f366003190112610328575f80516020612cac833981519152541580610ca7575b15610c6a57610c46611337565b610c4e6113e4565b906102bb610c5a61175d565b6040519384933091469186610b8f565b60405162461bcd60e51b81526020600482015260156024820152741152540dcc4c8e88155b9a5b9a5d1a585b1a5e9959605a1b6044820152606490fd5b505f80516020612dcc8339815191525415610c39565b3461032857602036600319011261032857600435610cda43611953565b9065ffffffffffff91828116821015610d6a5750610cf790611953565b905f80516020612cec833981519152918254905f908260058111610d21575b506105829350611bd5565b9092610d2c826119e0565b82039182116106075761058294868452808360208620015416908516105f14610d585750915b5f610d16565b929150610d64906119a7565b90610d52565b604051637669fc0f60e11b81529182916104b191600484016112e7565b34610328575f366003190112610328576020610da243611953565b65ffffffffffff60405191168152f35b34610328575f8060031936011261032557604051815f80516020612c4c8339815191528054610de0816112ff565b808552916001918083169081156102fa5750600114610e09576102bb856102af818903826111e5565b835260208084209095505b828410610e3157505050816102bb936102af92820101935f61029f565b8054858501870152928501928101610e14565b346103285760203660031901126103285760206001600160d01b03610e72610e6d6109c661032c565b611b69565b16604051908152f35b346103285760403660031901126103285761037e610e9761032c565b6024359033611493565b6064359060ff8216820361032857565b6084359060ff8216820361032857565b346103285760c036600319011261032857610eda61032c565b60443590602435610ee9610ea1565b834211610f7157610f6561070f94610f6c926040519060208201927fe48329057bfd03d55e49b547132e39cffd9c1820ad7b9d4c5307691425d15adf845260018060a01b0388166040840152866060840152608083015260808252610f4d826111ca565b610f6060a4359360843593519020611737565b61180c565b9182611686565b61242d565b604051632341d78760e11b815260048101859052602490fd5b346103285760e036600319011261032857610fa361032c565b610fab610342565b60443590606435610fba610eb1565b8142116110a4579061103c61105d9261104a610fd588611658565b604080517f6e71edae12b1b97f4d1f60370fef10105fa2faae0126114a169c64845d6126c9602082019081526001600160a01b03808d16938301939093529189166060820152608081018a905260a081019290925260c082019590955292839060e0820190565b03601f1981018452836111e5565b610f6060c4359360a43593519020611737565b6001600160a01b038481169082160361107a575061070f92611591565b6040516325c0072360e11b81526001600160a01b0391821660048201529084166024820152604490fd5b60405163313c898160e11b815260048101839052602490fd5b346103285760403660031901126103285760206110ec6110db61032c565b6104616110e6610342565b9161123d565b54604051908152f35b346103285760403660031901126103285761110e61032c565b60243563ffffffff811681036103285761115061115691611142604094611133611640565b5061113c611640565b50611275565b61114a611640565b50611b79565b50611bb1565b8151815165ffffffffffff1681526020918201516001600160d01b031691810191909152f35b34610328575f3660031901126103285761070f333361242d565b634e487b7160e01b5f52604160045260245ffd5b604081019081106001600160401b038211176111c557604052565b611196565b60a081019081106001600160401b038211176111c557604052565b601f909101601f19168101906001600160401b038211908210176111c557604052565b60405190611215826111aa565b565b60405190611224826111aa565b60038252565b60405190611237826111aa565b60018252565b6001600160a01b03165f9081527f52c63247e1f47db19d5ce0460030c497f067ca4cebf71ba98eeadabe20bace016020526040902090565b6001600160a01b03165f9081527fe8b26c30fad74198956032a3533d903385d56dd795af560196f9c78d4af40d016020526040902090565b6001600160a01b03165f9081525f80516020612c0c8339815191526020526040902090565b9060018060a01b03165f5260205260405f2090565b90815265ffffffffffff909116602082015260400190565b90600182811c9216801561132d575b602083101461131957565b634e487b7160e01b5f52602260045260245ffd5b91607f169161130e565b604051905f825f80516020612c2c83398151915291825492611358846112ff565b9081845260019485811690815f146113c15750600114611381575b5050611215925003836111e5565b909391505f52602090815f20935f915b8183106113a957505061121593508201015f80611373565b85548884018501529485019487945091830191611391565b91505061121594506020925060ff191682840152151560051b8201015f80611373565b604051905f825f80516020612c8c83398151915291825492611405846112ff565b9081845260019485811690815f146113c1575060011461142d575050611215925003836111e5565b909391505f52602090815f20935f915b81831061145557505061121593508201015f80611373565b8554888401850152948501948794509183019161143d565b6001600160a01b03165f9081525f80516020612c0c833981519152602052604090205490565b6001600160a01b0380821694939291908515610b3357808316908115611568577f0000000000000000000000000000000000000000000000000000000000000000163014801561154f575b610b08576114eb826112ad565b54958487106115325784611215969703611504846112ad565b5561150e846112ad565b8054860190556040518581525f80516020612d0c83398151915290602090a3612ad2565b60405163391434e360e21b8152806104b1878a876004850161240f565b5060ff5f80516020612d2c8339815191525416156114de565b60405163ec442f0560e01b81525f6004820152602490fd5b5f80516020612c6c83398151915255565b6001600160a01b0380821692919083156116015782169384156115e957806115df7f8c5be1e5ebec7d5bd14f71427d1e84f3dd0314c0f7b2291e5b200ac8c7c3b9259461046160209561123d565b55604051908152a3565b604051634a1406b160e11b81525f6004820152602490fd5b60405163e602df0560e01b81525f6004820152602490fd5b906001600160a01b0380831615611601578116156115e95761046161163d9261123d565b55565b6040519061164d826111aa565b5f6020838281520152565b6001600160a01b03165f9081525f80516020612ccc8339815191526020526040902080546001810190915590565b9061169082611658565b80910361169b575050565b6040516301d4b62360e61b81526001600160a01b039092166004830152602482015260449150fd5b6116cb611783565b6116d36117da565b6040519060208201927f8b73c3c69bb8fe3d512ecc4cf759cc79239f7b179b0ffacaa9a75d522b39400f8452604083015260608201524660808201523060a082015260a0815260c0810181811060018060401b038211176111c55760405251902090565b6042906117426116c3565b906040519161190160f01b8352600283015260228201522090565b604051602081016001600160401b038111828210176111c5576040525f8152905f368137565b61178b611337565b805190811561179b576020012090565b50505f80516020612cac8339815191525480156117b55790565b507fc5d2460186f7233c927e7db2dcc703c0e500b653ca82273b7bfad8045d85a47090565b6117e26113e4565b80519081156117f2576020012090565b50505f80516020612dcc8339815191525480156117b55790565b91610254939161181b93611824565b909291926118c6565b91906fa2a8918ca85bafe22016d0b997e4df60600160ff1b03841161189d57926020929160ff6080956040519485521684840152604083015260608201525f92839182805260015afa156118915780516001600160a01b0381161561188857918190565b50809160019190565b604051903d90823e3d90fd5b5050505f9160039190565b600411156118b257565b634e487b7160e01b5f52602160045260245ffd5b6118cf816118a8565b806118d8575050565b6118e1816118a8565b600181036118fb5760405163f645eedf60e01b8152600490fd5b611904816118a8565b600281036119255760405163fce698f760e01b815260048101839052602490fd5b806119316003926118a8565b146119395750565b6040516335e2f38360e21b81526004810191909152602490fd5b65ffffffffffff90818111611966571690565b604490604051906306dfcc6560e41b8252603060048301526024820152fd5b634e487b7160e01b5f52601160045260245ffd5b5f1981019190821161060757565b906001820180921161060757565b9190820180921161060757565b81156119cc570490565b634e487b7160e01b5f52601260045260245ffd5b8015611b195780611ab2611aab611aa1611a97611a8d611a83611a79611a6f60016102549a5f908b60801c80611b0d575b508060401c80611b00575b508060201c80611af3575b508060101c80611ae6575b508060081c80611ad9575b508060041c80611acc575b508060021c80611abf575b50821c611ab8575b811c1b611a68818b6119c2565b0160011c90565b611a68818a6119c2565b611a6881896119c2565b611a6881886119c2565b611a6881876119c2565b611a6881866119c2565b611a6881856119c2565b80926119c2565b90611b1e565b8101611a5b565b600291509101905f611a53565b600491509101905f611a48565b600891509101905f611a3d565b601091509101905f611a32565b602091509101905f611a27565b604091509101905f611a1c565b9150506080905f611a11565b505f90565b9080821015611b2b575090565b905090565b5f80516020612cec83398151915280545f9181611b4e575050505f90565b5f199282848101116106075760209181522001015460301c90565b80545f9181611b4e575050505f90565b8054821015611b8e575f5260205f2001905f90565b634e487b7160e01b5f52603260045260245ffd5b6001600160d01b039091169052565b90604051611bbe816111aa565b915465ffffffffffff8116835260301c6020830152565b905b828110611be357505090565b90918082169080831860011c8201809211610607575f80516020612cec8339815191525f525f80516020612dac83398151915282015465ffffffffffff9081169085161015611c355750915b90611bd7565b929150611c41906119a7565b90611c2f565b91905b838210611c575750505090565b9091928083169080841860011c8201809211610607575f8581526020902082015465ffffffffffff9081169084161015611c955750925b9190611c4a565b939250611ca1906119a7565b91611c8e565b611cb033612329565b611cb8611e04565b90611cc1611217565b6020624c435360e81b81830152611cd6611e2b565b611cde611e2b565b83516001600160401b0381116111c5575f80516020612bec83398151915291611d1082611d0b85546112ff565b611e59565b80601f8311600114611d6e57508190611d4395965f92611d63575b50508160011b915f199060031b1c1916179055611fd5565b611d4b6121a8565b611d5b611d56611e04565b6121d5565b611215611e2b565b015190505f80611d2b565b5f80516020612bec8339815191525f52601f198316969091907f2ae08a8e29253f69ac5d979a101956ab8f8d9d7ded63fa7a83b16fc47648eab0925f905b898210611dec57505090839291600194611d43989910611dd4575b505050811b019055611fd5565b01515f1960f88460031b161c191690555f8080611dc7565b80600185968294968601518155019501930190611dac565b60405190611e11826111aa565b600b82526a2637b1bab9902a37b5b2b760a91b6020830152565b60ff5f80516020612d8c8339815191525460401c1615611e4757565b604051631afcd79f60e31b8152600490fd5b601f8111611e65575050565b5f905f80516020612bec833981519152825260208220906020601f850160051c83019410611eae575b601f0160051c01915b828110611ea357505050565b818155600101611e97565b9092508290611e8e565b601f8111611ec4575050565b5f905f80516020612c2c833981519152825260208220906020601f850160051c83019410611f0d575b601f0160051c01915b828110611f0257505050565b818155600101611ef6565b9092508290611eed565b601f8111611f23575050565b5f905f80516020612c4c833981519152825260208220906020601f850160051c83019410611f6c575b601f0160051c01915b828110611f6157505050565b818155600101611f55565b9092508290611f4c565b601f8111611f82575050565b5f905f80516020612c8c833981519152825260208220906020601f850160051c83019410611fcb575b601f0160051c01915b828110611fc057505050565b818155600101611fb4565b9092508290611fab565b80519091906001600160401b0381116111c5575f80516020612c4c8339815191529061200a8161200584546112ff565b611f17565b602080601f83116001146120445750819293945f92612039575b50508160011b915f199060031b1c1916179055565b015190505f80612024565b5f80516020612c4c8339815191525f52601f198316959091907f46a2803e59a4de4e7a4c574b1243f25977ac4c77d5a1a4a609b5394cebb4a2aa925f905b8882106120b9575050836001959697106120a1575b505050811b019055565b01515f1960f88460031b161c191690555f8080612097565b80600185968294968601518155019501930190612082565b80519091906001600160401b0381116111c5575f80516020612c8c833981519152906121068161210184546112ff565b611f76565b602080601f83116001146121345750819293945f926120395750508160011b915f199060031b1c1916179055565b5f80516020612c8c8339815191525f52601f198316959091907f5f9ce34815f8e11431c7bb75a8e6886a91478f7ffc1dbb0a98dc240fddd76b75925f905b888210612190575050836001959697106120a157505050811b019055565b80600185968294968601518155019501930190612172565b6121b0611e2b565b6121b8611e2b565b6a0c685fa11e01ec6f0000005f80516020612bac83398151915255565b906121de611e2b565b6121e661122a565b6020603160f81b818301526121f9611e2b565b83516001600160401b0381116111c5575f80516020612c2c8339815191529161222b8261222685546112ff565b611eb8565b80601f83116001146122935750819061225e95965f92612288575b50508160011b915f199060031b1c19161790556120d1565b6122735f5f80516020612cac83398151915255565b6112155f5f80516020612dcc83398151915255565b015190505f80612246565b5f80516020612c2c8339815191525f52601f198316969091907f42ad5d3e1f2e6e70edcf6d991b8a3023d3fca8047a131592f9edb9fd9b89d57d925f905b8982106123115750509083929160019461225e9899106122f9575b505050811b0190556120d1565b01515f1960f88460031b161c191690555f80806122ec565b806001859682949686015181550195019301906122d1565b6001600160a01b031630810361233c5750565b60449060405190632bc93d7960e21b825260048201527fddd94edc7da5bca8f576c77964a4737ba5172c728e2d539e672f0229d1e9ec2d6024820152fd5b7f1f5a72ff210e1987f45ef6999da4be546bb5ea71f60de5cbc44d2ddb6c29d7165f8190525f80516020612d6c83398151915260205260ff6123dc837fdaf4e0039e06efc15f0aa13f58517bb65a6ff7e78ed13e11b7ffe600779416536112d2565b5416156123e7575050565b604051632bc93d7960e21b81526001600160a01b039092166004830152602482015260449150fd5b604091949392606082019560018060a01b0316825260208201520152565b6112159160ff7f432da9d83f78bf82285a328b443d450767ef001f46d2f35595c0324c1126b96754166124d2575b6001600160a01b038281165f8181525f80516020612bcc8339815191526020526040812080548585166001600160a01b031982168117909255909316946124cc93909290918691907f3134e8a2e6d97e929a7e54011ea5485d7d196dd5f0ba4d4ef95803e8e3fc257f9080a461146d565b916124fa565b6124db8261237a565b6124e48161237a565b61245b565b908152602081019190915260400190565b6001600160a01b038083169392919081169081851415806125fd575b612522575b5050505050565b81612589575b505082612537575b808061251b565b5f80516020612dec8339815191529161255b61255561256193611275565b9161263c565b90612606565b60405191829161257e916001600160d01b039182169116836124e9565b0390a25f8080612530565b61259290611275565b61259b8461263c565b6125a443611953565b6001600160d01b039182806125b886611b69565b169116900392828411610607575f80516020612dec833981519152936125f3926125e19261286d565b919083604051948594169116836124e9565b0390a25f80612528565b50831515612516565b9061261043611953565b6001600160d01b0391828061262486611b69565b16911601918211610607576126389261286d565b9091565b6001600160d01b0390818111612650571690565b604490604051906306dfcc6560e41b825260d060048301526024820152fd5b9065ffffffffffff82549181199060301b169116179055565b5f80516020612cec833981519152908154600160401b8110156111c55760018101808455811015611b8e57611215925f5260205f20019065ffffffffffff81511665ffffffffffff19835416178255602060018060d01b03910151169061266f565b8054600160401b8110156111c55761270791600182018155611b79565b61273a578165ffffffffffff61121593511665ffffffffffff19835416178255602060018060d01b03910151169061266f565b634e487b7160e01b5f525f60045260245ffd5b5f80516020612cec8339815191525491929190811561284b5761279c61279761277584611999565b5f80516020612cec8339815191525f525f80516020612dac8339815191520190565b611bb1565b805165ffffffffffff838116949116841061283957856020936127ff956127d76127cc865165ffffffffffff1690565b65ffffffffffff1690565b0361280357506127ec6127756127f193611999565b61266f565b01516001600160d01b031690565b9190565b90506128349150612823612815611208565b65ffffffffffff9092168252565b61282f87858301611ba2565b612688565b6127f1565b604051632520601d60e01b8152600490fd5b612868915061285b612815611208565b61282f8460208301611ba2565b5f9190565b8054929392919082156129255761289461279761288985611999565b835f5260205f200190565b906128a5825165ffffffffffff1690565b65ffffffffffff84811691168110612839576127ff9460209488926128d36127cc875165ffffffffffff1690565b036128f457506127f1926128e96127ec92611999565b905f5260205f200190565b91505061283491612914612906611208565b65ffffffffffff9093168352565b61292088868401611ba2565b6126ea565b6128689250612935612906611208565b6129208560208401611ba2565b9061294c8161263c565b9161295643611953565b6001600160d01b03938480612969611b30565b169116018481116106075761297d9161274d565b50506001600160a01b039081169081156129ca575b5f80516020612bcc8339815191526020525f80516020612d4c833981519152545f9283526040909220546112159450811691166124fa565b6129d38361263c565b6129dc43611953565b9085806129e7611b30565b16911690039485116106075761121594612a009161274d565b5050612992565b6001600160a01b0390811691908215612a91575b612a248261263c565b92612a2e43611953565b6001600160d01b03948580612a41611b30565b16911690039485116106075761121594612a5a9161274d565b50505f9081525f80516020612bcc83398151915260205260408120549080525f80516020612d4c83398151915254821691166124fa565b612a9a8261263c565b612aa343611953565b906001600160d01b03908180612ab7611b30565b1691160190811161060757612acb9161274d565b5050612a1b565b6001600160a01b03908116929181908415612b66575b16908115612b1e575b611215935f525f80516020612bcc8339815191526020528060405f205416915f5260405f205416906124fa565b612b278361263c565b93612b3143611953565b6001600160d01b03958680612b44611b30565b16911690039586116106075761121595612b5d9161274d565b50509350612af1565b9050612b718361263c565b90612b7b43611953565b6001600160d01b03928380612b8e611b30565b16911601928311610607578392612ba49161274d565b5050612ae856fe0f070392f17d5f958cc1ac31867dabecfc5c9758b4a419a200803226d7155d00e8b26c30fad74198956032a3533d903385d56dd795af560196f9c78d4af40d0052c63247e1f47db19d5ce0460030c497f067ca4cebf71ba98eeadabe20bace0352c63247e1f47db19d5ce0460030c497f067ca4cebf71ba98eeadabe20bace00a16a46d94261c7517cc8ff89f61c0ce93598e3c849801011dee649a6a557d10252c63247e1f47db19d5ce0460030c497f067ca4cebf71ba98eeadabe20bace0452c63247e1f47db19d5ce0460030c497f067ca4cebf71ba98eeadabe20bace02a16a46d94261c7517cc8ff89f61c0ce93598e3c849801011dee649a6a557d103a16a46d94261c7517cc8ff89f61c0ce93598e3c849801011dee649a6a557d1005ab42ced628888259c08ac98db1eb0cf702fc1501344311d8b100cd1bfe4bb00e8b26c30fad74198956032a3533d903385d56dd795af560196f9c78d4af40d02ddf252ad1be2c89b69c2b068fc378daa952ba7f163c4a11628f55a4df523b3ef9f1709bc5ab0578be51bb81e11b02cdd9c21aa603d7325a8a7551bbd5685a005d4fb29e10204005f1a39963c6862b79a755e22f0177c53f05cdc3786c702f974256352104e666e6cce09c45a35c339c150e1991724469c7d87b784a284535e44f0c57e16840df040f15088dc2f81fe391c3923bec73e23a9662efc9c229c6a0088c46c62109817164d0ae1873830d4299a82e5daf552a3d8e989b27638fcf748a16a46d94261c7517cc8ff89f61c0ce93598e3c849801011dee649a6a557d101dec2bacdd2f05b59de34da9b523dff8be42e5e38e818c82fdb0bae774387a724a2646970667358221220e34953fcf45ed47ba4278d929084234f39b0d19d3f8db1e5b5b1ad917bd3efa164736f6c63430008140033",
  "libraries": [
    "LTLib",
    "InitializerLib",
    "PausabilityLib",
    "RolesManagementLib",
    "AutocracyLib"
  ],
  "devdoc": {
    "errors": {
      "CheckpointUnorderedInsertion()": [
        {
          "details": "A value was attempted to be inserted on a past checkpoint."
        }
      ],
      "ECDSAInvalidSignature()": [
        {
          "details": "The signature derives the `address(0)`."
        }
      ],
      "ECDSAInvalidSignatureLength(uint256)": [
        {
          "details": "The signature has an invalid length."
        }
      ],
      "ECDSAInvalidSignatureS(bytes32)": [
        {
          "details": "The signature has an S value that is in the upper half order."
        }
      ],
      "ERC20ExceededCap(uint256,uint256)": [
        {
          "details": "Total supply cap has been exceeded."
        }
      ],
      "ERC20ExceededSafeSupply(uint256,uint256)": [
        {
          "details": "Total supply cap has been exceeded, introducing a risk of votes overflowing."
        }
      ],
      "ERC20InsufficientAllowance(address,uint256,uint256)": [
        {
          "details": "Indicates a failure with the `spender`s `allowance`. Used in transfers.",
          "params": {
            "allowance": "Amount of tokens a `spender` is allowed to operate with.",
            "needed": "Minimum amount required to perform a transfer.",
            "spender": "Address that may be allowed to operate on tokens without being their owner."
          }
        }
      ],
      "ERC20InsufficientBalance(address,uint256,uint256)": [
        {
          "details": "Indicates an error related to the current `balance` of a `sender`. Used in transfers.",
          "params": {
            "balance": "Current balance for the interacting account.",
            "needed": "Minimum amount required to perform a transfer.",
            "sender": "Address whose tokens are being transferred."
          }
        }
      ],
      "ERC20InvalidApprover(address)": [
        {
          "details": "Indicates a failure with the `approver` of a token to be approved. Used in approvals.",
          "params": {
            "approver": "Address initiating an approval operation."
          }
        }
      ],
      "ERC20InvalidCap(uint256)": [
        {
          "details": "The supplied cap is not a valid cap."
        }
      ],
      "ERC20InvalidReceiver(address)": [
        {
          "details": "Indicates a failure with the token `receiver`. Used in transfers.",
          "params": {
            "receiver": "Address to which tokens are being transferred."
          }
        }
      ],
      "ERC20InvalidSender(address)": [
        {
          "details": "Indicates a failure with the token `sender`. Used in transfers.",
          "params": {
            "sender": "Address whose tokens are being transferred."
          }
        }
      ],
      "ERC20InvalidSpender(address)": [
        {
          "details": "Indicates a failure with the `spender` to be approved. Used in approvals.",
          "params": {
            "spender": "Address that may be allowed to operate on tokens without being their owner."
          }
        }
      ],
      "ERC2612ExpiredSignature(uint256)": [
        {
          "details": "Permit deadline has expired."
        }
      ],
      "ERC2612InvalidSigner(address,address)": [
        {
          "details": "Mismatched signature."
        }
      ],
      "ERC5805FutureLookup(uint256,uint48)": [
        {
          "details": "Lookup to future votes is not available."
        }
      ],
      "ERC6372InconsistentClock()": [
        {
          "details": "The clock was incorrectly modified."
        }
      ],
      "InvalidAccountNonce(address,uint256)": [
        {
          "details": "The nonce used for an `account` is not the expected current nonce."
        }
      ],
      "InvalidInitialization()": [
        {
          "details": "The contract is already initialized."
        }
      ],
      "NotInitializing()": [
        {
          "details": "The contract is not initializing."
        }
      ],
      "SafeCastOverflowedUintDowncast(uint8,uint256)": [
        {
          "details": "Value doesn't fit in an uint of `bits` size."
        }
      ],
      "VotesExpiredSignature(uint256)": [
        {
          "details": "The signature used has expired."
        }
      ]
    },
    "events": {
      "Approval(address,address,uint256)": {
        "details": "Emitted when the allowance of a `spender` for an `owner` is set by a call to {approve}. `value` is the new allowance."
      },
      "DelegateChanged(address,address,address)": {
        "details": "Emitted when an account changes their delegate."
      },
      "DelegateVotesChanged(address,uint256,uint256)": {
        "details": "Emitted when a token transfer or delegate change results in changes to a delegate's number of voting units."
      },
      "EIP712DomainChanged()": {
        "details": "MAY be emitted to signal that the domain could have changed."
      },
      "Initialized(uint64)": {
        "details": "Triggered when the contract has been initialized or reinitialized."
      },
      "Transfer(address,address,uint256)": {
        "details": "Emitted when `value` tokens are moved from one account (`from`) to another (`to`). Note that `value` may be zero."
      }
    },
    "kind": "dev",
    "methods": {
      "CLOCK_MODE()": {
        "details": "Machine-readable description of the clock as specified in EIP-6372."
      },
      "DOMAIN_SEPARATOR()": {
        "details": "Returns the domain separator used in the encoding of the signature for {permit}, as defined by {EIP712}."
      },
      "allowance(address,address)": {
        "details": "See {IERC20-allowance}."
      },
      "approve(address,uint256)": {
        "details": "See {IERC20-approve}. NOTE: If `value` is the maximum `uint256`, the allowance is not updated on `transferFrom`. This is semantically equivalent to an infinite approval. Requirements: - `spender` cannot be the zero address."
      },
      "balanceOf(address)": {
        "details": "See {IERC20-balanceOf}."
      },
      "cap()": {
        "details": "Returns the cap on the token's total supply."
      },
      "checkpoints(address,uint32)": {
        "details": "Get the `pos`-th checkpoint for `account`."
      },
      "clock()": {
        "details": "Clock used for flagging checkpoints. Can be overridden to implement timestamp based checkpoints (and voting), in which case {CLOCK_MODE} should be overridden as well to match."
      },
      "decimals()": {
        "details": "Returns the number of decimals used to get its user representation. For example, if `decimals` equals `2`, a balance of `505` tokens should be displayed to a user as `5.05` (`505 / 10 ** 2`). Tokens usually opt for a value of 18, imitating the relationship between Ether and Wei. This is the default value returned by this function, unless it's overridden. NOTE: This information is only used for _display_ purposes: it in no way affects any of the arithmetic of the contract, including {IERC20-balanceOf} and {IERC20-transfer}."
      },
      "delegate(address)": {
        "details": "Delegates votes from the sender to `delegatee`."
      },
      "delegateBySig(address,uint256,uint256,uint8,bytes32,bytes32)": {
        "details": "Delegates votes from signer to `delegatee`."
      },
      "delegates(address)": {
        "details": "Returns the delegate that `account` has chosen."
      },
      "eip712Domain()": {
        "details": "See {IERC-5267}."
      },
      "getPastTotalSupply(uint256)": {
        "details": "Returns the total supply of votes available at a specific moment in the past. If the `clock()` is configured to use block numbers, this will return the value at the end of the corresponding block. NOTE: This value is the sum of all available votes, which is not necessarily the sum of all delegated votes. Votes that have not been delegated are still part of total supply, even though they would not participate in a vote. Requirements: - `timepoint` must be in the past. If operating using block numbers, the block must be already mined."
      },
      "getPastVotes(address,uint256)": {
        "details": "Returns the amount of votes that `account` had at a specific moment in the past. If the `clock()` is configured to use block numbers, this will return the value at the end of the corresponding block. Requirements: - `timepoint` must be in the past. If operating using block numbers, the block must be already mined."
      },
      "getVotes(address)": {
        "details": "Returns the current amount of votes that `account` has."
      },
      "name()": {
        "details": "Returns the name of the token."
      },
      "nonces(address)": {
        "details": "Returns the current nonce for `owner`. This value must be included whenever a signature is generated for {permit}. Every successful call to {permit} increases ``owner``'s nonce by one. This prevents a signature from being used multiple times."
      },
      "numCheckpoints(address)": {
        "details": "Get number of checkpoints for `account`."
      },
      "permit(address,address,uint256,uint256,uint8,bytes32,bytes32)": {
        "details": "Sets `value` as the allowance of `spender` over ``owner``'s tokens, given ``owner``'s signed approval. IMPORTANT: The same issues {IERC20-approve} has related to transaction ordering also apply here. Emits an {Approval} event. Requirements: - `spender` cannot be the zero address. - `deadline` must be a timestamp in the future. - `v`, `r` and `s` must be a valid `secp256k1` signature from `owner` over the EIP712-formatted function arguments. - the signature must use ``owner``'s current nonce (see {nonces}). For more information on the signature format, see the https://eips.ethereum.org/EIPS/eip-2612#specification[relevant EIP section]. CAUTION: See Security Considerations above."
      },
      "symbol()": {
        "details": "Returns the symbol of the token, usually a shorter version of the name."
      },
      "totalSupply()": {
        "details": "See {IERC20-totalSupply}."
      },
      "transfer(address,uint256)": {
        "details": "See {IERC20-transfer}. Requirements: - `to` cannot be the zero address. - the caller must have a balance of at least `value`."
      },
      "transferFrom(address,address,uint256)": {
        "details": "See {IERC20-transferFrom}. Emits an {Approval} event indicating the updated allowance. This is not required by the EIP. See the note at the beginning of {ERC20}. NOTE: Does not update the allowance if the current allowance is the maximum `uint256`. Requirements: - `from` and `to` cannot be the zero address. - `from` must have a balance of at least `value`. - the caller must have allowance for ``from``'s tokens of at least `value`."
      }
    },
    "version": 1
  },
  "userdoc": {
    "kind": "user",
    "methods": {
      "enablePolitics()": {
        "notice": "To be able to vote for something by themselves a holder must call it first to delegate all voting power they have to themselves."
      }
    },
    "version": 1
  },
  "storageLayout": {
    "storage": [],
    "types": null
  }
}