{
  "address": "0x34EcA24309FE08031065Fde528DE6fCc96cFE5B5",
  "abi": [
    {
      "inputs": [],
      "name": "AlreadyInitialized",
      "type": "error"
    },
    {
      "inputs": [],
      "name": "DelegatedCallsOnly",
      "type": "error"
    },
    {
      "inputs": [
        {
          "internalType": "address",
          "name": "who",
          "type": "address"
        },
        {
          "internalType": "bytes32",
          "name": "role",
          "type": "bytes32"
        }
      ],
      "name": "HasNoRole",
      "type": "error"
    },
    {
      "inputs": [
        {
          "internalType": "uint256",
          "name": "l1",
          "type": "uint256"
        },
        {
          "internalType": "uint256",
          "name": "l2",
          "type": "uint256"
        }
      ],
      "name": "IncorrectLengths",
      "type": "error"
    },
    {
      "inputs": [],
      "name": "IntervalsMustBeSorted",
      "type": "error"
    },
    {
      "anonymous": false,
      "inputs": [
        {
          "indexed": false,
          "internalType": "uint8",
          "name": "version",
          "type": "uint8"
        }
      ],
      "name": "Initialized",
      "type": "event"
    },
    {
      "inputs": [
        {
          "internalType": "address",
          "name": "owner",
          "type": "address"
        }
      ],
      "name": "initialize",
      "outputs": [],
      "stateMutability": "nonpayable",
      "type": "function"
    },
    {
      "inputs": [
        {
          "internalType": "address[]",
          "name": "distributionReceivers",
          "type": "address[]"
        },
        {
          "internalType": "uint256[]",
          "name": "distributionReceiversShares",
          "type": "uint256[]"
        },
        {
          "internalType": "uint32[]",
          "name": "distributionDurationPoints",
          "type": "uint32[]"
        },
        {
          "internalType": "uint256[][]",
          "name": "amountsPerEpochs",
          "type": "uint256[][]"
        }
      ],
      "name": "setupInflation",
      "outputs": [],
      "stateMutability": "nonpayable",
      "type": "function"
    },
    {
      "inputs": [],
      "name": "setupTokenInfoAndEstablishAutocracy",
      "outputs": [],
      "stateMutability": "nonpayable",
      "type": "function"
    }
  ],
  "transactionHash": "0x7f4b996d2b8a36d943d859d1c2a10ccdf97322680a428ab311e851f89d40d967",
  "args": [],
  "numDeployments": 3,
  "solcInputHash": "5bf87c20a7a451fc9a5e9e94ad3c8095",
  "bytecode": "0x60a08060405234610023573060805261094890816100298239608051816107d60152f35b600080fdfe6080604052600436101561001257600080fd5b60003560e01c80635681682f146102dc578063c4d66de8146100d55763f80f01771461003d57600080fd5b346100c15760003660031901126100c1576100566107d3565b303b156100c157604051636d63b6b760e01b815260008160048183305af180156100b5576100c6575b50303b156100c157604051633d3eb75560e11b815260008160048183305af180156100b5576100aa57005b6100b3906107c0565b005b6040513d6000823e3d90fd5b600080fd5b6100cf906107c0565b3861007f565b346100c1576020806003193601126100c1576004356001600160a01b03811691908290036100c1576000805160206108f38339815191529182549160ff831660001461012c5760405162dc149f60e41b8152600490fd5b6060936001859460ff1916179055600080527ff8a6c10351c569dde9f00d2a7d439ceae77f38bfadfbaac59dc5476ddac46a078152604060002063ffffffff421663ffffffff198254161790557ff8a6c10351c569dde9f00d2a7d439ceae77f38bfadfbaac59dc5476ddac46a0c8260018060a01b03198254161790556000805160206108d383398151915290816000527f256352104e666e6cce09c45a35c339c150e1991724469c7d87b784a284535e44908181526040600020846000528152604060002060019360ff1991858382541617905560405190868252838201528460408201527fe6c553997164af80f976feb439e6566231f261c8b41e3e5070f237f827fc4432978891a186867fdf419335cd51a12d91577b23bb1f2f1d297c4dd78f8c580b21e3d68c0742aa52806000528585526040600020886000528552604060002087858254161790556040519088825285820152866040820152a17f1f5a72ff210e1987f45ef6999da4be546bb5ea71f60de5cbc44d2ddb6c29d716928360005282526040600020856000528252836040600020918254161790556040519384528301526040820152a1005b346100c15760803660031901126100c1576004356001600160401b0381116100c15761030c903690600401610790565b906024356001600160401b0381116100c15761032c903690600401610790565b916044356001600160401b0381116100c15761034c903690600401610790565b90949093906064356001600160401b0381116100c157610370903690600401610790565b906103796107d3565b3360009081527f7eab7b82f3f21675de29d098b67b1bb6d0c69de2cb1ba0b9eb1dbc18d523752f60205260409020546000805160206108d38339815191529060ff1615610772575082156107525783830361073457828203610716576103df8282610838565b905087036106ec57600091825b8884106105e9575050505060005b8181106105645786866001600160401b03811161054e57600160401b811161054e577ff8a6c10351c569dde9f00d2a7d439ceae77f38bfadfbaac59dc5476ddac46a089182548284558083106104f1575b509160005260206000208160031c9160005b8381106104b15750600719811690038061047357005b9260009360005b818110610488575050500155005b90919460206104a760019261049c896108aa565b908560021b906108bb565b960192910161047a565b6000805b600881106104ca57508382015560010161045d565b959060206104e86001926104dd856108aa565b908a60021b906108bb565b920196016104b5565b836000526020600020600780850160031c8201920160031c0190601c8460021b1680610533575b505b818110610527575061044b565b6000815560010161051a565b600019908183019182549160200360031b1c16905585610518565b634e487b7160e01b600052604160045260246000fd5b61056f81838661089a565b356001600160a01b03811691908290036100c15761058e81858861089a565b35303b156100c15760405192632647d9e560e01b8452600484015260248301526000604483015260008260648183305af19182156100b5576105d5926105da575b50610875565b6103fa565b6105e3906107c0565b886105cf565b6105fc6105f7858b8d61089a565b6108aa565b63ffffffff918216911611156106da5761061a6105f7848a8c61089a565b9260005b858110610635575061062f90610875565b926103ec565b828110156106c457601e19843603018160051b85013512156100c157600581901b8401358401803591906001600160401b0383116100c157602001918060051b360383136100c1578361068b916106bf9461089a565b35836000527ff8a6c10351c569dde9f00d2a7d439ceae77f38bfadfbaac59dc5476ddac46a09602052604060002055610875565b61061e565b634e487b7160e01b600052603260045260246000fd5b60405163e8817d7760e01b8152600490fd5b6106f96044928892610838565b6040516305e2ada360e41b81526004810193909352602483015250fd5b50604491604051916305e2ada360e41b835260048301526024820152fd5b60448385604051916305e2ada360e41b835260048301526024820152fd5b6040516305e2ada360e41b81526004810184905260006024820152604490fd5b60449060405190632bc93d7960e21b82523360048301526024820152fd5b9181601f840112156100c1578235916001600160401b0383116100c1576020808501948460051b0101116100c157565b6001600160401b03811161054e57604052565b307f00000000000000000000000000000000000000000000000000000000000000006001600160a01b031614801561081e575b61080c57565b604051639f357e6b60e01b8152600490fd5b5060ff6000805160206108f3833981519152541615610806565b90156106c457803590601e19813603018212156100c15701803591906001600160401b0383116100c1576020018260051b360381136100c1579190565b60001981146108845760010190565b634e487b7160e01b600052601160045260246000fd5b91908110156106c45760051b0190565b3563ffffffff811681036100c15790565b9060031b9163ffffffff809116831b921b1916179056feb19546dff01e856fb3f010c267a7b1c60363cf8a4664e21cc89c26224620214e9f1709bc5ab0578be51bb81e11b02cdd9c21aa603d7325a8a7551bbd5685a005a2646970667358221220a4a8c2771378ef85f1645f0c00afc9c37c5923d656f9bb7eaeb822bfcd39e7e864736f6c63430008130033",
  "libraries": [
    "TDLib",
    "LTLib",
    "InitializerLib",
    "PausabilityLib",
    "RolesManagementLib",
    "AutocracyLib"
  ],
  "devdoc": {
    "events": {
      "Initialized(uint8)": {
        "details": "Triggered when the contract has been initialized or reinitialized."
      }
    },
    "kind": "dev",
    "methods": {
      "initialize(address)": {
        "params": {
          "owner": "An address who can end and rule autocracy, and mint inflation of LCS tokens."
        }
      },
      "setupInflation(address[],uint256[],uint32[],uint256[][])": {
        "params": {
          "amountsPerEpochs": "An amount of Locus Tokens to be minted per epoch.",
          "distributionDurationPoints": "Durations from the start of inflation.  (If time between epochs is constant, like month for example, then all of the values would be equal to month is seconds.)",
          "distributionReceivers": "Addresses of receivers (ex. Locus Staking or Vault Token Staking contracts.)",
          "distributionReceiversShares": "Shares of addresses of `distributionReceivers`."
        }
      }
    },
    "version": 1
  },
  "userdoc": {
    "kind": "user",
    "methods": {
      "initialize(address)": {
        "notice": "An initializer function for Locus Token owner and starting state of the inflation."
      },
      "setupInflation(address[],uint256[],uint32[],uint256[][])": {
        "notice": "A setter function for Locus Token inflation receivers."
      }
    },
    "version": 1
  },
  "storageLayout": {
    "storage": [
      {
        "astId": 133,
        "contract": "contracts/diamonds/locusToken/v1/LTInitializerFacet.sol:LTInitializerFacet",
        "label": "_initialized",
        "offset": 0,
        "slot": "0",
        "type": "t_uint8"
      },
      {
        "astId": 136,
        "contract": "contracts/diamonds/locusToken/v1/LTInitializerFacet.sol:LTInitializerFacet",
        "label": "_initializing",
        "offset": 1,
        "slot": "0",
        "type": "t_bool"
      }
    ],
    "types": {
      "t_bool": {
        "encoding": "inplace",
        "label": "bool",
        "numberOfBytes": "1"
      },
      "t_uint8": {
        "encoding": "inplace",
        "label": "uint8",
        "numberOfBytes": "1"
      }
    }
  }
}