{
  "address": "0xbf7Fc260312a17ACf7135564Bc951e6c07e09198",
  "abi": [
    {
      "inputs": [],
      "name": "DelegatedCallsOnly",
      "type": "error"
    },
    {
      "inputs": [
        {
          "internalType": "address",
          "name": "who",
          "type": "address"
        },
        {
          "internalType": "bytes32",
          "name": "role",
          "type": "bytes32"
        }
      ],
      "name": "HasNoRole",
      "type": "error"
    },
    {
      "inputs": [
        {
          "internalType": "uint256",
          "name": "a",
          "type": "uint256"
        },
        {
          "internalType": "uint256",
          "name": "b",
          "type": "uint256"
        }
      ],
      "name": "MustBeEqual",
      "type": "error"
    },
    {
      "anonymous": false,
      "inputs": [
        {
          "indexed": false,
          "internalType": "address",
          "name": "who",
          "type": "address"
        },
        {
          "indexed": false,
          "internalType": "uint256",
          "name": "amount",
          "type": "uint256"
        }
      ],
      "name": "IncidentLiquidatedFor",
      "type": "event"
    },
    {
      "anonymous": false,
      "inputs": [
        {
          "indexed": false,
          "internalType": "uint8",
          "name": "version",
          "type": "uint8"
        }
      ],
      "name": "Initialized",
      "type": "event"
    },
    {
      "inputs": [
        {
          "internalType": "address",
          "name": "oldStaking",
          "type": "address"
        },
        {
          "internalType": "address",
          "name": "autoreflectiveStaking",
          "type": "address"
        },
        {
          "internalType": "address[]",
          "name": "users",
          "type": "address[]"
        },
        {
          "internalType": "uint256[]",
          "name": "amounts",
          "type": "uint256[]"
        }
      ],
      "name": "liquidateIncident",
      "outputs": [],
      "stateMutability": "nonpayable",
      "type": "function"
    }
  ],
  "transactionHash": "0x72e7e5c82a70603b1c7f02bb49d334bb46650784cf6987fc10b483092da0d778",
  "args": [],
  "numDeployments": 3,
  "solcInputHash": "8ac075f6fadae73c2f36b3c5a379fe1a",
  "bytecode": "0x60a08060405234610022573060805261078a908161002882396080518160aa0152f35b600080fdfe608080604052600436101561001357600080fd5b600090813560e01c63f23c32f91461002a57600080fd5b346104b65760803660031901126104b657600435906001600160a01b0382168203610593576024356001600160a01b0381169003610593576044356001600160401b03811161058f57610081903690600401610597565b90926064356001600160401b03811161058b576100a2903690600401610597565b9093909190307f00000000000000000000000000000000000000000000000000000000000000006001600160a01b031614801561055f575b61055057507f1f5a72ff210e1987f45ef6999da4be546bb5ea71f60de5cbc44d2ddb6c29d7168087527f256352104e666e6cce09c45a35c339c150e1991724469c7d87b784a284535e446020526040872033885260205260ff604088205416156105325750818303610514578590815b8381106104db575086303b156104d85760405163079cc67960e41b8152918290819061017b9086906004840161064d565b038183305af180156104cd576104ba575b508590303b156104b657816101b691604051809381926308934a5f60e31b8352306004840161064d565b038183305af180156104595761049e575b505b8181106101d4578580f35b6101df8183866105f1565b35906101ec8185886105f1565b356001600160a01b03811681036104555760405163095ea7b360e01b81526020818061021e876024356004840161064d565b03818c305af1801561049357610464575b506024356001600160a01b03163b156104555760405163534a7e1d60e11b815260048101849052889081816024818382356001600160a01b03165af1801561045957610441575b505060405163a9059cbb60e01b60208201526102a88161029a86856024840161064d565b03601f19810183528261062a565b60408051919082018083116001600160401b039091111761041f576040828101905260208083527f5361666545524332303a206c6f772d6c6576656c2063616c6c206661696c65648184015281518b92839201826024356001600160a01b03165af1903d15610435573d6001600160401b03811161041f57610357926040519161033c6020601f19601f840116018461062a565b82523d8c602084013e5b6024356001600160a01b0316610680565b8051908115918215610405575b5050156103ad576103a8927f0b62f4eceb8eb3e67f508d302451ebad4d409ce810ca493c9ce877caab0d56e6916103a06040519283928361064d565b0390a16105cc565b6101c9565b60405162461bcd60e51b815260206004820152602a60248201527f5361666545524332303a204552433230206f7065726174696f6e20646964206e6044820152691bdd081cdd58d8d9595960b21b6064820152608490fd5b6104189250602080918301019101610668565b3880610364565b634e487b7160e01b600052604160045260246000fd5b61035791606090610346565b61044a90610617565b610455578738610276565b8780fd5b6040513d84823e3d90fd5b6104859060203d60201161048c575b61047d818361062a565b810190610668565b503861022f565b503d610473565b6040513d8b823e3d90fd5b6104a790610617565b6104b25784386101c7565b8480fd5b5080fd5b6104c690969196610617565b943861018c565b6040513d89823e3d90fd5b80fd5b916104e78385886105f1565b358101809111610500576104fb90926105cc565b61014a565b634e487b7160e01b88526011600452602488fd5b6044838360405191634bfc700f60e11b835260048301526024820152fd5b60449060405190632bc93d7960e21b82523360048301526024820152fd5b639f357e6b60e01b8152600490fd5b5060ff7f9f1709bc5ab0578be51bb81e11b02cdd9c21aa603d7325a8a7551bbd5685a0055416156100da565b8580fd5b8380fd5b8280fd5b9181601f840112156105c7578235916001600160401b0383116105c7576020808501948460051b0101116105c757565b600080fd5b60001981146105db5760010190565b634e487b7160e01b600052601160045260246000fd5b91908110156106015760051b0190565b634e487b7160e01b600052603260045260246000fd5b6001600160401b03811161041f57604052565b601f909101601f19168101906001600160401b0382119082101761041f57604052565b6001600160a01b039091168152602081019190915260400190565b908160209103126105c7575180151581036105c75790565b919290156106e25750815115610694575090565b3b1561069d5790565b60405162461bcd60e51b815260206004820152601d60248201527f416464726573733a2063616c6c20746f206e6f6e2d636f6e74726163740000006044820152606490fd5b8251909150156106f55750805190602001fd5b6040519062461bcd60e51b82528160208060048301528251908160248401526000935b82851061073b575050604492506000838284010152601f80199101168101030190fd5b848101820151868601604401529381019385935061071856fea2646970667358221220558a4512f73967692b3330c517c37e9e6eb81c5b12d10fd9100146ee6c34ae2f64736f6c63430008130033",
  "libraries": [
    "TDLib",
    "LTLib",
    "InitializerLib",
    "PausabilityLib",
    "RolesManagementLib",
    "AutocracyLib"
  ],
  "devdoc": {
    "events": {
      "Initialized(uint8)": {
        "details": "Triggered when the contract has been initialized or reinitialized."
      }
    },
    "kind": "dev",
    "methods": {},
    "version": 1
  },
  "userdoc": {
    "kind": "user",
    "methods": {},
    "version": 1
  },
  "storageLayout": {
    "storage": [
      {
        "astId": 6,
        "contract": "contracts/diamonds/locusToken/v1/incidentLiquidation/LTIncidentLiquidator.sol:LTIncidentLiquidatorFacet",
        "label": "_initialized",
        "offset": 0,
        "slot": "0",
        "type": "t_uint8"
      },
      {
        "astId": 9,
        "contract": "contracts/diamonds/locusToken/v1/incidentLiquidation/LTIncidentLiquidator.sol:LTIncidentLiquidatorFacet",
        "label": "_initializing",
        "offset": 1,
        "slot": "0",
        "type": "t_bool"
      }
    ],
    "types": {
      "t_bool": {
        "encoding": "inplace",
        "label": "bool",
        "numberOfBytes": "1"
      },
      "t_uint8": {
        "encoding": "inplace",
        "label": "uint8",
        "numberOfBytes": "1"
      }
    }
  }
}