{
  "address": "0x42b048e3b38889D1F58aa13145f1b2d78D812F09",
  "abi": [
    {
      "inputs": [],
      "name": "AlreadyInitialized",
      "type": "error"
    },
    {
      "inputs": [],
      "name": "DelegatedCallsOnly",
      "type": "error"
    },
    {
      "inputs": [
        {
          "internalType": "address",
          "name": "who",
          "type": "address"
        },
        {
          "internalType": "bytes32",
          "name": "role",
          "type": "bytes32"
        }
      ],
      "name": "HasNoRole",
      "type": "error"
    },
    {
      "inputs": [
        {
          "internalType": "uint256",
          "name": "l1",
          "type": "uint256"
        },
        {
          "internalType": "uint256",
          "name": "l2",
          "type": "uint256"
        }
      ],
      "name": "IncorrectLengths",
      "type": "error"
    },
    {
      "inputs": [],
      "name": "IntervalsMustBeSorted",
      "type": "error"
    },
    {
      "inputs": [],
      "name": "InvalidInitialization",
      "type": "error"
    },
    {
      "inputs": [],
      "name": "NotInitializing",
      "type": "error"
    },
    {
      "anonymous": false,
      "inputs": [
        {
          "indexed": false,
          "internalType": "uint64",
          "name": "version",
          "type": "uint64"
        }
      ],
      "name": "Initialized",
      "type": "event"
    },
    {
      "anonymous": false,
      "inputs": [
        {
          "indexed": false,
          "internalType": "address",
          "name": "who",
          "type": "address"
        },
        {
          "indexed": false,
          "internalType": "bytes32",
          "name": "role",
          "type": "bytes32"
        },
        {
          "indexed": false,
          "internalType": "bool",
          "name": "isGrantedOrRevoked",
          "type": "bool"
        }
      ],
      "name": "RoleSet",
      "type": "event"
    },
    {
      "inputs": [
        {
          "internalType": "address",
          "name": "owner",
          "type": "address"
        }
      ],
      "name": "initialize",
      "outputs": [],
      "stateMutability": "nonpayable",
      "type": "function"
    },
    {
      "inputs": [
        {
          "internalType": "address[]",
          "name": "distributionReceivers",
          "type": "address[]"
        },
        {
          "internalType": "uint256[]",
          "name": "distributionReceiversShares",
          "type": "uint256[]"
        },
        {
          "internalType": "uint32[]",
          "name": "distributionDurationPoints",
          "type": "uint32[]"
        },
        {
          "internalType": "uint256[][]",
          "name": "amountsPerEpochs",
          "type": "uint256[][]"
        }
      ],
      "name": "setupInflation",
      "outputs": [],
      "stateMutability": "nonpayable",
      "type": "function"
    },
    {
      "inputs": [],
      "name": "setupTokenInfoAndEstablishAutocracy",
      "outputs": [],
      "stateMutability": "nonpayable",
      "type": "function"
    }
  ],
  "transactionHash": "0x59b28eabc7309ff7b167412b6aacf862c598c37360cb61d118e379dbfc6a5e53",
  "args": [],
  "numDeployments": 1,
  "solcInputHash": "8fc5e0e21590d56561f202f7e414b5a0",
  "bytecode": "0x60a08060405234610023573060805261091390816100288239608051816107a50152f35b5f80fdfe60806040526004361015610011575f80fd5b5f3560e01c80635681682f146102c3578063c4d66de8146100cd5763f80f01771461003a575f80fd5b346100ba575f3660031901126100ba576100526107a2565b303b156100ba57604051636d63b6b760e01b81525f8160048183305af180156100af576100be575b50303b156100ba57604051633d3eb75560e11b81525f8160048183305af180156100af576100a457005b6100ad9061078f565b005b6040513d5f823e3d90fd5b5f80fd5b6100c79061078f565b5f61007a565b346100ba576020806003193601126100ba576004356001600160a01b03811691908290036100ba575f805160206108be8339815191529182549160ff83165f146101225760405162dc149f60e41b8152600490fd5b6060936001859460ff19161790555f80527ff8a6c10351c569dde9f00d2a7d439ceae77f38bfadfbaac59dc5476ddac46a07815260405f2063ffffffff421663ffffffff198254161790557ff8a6c10351c569dde9f00d2a7d439ceae77f38bfadfbaac59dc5476ddac46a0c8260018060a01b03198254161790555f8051602061089e83398151915290815f527f256352104e666e6cce09c45a35c339c150e1991724469c7d87b784a284535e449081815260405f20845f52815260405f2060019360ff1991858382541617905560405190868252838201528460408201527fe6c553997164af80f976feb439e6566231f261c8b41e3e5070f237f827fc4432978891a186867fdf419335cd51a12d91577b23bb1f2f1d297c4dd78f8c580b21e3d68c0742aa52805f5285855260405f20885f52855260405f2087858254161790556040519088825285820152866040820152a17f1f5a72ff210e1987f45ef6999da4be546bb5ea71f60de5cbc44d2ddb6c29d71692835f52825260405f20855f5282528360405f20918254161790556040519384528301526040820152a1005b346100ba5760803660031901126100ba576004356001600160401b0381116100ba576102f390369060040161075f565b906024356001600160401b0381116100ba5761031390369060040161075f565b916044356001600160401b0381116100ba5761033390369060040161075f565b90949093906064356001600160401b0381116100ba5761035790369060040161075f565b906103606107a2565b335f9081527f7eab7b82f3f21675de29d098b67b1bb6d0c69de2cb1ba0b9eb1dbc18d523752f60205260409020545f8051602061089e8339815191529060ff16156107415750821561072257838303610704578282036106e6576103c48282610806565b905087036106bc575f91825b8884106105be57505050505f5b81811061053b5786866001600160401b03811161052757600160401b8111610527577ff8a6c10351c569dde9f00d2a7d439ceae77f38bfadfbaac59dc5476ddac46a089182548284558083106104ce575b50915f5260205f208160031c915f5b83811061048f5750600719811690038061045357005b925f935f5b818110610466575050500155005b909194602061048560019261047a89610875565b908560021b90610886565b9601929101610458565b5f805b600881106104a757508382015560010161043d565b959060206104c56001926104ba85610875565b908a60021b90610886565b92019601610492565b835f5260205f20600780850160031c8201920160031c0190601c8460021b168061050d575b505b818110610502575061042e565b5f81556001016104f5565b5f19908183019182549160200360031b1c169055856104f3565b634e487b7160e01b5f52604160045260245ffd5b610546818386610865565b356001600160a01b03811691908290036100ba57610565818588610865565b35303b156100ba5760405192632647d9e560e01b8452600484015260248301525f60448301525f8260648183305af19182156100af576105aa926105af575b50610843565b6103dd565b6105b89061078f565b886105a4565b6105d16105cc858b8d610865565b610875565b63ffffffff918216911611156106aa576105ef6105cc848a8c610865565b925f5b858110610609575061060390610843565b926103d0565b8281101561069657601e19843603018160051b85013512156100ba57600581901b8401358401803591906001600160401b0383116100ba57602001918060051b360383136100ba578361065f9161069194610865565b35835f527ff8a6c10351c569dde9f00d2a7d439ceae77f38bfadfbaac59dc5476ddac46a0960205260405f2055610843565b6105f2565b634e487b7160e01b5f52603260045260245ffd5b60405163e8817d7760e01b8152600490fd5b6106c96044928892610806565b6040516305e2ada360e41b81526004810193909352602483015250fd5b50604491604051916305e2ada360e41b835260048301526024820152fd5b60448385604051916305e2ada360e41b835260048301526024820152fd5b6040516305e2ada360e41b8152600481018490525f6024820152604490fd5b60449060405190632bc93d7960e21b82523360048301526024820152fd5b9181601f840112156100ba578235916001600160401b0383116100ba576020808501948460051b0101116100ba57565b6001600160401b03811161052757604052565b307f00000000000000000000000000000000000000000000000000000000000000006001600160a01b03161480156107ed575b6107db57565b604051639f357e6b60e01b8152600490fd5b5060ff5f805160206108be8339815191525416156107d5565b901561069657803590601e19813603018212156100ba5701803591906001600160401b0383116100ba576020018260051b360381136100ba579190565b5f1981146108515760010190565b634e487b7160e01b5f52601160045260245ffd5b91908110156106965760051b0190565b3563ffffffff811681036100ba5790565b9060031b9163ffffffff809116831b921b1916179056feb19546dff01e856fb3f010c267a7b1c60363cf8a4664e21cc89c26224620214e9f1709bc5ab0578be51bb81e11b02cdd9c21aa603d7325a8a7551bbd5685a005a26469706673582212206c6a18bcd2a5d456a865d69310bc0f6ccb9c6381efbe128cf6bc58f5a10c151564736f6c63430008140033",
  "libraries": [
    "LTLib",
    "InitializerLib",
    "PausabilityLib",
    "RolesManagementLib",
    "AutocracyLib"
  ],
  "devdoc": {
    "errors": {
      "InvalidInitialization()": [
        {
          "details": "The contract is already initialized."
        }
      ],
      "NotInitializing()": [
        {
          "details": "The contract is not initializing."
        }
      ]
    },
    "events": {
      "Initialized(uint64)": {
        "details": "Triggered when the contract has been initialized or reinitialized."
      }
    },
    "kind": "dev",
    "methods": {
      "initialize(address)": {
        "params": {
          "owner": "An address who can end and rule autocracy, and mint inflation of LCS tokens."
        }
      },
      "setupInflation(address[],uint256[],uint32[],uint256[][])": {
        "params": {
          "amountsPerEpochs": "An amount of Locus Tokens to be minted per epoch.",
          "distributionDurationPoints": "Durations from the start of inflation.  (If time between epochs is constant, like month for example, then all of the values would be equal to month is seconds.)",
          "distributionReceivers": "Addresses of receivers (ex. Locus Staking or Vault Token Staking contracts.)",
          "distributionReceiversShares": "Shares of addresses of `distributionReceivers`."
        }
      }
    },
    "version": 1
  },
  "userdoc": {
    "kind": "user",
    "methods": {
      "initialize(address)": {
        "notice": "An initializer function for Locus Token owner and starting state of the inflation."
      },
      "setupInflation(address[],uint256[],uint32[],uint256[][])": {
        "notice": "A setter function for Locus Token inflation receivers."
      }
    },
    "version": 1
  },
  "storageLayout": {
    "storage": [],
    "types": null
  }
}