{
  "address": "0x445816ac3E78D1B0547b4642b373A88aD875cc8a",
  "abi": [
    {
      "inputs": [
        {
          "internalType": "address",
          "name": "_token",
          "type": "address"
        },
        {
          "internalType": "address",
          "name": "_stLocus",
          "type": "address"
        },
        {
          "internalType": "bytes32",
          "name": "_merkleRoot",
          "type": "bytes32"
        },
        {
          "internalType": "address",
          "name": "_treasury",
          "type": "address"
        }
      ],
      "stateMutability": "nonpayable",
      "type": "constructor"
    },
    {
      "inputs": [
        {
          "internalType": "address",
          "name": "",
          "type": "address"
        }
      ],
      "name": "AlreadyClaimed",
      "type": "error"
    },
    {
      "inputs": [],
      "name": "CannotBeZeroAddress",
      "type": "error"
    },
    {
      "inputs": [],
      "name": "CannotBeZeroBytes32",
      "type": "error"
    },
    {
      "inputs": [
        {
          "internalType": "address",
          "name": "",
          "type": "address"
        },
        {
          "internalType": "bytes32",
          "name": "",
          "type": "bytes32"
        }
      ],
      "name": "ProofIsNotValid",
      "type": "error"
    },
    {
      "anonymous": false,
      "inputs": [],
      "name": "EmergencyExitCalled",
      "type": "event"
    },
    {
      "anonymous": false,
      "inputs": [
        {
          "indexed": true,
          "internalType": "bytes32",
          "name": "oldRoot",
          "type": "bytes32"
        },
        {
          "indexed": true,
          "internalType": "bytes32",
          "name": "newRoot",
          "type": "bytes32"
        }
      ],
      "name": "MerkleRootChanged",
      "type": "event"
    },
    {
      "anonymous": false,
      "inputs": [
        {
          "indexed": true,
          "internalType": "address",
          "name": "oldToken",
          "type": "address"
        },
        {
          "indexed": true,
          "internalType": "address",
          "name": "newToken",
          "type": "address"
        }
      ],
      "name": "NewClaimingTokenSet",
      "type": "event"
    },
    {
      "anonymous": false,
      "inputs": [
        {
          "indexed": true,
          "internalType": "address",
          "name": "oldToken",
          "type": "address"
        },
        {
          "indexed": true,
          "internalType": "address",
          "name": "newToken",
          "type": "address"
        }
      ],
      "name": "NewTreasurySet",
      "type": "event"
    },
    {
      "anonymous": false,
      "inputs": [
        {
          "indexed": true,
          "internalType": "address",
          "name": "previousOwner",
          "type": "address"
        },
        {
          "indexed": true,
          "internalType": "address",
          "name": "newOwner",
          "type": "address"
        }
      ],
      "name": "OwnershipTransferred",
      "type": "event"
    },
    {
      "inputs": [
        {
          "internalType": "address",
          "name": "account",
          "type": "address"
        },
        {
          "internalType": "uint256",
          "name": "amount",
          "type": "uint256"
        },
        {
          "internalType": "bytes32[]",
          "name": "merkleProof",
          "type": "bytes32[]"
        }
      ],
      "name": "claim",
      "outputs": [],
      "stateMutability": "nonpayable",
      "type": "function"
    },
    {
      "inputs": [
        {
          "internalType": "address",
          "name": "user",
          "type": "address"
        }
      ],
      "name": "claimed",
      "outputs": [
        {
          "internalType": "uint256",
          "name": "claimed",
          "type": "uint256"
        }
      ],
      "stateMutability": "view",
      "type": "function"
    },
    {
      "inputs": [],
      "name": "emergencyExit",
      "outputs": [],
      "stateMutability": "nonpayable",
      "type": "function"
    },
    {
      "inputs": [],
      "name": "merkleRoot",
      "outputs": [
        {
          "internalType": "bytes32",
          "name": "",
          "type": "bytes32"
        }
      ],
      "stateMutability": "view",
      "type": "function"
    },
    {
      "inputs": [],
      "name": "owner",
      "outputs": [
        {
          "internalType": "address",
          "name": "",
          "type": "address"
        }
      ],
      "stateMutability": "view",
      "type": "function"
    },
    {
      "inputs": [],
      "name": "renounceOwnership",
      "outputs": [],
      "stateMutability": "nonpayable",
      "type": "function"
    },
    {
      "inputs": [
        {
          "internalType": "bytes32",
          "name": "_newRoot",
          "type": "bytes32"
        }
      ],
      "name": "setNewMerkleRoot",
      "outputs": [],
      "stateMutability": "nonpayable",
      "type": "function"
    },
    {
      "inputs": [
        {
          "internalType": "address",
          "name": "_newToken",
          "type": "address"
        }
      ],
      "name": "setNewToken",
      "outputs": [],
      "stateMutability": "nonpayable",
      "type": "function"
    },
    {
      "inputs": [
        {
          "internalType": "address",
          "name": "_newTreasury",
          "type": "address"
        }
      ],
      "name": "setNewTreasury",
      "outputs": [],
      "stateMutability": "nonpayable",
      "type": "function"
    },
    {
      "inputs": [],
      "name": "stLocus",
      "outputs": [
        {
          "internalType": "contract ILSDepositaryFacet",
          "name": "",
          "type": "address"
        }
      ],
      "stateMutability": "view",
      "type": "function"
    },
    {
      "inputs": [],
      "name": "token",
      "outputs": [
        {
          "internalType": "contract IERC20",
          "name": "",
          "type": "address"
        }
      ],
      "stateMutability": "view",
      "type": "function"
    },
    {
      "inputs": [
        {
          "internalType": "address",
          "name": "newOwner",
          "type": "address"
        }
      ],
      "name": "transferOwnership",
      "outputs": [],
      "stateMutability": "nonpayable",
      "type": "function"
    },
    {
      "inputs": [],
      "name": "treasury",
      "outputs": [
        {
          "internalType": "address",
          "name": "",
          "type": "address"
        }
      ],
      "stateMutability": "view",
      "type": "function"
    }
  ],
  "transactionHash": "0xae9d51efc550ff7efffc8e69e000f7be14fbac6dd057b5d20706f2b9e058742f",
  "args": [
    "0xe1d3495717f9534Db67A6A8d4940Dd17435b6A9E",
    "0xEcc5e0c19806Cf47531F307140e8b042D5Afb952",
    "0x32ebc543b4aeca2ffc180159a3c61cfd4fe3be9fccb9238093056ff7d944c857",
    "0x729F2222aaCD99619B8B660b412baE9fCEa3d90F"
  ],
  "numDeployments": 1,
  "solcInputHash": "46f417851d6dc79da3cb940c22fcbf70",
  "bytecode": "0x6080806040523461014d57608081610c0a803803809161001f8285610152565b83398101031261014d576100328161018b565b602061003f81840161018b565b604461005260606040870151960161018b565b60008054336001600160a01b03198083168217845560405193999398899788968c969590946001600160a01b039384939284929083167f8be0079c531659141344cd1fd0a4f28419497f9722a3daafe3b4186f6b6457e08b80a31695868560015416176001556003551692838360045416176004551690600254161760025563095ea7b360e01b8452600484015260001960248401525af1801561014257610104575b604051610a6a90816101a08239f35b6020813d821161013a575b8161011c60209383610152565b8101031261013657518015150361013357806100f5565b80fd5b5080fd5b3d915061010f565b6040513d84823e3d90fd5b600080fd5b601f909101601f19168101906001600160401b0382119082101761017557604052565b634e487b7160e01b600052604160045260246000fd5b51906001600160a01b038216820361014d5756fe608060408181526004918236101561001657600080fd5b600092833560e01c9182632eb4a7ab146108425750816337ec42b41461081a5781633d13f874146105df5781635641ec03146103c05781635ed411e51461034c578163611236a4146102eb57816361d027b3146102c2578163715018a6146102775781638da5cb5b1461024f5781638f9a372d146101ce578163c884ef8314610196578163f2fde38b146100df575063fc0c546a146100b457600080fd5b346100db57816003193601126100db5760015490516001600160a01b039091168152602090f35b5080fd5b905034610192576020366003190112610192576100fa61085e565b90610103610879565b6001600160a01b039182169283156101405750506000548260018060a01b031982161760005516600080516020610a15833981519152600080a380f35b906020608492519162461bcd60e51b8352820152602660248201527f4f776e61626c653a206e6577206f776e657220697320746865207a65726f206160448201526564647265737360d01b6064820152fd5b8280fd5b5050346100db5760203660031901126100db5760209181906001600160a01b036101be61085e565b1681526005845220549051908152f35b905034610192576020366003190112610192576101e961085e565b906101f2610879565b6001600160a01b03918216928315610242575050816002549182167f3f4ee8e773b4b145db079b328a6a14c990b4ee29b69d03ba4825ba3370f508938580a36001600160a01b0319161760025580f35b51631e7d738760e21b8152fd5b5050346100db57816003193601126100db57905490516001600160a01b039091168152602090f35b83346102bf57806003193601126102bf57610290610879565b600080546001600160a01b0319811682556001600160a01b0316600080516020610a158339815191528280a380f35b80fd5b5050346100db57816003193601126100db5760025490516001600160a01b039091168152602090f35b90503461019257602036600319011261019257803591610309610879565b821561033f575050806003547f123d88ba82600dfc3f219f8885c691b0ff020caa535666874b3f5174973757fe8480a360035580f35b51631d6d5f4360e01b8152fd5b9050346101925760203660031901126101925761036761085e565b90610370610879565b6001600160a01b03918216928315610242575050816001549182167f410993adcc9e975a17f90e68779ed472b0d6f3b73cd170ca61ad892c8db35d888580a36001600160a01b0319161760015580f35b919050346101925782600319360112610192576103db610879565b60015460025482516370a0823160e01b815230858201526020939290916001600160a01b039081169116868584602481855afa9384156105d35781946105a4575b508061043e9486519586918983019663a9059cbb60e01b8852602484016108d1565b0393610452601f199586810188528761091d565b86519561045e876108ec565b8887527f5361666545524332303a206c6f772d6c6576656c2063616c6c206661696c656489880152519082855af1903d15610595573d6001600160401b03811161058057906104ca949392916104bd88885195601f840116018561091d565b83523d898885013e610940565b805183811591821561055c575b505090501561050857837f06e1d95730f4cf144b0cf65305195e7631c912e56522f162de5d6f69330e96618180a180f35b5162461bcd60e51b815291820152602a60248201527f5361666545524332303a204552433230206f7065726174696f6e20646964206e6044820152691bdd081cdd58d8d9595960b21b606482015260849150fd5b838092935001031261057c57820151801515810361057c578083386104d7565b8480fd5b604188634e487b7160e01b6000525260246000fd5b906104ca939250606091610940565b93508584813d83116105cc575b6105bb818361091d565b810103126102bf579251928061041c565b503d6105b1565b508451903d90823e3d90fd5b839150346100db5760603660031901126100db576105fb61085e565b60443593906001600160401b03906024359082871161081657366023880112156108165786850135908382116108125760248260051b8901019336851161080e5760018060a01b039384831694858a526020956005875282898c205410156107f85788518781019061068081610672878a866108d1565b03601f19810183528261091d565b5190208951888101918252888152610697816108ec565b519020976003549c8a51976106b18a8260051b018a61091d565b8852602401888089015b8383106107e85750505050878b985b87518a101561072257888a60051b8901015190818110600014610715578d528852898c205b98600019811461070257600101986106ca565b634e487b7160e01b8d5260118c5260248dfd5b908d528852898c206106ef565b8c99508a9750908d8c97999392036107cb5750906005918952528487208054908382018092116107b85755835487929116803b1561019257610779968387518099819582946305dc812160e31b84528a84016108d1565b03925af180156107ae5761078b578480f35b831161079b575052818080808480f35b634e487b7160e01b845260419052602483fd5b83513d87823e3d90fd5b634e487b7160e01b895260118652602489fd5b875163590a2f4960e11b8152808801929092526024820152604490fd5b82358152918101918a91016106bb565b896024918a5191632058b6db60e01b8352820152fd5b8780fd5b8680fd5b8580fd5b9050346101925782600319360112610192575490516001600160a01b03909116815260209150f35b8490346100db57816003193601126100db576020906003548152f35b600435906001600160a01b038216820361087457565b600080fd5b6000546001600160a01b0316330361088d57565b606460405162461bcd60e51b815260206004820152602060248201527f4f776e61626c653a2063616c6c6572206973206e6f7420746865206f776e65726044820152fd5b6001600160a01b039091168152602081019190915260400190565b604081019081106001600160401b0382111761090757604052565b634e487b7160e01b600052604160045260246000fd5b601f909101601f19168101906001600160401b0382119082101761090757604052565b919290156109a25750815115610954575090565b3b1561095d5790565b60405162461bcd60e51b815260206004820152601d60248201527f416464726573733a2063616c6c20746f206e6f6e2d636f6e74726163740000006044820152606490fd5b8251909150156109b55750805190602001fd5b6040519062461bcd60e51b82528160208060048301528251908160248401526000935b8285106109fb575050604492506000838284010152601f80199101168101030190fd5b84810182015186860160440152938101938593506109d856fe8be0079c531659141344cd1fd0a4f28419497f9722a3daafe3b4186f6b6457e0a2646970667358221220b43af303886a306da164ac2beb25f9742dbc2c428574d4f02fe8af256eb2453764736f6c63430008130033",
  "devdoc": {
    "kind": "dev",
    "methods": {
      "owner()": {
        "details": "Returns the address of the current owner."
      },
      "renounceOwnership()": {
        "details": "Leaves the contract without owner. It will not be possible to call `onlyOwner` functions. Can only be called by the current owner. NOTE: Renouncing ownership will leave the contract without an owner, thereby disabling any functionality that is only available to the owner."
      },
      "transferOwnership(address)": {
        "details": "Transfers ownership of the contract to a new account (`newOwner`). Can only be called by the current owner."
      }
    },
    "version": 1
  },
  "userdoc": {
    "kind": "user",
    "methods": {},
    "version": 1
  },
  "storageLayout": {
    "storage": [
      {
        "astId": 5923,
        "contract": "contracts/notDiamonds/MidasClaim.sol:MidasClaim",
        "label": "_owner",
        "offset": 0,
        "slot": "0",
        "type": "t_address"
      },
      {
        "astId": 8292,
        "contract": "contracts/notDiamonds/MidasClaim.sol:MidasClaim",
        "label": "token",
        "offset": 0,
        "slot": "1",
        "type": "t_contract(IERC20)6106"
      },
      {
        "astId": 8294,
        "contract": "contracts/notDiamonds/MidasClaim.sol:MidasClaim",
        "label": "treasury",
        "offset": 0,
        "slot": "2",
        "type": "t_address"
      },
      {
        "astId": 8296,
        "contract": "contracts/notDiamonds/MidasClaim.sol:MidasClaim",
        "label": "merkleRoot",
        "offset": 0,
        "slot": "3",
        "type": "t_bytes32"
      },
      {
        "astId": 8299,
        "contract": "contracts/notDiamonds/MidasClaim.sol:MidasClaim",
        "label": "stLocus",
        "offset": 0,
        "slot": "4",
        "type": "t_contract(ILSDepositaryFacet)7836"
      },
      {
        "astId": 8303,
        "contract": "contracts/notDiamonds/MidasClaim.sol:MidasClaim",
        "label": "claimed",
        "offset": 0,
        "slot": "5",
        "type": "t_mapping(t_address,t_uint256)"
      }
    ],
    "types": {
      "t_address": {
        "encoding": "inplace",
        "label": "address",
        "numberOfBytes": "20"
      },
      "t_bytes32": {
        "encoding": "inplace",
        "label": "bytes32",
        "numberOfBytes": "32"
      },
      "t_contract(IERC20)6106": {
        "encoding": "inplace",
        "label": "contract IERC20",
        "numberOfBytes": "20"
      },
      "t_contract(ILSDepositaryFacet)7836": {
        "encoding": "inplace",
        "label": "contract ILSDepositaryFacet",
        "numberOfBytes": "20"
      },
      "t_mapping(t_address,t_uint256)": {
        "encoding": "mapping",
        "key": "t_address",
        "label": "mapping(address => uint256)",
        "numberOfBytes": "32",
        "value": "t_uint256"
      },
      "t_uint256": {
        "encoding": "inplace",
        "label": "uint256",
        "numberOfBytes": "32"
      }
    }
  }
}