{
  "address": "0x12D0FfbDf55f2861473A24758E7F7cdE81845277",
  "abi": [
    {
      "inputs": [],
      "name": "DelegatedCallsOnly",
      "type": "error"
    },
    {
      "inputs": [
        {
          "internalType": "address",
          "name": "who",
          "type": "address"
        },
        {
          "internalType": "bytes32",
          "name": "role",
          "type": "bytes32"
        }
      ],
      "name": "HasNoRole",
      "type": "error"
    },
    {
      "inputs": [
        {
          "internalType": "uint256",
          "name": "length1",
          "type": "uint256"
        },
        {
          "internalType": "uint256",
          "name": "length2",
          "type": "uint256"
        }
      ],
      "name": "UnequalLengths",
      "type": "error"
    },
    {
      "anonymous": false,
      "inputs": [
        {
          "indexed": false,
          "internalType": "uint8",
          "name": "version",
          "type": "uint8"
        }
      ],
      "name": "Initialized",
      "type": "event"
    },
    {
      "inputs": [
        {
          "internalType": "address",
          "name": "who",
          "type": "address"
        },
        {
          "internalType": "bytes32",
          "name": "role",
          "type": "bytes32"
        }
      ],
      "name": "grantRole",
      "outputs": [],
      "stateMutability": "nonpayable",
      "type": "function"
    },
    {
      "inputs": [
        {
          "internalType": "address[]",
          "name": "people",
          "type": "address[]"
        },
        {
          "internalType": "bytes32[]",
          "name": "roles",
          "type": "bytes32[]"
        }
      ],
      "name": "grantRoles",
      "outputs": [],
      "stateMutability": "nonpayable",
      "type": "function"
    },
    {
      "inputs": [
        {
          "internalType": "address",
          "name": "who",
          "type": "address"
        },
        {
          "internalType": "bytes32",
          "name": "role",
          "type": "bytes32"
        }
      ],
      "name": "hasRole",
      "outputs": [
        {
          "internalType": "bool",
          "name": "",
          "type": "bool"
        }
      ],
      "stateMutability": "view",
      "type": "function"
    },
    {
      "inputs": [
        {
          "internalType": "address",
          "name": "who",
          "type": "address"
        },
        {
          "internalType": "bytes32",
          "name": "role",
          "type": "bytes32"
        }
      ],
      "name": "revokeRole",
      "outputs": [],
      "stateMutability": "nonpayable",
      "type": "function"
    },
    {
      "inputs": [
        {
          "internalType": "address[]",
          "name": "people",
          "type": "address[]"
        },
        {
          "internalType": "bytes32[]",
          "name": "roles",
          "type": "bytes32[]"
        }
      ],
      "name": "revokeRoles",
      "outputs": [],
      "stateMutability": "nonpayable",
      "type": "function"
    }
  ],
  "args": [],
  "numDeployments": 1,
  "solcInputHash": "a98a5384338f38456d16b1d0c4ad9bea",
  "bytecode": "0x60a08060405234610023573060805261051b90816100298239608051816102f20152f35b600080fdfe604060808152600436101561001357600080fd5b600090813560e01c80630b29f42214610187578063208dd1ff1461015f578063ab2742dc14610131578063ac4ab3fb146100e35763b1cfaa861461005657600080fd5b346100df5761006436610220565b919092936100706102ef565b610078610366565b8282036100c35750845b81811061008d578580f35b806100b96100a76100a26100be94868a6102b5565b6102db565b6100b28387896102b5565b35906103e0565b610290565b610082565b916044925191635020e50560e01b835260048301526024820152fd5b5080fd5b50346100df5760ff816020936100f83661026a565b6101006102ef565b82526000805160206104a683398151915286528282206001600160a01b039091168252855220549151911615158152f35b823461015c576101596101433661026a565b9061014c6102ef565b610154610366565b6103e0565b80f35b80fd5b823461015c576101596101713661026a565b9061017a6102ef565b610182610366565b610444565b50346100df5761019636610220565b919092936101a26102ef565b6101aa610366565b8282036100c35750845b8181106101bf578580f35b806100b96101d46100a26101e694868a6102b5565b6101df8387896102b5565b3590610444565b6101b4565b9181601f8401121561021b578235916001600160401b03831161021b576020808501948460051b01011161021b57565b600080fd5b604060031982011261021b576001600160401b039160043583811161021b578261024c916004016101eb565b9390939260243591821161021b57610266916004016101eb565b9091565b604090600319011261021b576004356001600160a01b038116810361021b579060243590565b600019811461029f5760010190565b634e487b7160e01b600052601160045260246000fd5b91908110156102c55760051b0190565b634e487b7160e01b600052603260045260246000fd5b356001600160a01b038116810361021b5790565b307f00000000000000000000000000000000000000000000000000000000000000006001600160a01b031614801561033a575b61032857565b604051639f357e6b60e01b8152600490fd5b5060ff7f9f1709bc5ab0578be51bb81e11b02cdd9c21aa603d7325a8a7551bbd5685a005541615610322565b3360009081527f7eab7b82f3f21675de29d098b67b1bb6d0c69de2cb1ba0b9eb1dbc18d523752f60205260409020547fb19546dff01e856fb3f010c267a7b1c60363cf8a4664e21cc89c26224620214e9060ff16156103c25750565b60449060405190632bc93d7960e21b82523360048301526024820152fd5b6060906000805160206104c683398151915292806000526000805160206104a683398151915260205260406000209160018060a01b031691826000526020526040600020600160ff19825416179055604051918252602082015260016040820152a1565b6060906000805160206104c683398151915292806000526000805160206104a683398151915260205260406000209160018060a01b03169182600052602052604060002060ff198154169055604051918252602082015260006040820152a156fe256352104e666e6cce09c45a35c339c150e1991724469c7d87b784a284535e44e6c553997164af80f976feb439e6566231f261c8b41e3e5070f237f827fc4432a2646970667358221220561c73e461d1dff7a8b154f1fbc38e0a74559fdadecfea5cc8aa6784fac1fdba64736f6c63430008130033",
  "libraries": [
    "TDLib",
    "LTLib",
    "InitializerLib",
    "PausabilityLib",
    "RolesManagementLib",
    "AutocracyLib"
  ],
  "devdoc": {
    "events": {
      "Initialized(uint8)": {
        "details": "Triggered when the contract has been initialized or reinitialized."
      }
    },
    "kind": "dev",
    "methods": {},
    "version": 1
  },
  "userdoc": {
    "kind": "user",
    "methods": {},
    "version": 1
  },
  "storageLayout": {
    "storage": [
      {
        "astId": 2909,
        "contract": "contracts/diamonds/facetsFramework/diamondBase/facets/RolesManagementFacet.sol:RolesManagementFacet",
        "label": "_initialized",
        "offset": 0,
        "slot": "0",
        "type": "t_uint8"
      },
      {
        "astId": 2912,
        "contract": "contracts/diamonds/facetsFramework/diamondBase/facets/RolesManagementFacet.sol:RolesManagementFacet",
        "label": "_initializing",
        "offset": 1,
        "slot": "0",
        "type": "t_bool"
      }
    ],
    "types": {
      "t_bool": {
        "encoding": "inplace",
        "label": "bool",
        "numberOfBytes": "1"
      },
      "t_uint8": {
        "encoding": "inplace",
        "label": "uint8",
        "numberOfBytes": "1"
      }
    }
  }
}