{
  "address": "0xDF356ceE723997Cf587e024730AB08aF47D60b01",
  "abi": [
    {
      "inputs": [],
      "name": "DelegatedCallsOnly",
      "type": "error"
    },
    {
      "inputs": [
        {
          "internalType": "address",
          "name": "who",
          "type": "address"
        },
        {
          "internalType": "bytes32",
          "name": "role",
          "type": "bytes32"
        }
      ],
      "name": "HasNoRole",
      "type": "error"
    },
    {
      "inputs": [],
      "name": "InvalidInitialization",
      "type": "error"
    },
    {
      "inputs": [],
      "name": "NotInitializing",
      "type": "error"
    },
    {
      "inputs": [
        {
          "internalType": "uint256",
          "name": "length1",
          "type": "uint256"
        },
        {
          "internalType": "uint256",
          "name": "length2",
          "type": "uint256"
        }
      ],
      "name": "UnequalLengths",
      "type": "error"
    },
    {
      "anonymous": false,
      "inputs": [
        {
          "indexed": false,
          "internalType": "uint64",
          "name": "version",
          "type": "uint64"
        }
      ],
      "name": "Initialized",
      "type": "event"
    },
    {
      "anonymous": false,
      "inputs": [
        {
          "indexed": false,
          "internalType": "address",
          "name": "who",
          "type": "address"
        },
        {
          "indexed": false,
          "internalType": "bytes32",
          "name": "role",
          "type": "bytes32"
        },
        {
          "indexed": false,
          "internalType": "bool",
          "name": "isGrantedOrRevoked",
          "type": "bool"
        }
      ],
      "name": "RoleSet",
      "type": "event"
    },
    {
      "inputs": [
        {
          "internalType": "address",
          "name": "who",
          "type": "address"
        },
        {
          "internalType": "bytes32",
          "name": "role",
          "type": "bytes32"
        }
      ],
      "name": "grantRole",
      "outputs": [],
      "stateMutability": "nonpayable",
      "type": "function"
    },
    {
      "inputs": [
        {
          "internalType": "address[]",
          "name": "people",
          "type": "address[]"
        },
        {
          "internalType": "bytes32[]",
          "name": "roles",
          "type": "bytes32[]"
        }
      ],
      "name": "grantRoles",
      "outputs": [],
      "stateMutability": "nonpayable",
      "type": "function"
    },
    {
      "inputs": [
        {
          "internalType": "address",
          "name": "who",
          "type": "address"
        },
        {
          "internalType": "bytes32",
          "name": "role",
          "type": "bytes32"
        }
      ],
      "name": "hasRole",
      "outputs": [
        {
          "internalType": "bool",
          "name": "",
          "type": "bool"
        }
      ],
      "stateMutability": "view",
      "type": "function"
    },
    {
      "inputs": [
        {
          "internalType": "address",
          "name": "who",
          "type": "address"
        },
        {
          "internalType": "bytes32",
          "name": "role",
          "type": "bytes32"
        }
      ],
      "name": "revokeRole",
      "outputs": [],
      "stateMutability": "nonpayable",
      "type": "function"
    },
    {
      "inputs": [
        {
          "internalType": "address[]",
          "name": "people",
          "type": "address[]"
        },
        {
          "internalType": "bytes32[]",
          "name": "roles",
          "type": "bytes32[]"
        }
      ],
      "name": "revokeRoles",
      "outputs": [],
      "stateMutability": "nonpayable",
      "type": "function"
    }
  ],
  "transactionHash": "0x1746a8a67f13ff2260ac774416b7008426f349fa408445ec924a12486066e7ea",
  "args": [],
  "numDeployments": 1,
  "solcInputHash": "f2cbd77dff83ddf9a9c16b855b9827fe",
  "bytecode": "0x60a08060405234610023573060805261050390816100288239608051816102e80152f35b5f80fdfe6040608081526004361015610012575f80fd5b5f90813560e01c80630b29f42214610183578063208dd1ff1461015b578063ab2742dc1461012d578063ac4ab3fb146100e05763b1cfaa8614610053575f80fd5b346100dc576100613661021b565b9190929361006d6102e5565b61007561035c565b8282036100c05750845b81811061008a578580f35b806100b66100a461009f6100bb94868a6102ad565b6102d1565b6100af8387896102ad565b35906103d5565b61028b565b61007f565b916044925191635020e50560e01b835260048301526024820152fd5b5080fd5b50346100dc5760ff816020936100f536610265565b6100fd6102e5565b82525f8051602061048e83398151915286528282206001600160a01b039091168252855220549151911615158152f35b82346101585761015561013f36610265565b906101486102e5565b61015061035c565b6103d5565b80f35b80fd5b82346101585761015561016d36610265565b906101766102e5565b61017e61035c565b610433565b50346100dc576101923661021b565b9190929361019e6102e5565b6101a661035c565b8282036100c05750845b8181106101bb578580f35b806100b66101d061009f6101e294868a6102ad565b6101db8387896102ad565b3590610433565b6101b0565b9181601f84011215610217578235916001600160401b038311610217576020808501948460051b01011161021757565b5f80fd5b6040600319820112610217576001600160401b03916004358381116102175782610247916004016101e7565b9390939260243591821161021757610261916004016101e7565b9091565b6040906003190112610217576004356001600160a01b0381168103610217579060243590565b5f1981146102995760010190565b634e487b7160e01b5f52601160045260245ffd5b91908110156102bd5760051b0190565b634e487b7160e01b5f52603260045260245ffd5b356001600160a01b03811681036102175790565b307f00000000000000000000000000000000000000000000000000000000000000006001600160a01b0316148015610330575b61031e57565b604051639f357e6b60e01b8152600490fd5b5060ff7f9f1709bc5ab0578be51bb81e11b02cdd9c21aa603d7325a8a7551bbd5685a005541615610318565b335f9081527f7eab7b82f3f21675de29d098b67b1bb6d0c69de2cb1ba0b9eb1dbc18d523752f60205260409020547fb19546dff01e856fb3f010c267a7b1c60363cf8a4664e21cc89c26224620214e9060ff16156103b75750565b60449060405190632bc93d7960e21b82523360048301526024820152fd5b6060905f805160206104ae83398151915292805f525f8051602061048e83398151915260205260405f209160018060a01b031691825f5260205260405f20600160ff19825416179055604051918252602082015260016040820152a1565b6060905f805160206104ae83398151915292805f525f8051602061048e83398151915260205260405f209160018060a01b031691825f5260205260405f2060ff19815416905560405191825260208201525f6040820152a156fe256352104e666e6cce09c45a35c339c150e1991724469c7d87b784a284535e44e6c553997164af80f976feb439e6566231f261c8b41e3e5070f237f827fc4432a264697066735822122048bd17613accf6774b976fc269abf86415d1b864efc753bcf7f344e611c00b4b64736f6c63430008140033",
  "libraries": [
    "LTLib",
    "InitializerLib",
    "PausabilityLib",
    "RolesManagementLib",
    "AutocracyLib"
  ],
  "devdoc": {
    "errors": {
      "InvalidInitialization()": [
        {
          "details": "The contract is already initialized."
        }
      ],
      "NotInitializing()": [
        {
          "details": "The contract is not initializing."
        }
      ]
    },
    "events": {
      "Initialized(uint64)": {
        "details": "Triggered when the contract has been initialized or reinitialized."
      }
    },
    "kind": "dev",
    "methods": {},
    "version": 1
  },
  "userdoc": {
    "kind": "user",
    "methods": {},
    "version": 1
  },
  "storageLayout": {
    "storage": [],
    "types": null
  }
}