{
  "address": "0x19eebA9E18b87372c2dD5E4B9d2590BE3EC7B191",
  "abi": [
    {
      "inputs": [],
      "name": "DelegatedCallsOnly",
      "type": "error"
    },
    {
      "inputs": [],
      "name": "InvalidInitialization",
      "type": "error"
    },
    {
      "inputs": [
        {
          "internalType": "uint256",
          "name": "offset",
          "type": "uint256"
        }
      ],
      "name": "InvalidOffset",
      "type": "error"
    },
    {
      "inputs": [],
      "name": "NotInitializing",
      "type": "error"
    },
    {
      "inputs": [],
      "name": "NothingWasFound",
      "type": "error"
    },
    {
      "anonymous": false,
      "inputs": [
        {
          "indexed": false,
          "internalType": "uint64",
          "name": "version",
          "type": "uint64"
        }
      ],
      "name": "Initialized",
      "type": "event"
    },
    {
      "inputs": [
        {
          "internalType": "uint256",
          "name": "offset",
          "type": "uint256"
        },
        {
          "internalType": "uint256",
          "name": "windowSize",
          "type": "uint256"
        },
        {
          "internalType": "address[]",
          "name": "addresses",
          "type": "address[]"
        }
      ],
      "name": "getReceiversByAddresses",
      "outputs": [
        {
          "internalType": "uint256[]",
          "name": "indicies",
          "type": "uint256[]"
        }
      ],
      "stateMutability": "view",
      "type": "function"
    },
    {
      "inputs": [
        {
          "internalType": "uint256",
          "name": "offset",
          "type": "uint256"
        },
        {
          "internalType": "uint256",
          "name": "windowSize",
          "type": "uint256"
        },
        {
          "internalType": "uint256[]",
          "name": "shares",
          "type": "uint256[]"
        }
      ],
      "name": "getReceiversByShares",
      "outputs": [
        {
          "internalType": "uint256[]",
          "name": "indicies",
          "type": "uint256[]"
        }
      ],
      "stateMutability": "view",
      "type": "function"
    },
    {
      "inputs": [
        {
          "internalType": "uint256",
          "name": "offset",
          "type": "uint256"
        },
        {
          "internalType": "uint256",
          "name": "windowSize",
          "type": "uint256"
        },
        {
          "internalType": "bool[]",
          "name": "statuses",
          "type": "bool[]"
        }
      ],
      "name": "getReceiversByStatuses",
      "outputs": [
        {
          "internalType": "uint256[]",
          "name": "indicies",
          "type": "uint256[]"
        }
      ],
      "stateMutability": "view",
      "type": "function"
    }
  ],
  "transactionHash": "0x053d0f1d9266867310640044dc100c4d4bd61478fcc7ca3c3c0682920f09488b",
  "args": [],
  "numDeployments": 1,
  "solcInputHash": "f2cbd77dff83ddf9a9c16b855b9827fe",
  "bytecode": "0x60a080604052346100235730608052610665908161002882396080518161059b0152f35b5f80fdfe60406080815260049081361015610014575f80fd5b5f90813560e01c80631a22405514610317578063518e45f8146101d95763562d915d1461003f575f80fd5b346101d55760603660031901126101d55782356044356001600160401b0381116101d157366023820112156101d157808501359061008461007f836104ae565b610475565b908192808352602460208094019160051b830101913683116101cd57602401905b8282106101b157505050506100b8610598565b5f8051602061061083398151915254938483101561019a576100db6024356104ff565b94818094915b8083106101145750505050501561010557610101925051918291826104c5565b0390f35b51632db5c2f560e11b81529050fd5b8193979498929596915b89518110156101825760ff600261013489610549565b50015460a01c16610145828c610584565b5115159015151461015f575b61015a90610527565b61011e565b8661017361016c8b610527565b9a88610584565b52876101515760019750610151565b50919793969290959461019490610527565b916100e1565b835163308af96f60e11b8152808701849052602490fd5b813580151581036101c95781529083019083016100a5565b8880fd5b8780fd5b8380fd5b5080fd5b50346101d55760603660031901126101d55782356044356001600160401b0381116101d157366023820112156101d157808501359061021a61007f836104ae565b908192808352602460208094019160051b830101913683116101cd57602401905b828210610308575050505061024e610598565b5f8051602061061083398151915254938483101561019a576102716024356104ff565b94818094915b8083106102975750505050501561010557610101925051918291826104c5565b8193979498929596915b89518110156102f0576102b387610549565b50546102bf828c610584565b51146102d4575b6102cf90610527565b6102a1565b866102e161016c8b610527565b52876102c657600197506102c6565b50919793969290959461030290610527565b91610277565b8135815290830190830161023b565b50346101d55760603660031901126101d55782356044356001600160401b0381116101d157366023820112156101d157808501359061035861007f836104ae565b908192808352602460208094019160051b830101913683116101cd57602401905b828210610456575050505061038c610598565b5f8051602061061083398151915254938483101561019a576103af6024356104ff565b94818094915b8083106103d55750505050501561010557610101925051918291826104c5565b8193979498929596915b895181101561043e5760026103f388610549565b5001546001600160a01b039081169061040c838d610584565b511614610422575b61041d90610527565b6103df565b8661042f61016c8b610527565b52876104145760019750610414565b50919793969290959461045090610527565b916103b5565b81356001600160a01b03811681036101c9578152908301908301610379565b6040519190601f01601f191682016001600160401b0381118382101761049a57604052565b634e487b7160e01b5f52604160045260245ffd5b6001600160401b03811161049a5760051b60200190565b602090816040818301928281528551809452019301915f5b8281106104eb575050505090565b8351855293810193928101926001016104dd565b9061050c61007f836104ae565b828152809261051d601f19916104ae565b0190602036910137565b5f1981146105355760010190565b634e487b7160e01b5f52601160045260245ffd5b5f805160206106108339815191528054821015610570575f52600360205f20910201905f90565b634e487b7160e01b5f52603260045260245ffd5b80518210156105705760209160051b010190565b307f00000000000000000000000000000000000000000000000000000000000000006001600160a01b03161480156105e3575b6105d157565b604051639f357e6b60e01b8152600490fd5b5060ff7f9f1709bc5ab0578be51bb81e11b02cdd9c21aa603d7325a8a7551bbd5685a0055416156105cb56fef8a6c10351c569dde9f00d2a7d439ceae77f38bfadfbaac59dc5476ddac46a0aa2646970667358221220d2c864ac234b2ef654d915fe712318d14ecbe8042978104e64d769333f36584064736f6c63430008140033",
  "libraries": [
    "TDLib",
    "LTLib",
    "InitializerLib",
    "PausabilityLib",
    "RolesManagementLib",
    "AutocracyLib"
  ],
  "devdoc": {
    "errors": {
      "InvalidInitialization()": [
        {
          "details": "The contract is already initialized."
        }
      ],
      "NotInitializing()": [
        {
          "details": "The contract is not initializing."
        }
      ]
    },
    "events": {
      "Initialized(uint64)": {
        "details": "Triggered when the contract has been initialized or reinitialized."
      }
    },
    "kind": "dev",
    "methods": {},
    "version": 1
  },
  "userdoc": {
    "kind": "user",
    "methods": {},
    "version": 1
  },
  "storageLayout": {
    "storage": [],
    "types": null
  }
}