{
  "address": "0x8814CA1A001EBBBaF3e474Cfb6359e574A9E6454",
  "abi": [
    {
      "inputs": [],
      "name": "DelegatedCallsOnly",
      "type": "error"
    },
    {
      "inputs": [
        {
          "internalType": "uint256",
          "name": "offset",
          "type": "uint256"
        }
      ],
      "name": "InvalidOffset",
      "type": "error"
    },
    {
      "inputs": [],
      "name": "NothingWasFound",
      "type": "error"
    },
    {
      "anonymous": false,
      "inputs": [
        {
          "indexed": false,
          "internalType": "uint8",
          "name": "version",
          "type": "uint8"
        }
      ],
      "name": "Initialized",
      "type": "event"
    },
    {
      "inputs": [
        {
          "internalType": "uint256",
          "name": "offset",
          "type": "uint256"
        },
        {
          "internalType": "uint256",
          "name": "windowSize",
          "type": "uint256"
        },
        {
          "internalType": "address[]",
          "name": "addresses",
          "type": "address[]"
        }
      ],
      "name": "getReceiversByAddresses",
      "outputs": [
        {
          "internalType": "uint256[]",
          "name": "indicies",
          "type": "uint256[]"
        }
      ],
      "stateMutability": "view",
      "type": "function"
    },
    {
      "inputs": [
        {
          "internalType": "uint256",
          "name": "offset",
          "type": "uint256"
        },
        {
          "internalType": "uint256",
          "name": "windowSize",
          "type": "uint256"
        },
        {
          "internalType": "uint256[]",
          "name": "shares",
          "type": "uint256[]"
        }
      ],
      "name": "getReceiversByShares",
      "outputs": [
        {
          "internalType": "uint256[]",
          "name": "indicies",
          "type": "uint256[]"
        }
      ],
      "stateMutability": "view",
      "type": "function"
    },
    {
      "inputs": [
        {
          "internalType": "uint256",
          "name": "offset",
          "type": "uint256"
        },
        {
          "internalType": "uint256",
          "name": "windowSize",
          "type": "uint256"
        },
        {
          "internalType": "bool[]",
          "name": "statuses",
          "type": "bool[]"
        }
      ],
      "name": "getReceiversByStatuses",
      "outputs": [
        {
          "internalType": "uint256[]",
          "name": "indicies",
          "type": "uint256[]"
        }
      ],
      "stateMutability": "view",
      "type": "function"
    }
  ],
  "transactionHash": "0xb9455e26615644df3e3e8b56df572de02579e9477ecad47e834e7db88a62c8dd",
  "args": [],
  "numDeployments": 2,
  "solcInputHash": "a98a5384338f38456d16b1d0c4ad9bea",
  "bytecode": "0x60a08060405234610023573060805261067790816100298239608051816105ad0152f35b600080fdfe6040608081526004908136101561001557600080fd5b600090813560e01c80631a2240551461031c578063518e45f8146101dd5763562d915d1461004257600080fd5b346101d95760603660031901126101d95782356044356001600160401b0381116101d557366023820112156101d5578085013590610087610082836104b6565b61047b565b908192808352602460208094019160051b830101913683116101d157602401905b8282106101b557505050506100bb6105aa565b60008051602061062283398151915254938483101561019e576100df602435610508565b94818094915b8083106101185750505050501561010957610105925051918291826104cd565b0390f35b51632db5c2f560e11b81529050fd5b8193979498929596915b89518110156101865760ff600261013889610555565b50015460a01c16610149828c610596565b51151590151514610163575b61015e90610530565b610122565b866101776101708b610530565b9a88610596565b52876101555760019750610155565b50919793969290959461019890610530565b916100e5565b835163308af96f60e11b8152808701849052602490fd5b813580151581036101cd5781529083019083016100a8565b8880fd5b8780fd5b8380fd5b5080fd5b50346101d95760603660031901126101d95782356044356001600160401b0381116101d557366023820112156101d557808501359061021e610082836104b6565b908192808352602460208094019160051b830101913683116101d157602401905b82821061030d57505050506102526105aa565b60008051602061062283398151915254938483101561019e57610276602435610508565b94818094915b80831061029c5750505050501561010957610105925051918291826104cd565b8193979498929596915b89518110156102f5576102b887610555565b50546102c4828c610596565b51146102d9575b6102d490610530565b6102a6565b866102e66101708b610530565b52876102cb57600197506102cb565b50919793969290959461030790610530565b9161027c565b8135815290830190830161023f565b50346101d95760603660031901126101d95782356044356001600160401b0381116101d557366023820112156101d557808501359061035d610082836104b6565b908192808352602460208094019160051b830101913683116101d157602401905b82821061045c57505050506103916105aa565b60008051602061062283398151915254938483101561019e576103b5602435610508565b94818094915b8083106103db5750505050501561010957610105925051918291826104cd565b8193979498929596915b89518110156104445760026103f988610555565b5001546001600160a01b0390811690610412838d610596565b511614610428575b61042390610530565b6103e5565b866104356101708b610530565b528761041a576001975061041a565b50919793969290959461045690610530565b916103bb565b81356001600160a01b03811681036101cd57815290830190830161037e565b6040519190601f01601f191682016001600160401b038111838210176104a057604052565b634e487b7160e01b600052604160045260246000fd5b6001600160401b0381116104a05760051b60200190565b6020908160408183019282815285518094520193019160005b8281106104f4575050505090565b8351855293810193928101926001016104e6565b90610515610082836104b6565b8281528092610526601f19916104b6565b0190602036910137565b600019811461053f5760010190565b634e487b7160e01b600052601160045260246000fd5b6000805160206106228339815191528054821015610580576000526003602060002091020190600090565b634e487b7160e01b600052603260045260246000fd5b80518210156105805760209160051b010190565b307f00000000000000000000000000000000000000000000000000000000000000006001600160a01b03161480156105f5575b6105e357565b604051639f357e6b60e01b8152600490fd5b5060ff7f9f1709bc5ab0578be51bb81e11b02cdd9c21aa603d7325a8a7551bbd5685a0055416156105dd56fef8a6c10351c569dde9f00d2a7d439ceae77f38bfadfbaac59dc5476ddac46a0aa264697066735822122047a7ac8114bd5da7c4edcd73ae7795013b6e20b49e3287ee7f48144eb79f2ac564736f6c63430008130033",
  "libraries": [
    "TDLib",
    "LTLib",
    "InitializerLib",
    "PausabilityLib",
    "RolesManagementLib",
    "AutocracyLib"
  ],
  "devdoc": {
    "events": {
      "Initialized(uint8)": {
        "details": "Triggered when the contract has been initialized or reinitialized."
      }
    },
    "kind": "dev",
    "methods": {},
    "version": 1
  },
  "userdoc": {
    "kind": "user",
    "methods": {},
    "version": 1
  },
  "storageLayout": {
    "storage": [
      {
        "astId": 2909,
        "contract": "contracts/diamonds/facetsFramework/tokensDistributor/v1/TDLoupeFacet.sol:TDLoupeFacet",
        "label": "_initialized",
        "offset": 0,
        "slot": "0",
        "type": "t_uint8"
      },
      {
        "astId": 2912,
        "contract": "contracts/diamonds/facetsFramework/tokensDistributor/v1/TDLoupeFacet.sol:TDLoupeFacet",
        "label": "_initializing",
        "offset": 1,
        "slot": "0",
        "type": "t_bool"
      }
    ],
    "types": {
      "t_bool": {
        "encoding": "inplace",
        "label": "bool",
        "numberOfBytes": "1"
      },
      "t_uint8": {
        "encoding": "inplace",
        "label": "uint8",
        "numberOfBytes": "1"
      }
    }
  }
}