{
  "address": "0x8c192b7B04682421136cAb91beFAe09817f30C1d",
  "abi": [
    {
      "inputs": [],
      "name": "DelegatedCallsOnly",
      "type": "error"
    },
    {
      "inputs": [
        {
          "internalType": "address",
          "name": "who",
          "type": "address"
        },
        {
          "internalType": "bytes32[]",
          "name": "roles",
          "type": "bytes32[]"
        }
      ],
      "name": "HasNoRoles",
      "type": "error"
    },
    {
      "inputs": [],
      "name": "InvalidInitialization",
      "type": "error"
    },
    {
      "inputs": [],
      "name": "NotInitializing",
      "type": "error"
    },
    {
      "anonymous": false,
      "inputs": [
        {
          "indexed": false,
          "internalType": "uint64",
          "name": "version",
          "type": "uint64"
        }
      ],
      "name": "Initialized",
      "type": "event"
    },
    {
      "anonymous": false,
      "inputs": [
        {
          "indexed": true,
          "internalType": "address",
          "name": "receiver",
          "type": "address"
        },
        {
          "indexed": true,
          "internalType": "uint256",
          "name": "share",
          "type": "uint256"
        },
        {
          "indexed": true,
          "internalType": "bool",
          "name": "isBlocked",
          "type": "bool"
        },
        {
          "indexed": false,
          "internalType": "uint256",
          "name": "sumOfShares",
          "type": "uint256"
        }
      ],
      "name": "ReceiverAltered",
      "type": "event"
    },
    {
      "inputs": [
        {
          "internalType": "address",
          "name": "distributionReceiver",
          "type": "address"
        },
        {
          "internalType": "uint256",
          "name": "share",
          "type": "uint256"
        },
        {
          "internalType": "bool",
          "name": "status",
          "type": "bool"
        }
      ],
      "name": "addReceiver",
      "outputs": [],
      "stateMutability": "nonpayable",
      "type": "function"
    },
    {
      "inputs": [
        {
          "internalType": "address",
          "name": "distributionReceiver",
          "type": "address"
        },
        {
          "internalType": "uint256",
          "name": "share",
          "type": "uint256"
        }
      ],
      "name": "setReceiverShare",
      "outputs": [],
      "stateMutability": "nonpayable",
      "type": "function"
    },
    {
      "inputs": [
        {
          "internalType": "address",
          "name": "distributionReceiver",
          "type": "address"
        },
        {
          "internalType": "bool",
          "name": "status",
          "type": "bool"
        }
      ],
      "name": "setReceiverStatus",
      "outputs": [],
      "stateMutability": "nonpayable",
      "type": "function"
    }
  ],
  "transactionHash": "0x5aa78fc3b97abe34a35ea775be2242a9488902495088c3dbe069329bd0d8c5a6",
  "args": [],
  "numDeployments": 1,
  "solcInputHash": "f2cbd77dff83ddf9a9c16b855b9827fe",
  "bytecode": "0x60a080604052346100235730608052610794908161002882396080518161029a0152f35b5f80fdfe6040608081526004361015610012575f80fd5b5f90813560e01c80632647d9e5146100ab5780636d8256fa1461007f5763b8667a1c1461003d575f80fd5b3461007b5736600319011261007857610054610204565b6024358015158103610074576100719161006c610297565b610431565b80f35b8280fd5b80fd5b5080fd5b503461007b573660031901126100785761007161009a610204565b6100a2610297565b60243590610329565b503461007b57606036600319011261007b576100c5610204565b6024359060443592831515809403610200576100df610297565b6100e761055b565b805191608083016001600160401b038111848210176101ec578252838352602083018681526001600160a01b03918216848401818152606086018881525f8051602061071f8339815191528054939792959194919390600160401b8210156101d8576001820190556101589061021e565b9290926101c457926002602096935f805160206106ff83398151915298969361019f965182555160018201550192511660018060a01b031983541617825551151590610259565b5f8051602061073f833981519152906101b9868354610276565b80925551908152a480f35b634e487b7160e01b8b5260048b905260248bfd5b634e487b7160e01b8c52604160045260248cfd5b634e487b7160e01b87526041600452602487fd5b8480fd5b600435906001600160a01b038216820361021a57565b5f80fd5b5f8051602061071f8339815191528054821015610245575f52600360205f20910201905f90565b634e487b7160e01b5f52603260045260245ffd5b805460ff60a01b191691151560a01b60ff60a01b16919091179055565b9190820180921161028357565b634e487b7160e01b5f52601160045260245ffd5b307f00000000000000000000000000000000000000000000000000000000000000006001600160a01b03161480156102e2575b6102d057565b604051639f357e6b60e01b8152600490fd5b5060ff7f9f1709bc5ab0578be51bb81e11b02cdd9c21aa603d7325a8a7551bbd5685a0055416156102ca565b5f1981146102835760010190565b9190820391821161028357565b61033161055b565b5f8051602061071f83398151915254915f5b8381106103505750505050565b6103598161021e565b506002810180546001600160a01b038681169391168314610385575050506103809061030e565b610343565b84955060ff9492965080919350548281036103d0575b5050505460a01c16915f805160206106ff83398151915260205f8051602061073f8339815191525494604051958652151594a4565b8280821115610407576103e29161031c565b6103fb5f8051602061073f83398151915291825461031c565b90555b55825f8061039b565b906104119161031c565b61042a5f8051602061073f833981519152918254610276565b90556103fe565b61043961055b565b5f8051602061071f83398151915254915f805b84811061045a575050505050565b6104638161021e565b506002810180546001600160a01b038781169392919081168414610493575050505061048e9061030e565b61044c565b9195935091955060ff965082151596879160a01c161515036104dd575b50505054905f805160206106ff83398151915260205f8051602061073f83398151915254604051908152a4565b816104e791610259565b1561051b5781549081600184015582556105105f8051602061073f83398151915291825461031c565b90555b5f80806104b0565b6001820190815491558082556105405f8051602061073f833981519152918254610276565b9055610513565b80518210156102455760209160051b010190565b60408051606081016001600160401b038111828210176106ea578252600281526020918282019080368337825115610245577fb19546dff01e856fb3f010c267a7b1c60363cf8a4664e21cc89c26224620214e8252825193600194851015610245577fddd94edc7da5bca8f576c77964a4737ba5172c728e2d539e672f0229d1e9ec2d808386015285805f9283925b61064b575b505050156105fe575050505050565b908094929451936359e2c34760e11b855260448501913360048701526024860152518091526064840194915f5b8281106106385785870386fd5b835187529581019592810192840161062b565b90919287518410156106e15781610662858a610547565b510361068a578015610681575b610679909361030e565b9190816105ea565b5033301461066f565b801561069a57610679909361030e565b506106a58388610547565b515f9081527f256352104e666e6cce09c45a35c339c150e1991724469c7d87b784a284535e44855285812033825285528590205460ff1661066f565b928291506105ef565b634e487b7160e01b5f52604160045260245ffdfe30854b8e7daa947169d432a39b38215fd59fa6282ae4dda344bbfdcb07024e77f8a6c10351c569dde9f00d2a7d439ceae77f38bfadfbaac59dc5476ddac46a0af8a6c10351c569dde9f00d2a7d439ceae77f38bfadfbaac59dc5476ddac46a0ba2646970667358221220fecabb71bdc7353c3c8ff5666ea1d0fcdb25f6630c89558e1da43cf485b406b364736f6c63430008140033",
  "libraries": [
    "TDLib",
    "LTLib",
    "InitializerLib",
    "PausabilityLib",
    "RolesManagementLib",
    "AutocracyLib"
  ],
  "devdoc": {
    "errors": {
      "InvalidInitialization()": [
        {
          "details": "The contract is already initialized."
        }
      ],
      "NotInitializing()": [
        {
          "details": "The contract is not initializing."
        }
      ]
    },
    "events": {
      "Initialized(uint64)": {
        "details": "Triggered when the contract has been initialized or reinitialized."
      }
    },
    "kind": "dev",
    "methods": {},
    "version": 1
  },
  "userdoc": {
    "kind": "user",
    "methods": {},
    "version": 1
  },
  "storageLayout": {
    "storage": [],
    "types": null
  }
}