{
  "address": "0xb6B41ad061ca4F2024c2c49f76D788bbdfe31f71",
  "abi": [
    {
      "inputs": [],
      "name": "DelegatedCallsOnly",
      "type": "error"
    },
    {
      "inputs": [
        {
          "internalType": "address",
          "name": "who",
          "type": "address"
        },
        {
          "internalType": "bytes32[]",
          "name": "roles",
          "type": "bytes32[]"
        }
      ],
      "name": "HasNoRoles",
      "type": "error"
    },
    {
      "anonymous": false,
      "inputs": [
        {
          "indexed": false,
          "internalType": "uint8",
          "name": "version",
          "type": "uint8"
        }
      ],
      "name": "Initialized",
      "type": "event"
    },
    {
      "inputs": [
        {
          "internalType": "address",
          "name": "distributionReceiver",
          "type": "address"
        },
        {
          "internalType": "uint256",
          "name": "share",
          "type": "uint256"
        },
        {
          "internalType": "bool",
          "name": "status",
          "type": "bool"
        }
      ],
      "name": "addReceiver",
      "outputs": [],
      "stateMutability": "nonpayable",
      "type": "function"
    },
    {
      "inputs": [
        {
          "internalType": "address",
          "name": "distributionReceiver",
          "type": "address"
        },
        {
          "internalType": "uint256",
          "name": "share",
          "type": "uint256"
        }
      ],
      "name": "setReceiverShare",
      "outputs": [],
      "stateMutability": "nonpayable",
      "type": "function"
    },
    {
      "inputs": [
        {
          "internalType": "address",
          "name": "distributionReceiver",
          "type": "address"
        },
        {
          "internalType": "bool",
          "name": "status",
          "type": "bool"
        }
      ],
      "name": "setReceiverStatus",
      "outputs": [],
      "stateMutability": "nonpayable",
      "type": "function"
    }
  ],
  "transactionHash": "0xf228a0acfb3b41a2d5f79c35e39c79aeff7f56a6ed3dcff3c67e3dc34bfffb66",
  "args": [],
  "numDeployments": 2,
  "solcInputHash": "156336847c249fbc9cabd0a8fc9680fa",
  "bytecode": "0x60a0806040523461002357306080526107b590816100298239608051816102a90152f35b600080fdfe604060808152600436101561001357600080fd5b600090813560e01c80632647d9e5146100ae5780636d8256fa146100825763b8667a1c1461004057600080fd5b3461007e5736600319011261007b5761005761020a565b6024358015158103610077576100749161006f6102a6565b610447565b80f35b8280fd5b80fd5b5080fd5b503461007e5736600319011261007b5761007461009d61020a565b6100a56102a6565b60243590610339565b503461007e57606036600319011261007e576100c861020a565b6024359060443592831515809403610206576100e26102a6565b6100ea610577565b805191608083016001600160401b038111848210176101f2578252838352602083018681526001600160a01b03918216848401818152606086018881526000805160206107408339815191528054939792959194919390600160401b8210156101de5760018201905561015c90610225565b9290926101ca57926002602096936000805160206107208339815191529896936101a4965182555160018201550192511660018060a01b031983541617825551151590610266565b600080516020610760833981519152906101bf868354610283565b80925551908152a480f35b634e487b7160e01b8b5260048b905260248bfd5b634e487b7160e01b8c52604160045260248cfd5b634e487b7160e01b87526041600452602487fd5b8480fd5b600435906001600160a01b038216820361022057565b600080fd5b6000805160206107408339815191528054821015610250576000526003602060002091020190600090565b634e487b7160e01b600052603260045260246000fd5b805460ff60a01b191691151560a01b60ff60a01b16919091179055565b9190820180921161029057565b634e487b7160e01b600052601160045260246000fd5b307f00000000000000000000000000000000000000000000000000000000000000006001600160a01b03161480156102f1575b6102df57565b604051639f357e6b60e01b8152600490fd5b5060ff7f9f1709bc5ab0578be51bb81e11b02cdd9c21aa603d7325a8a7551bbd5685a0055416156102d9565b60001981146102905760010190565b9190820391821161029057565b610341610577565b600080516020610740833981519152549160005b8381106103625750505050565b61036b81610225565b506002810180546001600160a01b038681169391168314610397575050506103929061031d565b610355565b84955060ff9492965080919350548281036103e4575b5050505460a01c169160008051602061072083398151915260206000805160206107608339815191525494604051958652151594a4565b828082111561041c576103f69161032c565b61041060008051602061076083398151915291825461032c565b90555b558238806103ad565b906104269161032c565b610440600080516020610760833981519152918254610283565b9055610413565b61044f610577565b60008051602061074083398151915254916000805b848110610472575050505050565b61047b81610225565b506002810180546001600160a01b0387811693929190811684146104ab57505050506104a69061031d565b610464565b9195935091955060ff965082151596879160a01c161515036104f7575b5050505490600080516020610720833981519152602060008051602061076083398151915254604051908152a4565b8161050191610266565b1561053657815490816001840155825561052b60008051602061076083398151915291825461032c565b90555b3880806104c8565b60018201908154915580825561055c600080516020610760833981519152918254610283565b905561052e565b80518210156102505760209160051b010190565b60408051606081016001600160401b03811182821017610709578252600281526020918282019080368337825115610250577fb19546dff01e856fb3f010c267a7b1c60363cf8a4664e21cc89c26224620214e8252825193600194851015610250577fddd94edc7da5bca8f576c77964a4737ba5172c728e2d539e672f0229d1e9ec2d8083860152858060009283925b610669575b5050501561061b575050505050565b908094929451936359e2c34760e11b8552604485019133600487015260248601525180915260648401949160005b8281106106565785870386fd5b8351875295810195928101928401610649565b90919287518410156107005781610680858a610563565b51036106a857801561069f575b610697909361031d565b919081610607565b5033301461068d565b80156106b857610697909361031d565b506106c38388610563565b5160009081527f256352104e666e6cce09c45a35c339c150e1991724469c7d87b784a284535e44855285812033825285528590205460ff1661068d565b9282915061060c565b634e487b7160e01b600052604160045260246000fdfe30854b8e7daa947169d432a39b38215fd59fa6282ae4dda344bbfdcb07024e77f8a6c10351c569dde9f00d2a7d439ceae77f38bfadfbaac59dc5476ddac46a0af8a6c10351c569dde9f00d2a7d439ceae77f38bfadfbaac59dc5476ddac46a0ba2646970667358221220fbf43ec52c559c30c80cb1dc19c8d0de6f953e5aa521b748c33a197af2aad82164736f6c63430008130033",
  "libraries": [
    "TDLib",
    "LSLib",
    "InitializerLib",
    "RolesManagementLib"
  ],
  "devdoc": {
    "events": {
      "Initialized(uint8)": {
        "details": "Triggered when the contract has been initialized or reinitialized."
      }
    },
    "kind": "dev",
    "methods": {},
    "version": 1
  },
  "userdoc": {
    "kind": "user",
    "methods": {},
    "version": 1
  },
  "storageLayout": {
    "storage": [
      {
        "astId": 6,
        "contract": "contracts/diamonds/facetsFramework/tokensDistributor/v1/TDManagementFacet.sol:TDManagementFacet",
        "label": "_initialized",
        "offset": 0,
        "slot": "0",
        "type": "t_uint8"
      },
      {
        "astId": 9,
        "contract": "contracts/diamonds/facetsFramework/tokensDistributor/v1/TDManagementFacet.sol:TDManagementFacet",
        "label": "_initializing",
        "offset": 1,
        "slot": "0",
        "type": "t_bool"
      }
    ],
    "types": {
      "t_bool": {
        "encoding": "inplace",
        "label": "bool",
        "numberOfBytes": "1"
      },
      "t_uint8": {
        "encoding": "inplace",
        "label": "uint8",
        "numberOfBytes": "1"
      }
    }
  }
}