{
  "address": "0x0EAA16229096AeB14b8d1532346c05588AA06FD4",
  "abi": [
    {
      "inputs": [
        {
          "internalType": "address",
          "name": "target",
          "type": "address"
        }
      ],
      "name": "AddressEmptyCode",
      "type": "error"
    },
    {
      "inputs": [
        {
          "internalType": "address",
          "name": "account",
          "type": "address"
        }
      ],
      "name": "AddressInsufficientBalance",
      "type": "error"
    },
    {
      "inputs": [],
      "name": "DelegatedCallsOnly",
      "type": "error"
    },
    {
      "inputs": [],
      "name": "FailedInnerCall",
      "type": "error"
    },
    {
      "inputs": [
        {
          "internalType": "address",
          "name": "who",
          "type": "address"
        },
        {
          "internalType": "bytes32",
          "name": "role",
          "type": "bytes32"
        }
      ],
      "name": "HasNoRole",
      "type": "error"
    },
    {
      "inputs": [],
      "name": "InvalidInitialization",
      "type": "error"
    },
    {
      "inputs": [],
      "name": "NotInitializing",
      "type": "error"
    },
    {
      "inputs": [
        {
          "internalType": "address",
          "name": "token",
          "type": "address"
        }
      ],
      "name": "SafeERC20FailedOperation",
      "type": "error"
    },
    {
      "anonymous": false,
      "inputs": [
        {
          "indexed": true,
          "internalType": "uint256",
          "name": "distributedValue",
          "type": "uint256"
        },
        {
          "indexed": true,
          "internalType": "uint256",
          "name": "tokensLeftAndSentToGovernance",
          "type": "uint256"
        }
      ],
      "name": "Distributed",
      "type": "event"
    },
    {
      "anonymous": false,
      "inputs": [
        {
          "indexed": false,
          "internalType": "uint64",
          "name": "version",
          "type": "uint64"
        }
      ],
      "name": "Initialized",
      "type": "event"
    },
    {
      "inputs": [
        {
          "internalType": "uint256",
          "name": "amount",
          "type": "uint256"
        },
        {
          "internalType": "contract IERC20",
          "name": "token",
          "type": "address"
        }
      ],
      "name": "distribute",
      "outputs": [],
      "stateMutability": "nonpayable",
      "type": "function"
    }
  ],
  "transactionHash": "0x0ad467cdbea73f0da86771656fa0fd205b73cabb4fbbbdd982de8573f0f83399",
  "args": [],
  "numDeployments": 1,
  "solcInputHash": "8fc5e0e21590d56561f202f7e414b5a0",
  "bytecode": "0x60a08060405234610020573060805261053690816100258239608051815050f35b5f80fdfe608060409080825260049182361015610016575f80fd5b5f92833560e01c63e1fa8b021461002b575f80fd5b34610311578160031936011261031157602492813592906001600160a01b03908535908282169081830361030d573033036102d4575095879291869788927ff8a6c10351c569dde9f00d2a7d439ceae77f38bfadfbaac59dc5476ddac46a0b547ff8a6c10351c569dde9f00d2a7d439ceae77f38bfadfbaac59dc5476ddac46a0a90815491885b83811061018c575050505050826100ee575b8483897f97791d3ac1343e05805a2f905fa80b249c2ca58cf9fef455d4fa7ec13ce583218380a380f35b30036101685750505f805160206104e18339815191525416303b156101645782516308934a5f60e31b8152938491829161012b918991840161035f565b038183305af190811561015b575061014c575b505b5f8084818581806100c4565b61015590610315565b5f61013e565b513d86823e3d90fd5b5080fd5b9250925061018793505f805160206104e183398151915254169061037a565b610140565b9193959798508092949650548110156102c257818d5260208d2060038202016002810180549160ff8360a01c16156101ee575b5050505f1981146101dc57600101918b9593918d989795936100b2565b634e487b7160e01b8d5260118a52848dfd5b9d929d548d8181029181830414901517156102af57851561029c578f91868c92048094308c145f14610287575050541690303b156102845782918d6102448e5194859384936308934a5f60e31b8552840161035f565b038183305af1801561027857610269575b505b81039081116101dc579a5f80806101bf565b61027290610315565b5f610255565b8f8c51903d90823e3d90fd5b80fd5b909291506102979350168a61037a565b610257565b50634e487b7160e01b8f5260128c52868ffd5b50634e487b7160e01b8f5260118c52868ffd5b634e487b7160e01b8d5260328a52848dfd5b632bc93d7960e21b815233868201527fddd94edc7da5bca8f576c77964a4737ba5172c728e2d539e672f0229d1e9ec2d88820152604490fd5b8880fd5b8380fd5b6001600160401b03811161032857604052565b634e487b7160e01b5f52604160045260245ffd5b601f909101601f19168101906001600160401b0382119082101761032857604052565b6001600160a01b039091168152602081019190915260400190565b61039c92604051938491602083019463a9059cbb60e01b86526024840161035f565b03906103b0601f199283810186528561033c565b60018060a01b0316925f80938192519082875af13d15610470573d6001600160401b03811161045c579061040492916103f4602060405194601f840116018461033c565b82523d84602084013e5b8461047d565b908151918215159283610434575b50505061041c5750565b60249060405190635274afe760e01b82526004820152fd5b81929350906020918101031261016457602001519081159182150361028457505f8080610412565b634e487b7160e01b84526041600452602484fd5b61040491506060906103fe565b906104a4575080511561049257805190602001fd5b604051630a12f52160e11b8152600490fd5b815115806104d7575b6104b5575090565b604051639996b31560e01b81526001600160a01b039091166004820152602490fd5b50803b156104ad56fef8a6c10351c569dde9f00d2a7d439ceae77f38bfadfbaac59dc5476ddac46a0ca264697066735822122065edbe0129e84708de27bc0b474234f85ca81103c3bdb7765451d18be2a34f4264736f6c63430008140033",
  "libraries": [
    "TDLib",
    "LTLib",
    "InitializerLib",
    "PausabilityLib",
    "RolesManagementLib",
    "AutocracyLib"
  ],
  "devdoc": {
    "errors": {
      "AddressEmptyCode(address)": [
        {
          "details": "There's no code at `target` (it is not a contract)."
        }
      ],
      "AddressInsufficientBalance(address)": [
        {
          "details": "The ETH balance of the account is not enough to perform the operation."
        }
      ],
      "FailedInnerCall()": [
        {
          "details": "A call to an address target failed. The target may have reverted."
        }
      ],
      "InvalidInitialization()": [
        {
          "details": "The contract is already initialized."
        }
      ],
      "NotInitializing()": [
        {
          "details": "The contract is not initializing."
        }
      ],
      "SafeERC20FailedOperation(address)": [
        {
          "details": "An operation with an ERC20 token failed."
        }
      ]
    },
    "events": {
      "Initialized(uint64)": {
        "details": "Triggered when the contract has been initialized or reinitialized."
      }
    },
    "kind": "dev",
    "methods": {},
    "version": 1
  },
  "userdoc": {
    "kind": "user",
    "methods": {},
    "version": 1
  },
  "storageLayout": {
    "storage": [],
    "types": null
  }
}