{
  "address": "0x354DC6EC98EC489732618Ba7DC5Ce1e84eD07Dab",
  "abi": [
    {
      "inputs": [],
      "name": "DelegatedCallsOnly",
      "type": "error"
    },
    {
      "inputs": [
        {
          "internalType": "address",
          "name": "who",
          "type": "address"
        },
        {
          "internalType": "bytes32",
          "name": "role",
          "type": "bytes32"
        }
      ],
      "name": "HasNoRole",
      "type": "error"
    },
    {
      "anonymous": false,
      "inputs": [
        {
          "indexed": false,
          "internalType": "uint8",
          "name": "version",
          "type": "uint8"
        }
      ],
      "name": "Initialized",
      "type": "event"
    },
    {
      "inputs": [
        {
          "internalType": "uint256",
          "name": "amount",
          "type": "uint256"
        },
        {
          "internalType": "contract IERC20",
          "name": "token",
          "type": "address"
        }
      ],
      "name": "distribute",
      "outputs": [],
      "stateMutability": "nonpayable",
      "type": "function"
    }
  ],
  "args": [],
  "numDeployments": 1,
  "solcInputHash": "b6d3cd2fe098543453877e1dad3f3dbb",
  "bytecode": "0x60a08060405234610020573060805261062d90816100268239608051815050f35b600080fdfe60806040908082526004918236101561001757600080fd5b600092833560e01c63e1fa8b021461002e57600080fd5b34610318578160031936011261031857602492813592906001600160a01b039085359082821690818303610314573033036102db575095879291869788927ff8a6c10351c569dde9f00d2a7d439ceae77f38bfadfbaac59dc5476ddac46a0b547ff8a6c10351c569dde9f00d2a7d439ceae77f38bfadfbaac59dc5476ddac46a0a90815491885b838110610191575050505050826100f1575b8483897f97791d3ac1343e05805a2f905fa80b249c2ca58cf9fef455d4fa7ec13ce583218380a380f35b300361016c5750506000805160206105d88339815191525416303b156101685782516308934a5f60e31b8152938491829161012f9189918401610368565b038183305af190811561015f5750610150575b505b388084818581806100c7565b6101599061031c565b38610142565b513d86823e3d90fd5b5080fd5b9250925061018c93506000805160206105d8833981519152541690610383565b610144565b9193959798508092949650548110156102c957818d5260208d2060038202016002810180549160ff8360a01c16156101f4575b50505060001981146101e257600101918b9593918d989795936100b5565b634e487b7160e01b8d5260118a52848dfd5b9d929d548d8181029181830414901517156102b65785156102a3578f91868c92048094308c1460001461028e575050541690303b1561028b5782918d61024b8e5194859384936308934a5f60e31b85528401610368565b038183305af1801561027f57610270575b505b81039081116101e2579a3880806101c4565b6102799061031c565b3861025c565b8f8c51903d90823e3d90fd5b80fd5b9092915061029e9350168a610383565b61025e565b50634e487b7160e01b8f5260128c52868ffd5b50634e487b7160e01b8f5260118c52868ffd5b634e487b7160e01b8d5260328a52848dfd5b632bc93d7960e21b815233868201527fddd94edc7da5bca8f576c77964a4737ba5172c728e2d539e672f0229d1e9ec2d88820152604490fd5b8880fd5b8380fd5b6001600160401b03811161032f57604052565b634e487b7160e01b600052604160045260246000fd5b601f909101601f19168101906001600160401b0382119082101761032f57604052565b6001600160a01b039091168152602081019190915260400190565b90604091825190816103a86020968783019563a9059cbb60e01b875260248401610368565b03906103bc601f1992838101855284610345565b8451926001600160401b03916001600160a01b0316908487018381118682101761032f5787528785527f5361666545524332303a206c6f772d6c6576656c2063616c6c206661696c656488860152600080968192519082855af1913d156104f7573d9081116104e3579061044d9493929161044089895195601f8401160185610345565b83523d868985013e610503565b8051918215918583156104bf575b505050905015610469575050565b60849250519062461bcd60e51b82526004820152602a60248201527f5361666545524332303a204552433230206f7065726174696f6e20646964206e6044820152691bdd081cdd58d8d9595960b21b6064820152fd5b9193818094500103126101685783015190811515820361028b57508038808561045b565b634e487b7160e01b86526041600452602486fd5b509061044d9392506060915b919290156105655750815115610517575090565b3b156105205790565b60405162461bcd60e51b815260206004820152601d60248201527f416464726573733a2063616c6c20746f206e6f6e2d636f6e74726163740000006044820152606490fd5b8251909150156105785750805190602001fd5b6040519062461bcd60e51b82528160208060048301528251908160248401526000935b8285106105be575050604492506000838284010152601f80199101168101030190fd5b848101820151868601604401529381019385935061059b56fef8a6c10351c569dde9f00d2a7d439ceae77f38bfadfbaac59dc5476ddac46a0ca26469706673582212206abdcbfea68183ec57bf0739dd3850baece43014fb2e369c90f5c9fd396a24ab64736f6c63430008130033",
  "libraries": [
    "TDLib",
    "LTLib",
    "InitializerLib",
    "PausabilityLib",
    "RolesManagementLib",
    "AutocracyLib"
  ],
  "devdoc": {
    "events": {
      "Initialized(uint8)": {
        "details": "Triggered when the contract has been initialized or reinitialized."
      }
    },
    "kind": "dev",
    "methods": {},
    "version": 1
  },
  "userdoc": {
    "kind": "user",
    "methods": {},
    "version": 1
  },
  "storageLayout": {
    "storage": [
      {
        "astId": 6,
        "contract": "contracts/diamonds/facetsFramework/tokensDistributor/v1/TDProcessFacet.sol:TDProcessFacet",
        "label": "_initialized",
        "offset": 0,
        "slot": "0",
        "type": "t_uint8"
      },
      {
        "astId": 9,
        "contract": "contracts/diamonds/facetsFramework/tokensDistributor/v1/TDProcessFacet.sol:TDProcessFacet",
        "label": "_initializing",
        "offset": 1,
        "slot": "0",
        "type": "t_bool"
      }
    ],
    "types": {
      "t_bool": {
        "encoding": "inplace",
        "label": "bool",
        "numberOfBytes": "1"
      },
      "t_uint8": {
        "encoding": "inplace",
        "label": "uint8",
        "numberOfBytes": "1"
      }
    }
  }
}