{
  "address": "0x4e6D779562391aCf095Fc80CBaCDdEf2769DE582",
  "abi": [
    {
      "inputs": [
        {
          "internalType": "contract ILSLoupeFacet",
          "name": "_locusStakingDiamond",
          "type": "address"
        },
        {
          "internalType": "contract IERC20Metadata",
          "name": "_locusDiamond",
          "type": "address"
        }
      ],
      "stateMutability": "nonpayable",
      "type": "constructor"
    },
    {
      "inputs": [],
      "name": "InvalidShortString",
      "type": "error"
    },
    {
      "inputs": [],
      "name": "OnlyStakingDiamond",
      "type": "error"
    },
    {
      "inputs": [
        {
          "internalType": "string",
          "name": "str",
          "type": "string"
        }
      ],
      "name": "StringTooLong",
      "type": "error"
    },
    {
      "anonymous": false,
      "inputs": [
        {
          "indexed": true,
          "internalType": "address",
          "name": "owner",
          "type": "address"
        },
        {
          "indexed": true,
          "internalType": "address",
          "name": "spender",
          "type": "address"
        },
        {
          "indexed": false,
          "internalType": "uint256",
          "name": "value",
          "type": "uint256"
        }
      ],
      "name": "Approval",
      "type": "event"
    },
    {
      "anonymous": false,
      "inputs": [
        {
          "indexed": true,
          "internalType": "address",
          "name": "delegator",
          "type": "address"
        },
        {
          "indexed": true,
          "internalType": "address",
          "name": "fromDelegate",
          "type": "address"
        },
        {
          "indexed": true,
          "internalType": "address",
          "name": "toDelegate",
          "type": "address"
        }
      ],
      "name": "DelegateChanged",
      "type": "event"
    },
    {
      "anonymous": false,
      "inputs": [
        {
          "indexed": true,
          "internalType": "address",
          "name": "delegate",
          "type": "address"
        },
        {
          "indexed": false,
          "internalType": "uint256",
          "name": "previousBalance",
          "type": "uint256"
        },
        {
          "indexed": false,
          "internalType": "uint256",
          "name": "newBalance",
          "type": "uint256"
        }
      ],
      "name": "DelegateVotesChanged",
      "type": "event"
    },
    {
      "anonymous": false,
      "inputs": [],
      "name": "EIP712DomainChanged",
      "type": "event"
    },
    {
      "anonymous": false,
      "inputs": [
        {
          "indexed": true,
          "internalType": "address",
          "name": "who",
          "type": "address"
        }
      ],
      "name": "PoliticsDisabled",
      "type": "event"
    },
    {
      "anonymous": false,
      "inputs": [
        {
          "indexed": true,
          "internalType": "address",
          "name": "who",
          "type": "address"
        }
      ],
      "name": "PoliticsEnabled",
      "type": "event"
    },
    {
      "anonymous": false,
      "inputs": [
        {
          "indexed": true,
          "internalType": "address",
          "name": "who",
          "type": "address"
        }
      ],
      "name": "PoliticsRemainedUnchanged",
      "type": "event"
    },
    {
      "anonymous": false,
      "inputs": [
        {
          "indexed": true,
          "internalType": "address",
          "name": "from",
          "type": "address"
        },
        {
          "indexed": true,
          "internalType": "address",
          "name": "to",
          "type": "address"
        },
        {
          "indexed": false,
          "internalType": "uint256",
          "name": "value",
          "type": "uint256"
        }
      ],
      "name": "Transfer",
      "type": "event"
    },
    {
      "inputs": [],
      "name": "CLOCK_MODE",
      "outputs": [
        {
          "internalType": "string",
          "name": "",
          "type": "string"
        }
      ],
      "stateMutability": "view",
      "type": "function"
    },
    {
      "inputs": [],
      "name": "DOMAIN_SEPARATOR",
      "outputs": [
        {
          "internalType": "bytes32",
          "name": "",
          "type": "bytes32"
        }
      ],
      "stateMutability": "view",
      "type": "function"
    },
    {
      "inputs": [
        {
          "internalType": "address",
          "name": "owner",
          "type": "address"
        },
        {
          "internalType": "address",
          "name": "spender",
          "type": "address"
        }
      ],
      "name": "allowance",
      "outputs": [
        {
          "internalType": "uint256",
          "name": "",
          "type": "uint256"
        }
      ],
      "stateMutability": "view",
      "type": "function"
    },
    {
      "inputs": [
        {
          "internalType": "address",
          "name": "spender",
          "type": "address"
        },
        {
          "internalType": "uint256",
          "name": "amount",
          "type": "uint256"
        }
      ],
      "name": "approve",
      "outputs": [
        {
          "internalType": "bool",
          "name": "",
          "type": "bool"
        }
      ],
      "stateMutability": "nonpayable",
      "type": "function"
    },
    {
      "inputs": [
        {
          "internalType": "address",
          "name": "account",
          "type": "address"
        }
      ],
      "name": "balanceOf",
      "outputs": [
        {
          "internalType": "uint256",
          "name": "",
          "type": "uint256"
        }
      ],
      "stateMutability": "view",
      "type": "function"
    },
    {
      "inputs": [
        {
          "internalType": "address",
          "name": "account",
          "type": "address"
        },
        {
          "internalType": "uint32",
          "name": "pos",
          "type": "uint32"
        }
      ],
      "name": "checkpoints",
      "outputs": [
        {
          "components": [
            {
              "internalType": "uint32",
              "name": "fromBlock",
              "type": "uint32"
            },
            {
              "internalType": "uint224",
              "name": "votes",
              "type": "uint224"
            }
          ],
          "internalType": "struct ERC20Votes.Checkpoint",
          "name": "",
          "type": "tuple"
        }
      ],
      "stateMutability": "view",
      "type": "function"
    },
    {
      "inputs": [],
      "name": "clock",
      "outputs": [
        {
          "internalType": "uint48",
          "name": "",
          "type": "uint48"
        }
      ],
      "stateMutability": "view",
      "type": "function"
    },
    {
      "inputs": [],
      "name": "decimals",
      "outputs": [
        {
          "internalType": "uint8",
          "name": "",
          "type": "uint8"
        }
      ],
      "stateMutability": "view",
      "type": "function"
    },
    {
      "inputs": [
        {
          "internalType": "address",
          "name": "spender",
          "type": "address"
        },
        {
          "internalType": "uint256",
          "name": "subtractedValue",
          "type": "uint256"
        }
      ],
      "name": "decreaseAllowance",
      "outputs": [
        {
          "internalType": "bool",
          "name": "",
          "type": "bool"
        }
      ],
      "stateMutability": "nonpayable",
      "type": "function"
    },
    {
      "inputs": [
        {
          "internalType": "address",
          "name": "delegatee",
          "type": "address"
        }
      ],
      "name": "delegate",
      "outputs": [],
      "stateMutability": "nonpayable",
      "type": "function"
    },
    {
      "inputs": [
        {
          "internalType": "address",
          "name": "delegatee",
          "type": "address"
        },
        {
          "internalType": "uint256",
          "name": "nonce",
          "type": "uint256"
        },
        {
          "internalType": "uint256",
          "name": "expiry",
          "type": "uint256"
        },
        {
          "internalType": "uint8",
          "name": "v",
          "type": "uint8"
        },
        {
          "internalType": "bytes32",
          "name": "r",
          "type": "bytes32"
        },
        {
          "internalType": "bytes32",
          "name": "s",
          "type": "bytes32"
        }
      ],
      "name": "delegateBySig",
      "outputs": [],
      "stateMutability": "nonpayable",
      "type": "function"
    },
    {
      "inputs": [
        {
          "internalType": "address",
          "name": "account",
          "type": "address"
        }
      ],
      "name": "delegates",
      "outputs": [
        {
          "internalType": "address",
          "name": "",
          "type": "address"
        }
      ],
      "stateMutability": "view",
      "type": "function"
    },
    {
      "inputs": [],
      "name": "eip712Domain",
      "outputs": [
        {
          "internalType": "bytes1",
          "name": "fields",
          "type": "bytes1"
        },
        {
          "internalType": "string",
          "name": "name",
          "type": "string"
        },
        {
          "internalType": "string",
          "name": "version",
          "type": "string"
        },
        {
          "internalType": "uint256",
          "name": "chainId",
          "type": "uint256"
        },
        {
          "internalType": "address",
          "name": "verifyingContract",
          "type": "address"
        },
        {
          "internalType": "bytes32",
          "name": "salt",
          "type": "bytes32"
        },
        {
          "internalType": "uint256[]",
          "name": "extensions",
          "type": "uint256[]"
        }
      ],
      "stateMutability": "view",
      "type": "function"
    },
    {
      "inputs": [
        {
          "internalType": "uint256",
          "name": "timepoint",
          "type": "uint256"
        }
      ],
      "name": "getPastTotalSupply",
      "outputs": [
        {
          "internalType": "uint256",
          "name": "",
          "type": "uint256"
        }
      ],
      "stateMutability": "view",
      "type": "function"
    },
    {
      "inputs": [
        {
          "internalType": "address",
          "name": "account",
          "type": "address"
        },
        {
          "internalType": "uint256",
          "name": "timepoint",
          "type": "uint256"
        }
      ],
      "name": "getPastVotes",
      "outputs": [
        {
          "internalType": "uint256",
          "name": "",
          "type": "uint256"
        }
      ],
      "stateMutability": "view",
      "type": "function"
    },
    {
      "inputs": [
        {
          "internalType": "address",
          "name": "account",
          "type": "address"
        }
      ],
      "name": "getVotes",
      "outputs": [
        {
          "internalType": "uint256",
          "name": "",
          "type": "uint256"
        }
      ],
      "stateMutability": "view",
      "type": "function"
    },
    {
      "inputs": [
        {
          "internalType": "address",
          "name": "spender",
          "type": "address"
        },
        {
          "internalType": "uint256",
          "name": "addedValue",
          "type": "uint256"
        }
      ],
      "name": "increaseAllowance",
      "outputs": [
        {
          "internalType": "bool",
          "name": "",
          "type": "bool"
        }
      ],
      "stateMutability": "nonpayable",
      "type": "function"
    },
    {
      "inputs": [],
      "name": "locusDiamond",
      "outputs": [
        {
          "internalType": "contract IERC20Metadata",
          "name": "",
          "type": "address"
        }
      ],
      "stateMutability": "view",
      "type": "function"
    },
    {
      "inputs": [],
      "name": "locusStakingDiamond",
      "outputs": [
        {
          "internalType": "contract ILSLoupeFacet",
          "name": "",
          "type": "address"
        }
      ],
      "stateMutability": "view",
      "type": "function"
    },
    {
      "inputs": [],
      "name": "name",
      "outputs": [
        {
          "internalType": "string",
          "name": "",
          "type": "string"
        }
      ],
      "stateMutability": "view",
      "type": "function"
    },
    {
      "inputs": [
        {
          "internalType": "address",
          "name": "owner",
          "type": "address"
        }
      ],
      "name": "nonces",
      "outputs": [
        {
          "internalType": "uint256",
          "name": "",
          "type": "uint256"
        }
      ],
      "stateMutability": "view",
      "type": "function"
    },
    {
      "inputs": [
        {
          "internalType": "address",
          "name": "account",
          "type": "address"
        }
      ],
      "name": "numCheckpoints",
      "outputs": [
        {
          "internalType": "uint32",
          "name": "",
          "type": "uint32"
        }
      ],
      "stateMutability": "view",
      "type": "function"
    },
    {
      "inputs": [
        {
          "internalType": "address",
          "name": "owner",
          "type": "address"
        },
        {
          "internalType": "address",
          "name": "spender",
          "type": "address"
        },
        {
          "internalType": "uint256",
          "name": "value",
          "type": "uint256"
        },
        {
          "internalType": "uint256",
          "name": "deadline",
          "type": "uint256"
        },
        {
          "internalType": "uint8",
          "name": "v",
          "type": "uint8"
        },
        {
          "internalType": "bytes32",
          "name": "r",
          "type": "bytes32"
        },
        {
          "internalType": "bytes32",
          "name": "s",
          "type": "bytes32"
        }
      ],
      "name": "permit",
      "outputs": [],
      "stateMutability": "nonpayable",
      "type": "function"
    },
    {
      "inputs": [],
      "name": "symbol",
      "outputs": [
        {
          "internalType": "string",
          "name": "",
          "type": "string"
        }
      ],
      "stateMutability": "view",
      "type": "function"
    },
    {
      "inputs": [
        {
          "internalType": "address",
          "name": "who",
          "type": "address"
        }
      ],
      "name": "syncBalanceOnStake",
      "outputs": [],
      "stateMutability": "nonpayable",
      "type": "function"
    },
    {
      "inputs": [
        {
          "internalType": "address",
          "name": "who",
          "type": "address"
        }
      ],
      "name": "syncBalanceOnWithdraw",
      "outputs": [],
      "stateMutability": "nonpayable",
      "type": "function"
    },
    {
      "inputs": [],
      "name": "totalSupply",
      "outputs": [
        {
          "internalType": "uint256",
          "name": "",
          "type": "uint256"
        }
      ],
      "stateMutability": "view",
      "type": "function"
    },
    {
      "inputs": [
        {
          "internalType": "address",
          "name": "to",
          "type": "address"
        },
        {
          "internalType": "uint256",
          "name": "amount",
          "type": "uint256"
        }
      ],
      "name": "transfer",
      "outputs": [
        {
          "internalType": "bool",
          "name": "",
          "type": "bool"
        }
      ],
      "stateMutability": "nonpayable",
      "type": "function"
    },
    {
      "inputs": [
        {
          "internalType": "address",
          "name": "from",
          "type": "address"
        },
        {
          "internalType": "address",
          "name": "to",
          "type": "address"
        },
        {
          "internalType": "uint256",
          "name": "amount",
          "type": "uint256"
        }
      ],
      "name": "transferFrom",
      "outputs": [
        {
          "internalType": "bool",
          "name": "",
          "type": "bool"
        }
      ],
      "stateMutability": "nonpayable",
      "type": "function"
    }
  ],
  "transactionHash": "0x4a274e05a071df2ed1ed7ebd062071299f5e8735090108c4853dcc1fbc571b5c",
  "args": [
    "0x1c70D843F571fD4AE692c75e611d33db6D87398c",
    "0x62f635223E5e7a365Fd5Cb5b2FF3cc0061a40A61"
  ],
  "numDeployments": 1,
  "solcInputHash": "7400fa071cb2d2870292a920c78f5e38",
  "bytecode": "0x610160346200052057601f620030b238819003918201601f19168301916001600160401b03831184841017620002c857808492604094855283398101031262000520578051906001600160a01b03908183168303620005205760200151908082168203620005205760405190620000768262000525565b601782527f7673744c4f435553446f6d61696e536570617261746f72000000000000000000602083015260405193620000af8562000541565b60008552604051620000c18162000541565b6000815260405195620000d48762000525565b60018752603160f81b60208801528051906001600160401b038211620002c85760035490600182811c9216801562000515575b6020831014620003e75781601f849311620004a3575b50602090601f8311600114620004145760009262000408575b50508160011b916000199060031b1c1916176003555b8051906001600160401b038211620002c85760045490600182811c92168015620003fd575b6020831014620003e75781601f84931162000375575b50602090601f8311600114620002ea57600092620002de575b50508160011b916000199060031b1c1916176004555b620001c1836200055d565b91610120928352620001d38662000721565b9361014094855260208151910120958660e0526020815191012094610100968688524660a0526040519660208801917f8b73c3c69bb8fe3d512ecc4cf759cc79239f7b179b0ffacaa9a75d522b39400f8352604089015260608801524660808801523060a088015260a0875260c087019680881060018060401b03891117620002c857876040525190206080523060c0528160018060a01b0319931683600c541617600c551690600d541617600d556127d89384620008da853960805184611e09015260a05184611ec4015260c05184611dd3015260e05184611e5801525183611e7e01525182610a2901525181610a520152f35b634e487b7160e01b600052604160045260246000fd5b015190503880620001a0565b600460009081527f8a35acfbc15ff81a39ae7d344fd709f28e8600b4aa8c65c6b64bfe7fe36bd19b9350601f198516905b8181106200035c575090846001959493921062000342575b505050811b01600455620001b6565b015160001960f88460031b161c1916905538808062000333565b929360206001819287860151815501950193016200031b565b60046000529091507f8a35acfbc15ff81a39ae7d344fd709f28e8600b4aa8c65c6b64bfe7fe36bd19b601f840160051c810160208510620003df575b90849392915b601f830160051c82018110620003cf57505062000187565b60008155859450600101620003b7565b5080620003b1565b634e487b7160e01b600052602260045260246000fd5b91607f169162000171565b01519050388062000136565b6003600090815293507fc2575a0e9e593c00f959f8c92f12db2869c3395a3b0502d05e2516446f71f85b91905b601f198416851062000487576001945083601f198116106200046d575b505050811b016003556200014c565b015160001960f88460031b161c191690553880806200045e565b8181015183556020948501946001909301929091019062000441565b60036000529091507fc2575a0e9e593c00f959f8c92f12db2869c3395a3b0502d05e2516446f71f85b601f840160051c8101602085106200050d575b90849392915b601f830160051c82018110620004fd5750506200011d565b60008155859450600101620004e5565b5080620004df565b91607f169162000107565b600080fd5b604081019081106001600160401b03821117620002c857604052565b602081019081106001600160401b03821117620002c857604052565b80516020919082811015620005fc575090601f8251116200059b57808251920151908083106200058c57501790565b82600019910360031b1b161790565b90604051809263305a27a960e01b82528060048301528251908160248401526000935b828510620005e2575050604492506000838284010152601f80199101168101030190fd5b8481018201518686016044015293810193859350620005be565b6001600160401b038111620002c8576005928354926001938481811c9116801562000716575b83821014620003e757601f8111620006df575b5081601f841160011462000675575092829391839260009462000669575b50501b916000199060031b1c191617905560ff90565b01519250388062000653565b919083601f1981168760005284600020946000905b88838310620006c45750505010620006aa575b505050811b01905560ff90565b015160001960f88460031b161c191690553880806200069d565b8587015188559096019594850194879350908101906200068a565b8560005284601f846000209201871c820191601f8601881c015b8281106200070957505062000635565b60008155018590620006f9565b90607f169062000622565b805160209081811015620007af5750601f8251116200074e57808251920151908083106200058c57501790565b90604051809263305a27a960e01b82528060048301528251908160248401526000935b82851062000795575050604492506000838284010152601f80199101168101030190fd5b848101820151868601604401529381019385935062000771565b906001600160401b038211620002c857600654926001938481811c91168015620008ce575b83821014620003e757601f811162000894575b5081601f84116001146200082857509282939183926000946200081c575b50501b916000199060031b1c19161760065560ff90565b01519250388062000805565b919083601f198116600660005284600020946000905b888383106200087957505050106200085f575b505050811b0160065560ff90565b015160001960f88460031b161c1916905538808062000851565b8587015188559096019594850194879350908101906200083e565b600660005284601f84600020920160051c820191601f860160051c015b828110620008c1575050620007e7565b60008155018590620008b1565b90607f1690620007d456fe6080604052600436101561001257600080fd5b60003560e01c806306fdde03146101e7578063095ea7b3146101e257806318160ddd146101dd5780631e5e70af146101d857806323b872dd146101d3578063313ce567146101ce5780633644e515146101c957806339509351146101c45780633a46b1a8146101bf5780634bf5d7e9146101ba57806351b786d8146101b5578063587cde1e146101b05780635c19a95c146101ab5780636fcfff45146101a657806370a08231146101a15780637bad639c1461019c5780637ecebe001461019757806384b0196e146101925780638e539e8c1461018d57806391ddadf41461018857806395d89b41146101835780639ab24eb01461017e578063a457c2d714610179578063a9059cbb14610174578063c3cda5201461016f578063c93ed1e21461016a578063d505accf14610165578063dd62ed3e146101605763f1127ed81461015b57600080fd5b61115a565b611102565b610fd4565b610f04565b610def565b610dbe565b610d22565b610cc0565b610c22565b610bf6565b610b06565b610a0e565b6109d4565b6109ab565b610971565b610929565b610905565b6108ca565b61079c565b6106ea565b610595565b610549565b610526565b61048f565b6103c9565b6103a0565b610382565b610351565b610248565b60005b8381106101ff5750506000910152565b81810151838201526020016101ef565b90602091610228815180928185528580860191016101ec565b601f01601f1916010190565b90602061024592818152019061020f565b90565b346103205760008060031936011261031d57600d546040516306fdde0360e01b8152908290829060049082906001600160a01b03165afa918215610318576102f192602092826102e593926102f5575b50506102d760405193826102b586945180928480880191016101ec565b83010160129071103bb4ba34103b37ba34b733903837bbb2b960711b81520190565b03601f19810183528261153e565b60405191829182610234565b0390f35b61031192503d8091833e610309818361153e565b8101906123ca565b3880610298565b611d4c565b80fd5b600080fd5b600435906001600160a01b038216820361032057565b602435906001600160a01b038216820361032057565b346103205760403660031901126103205761037761036d610325565b60243590336113b4565b602060405160018152f35b34610320576000366003190112610320576020600254604051908152f35b3461032057600036600319011261032057600c546040516001600160a01b039091168152602090f35b34610320576060366003190112610320576103e2610325565b6103ea61033b565b6044359060018060a01b038316600052600160205261040d3360406000206111fb565b54926001840161042e575b61042293506112e9565b60405160018152602090f35b82841061044a5761044583610422950333836113b4565b610418565b60405162461bcd60e51b815260206004820152601d60248201527f45524332303a20696e73756666696369656e7420616c6c6f77616e63650000006044820152606490fd5b346103205760008060031936011261031d57600d5460405163313ce56760e01b815290602090829060049082906001600160a01b03165afa9081156103185782916104e3575b60405160ff83168152602090f35b90506020813d821161051e575b816104fd6020938361153e565b8101031261051a576102f191505161051481610de4565b386104d5565b5080fd5b3d91506104f0565b34610320576000366003190112610320576020610541611dd0565b604051908152f35b3461032057604036600319011261032057610562610325565b3360005260016020526105798160406000206111fb565b5460243581018091116105905761037791336113b4565b611212565b34610320576040366003190112610320576105ae610325565b602435906105cd65ffffffffffff6105c5436122fe565b16831061163c565b6001600160a01b03166000908152600a6020526040812080549290918360058111610699575b50905b8382106106445750508161061d575050602060005b6040516001600160e01b039091168152f35b61063861063f91602093600019019060005260206000200190565b5460201c90565b61060b565b9092610650818561212e565b90818363ffffffff61067661066c848960005260206000200190565b5463ffffffff1690565b161115610687575050925b906105f6565b9094506106949150611228565b610681565b806106a96106af92969396612143565b90611684565b908263ffffffff6106ca61066c858860005260206000200190565b1611156106da5750925b386105f3565b93506106e590611228565b6106d4565b34610320576000366003190112610320574365ffffffffffff61070c436122fe565b1603610757576102f1604051610721816114e8565b601d81527f6d6f64653d626c6f636b6e756d6265722666726f6d3d64656661756c74000000602082015260405191829182610234565b60405162461bcd60e51b815260206004820152601d60248201527f4552433230566f7465733a2062726f6b656e20636c6f636b206d6f64650000006044820152606490fd5b34610320576020366003190112610320576107b5610325565b600c546001600160a01b03919082163381036108a557602060405180926370a0823160e01b825281806107eb87600483016108b7565b03915afa90811561031857600091610877575b50610808826111e1565b54908181111561084d576108259161081f91611684565b826124a6565b167fee905135f753310031a37d49f404a5cc2b2dc9233c37722eb99e80cba6e226af600080a2005b5050167faff4575f3d0d48da1e75362bee2e088b8bdbae4913b91d9a4eceac824e7debfc600080a2005b610898915060203d811161089e575b610890818361153e565b810190612432565b386107fe565b503d610886565b60405163476be16960e01b8152600490fd5b6001600160a01b03909116815260200190565b346103205760203660031901126103205760206001600160a01b03806108ee610325565b166000526009825260406000205416604051908152f35b3461032057602036600319011261032057610927610921610325565b336116d9565b005b34610320576020366003190112610320576001600160a01b0361094a610325565b16600052600a6020526020610963604060002054612365565b63ffffffff60405191168152f35b34610320576020366003190112610320576001600160a01b03610992610325565b1660005260006020526020604060002054604051908152f35b3461032057600036600319011261032057600d546040516001600160a01b039091168152602090f35b34610320576020366003190112610320576001600160a01b036109f5610325565b1660005260076020526020604060002054604051908152f35b346103205760008060031936011261031d57610ab890610a4d7f0000000000000000000000000000000000000000000000000000000000000000611f10565b610a767f000000000000000000000000000000000000000000000000000000000000000061200e565b9160405191610a8483611508565b818352604051948594600f60f81b8652610aaa60209360e08589015260e088019061020f565b90868203604088015261020f565b904660608601523060808601528260a086015284820360c08601528080855193848152019401925b828110610aef57505050500390f35b835185528695509381019392810192600101610ae0565b3461032057602036600319011261032057600435610b3565ffffffffffff610b2d436122fe565b16821061163c565b600b549060008260058111610bb3575b50905b828210610b74578280610b62575060405160008152602090f35b61063f61063860209260001901611bd0565b9091610b80818461212e565b908263ffffffff610b9361066c85611bd0565b161115610ba35750915b90610b48565b9250610bae90611228565b610b9d565b806106a9610bc392959395612143565b908263ffffffff610bd661066c85611bd0565b161115610be65750915b38610b45565b9250610bf190611228565b610be0565b34610320576000366003190112610320576020610c12436122fe565b65ffffffffffff60405191168152f35b346103205760008060031936011261031d57600d546040516395d89b4160e01b8152908290829060049082906001600160a01b03165afa90811561031857826102f19392610ca5575b50506102e560226040518093611cdd60f21b6020830152610c9581518092602086860191016101ec565b810103600281018452018261153e565b610cb992503d8091833e610309818361153e565b3880610c6b565b34610320576020366003190112610320576001600160a01b03610ce1610325565b16600052600a602052604060002080548015600014610d0857505060405160008152602090f35b602091610d199160001901906115dd565b5054811c61060b565b3461032057604036600319011261032057610d3b610325565b60243590336000526001602052610d568160406000206111fb565b5491808310610d6b57610422920390336113b4565b60405162461bcd60e51b815260206004820152602560248201527f45524332303a2064656372656173656420616c6c6f77616e63652062656c6f77604482015264207a65726f60d81b6064820152608490fd5b3461032057604036600319011261032057610377610dda610325565b60243590336112e9565b60ff81160361032057565b346103205760c036600319011261032057610e08610325565b60643590602435604435610e1b84610de4565b804211610ebf57610eaa610eba916109279560405190610e9282610e846020820195898b8860609194939260808201957fe48329057bfd03d55e49b547132e39cffd9c1820ad7b9d4c5307691425d15adf835260018060a01b0316602083015260408201520152565b03601f19810184528361153e565b610ea560a4359360843593519020611eea565b611bfa565b91610eb4836115ad565b14611691565b6116d9565b60405162461bcd60e51b815260206004820152601d60248201527f4552433230566f7465733a207369676e617475726520657870697265640000006044820152606490fd5b3461032057602036600319011261032057610f1d610325565b600c546001600160a01b03919082163381036108a557610f3c826111e1565b54602060405180936370a0823160e01b82528180610f5d88600483016108b7565b03915afa91821561031857600092610fb4575b508181111561084d57610f8c91610f8691611684565b8261256b565b167f58b56ba414a479dc7fae1065884eae3b991d4dbf9b88c555595607f010f6921a600080a2005b610fcd91925060203d811161089e57610890818361153e565b9038610f70565b346103205760e036600319011261032057610fed610325565b610ff561033b565b60443590606435926084359361100a85610de4565b8042116110bd576110a56110b891610e846109279761109261102b876115ad565b604080517f6e71edae12b1b97f4d1f60370fef10105fa2faae0126114a169c64845d6126c9602082019081526001600160a01b03808c1693830193909352918b166060820152608081018c905260a081019290925260c082019590955292839060e0820190565b610ea560c4359360a43593519020611eea565b6001600160a01b03838116911614611561565b6113b4565b60405162461bcd60e51b815260206004820152601d60248201527f45524332305065726d69743a206578706972656420646561646c696e650000006044820152606490fd5b34610320576040366003190112610320576020611145611120610325565b61112861033b565b6001600160a01b03909116600090815260018452604090206111fb565b54604051908152f35b6001600160e01b031690565b3461032057604036600319011261032057611173610325565b63ffffffff6024358181168103610320576111bd6111c39160409460006020875161119d816114e8565b82815201526001600160a01b03166000908152600a6020528590206115dd565b5061161a565b8251815190921682526020908101516001600160e01b031690820152f35b6001600160a01b0316600090815260208190526040902090565b9060018060a01b0316600052602052604060002090565b634e487b7160e01b600052601160045260246000fd5b906001820180921161059057565b1561123d57565b60405162461bcd60e51b815260206004820152602360248201527f45524332303a207472616e7366657220746f20746865207a65726f206164647260448201526265737360e81b6064820152608490fd5b1561129557565b60405162461bcd60e51b815260206004820152602660248201527f45524332303a207472616e7366657220616d6f756e7420657863656564732062604482015265616c616e636560d01b6064820152608490fd5b6001600160a01b0392919083811680156113615761135f9483169061130f821515611236565b84611319846111e1565b546113268282101561128e565b03611330846111e1565b5561133a846111e1565b80548601905560405185815260008051602061276383398151915290602090a36126f6565b565b60405162461bcd60e51b815260206004820152602560248201527f45524332303a207472616e736665722066726f6d20746865207a65726f206164604482015264647265737360d81b6064820152608490fd5b6001600160a01b038082169291908315611481578216938415611431578061141b7f8c5be1e5ebec7d5bd14f71427d1e84f3dd0314c0f7b2291e5b200ac8c7c3b9259461141661142c9560018060a01b03166000526001602052604060002090565b6111fb565b556040519081529081906020820190565b0390a3565b60405162461bcd60e51b815260206004820152602260248201527f45524332303a20617070726f766520746f20746865207a65726f206164647265604482015261737360f01b6064820152608490fd5b60405162461bcd60e51b8152602060048201526024808201527f45524332303a20617070726f76652066726f6d20746865207a65726f206164646044820152637265737360e01b6064820152608490fd5b634e487b7160e01b600052604160045260246000fd5b604081019081106001600160401b0382111761150357604052565b6114d2565b602081019081106001600160401b0382111761150357604052565b60c081019081106001600160401b0382111761150357604052565b601f909101601f19168101906001600160401b0382119082101761150357604052565b1561156857565b60405162461bcd60e51b815260206004820152601e60248201527f45524332305065726d69743a20696e76616c6964207369676e617475726500006044820152606490fd5b6001600160a01b0316600090815260076020526040902080546001810190915590565b6040519061135f826114e8565b80548210156115f55760005260206000200190600090565b634e487b7160e01b600052603260045260246000fd5b6001600160e01b039091169052565b90604051611627816114e8565b602081935463ffffffff81168352811c910152565b1561164357565b60405162461bcd60e51b815260206004820152601960248201527804552433230566f7465733a20667574757265206c6f6f6b757603c1b6044820152606490fd5b9190820391821161059057565b1561169857565b60405162461bcd60e51b81526020600482015260196024820152784552433230566f7465733a20696e76616c6964206e6f6e636560381b6044820152606490fd5b6001600160a01b039081166000818152600960208181526040808420805485845291852054939092528686166001600160a01b03198216811790925561135f9692959294921692909183917f3134e8a2e6d97e929a7e54011ea5485d7d196dd5f0ba4d4ef95803e8e3fc257f9080a45b6001600160a01b03808316939291168084141580611915575b61176d575b50505050565b806117c9575b5082611780575b80611767565b6001600160a01b03166000908152600a60205260409020600080516020612783833981519152916117b0916119ed565b60408051928352602083019190915290a238808061177a565b80600052600a60205260008051602061278383398151915260406000208054801591826000146118f2576117fb6115d0565b6000815260006020820152915b61181d611818602085015161114e565b61114e565b926118288985612728565b941590816118cf575b50156118745761185961185e9261184786612295565b92600019019060005260206000200190565b61191e565b604080519182526020820192909252a238611773565b506118ca90611898611893611888436122fe565b65ffffffffffff1690565b612365565b906118c56118a586612295565b6118bc6118b06115d0565b63ffffffff9095168552565b6020840161160b565b61198b565b61185e565b5163ffffffff16905063ffffffff6118e9611888436122fe565b91161438611831565b61190f61190a60001984018360005260206000200190565b61161a565b91611808565b50821515611762565b9063ffffffff82549181199060201b169116179055565b600b5490600160401b821015611503576001820180600b558210156115f55761135f91600b6000526020600020019063ffffffff81511663ffffffff19835416178255602060018060e01b03910151169061191e565b8054600160401b811015611503576119a8916001820181556115dd565b6119d7578163ffffffff61135f93511663ffffffff19835416178255602060018060e01b03910151169061191e565b634e487b7160e01b600052600060045260246000fd5b909181549182159283600014611a8157611a056115d0565b60008152600060208201525b611a2b611a24611818602084015161114e565b9687612735565b94159081611a5e575b5015611a4a5761185961135f9261184786612295565b5061135f90611898611893611888436122fe565b5163ffffffff16905063ffffffff611a78611888436122fe565b91161438611a34565b611a9961190a60001983018460005260206000200190565b611a11565b600b5490918115918215611b6a57611ab46115d0565b60008152600060208201525b611ada611ad3611818602084015161114e565b9586612735565b93159081611b47575b5015611b035761135f90611859611af985612295565b9160001901611bd0565b5061135f611b16611893611888436122fe565b611b42611b2285612295565b611b39611b2d6115d0565b63ffffffff9094168452565b6020830161160b565b611935565b5163ffffffff16905063ffffffff611b61611888436122fe565b91161438611ae3565b611b7a61190a6000198301611bd0565b611ac0565b600b5490918115918215611bbb57611b956115d0565b60008152600060208201525b611ada611bb4611818602084015161114e565b9586612728565b611bcb61190a6000198301611bd0565b611ba1565b600b6000527f0175b7a638427703f0dbe7bb9bbf987a2551717b34e79f33b5b1008d1fa01db90190565b916102459391611c0993611d58565b919091611c31565b60051115611c1b57565b634e487b7160e01b600052602160045260246000fd5b611c3a81611c11565b80611c425750565b611c4b81611c11565b60018103611c935760405162461bcd60e51b815260206004820152601860248201527745434453413a20696e76616c6964207369676e617475726560401b6044820152606490fd5b611c9c81611c11565b60028103611ce95760405162461bcd60e51b815260206004820152601f60248201527f45434453413a20696e76616c6964207369676e6174757265206c656e677468006044820152606490fd5b80611cf5600392611c11565b14611cfc57565b60405162461bcd60e51b815260206004820152602260248201527f45434453413a20696e76616c6964207369676e6174757265202773272076616c604482015261756560f01b6064820152608490fd5b6040513d6000823e3d90fd5b9291906fa2a8918ca85bafe22016d0b997e4df60600160ff1b038311611dc45791608094939160ff602094604051948552168484015260408301526060820152600093849182805260015afa156103185781516001600160a01b03811615611dbe579190565b50600190565b50505050600090600390565b307f00000000000000000000000000000000000000000000000000000000000000006001600160a01b03161480611ec1575b15611e2b577f000000000000000000000000000000000000000000000000000000000000000090565b60405160208101907f8b73c3c69bb8fe3d512ecc4cf759cc79239f7b179b0ffacaa9a75d522b39400f82527f000000000000000000000000000000000000000000000000000000000000000060408201527f000000000000000000000000000000000000000000000000000000000000000060608201524660808201523060a082015260a08152611ebb81611523565b51902090565b507f00000000000000000000000000000000000000000000000000000000000000004614611e02565b604290611ef5611dd0565b906040519161190160f01b8352600283015260228201522090565b60ff8114611f2157610245906120d8565b50604051600060055490600182811c92818116918215612004575b6020918286108414611ff057858752869493602086019392918115611fd15750600114611f73575b5050506102459250038261153e565b600560005290949092507f036b6384b5eca791c62761152d0c79bb0604c104a5fb6f4eb0703f3154bb3db0946000935b828510611fbb57505050610245935001388080611f64565b8654858501529586019587955093810193611fa3565b925050506102459491925060ff19168252151560051b01388080611f64565b634e487b7160e01b85526022600452602485fd5b93607f1693611f3c565b60ff811461201f57610245906120d8565b50604051600060065490600182811c928181169182156120ce575b6020918286108414611ff057858752869493602086019392918115611fd15750600114612070575050506102459250038261153e565b600660005290949092507ff652222313e28459528d920b65115c16c04f3efc82aaedc97be59f3f377c0d3f946000935b8285106120b857505050610245935001388080611f64565b86548585015295860195879550938101936120a0565b93607f169361203a565b60ff811690601f82116120fc57604051916120f2836114e8565b8252602082015290565b604051632cd44ac360e21b8152600490fd5b8115612118570490565b634e487b7160e01b600052601260045260246000fd5b90808216911860011c81018091116105905790565b801561227d578061221661220f6122056121fb6121f16121e76121dd6121d360016102459a6000908b60801c80612271575b508060401c80612264575b508060201c80612257575b508060101c8061224a575b508060081c8061223d575b508060041c80612230575b508060021c80612223575b50821c61221c575b811c1b6121cc818b61210e565b0160011c90565b6121cc818a61210e565b6121cc818961210e565b6121cc818861210e565b6121cc818761210e565b6121cc818661210e565b6121cc818561210e565b809261210e565b90612283565b81016121bf565b60029150910190386121b7565b60049150910190386121ac565b60089150910190386121a1565b6010915091019038612196565b602091509101903861218b565b6040915091019038612180565b91505060809038612175565b50600090565b9080821015612290575090565b905090565b6001600160e01b03908181116122a9571690565b60405162461bcd60e51b815260206004820152602760248201527f53616665436173743a2076616c756520646f65736e27742066697420696e20326044820152663234206269747360c81b6064820152608490fd5b65ffffffffffff90818111612311571690565b60405162461bcd60e51b815260206004820152602660248201527f53616665436173743a2076616c756520646f65736e27742066697420696e203460448201526538206269747360d01b6064820152608490fd5b63ffffffff90818111612376571690565b60405162461bcd60e51b815260206004820152602660248201527f53616665436173743a2076616c756520646f65736e27742066697420696e203360448201526532206269747360d01b6064820152608490fd5b6020818303126103205780516001600160401b039182821161032057019082601f830112156103205781519081116115035760405192612414601f8301601f19166020018561153e565b818452602082840101116103205761024591602080850191016101ec565b90816020910312610320575190565b1561244857565b60405162461bcd60e51b815260206004820152603060248201527f4552433230566f7465733a20746f74616c20737570706c79207269736b73206f60448201526f766572666c6f77696e6720766f74657360801b6064820152608490fd5b906001600160a01b0382168015612526576002548281018091116105905761252293612507926124d68593600255565b6124df826111e1565b80548401905560405183815260009060008051602061276383398151915290602090a3612681565b60025461251d906001600160e01b031015612441565b611a9e565b5050565b60405162461bcd60e51b815260206004820152601f60248201527f45524332303a206d696e7420746f20746865207a65726f2061646472657373006044820152606490fd5b6001600160a01b038116919082156125db578181600061252295836125926125d6966111e1565b5461259f8282101561262a565b036125a9846111e1565b556125b78460025403600255565b60405184815260008051602061276383398151915290602090a36126ba565b611b7f565b60405162461bcd60e51b815260206004820152602160248201527f45524332303a206275726e2066726f6d20746865207a65726f206164647265736044820152607360f81b6064820152608490fd5b1561263157565b60405162461bcd60e51b815260206004820152602260248201527f45524332303a206275726e20616d6f756e7420657863656564732062616c616e604482015261636560f01b6064820152608490fd5b6009602052600080516020612743833981519152546001600160a01b039182166000908152604090205461135f93929081169116611749565b6001600160a01b039081166000908152600960205260408120549080526000805160206127438339815191525461135f93929081169116611749565b6001600160a01b0390811660009081526009602052604080822054938316825290205461135f93929082169116611749565b9081039081116105905790565b908101809111610590579056feec8156718a8372b1db44bb411437d0870f3e3790d4a08526d024ce1b0b668f6bddf252ad1be2c89b69c2b068fc378daa952ba7f163c4a11628f55a4df523b3efdec2bacdd2f05b59de34da9b523dff8be42e5e38e818c82fdb0bae774387a724a26469706673582212205a28dbf85bed62c19d1149c57f1c8e327e26ade6df9c2bd725c5742c89331b0b64736f6c63430008130033",
  "devdoc": {
    "events": {
      "Approval(address,address,uint256)": {
        "details": "Emitted when the allowance of a `spender` for an `owner` is set by a call to {approve}. `value` is the new allowance."
      },
      "DelegateChanged(address,address,address)": {
        "details": "Emitted when an account changes their delegate."
      },
      "DelegateVotesChanged(address,uint256,uint256)": {
        "details": "Emitted when a token transfer or delegate change results in changes to a delegate's number of votes."
      },
      "EIP712DomainChanged()": {
        "details": "MAY be emitted to signal that the domain could have changed."
      },
      "Transfer(address,address,uint256)": {
        "details": "Emitted when `value` tokens are moved from one account (`from`) to another (`to`). Note that `value` may be zero."
      }
    },
    "kind": "dev",
    "methods": {
      "CLOCK_MODE()": {
        "details": "Description of the clock"
      },
      "DOMAIN_SEPARATOR()": {
        "details": "See {IERC20Permit-DOMAIN_SEPARATOR}."
      },
      "allowance(address,address)": {
        "details": "See {IERC20-allowance}."
      },
      "approve(address,uint256)": {
        "details": "See {IERC20-approve}. NOTE: If `amount` is the maximum `uint256`, the allowance is not updated on `transferFrom`. This is semantically equivalent to an infinite approval. Requirements: - `spender` cannot be the zero address."
      },
      "balanceOf(address)": {
        "details": "See {IERC20-balanceOf}."
      },
      "checkpoints(address,uint32)": {
        "details": "Get the `pos`-th checkpoint for `account`."
      },
      "clock()": {
        "details": "Clock used for flagging checkpoints. Can be overridden to implement timestamp based checkpoints (and voting)."
      },
      "decreaseAllowance(address,uint256)": {
        "details": "Atomically decreases the allowance granted to `spender` by the caller. This is an alternative to {approve} that can be used as a mitigation for problems described in {IERC20-approve}. Emits an {Approval} event indicating the updated allowance. Requirements: - `spender` cannot be the zero address. - `spender` must have allowance for the caller of at least `subtractedValue`."
      },
      "delegate(address)": {
        "details": "Delegate votes from the sender to `delegatee`."
      },
      "delegateBySig(address,uint256,uint256,uint8,bytes32,bytes32)": {
        "details": "Delegates votes from signer to `delegatee`"
      },
      "delegates(address)": {
        "details": "Get the address `account` is currently delegating to."
      },
      "eip712Domain()": {
        "details": "See {EIP-5267}. _Available since v4.9._"
      },
      "getPastTotalSupply(uint256)": {
        "details": "Retrieve the `totalSupply` at the end of `timepoint`. Note, this value is the sum of all balances. It is NOT the sum of all the delegated votes! Requirements: - `timepoint` must be in the past"
      },
      "getPastVotes(address,uint256)": {
        "details": "Retrieve the number of votes for `account` at the end of `timepoint`. Requirements: - `timepoint` must be in the past"
      },
      "getVotes(address)": {
        "details": "Gets the current votes balance for `account`"
      },
      "increaseAllowance(address,uint256)": {
        "details": "Atomically increases the allowance granted to `spender` by the caller. This is an alternative to {approve} that can be used as a mitigation for problems described in {IERC20-approve}. Emits an {Approval} event indicating the updated allowance. Requirements: - `spender` cannot be the zero address."
      },
      "nonces(address)": {
        "details": "See {IERC20Permit-nonces}."
      },
      "numCheckpoints(address)": {
        "details": "Get number of checkpoints for `account`."
      },
      "permit(address,address,uint256,uint256,uint8,bytes32,bytes32)": {
        "details": "See {IERC20Permit-permit}."
      },
      "totalSupply()": {
        "details": "See {IERC20-totalSupply}."
      },
      "transfer(address,uint256)": {
        "details": "See {IERC20-transfer}. Requirements: - `to` cannot be the zero address. - the caller must have a balance of at least `amount`."
      },
      "transferFrom(address,address,uint256)": {
        "details": "See {IERC20-transferFrom}. Emits an {Approval} event indicating the updated allowance. This is not required by the EIP. See the note at the beginning of {ERC20}. NOTE: Does not update the allowance if the current allowance is the maximum `uint256`. Requirements: - `from` and `to` cannot be the zero address. - `from` must have a balance of at least `amount`. - the caller must have allowance for ``from``'s tokens of at least `amount`."
      }
    },
    "version": 1
  },
  "userdoc": {
    "kind": "user",
    "methods": {},
    "version": 1
  },
  "storageLayout": {
    "storage": [
      {
        "astId": 142,
        "contract": "contracts/notDiamonds/WrappedStakingLocus.sol:WrappedStakingLocus",
        "label": "_balances",
        "offset": 0,
        "slot": "0",
        "type": "t_mapping(t_address,t_uint256)"
      },
      {
        "astId": 148,
        "contract": "contracts/notDiamonds/WrappedStakingLocus.sol:WrappedStakingLocus",
        "label": "_allowances",
        "offset": 0,
        "slot": "1",
        "type": "t_mapping(t_address,t_mapping(t_address,t_uint256))"
      },
      {
        "astId": 150,
        "contract": "contracts/notDiamonds/WrappedStakingLocus.sol:WrappedStakingLocus",
        "label": "_totalSupply",
        "offset": 0,
        "slot": "2",
        "type": "t_uint256"
      },
      {
        "astId": 152,
        "contract": "contracts/notDiamonds/WrappedStakingLocus.sol:WrappedStakingLocus",
        "label": "_name",
        "offset": 0,
        "slot": "3",
        "type": "t_string_storage"
      },
      {
        "astId": 154,
        "contract": "contracts/notDiamonds/WrappedStakingLocus.sol:WrappedStakingLocus",
        "label": "_symbol",
        "offset": 0,
        "slot": "4",
        "type": "t_string_storage"
      },
      {
        "astId": 2808,
        "contract": "contracts/notDiamonds/WrappedStakingLocus.sol:WrappedStakingLocus",
        "label": "_nameFallback",
        "offset": 0,
        "slot": "5",
        "type": "t_string_storage"
      },
      {
        "astId": 2810,
        "contract": "contracts/notDiamonds/WrappedStakingLocus.sol:WrappedStakingLocus",
        "label": "_versionFallback",
        "offset": 0,
        "slot": "6",
        "type": "t_string_storage"
      },
      {
        "astId": 814,
        "contract": "contracts/notDiamonds/WrappedStakingLocus.sol:WrappedStakingLocus",
        "label": "_nonces",
        "offset": 0,
        "slot": "7",
        "type": "t_mapping(t_address,t_struct(Counter)1786_storage)"
      },
      {
        "astId": 822,
        "contract": "contracts/notDiamonds/WrappedStakingLocus.sol:WrappedStakingLocus",
        "label": "_PERMIT_TYPEHASH_DEPRECATED_SLOT",
        "offset": 0,
        "slot": "8",
        "type": "t_bytes32"
      },
      {
        "astId": 989,
        "contract": "contracts/notDiamonds/WrappedStakingLocus.sol:WrappedStakingLocus",
        "label": "_delegates",
        "offset": 0,
        "slot": "9",
        "type": "t_mapping(t_address,t_address)"
      },
      {
        "astId": 995,
        "contract": "contracts/notDiamonds/WrappedStakingLocus.sol:WrappedStakingLocus",
        "label": "_checkpoints",
        "offset": 0,
        "slot": "10",
        "type": "t_mapping(t_address,t_array(t_struct(Checkpoint)980_storage)dyn_storage)"
      },
      {
        "astId": 999,
        "contract": "contracts/notDiamonds/WrappedStakingLocus.sol:WrappedStakingLocus",
        "label": "_totalSupplyCheckpoints",
        "offset": 0,
        "slot": "11",
        "type": "t_array(t_struct(Checkpoint)980_storage)dyn_storage"
      },
      {
        "astId": 6376,
        "contract": "contracts/notDiamonds/WrappedStakingLocus.sol:WrappedStakingLocus",
        "label": "locusStakingDiamond",
        "offset": 0,
        "slot": "12",
        "type": "t_contract(ILSLoupeFacet)6178"
      },
      {
        "astId": 6379,
        "contract": "contracts/notDiamonds/WrappedStakingLocus.sol:WrappedStakingLocus",
        "label": "locusDiamond",
        "offset": 0,
        "slot": "13",
        "type": "t_contract(IERC20Metadata)1722"
      }
    ],
    "types": {
      "t_address": {
        "encoding": "inplace",
        "label": "address",
        "numberOfBytes": "20"
      },
      "t_array(t_struct(Checkpoint)980_storage)dyn_storage": {
        "base": "t_struct(Checkpoint)980_storage",
        "encoding": "dynamic_array",
        "label": "struct ERC20Votes.Checkpoint[]",
        "numberOfBytes": "32"
      },
      "t_bytes32": {
        "encoding": "inplace",
        "label": "bytes32",
        "numberOfBytes": "32"
      },
      "t_contract(IERC20Metadata)1722": {
        "encoding": "inplace",
        "label": "contract IERC20Metadata",
        "numberOfBytes": "20"
      },
      "t_contract(ILSLoupeFacet)6178": {
        "encoding": "inplace",
        "label": "contract ILSLoupeFacet",
        "numberOfBytes": "20"
      },
      "t_mapping(t_address,t_address)": {
        "encoding": "mapping",
        "key": "t_address",
        "label": "mapping(address => address)",
        "numberOfBytes": "32",
        "value": "t_address"
      },
      "t_mapping(t_address,t_array(t_struct(Checkpoint)980_storage)dyn_storage)": {
        "encoding": "mapping",
        "key": "t_address",
        "label": "mapping(address => struct ERC20Votes.Checkpoint[])",
        "numberOfBytes": "32",
        "value": "t_array(t_struct(Checkpoint)980_storage)dyn_storage"
      },
      "t_mapping(t_address,t_mapping(t_address,t_uint256))": {
        "encoding": "mapping",
        "key": "t_address",
        "label": "mapping(address => mapping(address => uint256))",
        "numberOfBytes": "32",
        "value": "t_mapping(t_address,t_uint256)"
      },
      "t_mapping(t_address,t_struct(Counter)1786_storage)": {
        "encoding": "mapping",
        "key": "t_address",
        "label": "mapping(address => struct Counters.Counter)",
        "numberOfBytes": "32",
        "value": "t_struct(Counter)1786_storage"
      },
      "t_mapping(t_address,t_uint256)": {
        "encoding": "mapping",
        "key": "t_address",
        "label": "mapping(address => uint256)",
        "numberOfBytes": "32",
        "value": "t_uint256"
      },
      "t_string_storage": {
        "encoding": "bytes",
        "label": "string",
        "numberOfBytes": "32"
      },
      "t_struct(Checkpoint)980_storage": {
        "encoding": "inplace",
        "label": "struct ERC20Votes.Checkpoint",
        "members": [
          {
            "astId": 977,
            "contract": "contracts/notDiamonds/WrappedStakingLocus.sol:WrappedStakingLocus",
            "label": "fromBlock",
            "offset": 0,
            "slot": "0",
            "type": "t_uint32"
          },
          {
            "astId": 979,
            "contract": "contracts/notDiamonds/WrappedStakingLocus.sol:WrappedStakingLocus",
            "label": "votes",
            "offset": 4,
            "slot": "0",
            "type": "t_uint224"
          }
        ],
        "numberOfBytes": "32"
      },
      "t_struct(Counter)1786_storage": {
        "encoding": "inplace",
        "label": "struct Counters.Counter",
        "members": [
          {
            "astId": 1785,
            "contract": "contracts/notDiamonds/WrappedStakingLocus.sol:WrappedStakingLocus",
            "label": "_value",
            "offset": 0,
            "slot": "0",
            "type": "t_uint256"
          }
        ],
        "numberOfBytes": "32"
      },
      "t_uint224": {
        "encoding": "inplace",
        "label": "uint224",
        "numberOfBytes": "28"
      },
      "t_uint256": {
        "encoding": "inplace",
        "label": "uint256",
        "numberOfBytes": "32"
      },
      "t_uint32": {
        "encoding": "inplace",
        "label": "uint32",
        "numberOfBytes": "4"
      }
    }
  }
}